0053035480999991943070102004+52467+000950FM-12+004699999V0200501N00461220001CN0100001N9+99999+99999999999ADDAY121999GA1001+999999999GF108991081051004501999999
0053035480999991943070103004+52467+000950FM-12+004699999V0200501N00461220001CN0100001N9+99999+99999999999ADDAY121999GA1001+999999999GF108991081051004501999999
0053035480999991943070104004+52467+000950FM-12+004699999V0200501N00461220001CN0100001N9+99999+99999999999ADDAY121999GA1001+999999999GF108991081051004501999999
0053035480999991943070105004+52467+000950FM-12+004699999V0200701N00461220001CN0100001N9+99999+99999999999ADDAY121999GA1001+999999999GF108991081051004501999999
0053035480999991943070106004+52467+000950FM-12+004699999V0200501N00671220001CN0100001N9+99999+99999999999ADDAY121999GA1001+999999999GF108991081051004501999999
0053035480999991943070107004+52467+000950FM-12+004699999V0200501N00671220001CN0100001N9+99999+99999999999ADDAY121999GA1051+999999999GF108991081051004501999999
0053035480999991943070108004+52467+000950FM-12+004699999V0200501N00671220001CN0100001N9+99999+99999999999ADDAY121999GA1051+999999999GF108991081051004501999999
0072035480999991943070109004+52467+000950FM-12+004699999V0200501N00671220001CN0100001N9+99999+99999999999ADDAY121999GA1081+999999999GF199999071051004501999999EQDQ01+000072SCOTCV
0072035480999991943070110004+52467+000950FM-12+004699999V0200501N00671220001CN0100001N9+99999+99999999999ADDAY121999GA1081+999999999GF199999071051004501999999EQDQ01+000072SCOTCV
0072035480999991943070111004+52467+000950FM-12+004699999V0200501N00671220001CN0100001N9+99999+99999999999ADDAY121999GA1081+999999999GF199999071051004501999999EQDQ01+000072SCOTCV
0072035480999991943070112004+52467+000950FM-12+004699999V0200501N00671220001CN0100001N9+99999+99999999999ADDAY121999GA1081+999999999GF199999071051004501999999EQDQ01+000072SCOTCV
0072035480999991943070113004+52467+000950FM-12+004699999V0200501N00461220001CN0100001N9+99999+99999999999ADDAY121999GA1081+999999999GF199999071051004501999999EQDQ01+000072SCOTCV
0072035480999991943070114004+52467+000950FM-12+004699999V0200501N00671220001CN0100001N9+99999+99999999999ADDAY121999GA1081+999999999GF199999071011004501999999EQDQ01+000072SCOTCV
0072035480999991943070115004+52467+000950FM-12+004699999V0200501N00671220001CN0100001N9+99999+99999999999ADDAY121999GA1081+999999999GF199999061011004501999999EQDQ01+000062SCOTCV
0072035480999991943070116004+52467+000950FM-12+004699999V0200501N00671220001CN0100001N9+99999+99999999999ADDAY121999GA1081+999999999GF199999061011004501999999EQDQ01+000062SCOTCV
0053035480999991943070117004+52467+000950FM-12+004699999V0200501N00671220001CN0100001N9+99999+99999999999ADDAY121999GA1001+999999999GF106991061011008001999999
0053035480999991943070118004+52467+000950FM-12+004699999V0200501N00671220001CN0100001N9+99999+99999999999ADDAY121999GA1001+999999999GF106991061011008001999999
0053035480999991943070119004+52467+000950FM-12+004699999V0200501N00671220001CN0100001N9+99999+99999999999ADDAY121999GA1001+999999999GF106991061051008001999999
0059035480999991943070120004+52467+000950FM-12+004699999V0200501N00671220001CN0040001N9+99999+99999999999ADDAY121999GA1001+999999999GF107991071051008001999999MW1051
0078035480999991943070121004+52467+000950FM-12+004699999V0200501N00671220001CN0040001N9+99999+99999999999ADDAY121999GA1081+999999999GF199999071051004501999999MW1051EQDQ01+000072SCOTCV
0059035480999991943070122004+52467+000950FM-12+004699999V0200201N00261220001CN0040001N9+99999+99999999999ADDAY121999GA1071+999999999GF107991071051004501999999MW1051
0059035480999991943070123004+52467+000950FM-12+004699999V0200501N00461220001CN0040001N9+99999+99999999999ADDAY121999GA1051+999999999GF107991071051004501999999MW1051
0059035480999991943070124004+52467+000950FM-12+004699999V0200501N00461220001CN0040001N9+99999+99999999999ADDAY121999GA1001+999999999GF108991081051004501999999MW1051
0072035480999991943070201004+52467+000950FM-12+004699999V0200501N00461220001CN0040001N9+99999+99999999999ADDAY121999GA1091+999999999GF109991081051002501999999EQDQ01+000082SCOTCV
0072035480999991943070202004+52467+000950FM-12+004699999V0200201N00461220001CN0040001N9+99999+99999999999ADDAY121999GA1091+999999999GF109991081051002501999999EQDQ01+000082SCOTCV
0059035480999991943070203004+52467+000950FM-12+004699999V0200501N00461220001CN0040001N9+99999+99999999999ADDAY121999GA1081+999999999GF108991081051002501999999MW1051
0059035480999991943070204004+52467+000950FM-12+004699999V0200201N00461220001CN0040001N9+99999+99999999999ADDAY121999GA1081+999999999GF108991081051002501999999MW1051
0078035480999991943070205004+52467+000950FM-12+004699999V0200201N00261220001CN0040001N9+99999+99999999999ADDAY121999GA1091+999999999GF109991081051002501999999MW1051EQDQ01+000082SCOTCV
0072035480999991943070206004+52467+000950FM-12+004699999V0200201N00461220001CN0100001N9+99999+99999999999ADDAY121999GA1091+999999999GF109991081051002501999999EQDQ01+000082SCOTCV
0053035480999991943070207004+52467+000950FM-12+004699999V0200201N00461220001CN0100001N9+99999+99999999999ADDAY121999GA1001+999999999GF108991081051004501999999
0072035480999991943070208004+52467+000950FM-12+004699999V0200201N00461220001CN0100001N9+99999+99999999999ADDAY121999GA1091+999999999GF109991081051002501999999EQDQ01+000082SCOTCV
0053035480999991943070209004+52467+000950FM-12+004699999V0203401N00461220001CN0100001N9+99999+99999999999ADDAY121999GA1021+999999999GF108991081051004501999999
0053035480999991943070210004+52467+000950FM-12+004699999V0200201N00461220001CN0100001N9+99999+99999999999ADDAY121999GA1021+999999999GF108991081051004501999999
0053035480999991943070211004+52467+000950FM-12+004699999V0203601N00461220001CN0100001N9+99999+99999999999ADDAY121999GA1021+999999999GF107991071051004501999999
0037035480999991943070212004+52467+000950FM-12+004699999V0203401N00461220001CN0200001N9+99999+99999999999ADDAY121999GF104991021011008001041999
0037035480999991943070213004+52467+000950FM-12+004699999V0203601N00461220001CN0200001N9+99999+99999999999ADDAY111999GF104991021011008001041999
0037035480999991943070214004+52467+000950FM-12+004699999V0203601N00461220001CN0200001N9+99999+99999999999ADDAY111999GF104991041011008001001999
0037035480999991943070215004+52467+000950FM-12+004699999V0203401N00461220001CN0200001N9+99999+99999999999ADDAY111999GF102991021011008001001999
0037035480999991943070216004+52467+000950FM-12+004699999V0203401N00461220001CN0200001N9+99999+99999999999ADDAY111999GF101991001001999999001999
0037035480999991943070217004+52467+000950FM-12+004699999V0200201N00461220001CN0200001N9+99999+99999999999ADDAY101999GF104991001001999999001999
0037035480999991943070218004+52467+000950FM-12+004699999V0200501N00461220001CN0200001N9+99999+99999999999ADDAY101999GF102991001001999999001999
0037035480999991943070219004+52467+000950FM-12+004699999V0203601N00461220001CN0200001N9+99999+99999999999ADDAY101999GF102991001001999999001999
0037035480999991943070220004+52467+000950FM-12+004699999V0203601N00671220001CN0100001N9+99999+99999999999ADDAY101999GF102991001001999999001999
0043035480999991943070221004+52467+000950FM-12+004699999V0203601N00461220001CN0040001N9+99999+99999999999ADDAY101999GF104991041051004501001999MW1051
0043035480999991943070222004+52467+000950FM-12+004699999V0203601N00461004501CN0040001N9+99999+99999999999ADDAY111999GF108991081051004501999999MW1051
0043035480999991943070223004+52467+000950FM-12+004699999V0203601N00461002401CN0040001N9+99999+99999999999ADDAY121999GF108991081051002501999999MW1051
0059035480999991943070224004+52467+000950FM-12+004699999V0203601N00461220001CN0040001N9+99999+99999999999ADDAY121999GA1071+999999999GF108991081051002501999999MW1051
0078035480999991943070301004+52467+000950FM-12+004699999V0203601N00461220001CN0040001N9+99999+99999999999ADDAY121999GA1091+999999999GF109991081051002501999999MW1051EQDQ01+000082SCOTCV
0078035480999991943070302004+52467+000950FM-12+004699999V0203601N00671220001CN0040001N9+99999+99999999999ADDAY121999GA1091+999999999GF109991081051002501999999MW1051EQDQ01+000082SCOTCV
0078035480999991943070303004+52467+000950FM-12+004699999V0203601N00461220001CN0040001N9+99999+99999999999ADDAY121999GA1091+999999999GF109991081051002501999999MW1051EQDQ01+000082SCOTCV
0078035480999991943070304004+52467+000950FM-12+004699999V0203601N00461220001CN0040001N9+99999+99999999999ADDAY121999GA1091+999999999GF109991081051002501999999MW1051EQDQ01+000082SCOTCV
0078035480999991943070305004+52467+000950FM-12+004699999V0203601N00261220001CN0040001N9+99999+99999999999ADDAY121999GA1091+999999999GF109991081051002501999999MW1051EQDQ01+000082SCOTCV
0059035480999991943070306004+52467+000950FM-12+004699999V0203601N00261220001CN0040001N9+99999+99999999999ADDAY121999GA1021+999999999GF108991081051004501999999MW1051
0037035480999991943070307004+52467+000950FM-12+004699999V0203601N00461007801CN0100001N9+99999+99999999999ADDAY121999GF107991071051008001999999
0037035480999991943070308004+52467+000950FM-12+004699999V0203601N00461007801CN0100001N9+99999+99999999999ADDAY121999GF108991081051008001999999
0037035480999991943070309004+52467+000950FM-12+004699999V0203601N00461007801CN0100001N9+99999+99999999999ADDAY121999GF107991071051008001999999
0037035480999991943070310004+52467+000950FM-12+004699999V0203401N00671220001CN0100001N9+99999+99999999999ADDAY121999GF104991041051008001001999
0037035480999991943070311004+52467+000950FM-12+004699999V0203401N00461220001CN0100001N9+99999+99999999999ADDAY111999GF104991041011008001001999
0037035480999991943070312004+52467+000950FM-12+004699999V0203401N00461220001CN0100001N9+99999+99999999999ADDAY111999GF104991021011008001001999
0037035480999991943070313004+52467+000950FM-12+004699999V0203601N00461220001CN0100001N9+99999+99999999999ADDAY111999GF104991011011008001001999
0037035480999991943070314004+52467+000950FM-12+004699999V0203601N00461220001CN0100001N9+99999+99999999999ADDAY111999GF104991011011008001001999
0037035480999991943070315004+52467+000950FM-12+004699999V0203601N00461220001CN0100001N9+99999+99999999999ADDAY111999GF104991001001999999001999
0037035480999991943070316004+52467+000950FM-12+004699999V0203601N00461220001CN0100001N9+99999+99999999999ADDAY111999GF104991001001999999001999
0037035480999991943070317004+52467+000950FM-12+004699999V0203601N00461220001CN0100001N9+99999+99999999999ADDAY111999GF104991001001999999001999
0037035480999991943070318004+52467+000950FM-12+004699999V0203601N00261220001CN0100001N9+99999+99999999999ADDAY111999GF104991001001999999001999
0037035480999991943070319004+52467+000950FM-12+004699999V0203601N00461220001CN0200001N9+99999+99999999999ADDAY111999GF104991001001999999001999
0037035480999991943070320004+52467+000950FM-12+004699999V0203601N00261220001CN0200001N9+99999+99999999999ADDAY111999GF104991001001999999001999
0037035480999991943070321004+52467+000950FM-12+004699999V0200201N00261220001CN0200001N9+99999+99999999999ADDAY111999GF104991001001999999001999
0037035480999991943070322004+52467+000950FM-12+004699999V0201401N00261220001CN0200001N9+99999+99999999999ADDAY111999GF104991001001999999001999
0037035480999991943070323004+52467+000950FM-12+004699999V0201101N00261220001CN0200001N9+99999+99999999999ADDAY111999GF104991001001999999001999
0037035480999991943070324004+52467+000950FM-12+004699999V0201801N00261220001CN0200001N9+99999+99999999999ADDAY111999GF104991001001999999001999
0037035480999991943070401004+52467+000950FM-12+004699999V0201801N00261220001CN0200001N9+99999+99999999999ADDAY111999GF104991001001999999001999
0037035480999991943070402004+52467+000950FM-12+004699999V0201801N00671220001CN0100001N9+99999+99999999999ADDAY111999GF104991001001999999001999
0043035480999991943070403004+52467+000950FM-12+004699999V0202001N00261220001CN0040001N9+99999+99999999999ADDAY111999GF104991001001999999001999MW1051
0043035480999991943070404004+52467+000950FM-12+004699999V0202301N00261220001CN0040001N9+99999+99999999999ADDAY111999GF104991001001999999001999MW1051
0043035480999991943070405004+52467+000950FM-12+004699999V0202301N00261007801CN0040001N9+99999+99999999999ADDAY111999GF108991081051008001999999MW1051
0043035480999991943070406004+52467+000950FM-12+004699999V0202701N00261007801CN0040001N9+99999+99999999999ADDAY121999GF108991081051008001999999MW1051
0043035480999991943070407004+52467+000950FM-12+004699999V0202701N00461220001CN0040001N9+99999+99999999999ADDAY111999GF106991001001999999001999MW1051
0043035480999991943070408004+52467+000950FM-12+004699999V0202901N00461220001CN0040001N9+99999+99999999999ADDAY111999GF106991001001999999001999MW1051
0043035480999991943070409004+52467+000950FM-12+004699999V0202901N00461220001CN0040001N9+99999+99999999999ADDAY111999GF104991001001999999071999MW1051
0043035480999991943070410004+52467+000950FM-12+004699999V0202901N00461220001CN0040001N9+99999+99999999999ADDAY111999GF104991001001999999071999MW1051
0043035480999991943070411004+52467+000950FM-12+004699999V0203201N004619999999N0040001N9+99999+99999999999ADDAY111999GF106991041051017501071999MW1051
0043035480999991943070412004+52467+000950FM-12+004699999V0202901N006719999999N0040001N9+99999+99999999999ADDAY111999GF106991041011008001071999MW1051
0043035480999991943070413004+52467+000950FM-12+004699999V0202901N00671007801CN0040001N9+99999+99999999999ADDAY111999GF107991061011008001031999MW1051
0043035480999991943070414004+52467+000950FM-12+004699999V0202901N00671007801CN0040001N9+99999+99999999999ADDAY111999GF106991061011008001071999MW1051
0043035480999991943070415004+52467+000950FM-12+004699999V0202901N00671007801CN0040001N9+99999+99999999999ADDAY111999GF106991061011008001071999MW1051
0043035480999991943070416004+52467+000950FM-12+004699999V0202901N00671007801CN0040001N9+99999+99999999999ADDAY111999GF106991061011008001071999MW1051
0043035480999991943070417004+52467+000950FM-12+004699999V0202901N00461007801CN0040001N9+99999+99999999999ADDAY111999GF108991061051008001999999MW1051
0043035480999991943070418004+52467+000950FM-12+004699999V0202901N00461007801CN0040001N9+99999+99999999999ADDAY121999GF108991081051008001999999MW1051
0043035480999991943070419004+52467+000950FM-12+004699999V0202901N00461007801CN0040001N9+99999+99999999999ADDAY121999GF108991081051008001999999MW1501
0043035480999991943070420004+52467+000950FM-12+004699999V0202901N00461007801CN0040001N9+99999+99999999999ADDAY121999GF108991081051008001999999MW1051
0062035480999991943070421004+52467+000950FM-12+004699999V0202901N00261007801CN0040001N9+99999+99999999999ADDAY121999GF108991999051008001031999MW1051EQDQ01+000082SCOTLC
0062035480999991943070422004+52467+000950FM-12+004699999V0202901N00261007801CN0040001N9+99999+99999999999ADDAY121999GF108991999051008001031999MW1051EQDQ01+000082SCOTLC
0043035480999991943070423004+52467+000950FM-12+004699999V0202901N00101007801CN0040001N9+99999+99999999999ADDAY121999GF108991081051008001999999MW1051
0043035480999991943070424004+52467+000950FM-12+004699999V0202901N00261220001CN0040001N9+99999+99999999999ADDAY121999GF107991001001999999071999MW1051
0043035480999991943070501004+52467+000950FM-12+004699999V0202701N00461220001CN0040001N9+99999+99999999999ADDAY111999GF104991001001999999071999MW1051
0043035480999991943070502004+52467+000950FM-12+004699999V0202701N00461220001CN0040001N9+99999+99999999999ADDAY111999GF104991001001999999071999MW1051
0043035480999991943070503004+52467+000950FM-12+004699999V0202701N00461220001CN0040001N9+99999+99999999999ADDAY111999GF104991001001999999071999MW1051
0043035480999991943070504004+52467+000950FM-12+004699999V0202701N00261220001CN0040001N9+99999+99999999999ADDAY111999GF102991001001999999071999MW1051
0043035480999991943070505004+52467+000950FM-12+004699999V0202901N00461220001CN0020001N9+99999+99999999999ADDAY111999GF102991001001999999071999MW1051
0043035480999991943070506004+52467+000950FM-12+004699999V0203201N00261220001CN0020001N9+99999+99999999999ADDAY111999GF101991001001999999071999MW1051
0043035480999991943070507004+52467+000950FM-12+004699999V0203201N00261220001CN0020001N9+99999+99999999999ADDAY111999GF107991001001999999071999MW1051
0043035480999991943070508004+52467+000950FM-12+004699999V0203201N00261220001CN0040001N9+99999+99999999999ADDAY121999GF107991001001999999071999MW1051
0043035480999991943070509004+52467+000950FM-12+004699999V0203201N00461220001CN0040001N9+99999+99999999999ADDAY121999GF107991001001999999071999MW1051
0043035480999991943070510004+52467+000950FM-12+004699999V0203201N00261220001CN0040001N9+99999+99999999999ADDAY121999GF107991001001999999071999MW1051
0043035480999991943070511004+52467+000950FM-12+004699999V0202901N002619999999N0040001N9+99999+99999999999ADDAY121999GF107991041051012501071999MW1051
0043035480999991943070512004+52467+000950FM-12+004699999V0202901N004619999999N0040001N9+99999+99999999999ADDAY121999GF107991041011008001071999MW1051
0043035480999991943070513004+52467+000950FM-12+004699999V0202901N004619999999N0040001N9+99999+99999999999ADDAY121999GF107991041011008001071999MW1051
0037035480999991943070514004+52467+000950FM-12+004699999V0202901N00461007801CN0100001N9+99999+99999999999ADDAY121999GF107991061021008001071999
0037035480999991943070515004+52467+000950FM-12+004699999V0202901N00461007801CN0100001N9+99999+99999999999ADDAY121999GF107991071021008001999999
0043035480999991943070516004+52467+000950FM-12+004699999V0202901N00461007801CN0040001N9+99999+99999999999ADDAY121999GF107991071021008001999999MW1051
0043035480999991943070517004+52467+000950FM-12+004699999V0202901N00671007801CN0040001N9+99999+99999999999ADDAY121999GF107991071021008001999999MW1051
0043035480999991943070518004+52467+000950FM-12+004699999V0202901N002619999999N0040001N9+99999+99999999999ADDAY111999GF107991041071012501999999MW1051
0043035480999991943070519004+52467+000950FM-12+004699999V0203201N00261012301CN0040001N9+99999+99999999999ADDAY111999GF106991061071012501999999MW1051
0037035480999991943070520004+52467+000950FM-12+004699999V0202901N00261012301CN0040001N9+99999+99999999999ADDAY111999GF106991061071012501999999
0037035480999991943070521004+52467+000950FM-12+004699999V0202901N00261012301CN0100001N9+99999+99999999999ADDAY121999GF107991071071012501999999
0037035480999991943070522004+52467+000950FM-12+004699999V0201101N00261007801CN0100001N9+99999+99999999999ADDAY121999GF107991071071008001999999
0043035480999991943070523004+52467+000950FM-12+004699999V0201601N00261004501CN0002001N9+99999+99999999999ADDAY121999GF107991071081004501999999MW1091
0037035480999991943070524004+52467+000950FM-12+004699999V0201601N00261004501CN0100001N9+99999+99999999999ADDAY121999GF107991071051004501071999
0059035480999991943070601004+52467+000950FM-12+004699999V0201601N00261220001CN0040001N9+99999+99999999999ADDAY121999GA1001+999999999GF108991081051012501999999MW1601
0059035480999991943070602004+52467+000950FM-12+004699999V0201401N01231220001CN0040001N9+99999+99999999999ADDAY121999GA1001+999999999GF104991041051012501001999MW1051
0043035480999991943070603004+52467+000950FM-12+004699999V0202501N00261220001CN0040001N9+99999+99999999999ADDAY111999GF100991001001999999001999MW1051
0043035480999991943070604004+52467+000950FM-12+004699999V0202001N00461220001CN0040001N9+99999+99999999999ADDAY101999GF102991001001999999071999MW1051
0043035480999991943070605004+52467+000950FM-12+004699999V0202501N00671220001CN0040001N9+99999+99999999999ADDAY111999GF102991001001999999071999MW1051
0043035480999991943070606004+52467+000950FM-12+004699999V0202501N00671220001CN0040001N9+99999+99999999999ADDAY111999GF102991001001999999071999MW1051
0043035480999991943070607004+52467+000950FM-12+004699999V0202701N00461220001CN0040001N9+99999+99999999999ADDAY111999GF102991001001999999071999MW1051
0043035480999991943070608004+52467+000950FM-12+004699999V0202701N00461012301CN0040001N9+99999+99999999999ADDAY111999GF106991061051012501999999MW1051
0043035480999991943070609004+52467+000950FM-12+004699999V0202701N00461220001CN0040001N9+99999+99999999999ADDAY111999GF104991021051012501031999MW1051
0043035480999991943070610004+52467+000950FM-12+004699999V0202701N00671220001CN0040001N9+99999+99999999999ADDAY111999GF106991001001999999031999MW1051
0037035480999991943070611004+52467+000950FM-12+004699999V0202701N006719999999N0100001N9+99999+99999999999ADDAY111999GF106991021011004501071999
0037035480999991943070612004+52467+000950FM-12+004699999V0202701N00671004501CN0100001N9+99999+99999999999ADDAY111999GF107991061021004501071999
0037035480999991943070613004+52467+000950FM-12+004699999V0202301N00671004501CN0100001N9+99999+99999999999ADDAY111999GF106991061021004501071999
0037035480999991943070614004+52467+000950FM-12+004699999V0202301N00671004501CN0100001N9+99999+99999999999ADDAY111999GF107991061021004501071999
0037035480999991943070615004+52467+000950FM-12+004699999V0202701N006719999999N0100001N9+99999+99999999999ADDAY111999GF106991041021004501071999
0037035480999991943070616004+52467+000950FM-12+004699999V0202301N00671004501CN0100001N9+99999+99999999999ADDAY111999GF108991071021004501071999
0037035480999991943070617004+52467+000950FM-12+004699999V0202701N00671004501CN0100001N9+99999+99999999999ADDAY121999GF107991061021004501071999
0037035480999991943070618004+52467+000950FM-12+004699999V0202701N00101015001CN0100001N9+99999+99999999999ADDAY121999GF107991061091017501091999
0043035480999991943070619004+52467+000950FM-12+004699999V0201801N00261004501CN0100001N9+99999+99999999999ADDAY121999GF107991061081004501071999MW1291
0037035480999991943070620004+52467+000950FM-12+004699999V0201801N00261004501CN0100001N9+99999+99999999999ADDAY121999GF107991061081004501071999
0062035480999991943070621004+52467+000950FM-12+004699999V0202901N00261004501CN0100001N9+99999+99999999999ADDAY121999GF108991999081004501071999MW1951EQDQ01+000082SCOTLC
0037035480999991943070622004+52467+000950FM-12+004699999V0202501N00461220001CN0100001N9+99999+99999999999ADDAY191999GF104991041031008001071999
0037035480999991943070623004+52467+000950FM-12+004699999V0202701N00461220001CN0100001N9+99999+99999999999ADDAY111999GF102991021041008001071999
0037035480999991943070624004+52467+000950FM-12+004699999V0202501N00261220001CN0002001N9+99999+99999999999ADDAY111999GF102991021001012501041999
0043035480999991943070701004+52467+000950FM-12+004699999V0202501N00461012301CN0040001N9+99999+99999999999ADDAY111999GF106991061041012501999999MW1051
0043035480999991943070702004+52467+000950FM-12+004699999V0202701N00671012301CN0040001N9+99999+99999999999ADDAY111999GF106991061041012501999999MW1051
0043035480999991943070703004+52467+000950FM-12+004699999V0202701N00671220001CN0040001N9+99999+99999999999ADDAY111999GF107991001001999999071999MW1051
0043035480999991943070704004+52467+000950FM-12+004699999V0202701N00671220001CN0040001N9+99999+99999999999ADDAY121999GF107991001001999999071999MW1051
0043035480999991943070705004+52467+000950FM-12+004699999V0202701N006719999999N0040001N9+99999+99999999999ADDAY121999GF106991021051008001071999MW1051
0043035480999991943070706004+52467+000950FM-12+004699999V0202701N004619999999N0040001N9+99999+99999999999ADDAY111999GF106991041051012501071999MW1051
0043035480999991943070707004+52467+000950FM-12+004699999V0202701N00461220001CN0040001N9+99999+99999999999ADDAY111999GF104991021051008001071999MW1051
0043035480999991943070708004+52467+000950FM-12+004699999V0202701N00671220001CN0040001N9+99999+99999999999ADDAY111999GF102991021051008001071999MW1051
0037035480999991943070709004+52467+000950FM-12+004699999V0202901N00671004501CN0100001N9+99999+99999999999ADDAY111999GF106991061021004501071999
0037035480999991943070710004+52467+000950FM-12+004699999V0202701N00671220001CN0100001N9+99999+99999999999ADDAY111999GF104991041021004501001999
0037035480999991943070711004+52467+000950FM-12+004699999V0202901N00671004501CN0100001N9+99999+99999999999ADDAY111999GF107991071021004501999999
0037035480999991943070712004+52467+000950FM-12+004699999V0202701N00671004501CN0100001N9+99999+99999999999ADDAY111999GF106991061021004501999999
0037035480999991943070713004+52467+000950FM-12+004699999V0202901N00671007801CN0100001N9+99999+99999999999ADDAY111999GF106991061021008001999999
0037035480999991943070714004+52467+000950FM-12+004699999V0203201N00671007801CN0100001N9+99999+99999999999ADDAY111999GF106991061021008001999999
0037035480999991943070715004+52467+000950FM-12+004699999V0203401N00671007801CN0100001N9+99999+99999999999ADDAY111999GF106991061021008001999999
0037035480999991943070716004+52467+000950FM-12+004699999V0202901N00671007801CN0100001N9+99999+99999999999ADDAY111999GF108991061021008001999999
0037035480999991943070717004+52467+000950FM-12+004699999V0202701N00671007801CN0100001N9+99999+99999999999ADDAY111999GF107991071021008001999999
0037035480999991943070718004+52467+000950FM-12+004699999V0202901N00671007801CN0100001N9+99999+99999999999ADDAY111999GF107991071021008001011999
0043035480999991943070719004+52467+000950FM-12+004699999V0202901N004619999999N0040001N9+99999+99999999999ADDAY121999GF107991021021012501021999MW1501
0043035480999991943070720004+52467+000950FM-12+004699999V0200501N004619999999N0040001N9+99999+99999999999ADDAY151999GF107991011021008001021999MW1051
0043035480999991943070721004+52467+000950FM-12+004699999V0200501N00101220001CN0040001N9+99999+99999999999ADDAY121999GF107991001001999999021999MW1051
0062035480999991943070722004+52467+000950FM-12+004699999V0203601N00261012301CN0040001N9+99999+99999999999ADDAY121999GF108991999021012501021999MW1801EQDQ01+000082SCOTLC
0062035480999991943070723004+52467+000950FM-12+004699999V0203601N00101012301CN0040001N9+99999+99999999999ADDAY181999GF108991999021012501021999MW1051EQDQ01+000082SCOTLC
0043035480999991943070724004+52467+000950FM-12+004699999V0202001N002619999999N0040001N9+99999+99999999999ADDAY121999GF107991011021012501021999MW1051
0043035480999991943070801004+52467+000950FM-12+004699999V0202501N002619999999N0040001N9+99999+99999999999ADDAY121999GF107991011051008001071999MW1051
0043035480999991943070802004+52467+000950FM-12+004699999V0202501N00261220001CN0040001N9+99999+99999999999ADDAY121999GF104991041051012501001999MW1051
0043035480999991943070803004+52467+000950FM-12+004699999V0202701N00261220001CN0040001N9+99999+99999999999ADDAY111999GF102991021051012501001999MW1051
0043035480999991943070804004+52467+000950FM-12+004699999V0202701N00261220001CN0040001N9+99999+99999999999ADDAY111999GF104991001001999999071999MW1051
0043035480999991943070805004+52467+000950FM-12+004699999V0202701N00261220001CN0020001N9+99999+99999999999ADDAY111999GF104991001001999999071999MW1051
0043035480999991943070806004+52467+000950FM-12+004699999V0202701N00261220001CN0020001N9+99999+99999999999ADDAY111999GF106991001001999999071999MW1051
0043035480999991943070807004+52467+000950FM-12+004699999V0202701N00461220001CN0020001N9+99999+99999999999ADDAY111999GF106991001001999999071999MW1051
0043035480999991943070808004+52467+000950FM-12+004699999V0202701N00461220001CN0020001N9+99999+99999999999ADDAY111999GF106991001001999999071999MW1051
0043035480999991943070809004+52467+000950FM-12+004699999V0202901N00461220001CN0040001N9+99999+99999999999ADDAY111999GF104991001001999999071999MW1051
0037035480999991943070810004+52467+000950FM-12+004699999V0203201N00461220001CN0100001N9+99999+99999999999ADDAY111999GF104991021011008001071999
0037035480999991943070811004+52467+000950FM-12+004699999V0202901N004619999999N0100001N9+99999+99999999999ADDAY111999GF106991021011008001999999
0037035480999991943070812004+52467+000950FM-12+004699999V0202901N00261004501CN0100001N9+99999+99999999999ADDAY111999GF106991061021004501999999
0037035480999991943070813004+52467+000950FM-12+004699999V0202901N00461007801CN0100001N9+99999+99999999999ADDAY111999GF106991061021008001999999
0037035480999991943070814004+52467+000950FM-12+004699999V0200201N00671007801CN0100001N9+99999+99999999999ADDAY111999GF107991071021008001999999
0037035480999991943070815004+52467+000950FM-12+004699999V0200201N004619999999N0100001N9+99999+99999999999ADDAY111999GF106991021021012501061999
0037035480999991943070816004+52467+000950FM-12+004699999V0200501N004619999999N0100001N9+99999+99999999999ADDAY111999GF106991021021012501081999
0037035480999991943070817004+52467+000950FM-12+004699999V0200501N00261220001CN0100001N9+99999+99999999999ADDAY111999GF104991011021008001081999
0037035480999991943070818004+52467+000950FM-12+004699999V0203201N001019999999N0100001N9+99999+99999999999ADDAY111999GF106991041021008001061999
0043035480999991943070819004+52467+000950FM-12+004699999V0202701N00671007801CN0040001N9+99999+99999999999ADDAY121999GF108991061031008001011999MW1171
0043035480999991943070820004+52467+000950FM-12+004699999V0202701N004619999999N0040001N9+99999+99999999999ADDAY191999GF108991041061008001071999MW1171
0043035480999991943070821004+52467+000950FM-12+004699999V0202701N004619999999N0040001N9+99999+99999999999ADDAY191999GF108991041061008001071999MW1051
0043035480999991943070822004+52467+000950FM-12+004699999V0202701N004619999999N0040001N9+99999+99999999999ADDAY121999GF108991021041012501071999MW1051
0043035480999991943070823004+52467+000950FM-12+004699999V0202701N004619999999N0040001N9+99999+99999999999ADDAY121999GF107991041051012501011999MW1051
0043035480999991943070824004+52467+000950FM-12+004699999V0202701N002619999999N0040001N9+99999+99999999999ADDAY121999GF108991041051012501011999MW1051
0043035480999991943070901004+52467+000950FM-12+004699999V0202701N004619999999N0040001N9+99999+99999999999ADDAY121999GF108991041051008001011999MW1051
0043035480999991943070902004+52467+000950FM-12+004699999V0202701N00461220001CN0040001N9+99999+99999999999ADDAY121999GF104991041051008001001999MW1051
0043035480999991943070903004+52467+000950FM-12+004699999V0202701N00461220001CN0040001N9+99999+99999999999ADDAY111999GF104991041051008001001999MW1051
0043035480999991943070904004+52467+000950FM-12+004699999V0202701N00461220001CN0040001N9+99999+99999999999ADDAY111999GF104991041051008001001999MW1051
0043035480999991943070905004+52467+000950FM-12+004699999V0202701N00461220001CN0040001N9+99999+99999999999ADDAY111999GF102991021051012501001999MW1051
0043035480999991943070906004+52467+000950FM-12+004699999V0202701N00261220001CN0040001N9+99999+99999999999ADDAY111999GF102991021051012501001999MW1051
0043035480999991943070907004+52467+000950FM-12+004699999V0202701N00461220001CN0040001N9+99999+99999999999ADDAY111999GF107991001001999999001999MW1051
0043035480999991943070908004+52467+000950FM-12+004699999V0202501N00461220001CN0040001N9+99999+99999999999ADDAY111999GF108991001001999999041999MW1051
0043035480999991943070909004+52467+000950FM-12+004699999V0202701N00461220001CN0040001N9+99999+99999999999ADDAY111999GF108991001001999999041999MW1051
0043035480999991943070910004+52467+000950FM-12+004699999V0202701N00461220001CN0040001N9+99999+99999999999ADDAY111999GF108991001001999999041999MW1051
0037035480999991943070911004+52467+000950FM-12+004699999V0202501N00461220001CN0100001N9+99999+99999999999ADDAY111999GF108991001001999999031999
0037035480999991943070912004+52467+000950FM-12+004699999V0202501N004619999999N0100001N9+99999+99999999999ADDAY111999GF108991041011012501031999
0037035480999991943070913004+52467+000950FM-12+004699999V0202501N006719999999N0100001N9+99999+99999999999ADDAY121999GF108991021011008001021999
0043035480999991943070914004+52467+000950FM-12+004699999V0202501N004619999999N0040001N9+99999+99999999999ADDAY181999GF108991041011008001021999MW1251
0043035480999991943070915004+52467+000950FM-12+004699999V0202301N006719999999N0040001N9+99999+99999999999ADDAY181999GF108991041061004501021999MW1801
0043035480999991943070916004+52467+000950FM-12+004699999V0202301N004619999999N0020001N9+99999+99999999999ADDAY181999GF108991041061002501021999MW1801
0043035480999991943070917004+52467+000950FM-12+004699999V0202301N00461004501CN0020001N9+99999+99999999999ADDAY181999GF108991071061004501021999MW1581
0043035480999991943070918004+52467+000950FM-12+004699999V0202501N00461002401CN0020001N9+99999+99999999999ADDAY161999GF108991081051002501999999MW1531
0043035480999991943070919004+52467+000950FM-12+004699999V0202501N00461002401CN0020001N9+99999+99999999999ADDAY151999GF108991081051002501999999MW1531
0037035480999991943070920004+52467+000950FM-12+004699999V0202701N00461002401CN0020001N9+99999+99999999999ADDAY151999GF107991071061002501999999
0043035480999991943070921004+52467+000950FM-12+004699999V0202701N002619999999N0040001N9+99999+99999999999ADDAY121999GF107991041081008001071999MW1051
0043035480999991943070922004+52467+000950FM-12+004699999V0202901N004619999999N0040001N9+99999+99999999999ADDAY121999GF107991041081008001071999MW1051
0043035480999991943070923004+52467+000950FM-12+004699999V0202701N00461007801CN0040001N9+99999+99999999999ADDAY121999GF107991071051008001999999MW1051
0043035480999991943070924004+52467+000950FM-12+004699999V0202701N00461220001CN0040001N9+99999+99999999999ADDAY121999GF107991001001999999071999MW1051
0043035480999991943071001004+52467+000950FM-12+004699999V0202901N00461220001CN0040001N9+99999+99999999999ADDAY121999GF102991001001999999071999MW1051
0043035480999991943071002004+52467+000950FM-12+004699999V0202701N00671220001CN0040001N9+99999+99999999999ADDAY121999GF104991041021008001001999MW1051
0043035480999991943071003004+52467+000950FM-12+004699999V0202901N00461220001CN0040001N9+99999+99999999999ADDAY121999GF104991041071012501001999MW1051
0043035480999991943071004004+52467+000950FM-12+004699999V0202901N00461220001CN0040001N9+99999+99999999999ADDAY121999GF102991021071012501001999MW1051
0043035480999991943071005004+52467+000950FM-12+004699999V0202701N00461220001CN0040001N9+99999+99999999999ADDAY121999GF101991011071012501001999MW1051
0043035480999991943071006004+52467+000950FM-12+004699999V0202701N00461220001CN0040001N9+99999+99999999999ADDAY121999GF104991001001999999001999MW1051
0043035480999991943071007004+52467+000950FM-12+004699999V0202701N00461220001CN0040001N9+99999+99999999999ADDAY121999GF104991001001999999041999MW1051
0043035480999991943071008004+52467+000950FM-12+004699999V0202701N00461220001CN0040001N9+99999+99999999999ADDAY111999GF104991001001999999051999MW1051
0037035480999991943071009004+52467+000950FM-12+004699999V0202901N00461220001CN0100001N9+99999+99999999999ADDAY111999GF108991001001999999001999
0037035480999991943071010004+52467+000950FM-12+004699999V0202701N00461220001CN0100001N9+99999+99999999999ADDAY121999GF108991001001999999001999
0037035480999991943071011004+52467+000950FM-12+004699999V0202701N00461220001CN0100001N9+99999+99999999999ADDAY121999GF108991001001999999011999
0037035480999991943071012004+52467+000950FM-12+004699999V0202701N00461220001CN0100001N9+99999+99999999999ADDAY121999GF108991001001999999011999
0043035480999991943071013004+52467+000950FM-12+004699999V0202701N004619999999N0100001N9+99999+99999999999ADDAY121999GF108991021011012501011999MW1501
0043035480999991943071014004+52467+000950FM-12+004699999V0202701N00261220001CN0100001N9+99999+99999999999ADDAY151999GF108991001001999999071999MW1611
0043035480999991943071015004+52467+000950FM-12+004699999V0202301N004619999999N0040001N9+99999+99999999999ADDAY161999GF108991041021008001011999MW1211
0043035480999991943071016004+52467+000950FM-12+004699999V0201601N00461007801CN0040001N9+99999+99999999999ADDAY121999GF108991061021008001011999MW1051
0043035480999991943071017004+52467+000950FM-12+004699999V0201601N00461007801CN0040001N9+99999+99999999999ADDAY121999GF108991061021008001011999MW1051
0043035480999991943071018004+52467+000950FM-12+004699999V0201601N00461004501CN0040001N9+99999+99999999999ADDAY121999GF108991061021004501011999MW1611
0043035480999991943071019004+52467+000950FM-12+004699999V0201801N00461004501CN0020001N9+99999+99999999999ADDAY161999GF108991081061004501999999MW1521
0043035480999991943071020004+52467+000950FM-12+004699999V0201801N00461002401CN0020001N9+99999+99999999999ADDAY151999GF108991081051002501999999MW1521
0043035480999991943071021004+52467+000950FM-12+004699999V0202001N00461002401CN0040001N9+99999+99999999999ADDAY151999GF108991081051002501999999MW1511
0043035480999991943071022004+52467+000950FM-12+004699999V0202001N00461002401CN0040001N9+99999+99999999999ADDAY151999GF108991081051002501999999MW1051
0043035480999991943071023004+52467+000950FM-12+004699999V0202001N00461002401CN0040001N9+99999+99999999999ADDAY121999GF108991081051002501999999MW1051
0043035480999991943071024004+52467+000950FM-12+004699999V0202301N00461002401CN0040001N9+99999+99999999999ADDAY121999GF108991081051002501999999MW1511
0043035480999991943071101004+52467+000950FM-12+004699999V0202501N00671004501CN0020001N9+99999+99999999999ADDAY151999GF108991081051004501999999MW1201
0037035480999991943071102004+52467+000950FM-12+004699999V0201401N00671007801CN0020001N9+99999+99999999999ADDAY121999GF108991081051008001999999
0037035480999991943071103004+52467+000950FM-12+004699999V0202501N00461007801CN0020001N9+99999+99999999999ADDAY121999GF107991061051008001011999
0043035480999991943071104004+52467+000950FM-12+004699999V0202701N006719999999N0020001N9+99999+99999999999ADDAY111999GF108991041051004501011999MW1601
0043035480999991943071105004+52467+000950FM-12+004699999V0202501N00671004501CN0020001N9+99999+99999999999ADDAY161999GF108991061051004501021999MW1601
0043035480999991943071106004+52467+000950FM-12+004699999V0202301N00461004501CN0020001N9+99999+99999999999ADDAY161999GF108991081051004501999999MW1601
0043035480999991943071107004+52467+000950FM-12+004699999V0202001N00671002401CN0010001N9+99999+99999999999ADDAY161999GF108991081061002501999999MW1611
0043035480999991943071108004+52467+000950FM-12+004699999V0202001N00461002401CN0010001N9+99999+99999999999ADDAY161999GF108991081061002501999999MW1211
0043035480999991943071109004+52467+000950FM-12+004699999V0202501N00461004501CN0020001N9+99999+99999999999ADDAY151999GF108991081061004501999999MW1501
0043035480999991943071110004+52467+000950FM-12+004699999V0202501N00461004501CN0040001N9+99999+99999999999ADDAY151999GF108991081051004501999999MW1201
0043035480999991943071111004+52467+000950FM-12+004699999V0202701N00931004501CN0040001N9+99999+99999999999ADDAY121999GF108991081051004501999999MW1051
0043035480999991943071112004+52467+000950FM-12+004699999V0202701N01231004501CN0040001N9+99999+99999999999ADDAY121999GF108991081051004501999999MW1051
0043035480999991943071113004+52467+000950FM-12+004699999V0202701N00931004501CN0040001N9+99999+99999999999ADDAY121999GF108991081051004501999999MW1051
0043035480999991943071114004+52467+000950FM-12+004699999V0202701N00931004501CN0040001N9+99999+99999999999ADDAY121999GF108991081051004501999999MW1051
0043035480999991943071115004+52467+000950FM-12+004699999V0202701N01231004501CN0040001N9+99999+99999999999ADDAY121999GF108991081051004501999999MW1051
0037035480999991943071116004+52467+000950FM-12+004699999V0202701N01231004501CN0100001N9+99999+99999999999ADDAY121999GF108991081071004501999999
0037035480999991943071117004+52467+000950FM-12+004699999V0202701N00931004501CN0100001N9+99999+99999999999ADDAY121999GF108991081071004501999999
0037035480999991943071118004+52467+000950FM-12+004699999V0202701N009319999999N0100001N9+99999+99999999999ADDAY121999GF106991041021004501071999
0037035480999991943071119004+52467+000950FM-12+004699999V0202701N00931004501CN0100001N9+99999+99999999999ADDAY121999GF107991061071004501071999
0043035480999991943071120004+52467+000950FM-12+004699999V0202701N00931004501CN0040001N9+99999+99999999999ADDAY121999GF107991061071004501031999MW1051
0043035480999991943071121004+52467+000950FM-12+004699999V0202701N009319999999N0040001N9+99999+99999999999ADDAY121999GF107991041051004501071999MW1051
0043035480999991943071122004+52467+000950FM-12+004699999V0202301N006719999999N0040001N9+99999+99999999999ADDAY121999GF108991041051004501071999MW1051
0043035480999991943071123004+52467+000950FM-12+004699999V0202301N006719999999N0040001N9+99999+99999999999ADDAY121999GF108991041051004501999999MW1501
0043035480999991943071124004+52467+000950FM-12+004699999V0202501N006719999999N0040001N9+99999+99999999999ADDAY151999GF108991041051004501999999MW1601
0043035480999991943071201004+52467+000950FM-12+004699999V0202001N004619999999N0040001N9+99999+99999999999ADDAY161999GF108991041061004501021999MW1601
0037035480999991943071202004+52467+000950FM-12+004699999V0202301N00671004501CN0100001N9+99999+99999999999ADDAY161999GF108991061061004501999999
0037035480999991943071203004+52467+000950FM-12+004699999V0202301N00671004501CN0100001N9+99999+99999999999ADDAY121999GF108991061061004501999999
0043035480999991943071204004+52467+000950FM-12+004699999V0202501N00931004501CN0100001N9+99999+99999999999ADDAY121999GF108991061061004501999999MW1601
0037035480999991943071205004+52467+000950FM-12+004699999V0202501N00671004501CN0100001N9+99999+99999999999ADDAY121999GF108991061061004501999999
0037035480999991943071206004+52467+000950FM-12+004699999V0202501N00931004501CN0100001N9+99999+99999999999ADDAY121999GF108991071061004501999999
0037035480999991943071207004+52467+000950FM-12+004699999V0202001N00671004501CN0100001N9+99999+99999999999ADDAY121999GF108991071061004501999999
0043035480999991943071208004+52467+000950FM-12+004699999V0202501N00931004501CN0040001N9+99999+99999999999ADDAY121999GF108991081061004501999999MW1051
0043035480999991943071209004+52467+000950FM-12+004699999V0202501N00931004501CN0040001N9+99999+99999999999ADDAY121999GF108991081061004501999999MW1611
0043035480999991943071210004+52467+000950FM-12+004699999V0202501N00931002401CN0040001N9+99999+99999999999ADDAY151999GF108991081051002501999999MW1501
0043035480999991943071211004+52467+000950FM-12+004699999V0202501N00671004501CN0100001N9+99999+99999999999ADDAY151999GF107991071051004501031999MW1501
0037035480999991943071212004+52467+000950FM-12+004699999V0202701N009319999999N0200001N9+99999+99999999999ADDAY151999GF107991021081004501071999
0037035480999991943071213004+52467+000950FM-12+004699999V0202701N009319999999N0200001N9+99999+99999999999ADDAY121999GF106991041021004501061999
0037035480999991943071214004+52467+000950FM-12+004699999V0202501N009319999999N0200001N9+99999+99999999999ADDAY121999GF106991041021004501999999
0037035480999991943071215004+52467+000950FM-12+004699999V0202501N012319999999N0200001N9+99999+99999999999ADDAY121999GF107991041021004501999999
0037035480999991943071216004+52467+000950FM-12+004699999V0202301N012319999999N0200001N9+99999+99999999999ADDAY121999GF107991041021004501999999
0037035480999991943071217004+52467+000950FM-12+004699999V0202501N012319999999N0200001N9+99999+99999999999ADDAY121999GF108991041021004501021999
0037035480999991943071218004+52467+000950FM-12+004699999V0202701N009319999999N0200001N9+99999+99999999999ADDAY121999GF107991041011004501021999
0037035480999991943071219004+52467+000950FM-12+004699999V0202701N009319999999N0100001N9+99999+99999999999ADDAY121999GF106991041011008001041999
0037035480999991943071220004+52467+000950FM-12+004699999V0202701N01231220001CN0100001N9+99999+99999999999ADDAY111999GF104991041011008001041999
0037035480999991943071221004+52467+000950FM-12+004699999V0202701N01231220001CN0100001N9+99999+99999999999ADDAY111999GF102991021011008001001999
0037035480999991943071222004+52467+000950FM-12+004699999V0202701N00671220001CN0100001N9+99999+99999999999ADDAY111999GF102991021011008001001999
0037035480999991943071223004+52467+000950FM-12+004699999V0202701N00461220001CN0100001N9+99999+99999999999ADDAY111999GF101991011041008001001999
0037035480999991943071224004+52467+000950FM-12+004699999V0202701N00461220001CN0100001N9+99999+99999999999ADDAY111999GF102991021041008001001999
0037035480999991943071301004+52467+000950FM-12+004699999V0202701N00461220001CN0100001N9+99999+99999999999ADDAY111999GF102991021041008001001999
0037035480999991943071302004+52467+000950FM-12+004699999V0202701N00931220001CN0100001N9+99999+99999999999ADDAY111999GF102991021041008001001999
0037035480999991943071303004+52467+000950FM-12+004699999V0202701N00671220001CN0100001N9+99999+99999999999ADDAY111999GF100991001001999999001999
0037035480999991943071304004+52467+000950FM-12+004699999V0202701N00931220001CN0100001N9+99999+99999999999ADDAY101999GF101991011041012501001999
0037035480999991943071305004+52467+000950FM-12+004699999V0202701N00671220001CN0100001N9+99999+99999999999ADDAY111999GF102991021041012501001999
0037035480999991943071306004+52467+000950FM-12+004699999V0202701N00671220001CN0100001N9+99999+99999999999ADDAY111999GF102991001001999999001999
0037035480999991943071307004+52467+000950FM-12+004699999V0202701N00671220001CN0100001N9+99999+99999999999ADDAY111999GF104991001001999999001999
0037035480999991943071308004+52467+000950FM-12+004699999V0202701N00671220001CN0100001N9+99999+99999999999ADDAY111999GF104991001001999999041999
0037035480999991943071309004+52467+000950FM-12+004699999V0202701N012319999999N0100001N9+99999+99999999999ADDAY111999GF106991021011004501041999
0037035480999991943071310004+52467+000950FM-12+004699999V0202701N009319999999N0100001N9+99999+99999999999ADDAY111999GF106991021021004501041999
0037035480999991943071311004+52467+000950FM-12+004699999V0202701N00931004501CN0100001N9+99999+99999999999ADDAY111999GF106991061011004501999999
0037035480999991943071312004+52467+000950FM-12+004699999V0202701N01231004501CN0100001N9+99999+99999999999ADDAY111999GF106991061011004501999999
0037035480999991943071313004+52467+000950FM-12+004699999V0202701N01231007801CN0100001N9+99999+99999999999ADDAY111999GF106991061011008001999999
0037035480999991943071314004+52467+000950FM-12+004699999V0202701N01231007801CN0100001N9+99999+99999999999ADDAY111999GF107991061011008001031999
0043035480999991943071315004+52467+000950FM-12+004699999V0202701N00931007801CN0100001N9+99999+99999999999ADDAY121999GF107991061021008001071999MW1211
0037035480999991943071316004+52467+000950FM-12+004699999V0202701N01231007801CN0100001N9+99999+99999999999ADDAY121999GF106991061021008001071999
0037035480999991943071317004+52467+000950FM-12+004699999V0202701N00671007801CN0100001N9+99999+99999999999ADDAY121999GF107991071081008001999999
0037035480999991943071318004+52467+000950FM-12+004699999V0202701N00931007801CN0100001N9+99999+99999999999ADDAY121999GF108991081081008001999999
0037035480999991943071319004+52467+000950FM-12+004699999V0202701N00931220001CN0100001N9+99999+99999999999ADDAY151999GF104991041071008001001999
0037035480999991943071320004+52467+000950FM-12+004699999V0202701N00931007801CN0100001N9+99999+99999999999ADDAY111999GF106991061081008001999999
0037035480999991943071321004+52467+000950FM-12+004699999V0202701N00671220001CN0100001N9+99999+99999999999ADDAY111999GF104991041011008001001999
0037035480999991943071322004+52467+000950FM-12+004699999V0202701N00671220001CN0100001N9+99999+99999999999ADDAY111999GF101991011021008001001999
0037035480999991943071323004+52467+000950FM-12+004699999V0202701N00461220001CN0100001N9+99999+99999999999ADDAY111999GF102991021071008001001999
0037035480999991943071324004+52467+000950FM-12+004699999V0202701N00261220001CN0100001N9+99999+99999999999ADDAY111999GF101991011051008001001999
0037035480999991943071401004+52467+000950FM-12+004699999V0202701N00261220001CN0100001N9+99999+99999999999ADDAY111999GF102991001001999999041999
0037035480999991943071402004+52467+000950FM-12+004699999V0202701N00461220001CN0100001N9+99999+99999999999ADDAY111999GF102991001001999999041999
0037035480999991943071403004+52467+000950FM-12+004699999V0202701N00461220001CN0100001N9+99999+99999999999ADDAY111999GF102991001001999999041999
0037035480999991943071404004+52467+000950FM-12+004699999V0202701N00461220001CN0100001N9+99999+99999999999ADDAY111999GF102991001001999999041999
0037035480999991943071405004+52467+000950FM-12+004699999V0202701N00461220001CN0100001N9+99999+99999999999ADDAY111999GF102991001001999999041999
0043035480999991943071406004+52467+000950FM-12+004699999V0202301N00261220001CN0040001N9+99999+99999999999ADDAY111999GF106991001001999999071999MW1051
0043035480999991943071407004+52467+000950FM-12+004699999V0202301N00261220001CN0040001N9+99999+99999999999ADDAY121999GF106991001001999999071999MW1051
0043035480999991943071408004+52467+000950FM-12+004699999V0202301N00261220001CN0040001N9+99999+99999999999ADDAY121999GF104991001001999999071999MW1051
0037035480999991943071409004+52467+000950FM-12+004699999V0202501N00461220001CN0100001N9+99999+99999999999ADDAY111999GF104991001001999999071999
0037035480999991943071410004+52467+000950FM-12+004699999V0202501N004619999999N0100001N9+99999+99999999999ADDAY111999GF106991021011002501071999
0037035480999991943071411004+52467+000950FM-12+004699999V0202501N004619999999N0100001N9+99999+99999999999ADDAY121999GF106991041011004501071999
0037035480999991943071412004+52467+000950FM-12+004699999V0202701N00461004501CN0100001N9+99999+99999999999ADDAY121999GF106991061021004501999999
0037035480999991943071413004+52467+000950FM-12+004699999V0202501N00671004501CN0100001N9+99999+99999999999ADDAY121999GF106991061021004501999999
0037035480999991943071414004+52467+000950FM-12+004699999V0202501N00671004501CN0100001N9+99999+99999999999ADDAY121999GF107991071041004501999999
0037035480999991943071415004+52467+000950FM-12+004699999V0202501N00671007801CN0100001N9+99999+99999999999ADDAY121999GF108991081051008001999999
0037035480999991943071416004+52467+000950FM-12+004699999V0202701N00671007801CN0100001N9+99999+99999999999ADDAY121999GF107991071051008001999999
0043035480999991943071417004+52467+000950FM-12+004699999V0202701N00671004501CN0100001N9+99999+99999999999ADDAY121999GF108991081051004501999999MW1201
0043035480999991943071418004+52467+000950FM-12+004699999V0202501N00671004501CN0040001N9+99999+99999999999ADDAY121999GF108991081051004501999999MW1051
0037035480999991943071419004+52467+000950FM-12+004699999V0202301N00671004501CN0100001N9+99999+99999999999ADDAY121999GF108991081051004501999999
0043035480999991943071420004+52467+000950FM-12+004699999V0202301N00671004501CN0040001N9+99999+99999999999ADDAY121999GF107991071051004501999999MW1051
0043035480999991943071421004+52467+000950FM-12+004699999V0202301N00671004501CN0040001N9+99999+99999999999ADDAY121999GF107991071051004501999999MW1051
0043035480999991943071422004+52467+000950FM-12+004699999V0202301N00671004501CN0040001N9+99999+99999999999ADDAY121999GF107991071051004501999999MW1051
0043035480999991943071423004+52467+000950FM-12+004699999V0202301N004619999999N0040001N9+99999+99999999999ADDAY111999GF106991041051008001071999MW1051
0043035480999991943071424004+52467+000950FM-12+004699999V0202301N004619999999N0040001N9+99999+99999999999ADDAY111999GF106991041051008001041999MW1051
0043035480999991943071501004+52467+000950FM-12+004699999V0202301N00461220001CN0040001N9+99999+99999999999ADDAY121999GF106991001001999999031999MW1051
0043035480999991943071502004+52467+000950FM-12+004699999V0202301N00461220001CN0040001N9+99999+99999999999ADDAY121999GF102991001001999999041999MW1051
0043035480999991943071503004+52467+000950FM-12+004699999V0202301N00671220001CN0040001N9+99999+99999999999ADDAY111999GF102991001001999999041999MW1051
0043035480999991943071504004+52467+000950FM-12+004699999V0202301N00461220001CN0040001N9+99999+99999999999ADDAY111999GF102991001001999999041999MW1051
0043035480999991943071505004+52467+000950FM-12+004699999V0202301N00461220001CN0040001N9+99999+99999999999ADDAY111999GF102991001001999999041999MW1051
0043035480999991943071506004+52467+000950FM-12+004699999V0202301N00461220001CN0040001N9+99999+99999999999ADDAY111999GF104991001001999999041999MW1051
0043035480999991943071507004+52467+000950FM-12+004699999V0202301N00461220001CN0040001N9+99999+99999999999ADDAY111999GF106991001001999999071999MW1051
0043035480999991943071508004+52467+000950FM-12+004699999V0202301N00671220001CN0040001N9+99999+99999999999ADDAY111999GF107991001001999999071999MW1051
0043035480999991943071509004+52467+000950FM-12+004699999V0202301N00671220001CN0040001N9+99999+99999999999ADDAY121999GF106991001001999999071999MW1051
0043035480999991943071510004+52467+000950FM-12+004699999V0202301N00671220001CN0040001N9+99999+99999999999ADDAY111999GF104991021011008001071999MW1051
0043035480999991943071511004+52467+000950FM-12+004699999V0202301N00931007801CN0040001N9+99999+99999999999ADDAY111999GF106991061011008001999999MW1051
0043035480999991943071512004+52467+000950FM-12+004699999V0202301N009319999999N0040001N9+99999+99999999999ADDAY111999GF106991021011008001001999MW1051
0037035480999991943071513004+52467+000950FM-12+004699999V0202301N009319999999N0100001N9+99999+99999999999ADDAY111999GF106991021011008001001999
0037035480999991943071514004+52467+000950FM-12+004699999V0202301N009319999999N0100001N9+99999+99999999999ADDAY121999GF107991041011008001001999
0037035480999991943071515004+52467+000950FM-12+004699999V0202501N00931007801CN0100001N9+99999+99999999999ADDAY121999GF107991061071008001021999
0037035480999991943071516004+52467+000950FM-12+004699999V0202501N009319999999N0100001N9+99999+99999999999ADDAY121999GF107991041011008001021999
0037035480999991943071517004+52467+000950FM-12+004699999V0202501N00931004501CN0100001N9+99999+99999999999ADDAY121999GF107991061021004501021999
0037035480999991943071518004+52467+000950FM-12+004699999V0202301N00931004501CN0100001N9+99999+99999999999ADDAY121999GF108991081071004501999999
0043035480999991943071519004+52467+000950FM-12+004699999V0202501N00931002401CN0100001N9+99999+99999999999ADDAY121999GF108991081071002501999999MW1601
0043035480999991943071520004+52467+000950FM-12+004699999V0202301N00931002401CN0100001N9+99999+99999999999ADDAY161999GF108991081071002501999999MW1601
0043035480999991943071521004+52467+000950FM-12+004699999V0202501N00931002401CN0040001N9+99999+99999999999ADDAY161999GF108991071061002501999999MW1601
0037035480999991943071522004+52467+000950FM-12+004699999V0202501N006719999999N0100001N9+99999+99999999999ADDAY161999GF106991011051004501041999
0037035480999991943071523004+52467+000950FM-12+004699999V0202501N00461220001CN0100001N9+99999+99999999999ADDAY111999GF106991001001999999071999
0037035480999991943071524004+52467+000950FM-12+004699999V0202501N00261220001CN0100001N9+99999+99999999999ADDAY111999GF106991001001999999071999
0037035480999991943071601004+52467+000950FM-12+004699999V0202501N00461220001CN0100001N9+99999+99999999999ADDAY111999GF104991001001999999071999
0037035480999991943071602004+52467+000950FM-12+004699999V0202501N00461220001CN0100001N9+99999+99999999999ADDAY111999GF104991001001999999071999
0037035480999991943071603004+52467+000950FM-12+004699999V0202701N00461220001CN0100001N9+99999+99999999999ADDAY111999GF102991001001999999031999
0043035480999991943071604004+52467+000950FM-12+004699999V0202701N00261220001CN0040001N9+99999+99999999999ADDAY111999GF102991001001999999031999MW1051
0043035480999991943071605004+52467+000950FM-12+004699999V0202701N00261220001CN0040001N9+99999+99999999999ADDAY111999GF102991001001999999031999MW1051
0043035480999991943071606004+52467+000950FM-12+004699999V0202701N00261220001CN0040001N9+99999+99999999999ADDAY111999GF102991001001999999041999MW1051
0043035480999991943071607004+52467+000950FM-12+004699999V0202701N00261220001CN0040001N9+99999+99999999999ADDAY111999GF102991001001999999041999MW1051
0043035480999991943071608004+52467+000950FM-12+004699999V0202701N00261220001CN0040001N9+99999+99999999999ADDAY111999GF102991001001999999071999MW1051
0043035480999991943071609004+52467+000950FM-12+004699999V0202701N00261220001CN0040001N9+99999+99999999999ADDAY111999GF102991001001999999041999MW1051
0043035480999991943071610004+52467+000950FM-12+004699999V0202701N00461220001CN0100001N9+99999+99999999999ADDAY111999GF102991001001999999041999MW1051
0037035480999991943071611004+52467+000950FM-12+004699999V0202901N00461220001CN0100001N9+99999+99999999999ADDAY111999GF102991001001999999041999
0037035480999991943071612004+52467+000950FM-12+004699999V0202901N00461220001CN0100001N9+99999+99999999999ADDAY111999GF102991011011008001041999
0037035480999991943071613004+52467+000950FM-12+004699999V0202901N00461220001CN0100001N9+99999+99999999999ADDAY111999GF102991011011008001041999
0037035480999991943071614004+52467+000950FM-12+004699999V0202701N00461220001CN0100001N9+99999+99999999999ADDAY111999GF104991011011008001999999
0037035480999991943071615004+52467+000950FM-12+004699999V0202701N00461220001CN0100001N9+99999+99999999999ADDAY111999GF106991001001999999001999
0037035480999991943071616004+52467+000950FM-12+004699999V0202701N00261220001CN0100001N9+99999+99999999999ADDAY111999GF106991001001999999001999
0037035480999991943071617004+52467+000950FM-12+004699999V0200201N00261220001CN0100001N9+99999+99999999999ADDAY111999GF104991001001999999001999
0037035480999991943071618004+52467+000950FM-12+004699999V0202701N00101220001CN0100001N9+99999+99999999999ADDAY111999GF102991001001999999001999
0037035480999991943071619004+52467+000950FM-12+004699999V0202701N00101220001CN0100001N9+99999+99999999999ADDAY111999GF102991011011008001001999
0037035480999991943071620004+52467+000950FM-12+004699999V0203401N00101220001CN0200001N9+99999+99999999999ADDAY111999GF102991001001999999001999
0037035480999991943071621004+52467+000950FM-12+004699999V0201101N00461220001CN0200001N9+99999+99999999999ADDAY111999GF101991001001999999001999
0037035480999991943071622004+52467+000950FM-12+004699999V0201101N00461220001CN0100001N9+99999+99999999999ADDAY111999GF104991001001999999001999
0037035480999991943071623004+52467+000950FM-12+004699999V0201101N00261220001CN0100001N9+99999+99999999999ADDAY111999GF104991001001999999001999
0037035480999991943071624004+52467+000950FM-12+004699999V0201101N00261220001CN0100001N9+99999+99999999999ADDAY111999GF104991001001999999001999
0037035480999991943071701004+52467+000950FM-12+004699999V0201101N00261220001CN0100001N9+99999+99999999999ADDAY111999GF101991001001999999001999
0037035480999991943071702004+52467+000950FM-12+004699999V0201401N00261220001CN0100001N9+99999+99999999999ADDAY101999GF101991001001999999001999
0043035480999991943071703004+52467+000950FM-12+004699999V0200901N00101220001CN0040001N9+99999+99999999999ADDAY101999GF100991001001999999001999MW1051
0043035480999991943071704004+52467+000950FM-12+004699999V0200901N00101220001CN0040001N9+99999+99999999999ADDAY101999GF101991011001022501999999MW1051
0043035480999991943071705004+52467+000950FM-12+004699999V0200901N00101220001CN0200001N9+99999+99999999999ADDAY101999GF102991021999008001999999MW1121
0043035480999991943071706004+52467+000950FM-12+004699999V0200901N00101220001CN0020001N9+99999+99999999999ADDAY101999GF102991001001999999001999MW1121
0043035480999991943071707004+52467+000950FM-12+004699999V0200901N00101220001CN0040001N9+99999+99999999999ADDAY101999GF102991001001999999001999MW1121
0043035480999991943071708004+52467+000950FM-12+004699999V0200901N00101220001CN0040001N9+99999+99999999999ADDAY101999GF102991001001999999001999MW1051
0043035480999991943071709004+52467+000950FM-12+004699999V0200901N00101220001CN0040001N9+99999+99999999999ADDAY101999GF102991001001999999001999MW1051
0043035480999991943071710004+52467+000950FM-12+004699999V0200701N00261220001CN0040001N9+99999+99999999999ADDAY101999GF100991001001999999001999MW1051
0043035480999991943071711004+52467+000950FM-12+004699999V0200501N00261220001CN0040001N9+99999+99999999999ADDAY101999GF101991001001999999001999MW1051
0037035480999991943071712004+52467+000950FM-12+004699999V0201101N00261220001CN0100001N9+99999+99999999999ADDAY101999GF102991021011008001001999
0037035480999991943071713004+52467+000950FM-12+004699999V0201101N00461220001CN0100001N9+99999+99999999999ADDAY111999GF104991041011012501001999
0037035480999991943071714004+52467+000950FM-12+004699999V0200901N00461220001CN0100001N9+99999+99999999999ADDAY111999GF102991021011012501001999
0037035480999991943071715004+52467+000950FM-12+004699999V0200701N00461220001CN0100001N9+99999+99999999999ADDAY111999GF104991021011012501001999
0037035480999991943071716004+52467+000950FM-12+004699999V0200701N00461220001CN0100001N9+99999+99999999999ADDAY111999GF102991011011012501001999
0037035480999991943071717004+52467+000950FM-12+004699999V0200701N00461220001CN0200001N9+99999+99999999999ADDAY101999GF101991011011012501001999
0037035480999991943071718004+52467+000950FM-12+004699999V0200701N00461220001CN0200001N9+99999+99999999999ADDAY101999GF102991011021012501001999
0037035480999991943071719004+52467+000950FM-12+004699999V0200701N00461220001CN0200001N9+99999+99999999999ADDAY101999GF101991011021012501001999
0037035480999991943071720004+52467+000950FM-12+004699999V0200701N00461220001CN0200001N9+99999+99999999999ADDAY101999GF101991001001999999061999
0037035480999991943071721004+52467+000950FM-12+004699999V0200901N00461220001CN0200001N9+99999+99999999999ADDAY101999GF101991001001999999071999
0037035480999991943071722004+52467+000950FM-12+004699999V0200901N00461220001CN0200001N9+99999+99999999999ADDAY101999GF102991001001999999081999
0037035480999991943071723004+52467+000950FM-12+004699999V0200901N00671007801CN0100001N9+99999+99999999999ADDAY101999GF107991071051008001081999
0037035480999991943071724004+52467+000950FM-12+004699999V0201101N00261004501CN0100001N9+99999+99999999999ADDAY121999GF108991081051004501999999
0037035480999991943071801004+52467+000950FM-12+004699999V0200901N00461004501CN0100001N9+99999+99999999999ADDAY121999GF108991081051004501999999
0037035480999991943071802004+52467+000950FM-12+004699999V0200901N00261004501CN0100001N9+99999+99999999999ADDAY121999GF108991081051004501999999
0037035480999991943071803004+52467+000950FM-12+004699999V0200901N00461004501CN0100001N9+99999+99999999999ADDAY121999GF108991081051004501999999
0043035480999991943071804004+52467+000950FM-12+004699999V0200901N00461004501CN0040001N9+99999+99999999999ADDAY121999GF108991081051004501999999MW1051
0043035480999991943071805004+52467+000950FM-12+004699999V0201101N00461004501CN0040001N9+99999+99999999999ADDAY121999GF108991081051004501999999MW1051
0037035480999991943071806004+52467+000950FM-12+004699999V0200901N00461004501CN0100001N9+99999+99999999999ADDAY121999GF108991081051004501999999
0037035480999991943071807004+52467+000950FM-12+004699999V0200901N00461004501CN0100001N9+99999+99999999999ADDAY121999GF108991081051004501999999
0037035480999991943071808004+52467+000950FM-12+004699999V0200901N00461004501CN0100001N9+99999+99999999999ADDAY121999GF108991081051004501999999
0037035480999991943071809004+52467+000950FM-12+004699999V0201101N00461004501CN0100001N9+99999+99999999999ADDAY121999GF108991081051004501999999
0037035480999991943071810004+52467+000950FM-12+004699999V0201101N00461004501CN0100001N9+99999+99999999999ADDAY121999GF108991081051004501999999
0037035480999991943071811004+52467+000950FM-12+004699999V0201101N00461004501CN0100001N9+99999+99999999999ADDAY121999GF108991081051004501999999
0037035480999991943071812004+52467+000950FM-12+004699999V0201101N00261004501CN0100001N9+99999+99999999999ADDAY121999GF108991081051004501999999
0037035480999991943071813004+52467+000950FM-12+004699999V0201101N00461004501CN0100001N9+99999+99999999999ADDAY121999GF108991081051004501999999
0037035480999991943071814004+52467+000950FM-12+004699999V0201101N00461007801CN0100001N9+99999+99999999999ADDAY121999GF107991071051008001999999
0037035480999991943071815004+52467+000950FM-12+004699999V0201101N002619999999N0100001N9+99999+99999999999ADDAY121999GF106991041011008001001999
0037035480999991943071816004+52467+000950FM-12+004699999V0200901N004619999999N0200001N9+99999+99999999999ADDAY111999GF106991041011008001001999
0037035480999991943071817004+52467+000950FM-12+004699999V0200901N004619999999N0200001N9+99999+99999999999ADDAY111999GF106991041011008001041999
0037035480999991943071818004+52467+000950FM-12+004699999V0200701N004619999999N0200001N9+99999+99999999999ADDAY111999GF106991021011008001041999
0037035480999991943071819004+52467+000950FM-12+004699999V0200701N004619999999N0200001N9+99999+99999999999ADDAY111999GF106991011011008001051999
0037035480999991943071820004+52467+000950FM-12+004699999V0200701N004619999999N0200001N9+99999+99999999999ADDAY111999GF106991011051012501051999
0037035480999991943071821004+52467+000950FM-12+004699999V0200901N002619999999N0200001N9+99999+99999999999ADDAY121999GF107991041051008001051999
0037035480999991943071822004+52467+000950FM-12+004699999V0200901N004619999999N0200001N9+99999+99999999999ADDAY121999GF107991041051012501041999
0037035480999991943071823004+52467+000950FM-12+004699999V0200701N002619999999N0100001N9+99999+99999999999ADDAY121999GF107991041051012501071999
0037035480999991943071824004+52467+000950FM-12+004699999V0200701N00261021001CN0100001N9+99999+99999999999ADDAY121999GF106991061051022501999999
0037035480999991943071901004+52467+000950FM-12+004699999V0200701N00461220001CN0100001N9+99999+99999999999ADDAY121999GF106991001001999999071999
0043035480999991943071902004+52467+000950FM-12+004699999V0200701N00261220001CN0020001N9+99999+99999999999ADDAY121999GF107991001001999999071999MW1511
0037035480999991943071903004+52467+000950FM-12+004699999V0200701N00261007801CN0100001N9+99999+99999999999ADDAY151999GF107991071061008001999999
0037035480999991943071904004+52467+000950FM-12+004699999V0200501N00261007801CN0100001N9+99999+99999999999ADDAY121999GF107991071051008001999999
0037035480999991943071905004+52467+000950FM-12+004699999V0200701N00461007801CN0100001N9+99999+99999999999ADDAY121999GF107991071051008001999999
0037035480999991943071906004+52467+000950FM-12+004699999V0200701N00461004501CN0100001N9+99999+99999999999ADDAY121999GF108991081051004501999999
0037035480999991943071907004+52467+000950FM-12+004699999V0200701N00461004501CN0100001N9+99999+99999999999ADDAY121999GF108991081051004501999999
0037035480999991943071908004+52467+000950FM-12+004699999V0200701N00671004501CN0100001N9+99999+99999999999ADDAY121999GF108991081051004501999999
0037035480999991943071909004+52467+000950FM-12+004699999V0200701N00671004501CN0100001N9+99999+99999999999ADDAY121999GF108991081051004501999999
0037035480999991943071910004+52467+000950FM-12+004699999V0200701N00671004501CN0100001N9+99999+99999999999ADDAY121999GF108991081051004501999999
0037035480999991943071911004+52467+000950FM-12+004699999V0200701N00931004501CN0100001N9+99999+99999999999ADDAY121999GF108991081051004501999999
0037035480999991943071912004+52467+000950FM-12+004699999V0200701N00931004501CN0100001N9+99999+99999999999ADDAY121999GF108991081051004501999999
0037035480999991943071913004+52467+000950FM-12+004699999V0200701N00461007801CN0100001N9+99999+99999999999ADDAY121999GF107991071051008001999999
0037035480999991943071914004+52467+000950FM-12+004699999V0200901N00671007801CN0200001N9+99999+99999999999ADDAY121999GF106991061071008001001999
0037035480999991943071915004+52467+000950FM-12+004699999V0200501N00461220001CN0200001N9+99999+99999999999ADDAY121999GF104991041011008001061999
0037035480999991943071916004+52467+000950FM-12+004699999V0200501N00671220001CN0200001N9+99999+99999999999ADDAY111999GF104991041011008001041999
0037035480999991943071917004+52467+000950FM-12+004699999V0200701N00461007801CN0100001N9+99999+99999999999ADDAY111999GF106991061071008001001999
0037035480999991943071918004+52467+000950FM-12+004699999V0200701N00461007801CN0100001N9+99999+99999999999ADDAY111999GF106991061071008001001999
0037035480999991943071919004+52467+000950FM-12+004699999V0200701N004619999999N0100001N9+99999+99999999999ADDAY111999GF106991041071008001041999
0037035480999991943071920004+52467+000950FM-12+004699999V0200701N00461220001CN0100001N9+99999+99999999999ADDAY111999GF104991041071008001041999
0037035480999991943071921004+52467+000950FM-12+004699999V0200701N00461220001CN0100001N9+99999+99999999999ADDAY111999GF104991021071008001041999
0037035480999991943071922004+52467+000950FM-12+004699999V0200701N004619999999N0100001N9+99999+99999999999ADDAY111999GF106991041071004501041999
0037035480999991943071923004+52467+000950FM-12+004699999V0200701N00461004501CN0100001N9+99999+99999999999ADDAY111999GF107991071051004501999999
0043035480999991943071924004+52467+000950FM-12+004699999V0200701N00671002401CN0040001N9+99999+99999999999ADDAY121999GF106991061051002501999999MW1051
0043035480999991943072001004+52467+000950FM-12+004699999V0200201N00671002401CN0040001N9+99999+99999999999ADDAY111999GF106991061051002501999999MW1051
0043035480999991943072002004+52467+000950FM-12+004699999V0200201N00461002401CN0040001N9+99999+99999999999ADDAY111999GF106991061051002501999999MW1051
0043035480999991943072003004+52467+000950FM-12+004699999V0200201N00261002401CN0040001N9+99999+99999999999ADDAY111999GF108991081051002501999999MW1051
0043035480999991943072004004+52467+000950FM-12+004699999V0200201N00671002401CN0040001N9+99999+99999999999ADDAY121999GF107991071051002501999999MW1051
0043035480999991943072005004+52467+000950FM-12+004699999V0200501N00461004501CN0040001N9+99999+99999999999ADDAY121999GF107991071051004501999999MW1051
0037035480999991943072006004+52467+000950FM-12+004699999V0200501N00261004501CN0100001N9+99999+99999999999ADDAY121999GF108991081051004501999999
0037035480999991943072007004+52467+000950FM-12+004699999V0200501N00261004501CN0100001N9+99999+99999999999ADDAY121999GF108991081051004501999999
0037035480999991943072008004+52467+000950FM-12+004699999V0200501N00461004501CN0100001N9+99999+99999999999ADDAY121999GF107991071051004501999999
0043035480999991943072009004+52467+000950FM-12+004699999V0200201N00261004501CN0040001N9+99999+99999999999ADDAY121999GF108991081051004501999999MW1511
0043035480999991943072010004+52467+000950FM-12+004699999V0200501N00461004501CN0040001N9+99999+99999999999ADDAY151999GF108991081051004501999999MW1511
0043035480999991943072011004+52467+000950FM-12+004699999V0200701N00461004501CN0040001N9+99999+99999999999ADDAY151999GF108991081051004501999999MW1201
0037035480999991943072012004+52467+000950FM-12+004699999V0200701N00461004501CN0100001N9+99999+99999999999ADDAY151999GF108991081051004501999999
0037035480999991943072013004+52467+000950FM-12+004699999V0200201N00461004501CN0100001N9+99999+99999999999ADDAY121999GF108991081051004501999999
0037035480999991943072014004+52467+000950FM-12+004699999V0200501N00671004501CN0100001N9+99999+99999999999ADDAY121999GF108991081051004501999999
0037035480999991943072015004+52467+000950FM-12+004699999V0200501N00671004501CN0100001N9+99999+99999999999ADDAY121999GF108991081051004501999999
0037035480999991943072016004+52467+000950FM-12+004699999V0200701N00671004501CN0100001N9+99999+99999999999ADDAY121999GF107991071051004501999999
0037035480999991943072017004+52467+000950FM-12+004699999V0200701N00461004501CN0100001N9+99999+99999999999ADDAY121999GF107991071051004501999999
0037035480999991943072018004+52467+000950FM-12+004699999V0200701N00671004501CN0100001N9+99999+99999999999ADDAY121999GF107991071051004501999999
0037035480999991943072019004+52467+000950FM-12+004699999V0200701N00671004501CN0100001N9+99999+99999999999ADDAY121999GF107991071051004501999999
0037035480999991943072020004+52467+000950FM-12+004699999V0200701N00461004501CN0100001N9+99999+99999999999ADDAY121999GF107991071051004501999999
0037035480999991943072021004+52467+000950FM-12+004699999V0200701N00671004501CN0100001N9+99999+99999999999ADDAY121999GF107991071071004501999999
0037035480999991943072022004+52467+000950FM-12+004699999V0200501N004619999999N0100001N9+99999+99999999999ADDAY121999GF107991041071004501999999
0037035480999991943072023004+52467+000950FM-12+004699999V0200701N00671004501CN0100001N9+99999+99999999999ADDAY121999GF107991071051004501999999
0037035480999991943072024004+52467+000950FM-12+004699999V0200501N00671002401CN0100001N9+99999+99999999999ADDAY121999GF107991071051002501999999
0043035480999991943072101004+52467+000950FM-12+004699999V0200701N00671002401CN0040001N9+99999+99999999999ADDAY121999GF108991081051002501999999MW1051
0043035480999991943072102004+52467+000950FM-12+004699999V0200501N00461002401CN0040001N9+99999+99999999999ADDAY121999GF107991071051002501999999MW1051
0043035480999991943072103004+52467+000950FM-12+004699999V0200701N006719999999N0040001N9+99999+99999999999ADDAY121999GF107991041051004501041999MW1051
0043035480999991943072104004+52467+000950FM-12+004699999V0200701N00671002401CN0040001N9+99999+99999999999ADDAY121999GF107991061051002501031999MW1051
0043035480999991943072105004+52467+000950FM-12+004699999V0200701N006719999999N0040001N9+99999+99999999999ADDAY121999GF106991041051002501001999MW1051
0043035480999991943072106004+52467+000950FM-12+004699999V0200501N00671002401CN0040001N9+99999+99999999999ADDAY121999GF108991081051002501999999MW1051
0043035480999991943072107004+52467+000950FM-12+004699999V0200701N00931002401CN0040001N9+99999+99999999999ADDAY121999GF108991081051002501999999MW1051
0043035480999991943072108004+52467+000950FM-12+004699999V0200501N00671004501CN0040001N9+99999+99999999999ADDAY121999GF107991071051004501999999MW1051
0037035480999991943072109004+52467+000950FM-12+004699999V0200501N00671004501CN0100001N9+99999+99999999999ADDAY121999GF107991071051004501999999
0037035480999991943072110004+52467+000950FM-12+004699999V0200501N006719999999N0100001N9+99999+99999999999ADDAY121999GF106991011011004501051999
0037035480999991943072111004+52467+000950FM-12+004699999V0200701N006719999999N0100001N9+99999+99999999999ADDAY121999GF106991011011004501051999
0037035480999991943072112004+52467+000950FM-12+004699999V0200701N006719999999N0100001N9+99999+99999999999ADDAY121999GF106991021011008001051999
0037035480999991943072113004+52467+000950FM-12+004699999V0200201N00931220001CN0100001N9+99999+99999999999ADDAY121999GF104991021011004501051999
0037035480999991943072114004+52467+000950FM-12+004699999V0200201N004619999999N0100001N9+99999+99999999999ADDAY121999GF106991021011004501051999
0037035480999991943072115004+52467+000950FM-12+004699999V0200201N004619999999N0100001N9+99999+99999999999ADDAY121999GF106991021011004501071999
0037035480999991943072116004+52467+000950FM-12+004699999V0200201N009319999999N0100001N9+99999+99999999999ADDAY121999GF106991041011004501071999
0037035480999991943072117004+52467+000950FM-12+004699999V0200501N006719999999N0100001N9+99999+99999999999ADDAY121999GF106991041011004501071999
0037035480999991943072118004+52467+000950FM-12+004699999V0200501N00931220001CN0100001N9+99999+99999999999ADDAY111999GF104991041011004501001999
0037035480999991943072119004+52467+000950FM-12+004699999V0200501N00931004501CN0100001N9+99999+99999999999ADDAY111999GF106991061051004501999999
0037035480999991943072120004+52467+000950FM-12+004699999V0200501N00671004501CN0100001N9+99999+99999999999ADDAY121999GF107991071051004501999999
0043035480999991943072121004+52467+000950FM-12+004699999V0200501N00461002401CN0040001N9+99999+99999999999ADDAY121999GF108991081051002501999999MW1051
0043035480999991943072122004+52467+000950FM-12+004699999V0200201N00671002401CN0040001N9+99999+99999999999ADDAY121999GF108991081051002501999999MW1051
0043035480999991943072123004+52467+000950FM-12+004699999V0200201N00671002401CN0040001N9+99999+99999999999ADDAY151999GF108991081051002501999999MW1501
0043035480999991943072124004+52467+000950FM-12+004699999V0200501N00671002401CN0040001N9+99999+99999999999ADDAY151999GF108991081051002501999999MW1511
0059035480999991943072201004+52467+000950FM-12+004699999V0200201N00671220001CN0040001N9+01331+01221999999ADDAY151999GA1041+999999999GF108991081051001501999999MW1511
0059035480999991943072202004+52467+000950FM-12+004699999V0200201N00931220001CN0040001N9+01331+01221999999ADDAY151999GA1041+999999999GF108991081051001501999999MW1511
0059035480999991943072203004+52467+000950FM-12+004699999V0200501N00931220001CN0040001N9+01281+01171999999ADDAY151999GA1041+999999999GF108991081051001501999999MW1511
0059035480999991943072204004+52467+000950FM-12+004699999V0200201N00461220001CN0040001N9+01281+01221999999ADDAY151999GA1041+999999999GF108991081051001501999999MW1511
0059035480999991943072205004+52467+000950FM-12+004699999V0200501N00461220001CN0040001N9+01281+01171999999ADDAY151999GA1041+999999999GF108991081051001501999999MW1511
0059035480999991943072206004+52467+000950FM-12+004699999V0200501N00461220001CN0040001N9+01281+01111999999ADDAY151999GA1041+999999999GF108991081051001501999999MW1511
0059035480999991943072207004+52467+000950FM-12+004699999V0200501N00461220001CN0040001N9+01331+01111999999ADDAY151999GA1051+999999999GF108991081051001501999999MW1501
0059035480999991943072208004+52467+000950FM-12+004699999V0200201N00461220001CN0040001N9+01281+01111999999ADDAY151999GA1071+999999999GF108991081051002501999999MW1501
0059035480999991943072209004+52467+000950FM-12+004699999V0200201N00461220001CN0040001N9+01281+01111999999ADDAY151999GA1071+999999999GF108991081051002501999999MW1501
0059035480999991943072210004+52467+000950FM-12+004699999V0200201N00461220001CN0040001N9+01331+01061999999ADDAY151999GA1071+999999999GF108991081051002501999999MW1501
0059035480999991943072211004+52467+000950FM-12+004699999V0200201N00461220001CN0040001N9+01391+01111999999ADDAY151999GA1071+999999999GF108991081051002501999999MW1501
0078035480999991943072212004+52467+000950FM-12+004699999V0200201N00461220001CN0100001N9+01441+01061999999ADDAY151999GA1091+999999999GF109991081051002501999999MW1201EQDQ01+000082SCOTCV
0053035480999991943072213004+52467+000950FM-12+004699999V0200201N00461220001CN0200001N9+01561+01111999999ADDAY151999GA1001+999999999GF108991081051004501999999
0053035480999991943072214004+52467+000950FM-12+004699999V0200501N00461220001CN0200001N9+01671+01171999999ADDAY121999GA1021+999999999GF108991081051004501999999
0053035480999991943072215004+52467+000950FM-12+004699999V0200201N00461220001CN0200001N9+01671+01171999999ADDAY121999GA1051+999999999GF108991081051004501999999
0053035480999991943072216004+52467+000950FM-12+004699999V0200201N00461220001CN0200001N9+01671+01171999999ADDAY121999GA1051+999999999GF108991081051004501999999
0053035480999991943072217004+52467+000950FM-12+004699999V0200201N00461220001CN0200001N9+01611+01221999999ADDAY121999GA1051+999999999GF108991081051004501999999
0053035480999991943072218004+52467+000950FM-12+004699999V0200201N00461220001CN0200001N9+01561+01111999999ADDAY121999GA1051+999999999GF108991081051004501999999
0053035480999991943072219004+52467+000950FM-12+004699999V0200201N00261220001CN0200001N9+01561+01001999999ADDAY121999GA1051+999999999GF108991081051004501999999
0053035480999991943072220004+52467+000950FM-12+004699999V0200201N00461220001CN0100001N9+01501+01061999999ADDAY121999GA1051+999999999GF108991081051004501999999
0059035480999991943072221004+52467+000950FM-12+004699999V0200201N00461220001CN0040001N9+01391+01111999999ADDAY151999GA1001+999999999GF108991081051004501999999MW1501
0059035480999991943072222004+52467+000950FM-12+004699999V0200201N00261220001CN0040001N9+01331+01111999999ADDAY151999GA1071+999999999GF108991081051002501999999MW1511
0059035480999991943072223004+52467+000950FM-12+004699999V0200201N00261220001CN0040001N9+01281+01111999999ADDAY151999GA1061+999999999GF108991081051002501999999MW1511
0078035480999991943072224004+52467+000950FM-12+004699999V0200201N00261220001CN0040001N9+01281+01111999999ADDAY151999GA1091+999999999GF109991081051002501999999MW1511EQDQ01+000082SCOTCV
0059035480999991943072301004+52467+000950FM-12+004699999V0203601N00261220001CN0040001N9+01281+01111999999ADDAY151999GA1081+999999999GF108991081051004501999999MW1511
0078035480999991943072302004+52467+000950FM-12+004699999V0203601N00261220001CN0040001N9+01221+01171999999ADDAY151999GA1091+999999999GF109991081051002501999999MW1511EQDQ01+000082SCOTCV
0059035480999991943072303004+52467+000950FM-12+004699999V0203601N00261220001CN0040001N9+01221+01171999999ADDAY151999GA1001+999999999GF108991081051004501999999MW1511
0059035480999991943072304004+52467+000950FM-12+004699999V0203401N00261220001CN0040001N9+01221+01171999999ADDAY151999GA1061+999999999GF108991081051002501999999MW1511
0059035480999991943072305004+52467+000950FM-12+004699999V0203601N00261220001CN0040001N9+01171+01111999999ADDAY151999GA1061+999999999GF108991081051002501999999MW1511
0053035480999991943072306004+52467+000950FM-12+004699999V0203601N00261220001CN0020001N9+01111+01061999999ADDAY151999GA1061+999999999GF108991081051002501999999
0059035480999991943072307004+52467+000950FM-12+004699999V0203601N00261220001CN0020001N9+01111+01061999999ADDAY151999GA1071+999999999GF108991081051002501999999MW1511
0059035480999991943072308004+52467+000950FM-12+004699999V0200201N00261220001CN0020001N9+01171+01061999999ADDAY151999GA1071+999999999GF108991081051002501999999MW1511
0059035480999991943072309004+52467+000950FM-12+004699999V0203601N00261220001CN0020001N9+01221+01001999999ADDAY151999GA1071+999999999GF108991081051002501999999MW1511
0059035480999991943072310004+52467+000950FM-12+004699999V0200201N00261220001CN0020001N9+01221+01001999999ADDAY151999GA1081+999999999GF108991081051002501999999MW1511
0059035480999991943072311004+52467+000950FM-12+004699999V0200201N00261220001CN0020001N9+01221+01001999999ADDAY151999GA1081+999999999GF108991081051002501999999MW1511
0059035480999991943072312004+52467+000950FM-12+004699999V0200201N00261220001CN0020001N9+01281+01061999999ADDAY151999GA1081+999999999GF108991081051002501999999MW1201
0078035480999991943072313004+52467+000950FM-12+004699999V0200201N00261220001CN0040001N9+01331+00891999999ADDAY121999GA1091+999999999GF109991081051002501999999MW1051EQDQ01+000082SCOTCV
0078035480999991943072314004+52467+000950FM-12+004699999V0200201N00261220001CN0040001N9+01391+00941999999ADDAY121999GA1091+999999999GF109991081051002501999999MW1051EQDQ01+000082SCOTCV
0059035480999991943072315004+52467+000950FM-12+004699999V0200201N00261220001CN0040001N9+01441+00891999999ADDAY121999GA1021+999999999GF108991081051004501999999MW1051
0059035480999991943072316004+52467+000950FM-12+004699999V0200201N00101220001CN0040001N9+01501+00941999999ADDAY121999GA1051+999999999GF108991081051004501999999MW1051
0059035480999991943072317004+52467+000950FM-12+004699999V0200701N00261220001CN0040001N9+01561+00891999999ADDAY121999GA1051+999999999GF108991081051004501999999MW1051
0059035480999991943072318004+52467+000950FM-12+004699999V0202501N00101220001CN0040001N9+01561+00891999999ADDAY121999GA1051+999999999GF108991081051004501999999MW1051
0059035480999991943072319004+52467+000950FM-12+004699999V0201101N00261220001CN0040001N9+01561+00891999999ADDAY121999GA1061+999999999GF107991071051004501999999MW1051
0078035480999991943072320004+52467+000950FM-12+004699999V0201101N00101220001CN0040001N9+01671+00941999999ADDAY111999GA1081+999999999GF199999061071004501001999MW1051EQDQ01+000062SCOTCV
0059035480999991943072321004+52467+000950FM-12+004699999V0201101N00261220001CN0040001N9+01611+00891999999ADDAY121999GA1001+999999999GF107991071051008001999999MW1051
0059035480999991943072322004+52467+000950FM-12+004699999V0201101N00101220001CN0040001N9+01501+00941999999ADDAY121999GA1001+999999999GF107991071051008001999999MW1051
0059035480999991943072323004+52467+000950FM-12+004699999V0200701N00261220001CN0040001N9+01221+00611999999ADDAY111999GA1001+999999999GF106991061051008001041999MW1051
0059035480999991943072324004+52467+000950FM-12+004699999V0200901N00101220001CN0040001N9+01001+00441999999ADDAY111999GA1001+999999999GF102991021051008001001999MW1051
0043035480999991943072401004+52467+000950FM-12+004699999V0200901N00101220001CN0040001N9+00941+00831999999ADDAY111999GF100991001001999999001999MW1051
0043035480999991943072402004+52467+000950FM-12+004699999V0200901N00101220001CN0040001N9+00891+00831999999ADDAY101999GF100991001001999999001999MW1051
0043035480999991943072403004+52467+000950FM-12+004699999V0209991C00001220001CN0040001N9+00891+00781999999ADDAY101999GF104991001001999999071999MW1051
0078035480999991943072404004+52467+000950FM-12+004699999V0200501N00101220001CN0040001N9+00831+00721999999ADDAY111999GA1081+999999999GF199999041051004501071999MW1051EQDQ01+000072SCOTCV
0043035480999991943072405004+52467+000950FM-12+004699999V0209991C00001220001CN0005001N9+00781+00721999999ADDAY111999GF102991001001999999071999MW1121
0043035480999991943072406004+52467+000950FM-12+004699999V0200901N00101220001CN0002001N9+00781+00721999999ADDAY141999GF100991001001999999001999MW1121
0043035480999991943072407004+52467+000950FM-12+004699999V0200901N00101220001CN0000501N9+00781+00721999999ADDAY141999GF101991001001999999041999MW1121
0043035480999991943072408004+52467+000950FM-12+004699999V0200901N00101220001CN0020001N9+00941+00781999999ADDAY141999GF101991001001999999041999MW1051
0043035480999991943072409004+52467+000950FM-12+004699999V0209991C00001220001CN0020001N9+01221+00891999999ADDAY101999GF100991001001999999001999MW1051
0043035480999991943072410004+52467+000950FM-12+004699999V0209991C00001220001CN0040001N9+01441+01001999999ADDAY101999GF100991001001999999001999MW1051
0059035480999991943072411004+52467+000950FM-12+004699999V0209991C00001220001CN0040001N9+01611+01001999999ADDAY101999GA1001+999999999GF104991041011004501001999MW1051
0059035480999991943072412004+52467+000950FM-12+004699999V0200201N00261220001CN0040001N9+01831+01001999999ADDAY111999GA1021+999999999GF104991041011004501001999MW1051
0053035480999991943072413004+52467+000950FM-12+004699999V0202901N00101220001CN0100001N9+01891+00891999999ADDAY111999GA1001+999999999GF101991011011008001001999
0053035480999991943072414004+52467+000950FM-12+004699999V0203601N00101220001CN0100001N9+02061+00891999999ADDAY111999GA1001+999999999GF101991011011008001001999
0053035480999991943072415004+52467+000950FM-12+004699999V0200901N00101220001CN0100001N9+02111+00831999999ADDAY111999GA1001+999999999GF101991011011008001001999
0037035480999991943072416004+52467+000950FM-12+004699999V0200501N00101220001CN0100001N9+02281+00891999999ADDAY101999GF100991001001999999001999
0037035480999991943072417004+52467+000950FM-12+004699999V0200501N00261220001CN0100001N9+02391+00831999999ADDAY101999GF100991001001999999001999
0037035480999991943072418004+52467+000950FM-12+004699999V0200501N00101220001CN0100001N9+02391+00831999999ADDAY101999GF100991001001999999001999
0037035480999991943072419004+52467+000950FM-12+004699999V0201101N00461220001CN0100001N9+02281+00941999999ADDAY101999GF100991001001999999001999
0037035480999991943072420004+52467+000950FM-12+004699999V0201401N00461220001CN0100001N9+02111+01111999999ADDAY101999GF100991001001999999001999
0043035480999991943072421004+52467+000950FM-12+004699999V0201401N00461220001CN0040001N9+01891+01111999999ADDAY101999GF100991001001999999001999MW1051
0043035480999991943072422004+52467+000950FM-12+004699999V0201401N00261220001CN0040001N9+01611+01111999999ADDAY101999GF100991001001999999001999MW1051
0043035480999991943072423004+52467+000950FM-12+004699999V0201401N00461220001CN0040001N9+01441+01111999999ADDAY101999GF100991001001999999001999MW1051
0043035480999991943072424004+52467+000950FM-12+004699999V0201401N00261220001CN0040001N9+01391+01061999999ADDAY101999GF100991001001999999001999MW1051
0043035480999991943072501004+52467+000950FM-12+004699999V0201101N00261220001CN0040001N9+01281+01061999999ADDAY101999GF100991001001999999001999MW1051
0043035480999991943072502004+52467+000950FM-12+004699999V0201401N00261220001CN0040001N9+01281+01061999999ADDAY101999GF100991001001999999001999MW1051
0043035480999991943072503004+52467+000950FM-12+004699999V0201401N00261220001CN0040001N9+01221+01001999999ADDAY101999GF100991001001999999001999MW1051
0043035480999991943072504004+52467+000950FM-12+004699999V0201401N00101220001CN0040001N9+01061+00941999999ADDAY101999GF100991001001999999001999MW1051
0043035480999991943072505004+52467+000950FM-12+004699999V0201401N00101220001CN0020001N9+01111+01001999999ADDAY101999GF100991001001999999001999MW1051
0043035480999991943072506004+52467+000950FM-12+004699999V0201601N00261220001CN0020001N9+01221+01001999999ADDAY101999GF100991001001999999001999MW1051
0043035480999991943072507004+52467+000950FM-12+004699999V0201601N00261220001CN0020001N9+01221+01001999999ADDAY101999GF100991001001999999001999MW1051
0043035480999991943072508004+52467+000950FM-12+004699999V0201601N00101220001CN0020001N9+01281+01171999999ADDAY101999GF100991001001999999001999MW1051
0043035480999991943072509004+52467+000950FM-12+004699999V0201601N00261220001CN0020001N9+01501+01281999999ADDAY101999GF100991001001999999001999MW1051
0043035480999991943072510004+52467+000950FM-12+004699999V0201601N00261220001CN0040001N9+01721+01331999999ADDAY101999GF100991001001999999001999MW1051
0043035480999991943072511004+52467+000950FM-12+004699999V0201601N00261220001CN0040001N9+02001+01221999999ADDAY101999GF100991001001999999001999MW1051
0078035480999991943072512004+52467+000950FM-12+004699999V0201801N00261220001CN0040001N9+02111+01221999999ADDAY101999GA1051+999999999GF199999011011008001001999MW1051EQDQ01+000012SCOTCV
0078035480999991943072513004+52467+000950FM-12+004699999V0202001N00101220001CN0040001N9+02331+01281999999ADDAY101999GA1041+999999999GF199999011011008001001999MW1051EQDQ01+000012SCOTCV
0078035480999991943072514004+52467+000950FM-12+004699999V0202301N00261220001CN0040001N9+02391+01221999999ADDAY101999GA1041+999999999GF199999011011008001001999MW1051EQDQ01+000012SCOTCV
0078035480999991943072515004+52467+000950FM-12+004699999V0201401N00261220001CN0040001N9+02391+01221999999ADDAY101999GA1051+999999999GF199999011011008001001999MW1051EQDQ01+000012SCOTCV
0078035480999991943072516004+52467+000950FM-12+004699999V0202301N00461220001CN0040001N9+02561+01281999999ADDAY101999GA1051+999999999GF199999011011008001001999MW1051EQDQ01+000012SCOTCV
0059035480999991943072517004+52467+000950FM-12+004699999V0201601N00461220001CN0040001N9+02611+01281999999ADDAY101999GA1001+999999999GF100991001001999999001999MW1051
0059035480999991943072518004+52467+000950FM-12+004699999V0201601N00461220001CN0040001N9+02671+99999999999ADDAY101999GA1001+999999999GF100991001001999999001999MW1051
0053035480999991943072519004+52467+000950FM-12+004699999V0201601N00461220001CN0100001N9+02441+99999999999ADDAY101999GA1001+999999999GF100991001001999999001999
0053035480999991943072520004+52467+000950FM-12+004699999V0201401N00461220001CN0100001N9+02391+99999999999ADDAY101999GA1001+999999999GF100991001001999999001999
0053035480999991943072521004+52467+000950FM-12+004699999V0201601N00461220001CN0100001N9+02061+99999999999ADDAY101999GA1001+999999999GF100991001001999999001999
0053035480999991943072522004+52467+000950FM-12+004699999V0201601N00461220001CN0100001N9+01831+99999999999ADDAY101999GA1001+999999999GF100991001001999999001999
0053035480999991943072523004+52467+000950FM-12+004699999V0201601N00261220001CN0100001N9+01611+99999999999ADDAY101999GA1001+999999999GF100991001001999999001999
0043035480999991943072524004+52467+000950FM-12+004699999V0201601N00261220001CN0040001N9+01501+99999999999ADDAY101999GF101991001001999999071999MW1051
0043035480999991943072601004+52467+000950FM-12+004699999V0201801N00261220001CN0040001N9+01441+99999999999ADDAY101999GF101991001001999999071999MW1051
0043035480999991943072602004+52467+000950FM-12+004699999V0201801N00261220001CN0040001N9+01391+99999999999ADDAY101999GF100991001001999999001999MW1051
0043035480999991943072603004+52467+000950FM-12+004699999V0201601N00261220001CN0040001N9+01331+99999999999ADDAY101999GF100991001001999999001999MW1051
0043035480999991943072604004+52467+000950FM-12+004699999V0201601N00261220001CN0040001N9+01331+99999999999ADDAY101999GF100991001001999999001999MW1051
0043035480999991943072605004+52467+000950FM-12+004699999V0201801N00261220001CN0020001N9+01331+99999999999ADDAY101999GF100991001001999999001999MW1051
0043035480999991943072606004+52467+000950FM-12+004699999V0201601N00261220001CN0005001N9+01281+99999999999ADDAY101999GF100991001001999999001999MW1461
0043035480999991943072607004+52467+000950FM-12+004699999V0201801N00261220001CN0010001N9+01331+99999999999ADDAY141999GF102991001001999999071999MW1421
0043035480999991943072608004+52467+000950FM-12+004699999V0201801N00101220001CN0010001N9+01441+99999999999ADDAY121999GF106991001001999999031999MW1421
0043035480999991943072609004+52467+000950FM-12+004699999V0202001N00101220001CN0020001N9+01561+99999999999ADDAY121999GF106991001001999999031999MW1051
0043035480999991943072610004+52467+000950FM-12+004699999V0202501N00101220001CN0040001N9+01891+99999999999ADDAY111999GF101991001001999999001999MW1051
0043035480999991943072611004+52467+000950FM-12+004699999V0202501N00261220001CN0040001N9+02111+99999999999ADDAY101999GF101991001001999999001999MW1051
0053035480999991943072612004+52467+000950FM-12+004699999V0202501N00261220001CN0100001N9+02281+99999999999ADDAY111999GA1001+999999999GF102991011011012501031999
0072035480999991943072613004+52467+000950FM-12+004699999V0202001N00461220001CN0100001N9+02441+99999999999ADDAY111999GA1061+999999999GF199999021011008001001999EQDQ01+000022SCOTCV
0053035480999991943072614004+52467+000950FM-12+004699999V0202001N00461220001CN0100001N9+02501+99999999999ADDAY111999GA1041+999999999GF104991041021008001001999
0053035480999991943072615004+52467+000950FM-12+004699999V0201601N00261220001CN0100001N9+02611+99999999999ADDAY111999GA1041+999999999GF106991061021008001001999
0053035480999991943072616004+52467+000950FM-12+004699999V0202001N00461220001CN0100001N9+02671+99999999999ADDAY111999GA1041+999999999GF106991041021008001061999
0053035480999991943072617004+52467+000950FM-12+004699999V0202001N00461220001CN0100001N9+02721+99999999999ADDAY111999GA1041+999999999GF106991041021008001001999
0053035480999991943072618004+52467+000950FM-12+004699999V0202501N00461220001CN0100001N9+02831+99999999999ADDAY111999GA1041+999999999GF106991061021008001001999
0043035480999991943072619004+52467+000950FM-12+004699999V0202501N00461220001CN0040001N9+02721+99999999999ADDAY111999GF107991001001999999051999MW1051
0043035480999991943072620004+52467+000950FM-12+004699999V0202701N00261220001CN0040001N9+02561+99999999999ADDAY121999GF107991001001999999051999MW1051
0043035480999991943072621004+52467+000950FM-12+004699999V0202001N00461220001CN0040001N9+02441+99999999999ADDAY121999GF106991001001999999071999MW1051
0043035480999991943072622004+52467+000950FM-12+004699999V0202301N00261220001CN0040001N9+02221+99999999999ADDAY121999GF106991001001999999071999MW1051
0043035480999991943072623004+52467+000950FM-12+004699999V0202001N00261220001CN0040001N9+02061+99999999999ADDAY121999GF106991001001999999071999MW1051
0043035480999991943072624004+52467+000950FM-12+004699999V0202001N00261220001CN0040001N9+01941+99999999999ADDAY111999GF104991001001999999071999MW1051
0043035480999991943072701004+52467+000950FM-12+004699999V0202001N00261220001CN0040001N9+01831+99999999999ADDAY111999GF104991001001999999071999MW1051
0043035480999991943072702004+52467+000950FM-12+004699999V0202301N00261220001CN0040001N9+01721+99999999999ADDAY101999GF100991001001999999001999MW1051
0043035480999991943072703004+52467+000950FM-12+004699999V0202501N00261220001CN0040001N9+01611+99999999999ADDAY101999GF100991001001999999001999MW1051
0043035480999991943072704004+52467+000950FM-12+004699999V0202501N00261220001CN0040001N9+01561+99999999999ADDAY101999GF101991001001999999071999MW1051
0043035480999991943072705004+52467+000950FM-12+004699999V0202501N00261220001CN0020001N9+01441+99999999999ADDAY111999GF106991001001999999031999MW1051
0043035480999991943072706004+52467+000950FM-12+004699999V0202701N00261220001CN0020001N9+01441+99999999999ADDAY111999GF107991001001999999071999MW1051
0043035480999991943072707004+52467+000950FM-12+004699999V0202501N00261220001CN0020001N9+01561+99999999999ADDAY121999GF107991001001999999071999MW1051
0043035480999991943072708004+52467+000950FM-12+004699999V0202701N00261220001CN0040001N9+01561+99999999999ADDAY121999GF107991001001999999071999MW1051
0043035480999991943072709004+52467+000950FM-12+004699999V0202501N00261220001CN0040001N9+01561+99999999999ADDAY121999GF106991001001999999071999MW1051
0043035480999991943072710004+52467+000950FM-12+004699999V0202501N00261220001CN0040001N9+01941+99999999999ADDAY121999GF107991001001999999071999MW1051
0043035480999991943072711004+52467+000950FM-12+004699999V0202501N00261220001CN0040001N9+02111+99999999999ADDAY121999GF106991001001999999071999MW1051
0043035480999991943072712004+52467+000950FM-12+004699999V0202501N00261220001CN0040001N9+02391+99999999999ADDAY121999GF106991001001999999071999MW1051
0043035480999991943072713004+52467+000950FM-12+004699999V0202701N00461220001CN0040001N9+02441+99999999999ADDAY121999GF106991001001999999071999MW1051
0043035480999991943072714004+52467+000950FM-12+004699999V0202501N00461220001CN0040001N9+02561+99999999999ADDAY121999GF106991001001999999071999MW1051
0059035480999991943072715004+52467+000950FM-12+004699999V0202701N00261220001CN0040001N9+02671+99999999999ADDAY121999GA1001+999999999GF106991001001999999071999MW1051
0053035480999991943072716004+52467+000950FM-12+004699999V0202301N00261220001CN0100001N9+02831+99999999999ADDAY121999GA1001+999999999GF104991011011008001041999
0053035480999991943072717004+52467+000950FM-12+004699999V0202001N00261220001CN0100001N9+02891+99999999999ADDAY121999GA1001+999999999GF106991011011008001041999
0053035480999991943072718004+52467+000950FM-12+004699999V0202501N00261220001CN0100001N9+02891+99999999999ADDAY121999GA1001+999999999GF106991011011008001041999
0053035480999991943072719004+52467+000950FM-12+004699999V0202701N00461220001CN0100001N9+02721+99999999999ADDAY121999GA1051+999999999GF107991041011012501051999
0059035480999991943072720004+52467+000950FM-12+004699999V0203401N00461220001CN0040001N9+02611+99999999999ADDAY121999GA1051+999999999GF107991041011012501051999MW1051
0059035480999991943072721004+52467+000950FM-12+004699999V0200501N00261220001CN0040001N9+02331+99999999999ADDAY121999GA1051+999999999GF107991011011012501041999MW1051
0043035480999991943072722004+52467+000950FM-12+004699999V0200501N00261220001CN0040001N9+02111+99999999999ADDAY121999GF104991001001999999041999MW1051
0043035480999991943072723004+52467+000950FM-12+004699999V0200201N00261220001CN0040001N9+01941+99999999999ADDAY121999GF106991001001999999041999MW1051
0043035480999991943072724004+52467+000950FM-12+004699999V0200201N00101220001CN0040001N9+01891+99999999999ADDAY121999GF106991001001999999041999MW1051
0043035480999991943072801004+52467+000950FM-12+004699999V0202501N00101220001CN0040001N9+01831+99999999999ADDAY111999GF104991001001999999041999MW1051
0043035480999991943072802004+52467+000950FM-12+004699999V0209991C00001220001CN0040001N9+01831+99999999999ADDAY111999GF104991001001999999041999MW1051
0043035480999991943072803004+52467+000950FM-12+004699999V0202301N00101220001CN0040001N9+01831+99999999999ADDAY111999GF104991001001999999071999MW1051
0043035480999991943072804004+52467+000950FM-12+004699999V0202501N00261220001CN0020001N9+01781+99999999999ADDAY111999GF104991001001999999071999MW1051
0043035480999991943072805004+52467+000950FM-12+004699999V0202501N00261220001CN0020001N9+01781+99999999999ADDAY111999GF104991001001999999071999MW1051
0043035480999991943072806004+52467+000950FM-12+004699999V0202701N00261220001CN0020001N9+01721+99999999999ADDAY111999GF104991001001999999071999MW1051
0043035480999991943072807004+52467+000950FM-12+004699999V0202701N00261220001CN0040001N9+01721+99999999999ADDAY111999GF104991001001999999041999MW1051
0043035480999991943072808004+52467+000950FM-12+004699999V0202701N00261220001CN0040001N9+01941+99999999999ADDAY111999GF102991001001999999041999MW1051
0043035480999991943072809004+52467+000950FM-12+004699999V0202901N00261220001CN0040001N9+01941+99999999999ADDAY101999GF100991001001999999001999MW1051
0043035480999991943072810004+52467+000950FM-12+004699999V0202901N00261220001CN0040001N9+02221+99999999999ADDAY101999GF100991001001999999001999MW1051
0062035480999991943072811004+52467+000950FM-12+004699999V0202701N00261220001CN0100001N9+02391+99999999999ADDAY101999GF104991001999999999001999MW1051EQDQ01+000012SCOLCG
0053035480999991943072812004+52467+000950FM-12+004699999V0202701N00461220001CN0100001N9+02501+99999999999ADDAY111999GA1051+999999999GF106991041011008001001999
0053035480999991943072813004+52467+000950FM-12+004699999V0202701N00461220001CN0100001N9+02561+99999999999ADDAY111999GA1001+999999999GF104991041011008001001999
0053035480999991943072814004+52467+000950FM-12+004699999V0202301N00261220001CN0100001N9+02671+99999999999ADDAY111999GA1001+999999999GF106991041011008001001999
0053035480999991943072815004+52467+000950FM-12+004699999V0202701N00671220001CN0100001N9+02831+99999999999ADDAY111999GA1001+999999999GF104991041011008001001999
0053035480999991943072816004+52467+000950FM-12+004699999V0202701N00261220001CN0100001N9+02941+99999999999ADDAY111999GA1001+999999999GF106991021011008001001999
0053035480999991943072817004+52467+000950FM-12+004699999V0202501N00461220001CN0100001N9+03001+99999999999ADDAY111999GA1001+999999999GF106991021011008001001999
