0147722540139042014010100004+30300-097700FM-12+018999999V0201601N001519999999N016000199+00941-00331102701ADDKA1120M+01281KA2120N+00221MA1999990100361MD1510031+9999REMSYN08072254 35966 01603 10094 21033 30036 40270 55003 92351 333 10128 20022 555 90100=
0216722540139042014010100537+30183-097680FM-15+0151KAUS V0301605N002652200059N0160935N5+00565-00115102685ADDAA101000095GA1045+060965991GD12991+0609659GE19MSL   +99999+99999GF199999990990060961991991MA1102615100796REMMET09912/31/13 18:53:03 METAR KAUS 010053Z 16005KT 10SM SCT200 06/M01 A3030 RMK AO2 SLP268 T00561011 (DF)
0216722540139042014010101537+30183-097680FM-15+0151KAUS V0303505N002152200059N0160935N5+00175-00175102695ADDAA101000095GA1025+060965991GD11991+0609659GE19MSL   +99999+99999GF199999990990060961991991MA1102615100795REMMET09912/31/13 19:53:03 METAR KAUS 010153Z 35004KT 10SM FEW200 02/M02 A3030 RMK AO2 SLP269 T00171017 (DF)
0236722540139042014010102537+30183-097680FM-15+0151KAUS V0309999C000052200059N0160935N5+00175-00115102675ADDAA101000095GA1025+060965991GD11991+0609659GE19MSL   +99999+99999GF199999990990060961991991MA1102615100795MD1690044+9999REMMET10512/31/13 20:53:03 METAR KAUS 010253Z 00000KT 10SM FEW200 02/M01 A3030 RMK AO2 SLP267 T00171011 56004 (DF)
0216722540139042014010103537+30183-097680FM-15+0151KAUS V0309999C000052200059N0160935N5+00115-00115102655ADDAA101000095GA1045+076205991GD12991+0762059GE19MSL   +99999+99999GF199999990990076201991991MA1102575100755REMMET09912/31/13 21:53:03 METAR KAUS 010353Z 00000KT 10SM SCT250 01/M01 A3029 RMK AO2 SLP265 T00111011 (DP)
0216722540139042014010104537+30183-097680FM-15+0151KAUS V0302005N00155030485MN0160935N5+00285-00065102595ADDAA101000095GA1075+030485991GD13991+0304859GE19MSL   +99999+99999GF199999990990030481991991MA1102545100725REMMET09912/31/13 22:53:03 METAR KAUS 010453Z 20003KT 10SM BKN100 03/M01 A3028 RMK AO2 SLP259 T00281006 (DP)
0310722540139042014010105537+30183-097680FM-15+0151KAUS V0309999C00005028965MN0160935N5+00285-00065102525ADDAA101000095GA1075+028965991GD13991+0289659GE19MSL   +99999+99999GF199999990990028961991991KA1060M+00721KA2060N+00001KA3240M+01061KA4240N+00001MA1102475100655MD1890134+9999REMMET12712/31/13 23:53:03 METAR KAUS 010553Z 00000KT 10SM BKN095 03/M01 A3026 RMK AO2 SLP252 T00281006 10072 20000 401060000 58013 (DP)
0889722540139042014010105596+30183-097680SOD  +0151KAUS V030999999999999999999999999999+99999+99999999999ADDAA124000095AJ100009599999999AN1024000095KA1024M+01065KA2024N+00005MG1100954102514OE11240053615099995OE22240040217099995OE33240010399999995REMSOD73924 HR PRECIPITATION (IN): 0.00 SNOW DEPTH (IN):0     24 HR SNOWFALL (IN):0.0  24 HR MAX TEMP (F): 5124 HR MIN TEMP (F): 32AVERAGE STATION PRESSURE:29.810 MINIMUM SEA LEVEL PRESSURE:30.27 TIME OF OCCURRENCE:2359 PEAK WIND SPEED (MPH): 12 PEAK WIND DIR (DEG):150 PEAK WIND TIME (LST):      FASTEST 2MIN SPEED (MPH):  9FASTEST 2MIN DIR (DEG):170 FASTEST 2MIN TIME (LST):     AVERAGE WIND SPEED (MPH): 2.3 24 HR AVG TEMP (F): 42DEPART FROM NORMAL: -7  HEATING DEGREE DAYS: 23 COOLING DEGREE DAYS:  0 LATEST DAY MAX TEMP (0700-1900 LST):51  LATEST NIGHT MIN TEMP(1900-0800 LST):33 HOURLY INCREMENTAL PRECIPITATION VALUES (IN):.00 0.00 0.00 0.00 0.00 0.00 0.00 0.00 0.00 0.00 0.00 0.00 0.00 0.00 0.00 0.00 0.00 0.00 0.00 0.00 0.00 0.00 0.00 0.00
1304722540139042014010105596+30183-097680SOM  +0151KAUS V030999999999999999999999999999+99999+99999999999ADDAB10021895AD10015092121999999995AE1055025015005AH1005003392110435AH2010004392110475AH3015005892110535AH4020006692110575AH5030007192111005AH6045008192111165AI1060009792111345AI2080009992111405AI3100010492112165AI4120010492112165AI5150010492112165AI6180010492112169AK1000099999999AM1000040808999999999AN1744000039KB1744N+01835KB2744M+15339KB3744A+08569KC1N9-00442499995KC2M9+03000399995KD1744H05266KD2744C00055KE1019009169009MH110034U102179MK1103661209539100072103539REMSOM792PCP MTOT:0.86 PCP GT 24HRS:0.59 DATE(S):21 DAYS W/PCP >=.01:5  DAYS W/PCP >=.10:2  DAYS W/ PCP >=.50:1 DAYS W/PCP >=1.00:0 MSDP AMTS W/DATE-TIME TAGS:MIN:5 0.13  21/1043 MIN:10 0.17  21/1047 MIN:15 0.23  21/1053 MIN:20 0.26  21/1057 MIN:30 0.28  21/1100 MIN:45 0.32  21/1116 MIN:60 0.38  21/1134 MIN:80 0.39  21/1140 MIN:100 0.41  21/1216 MIN:120 0.41  21/1216 MIN:150 0.41  21/1216 MIN:180 0.41  21/1216 AVG DLY MIN:35.3  AVG DLY MAX:60.8  AVG MLY TMP:48.1  MIN TMP:24 DATE(S):24 MAX TMP:86  DATE(S):03 DAYS MAX <=32:1 DAYS MAX >=90:0  DAYS MIN <=32:16 DAYS MIN  <=0:0  AVG STP:29.630 LWST SLP:29.53 DATE/TIME:210400 HGST SLP:30.62 DATE/TIME:121013 HDD MTH TOT:526 DEP NORM:-2553 SEASON(JUL 1-JUN 30):851 DEP NORM:-25536 CDD MTH TOT:5 DEP NORM:-2553 SEASON(JAN 1-DEC 31):3031 DEP NORM:-25536EQDR01  0.417A12079R02   5267KDH045
0147722540139042014010106004+30300-097700FM-12+018999999V0209999C000019999999N016000199+00501-00111102511ADDKA1240M+00941KA2240N+00221MA1999990100202MD1810121+9999REMSYN08072254 35966 00000 10050 21011 30020 40251 58012 90551 333 10094 20022 555 90106=
0215722540139042014010106537+30183-097680FM-15+0151KAUS V0309999C000052200059N0144845N5+00115-00115102475ADDAA101000095GA1025+076205991GD11991+0762059GE19MSL   +99999+99999GF199999990990076201991991MA1102405100595REMMET09801/01/14 00:53:02 METAR KAUS 010653Z 00000KT 9SM FEW250 01/M01 A3024 RMK AO2 SLP247 T00111011 (DP)
0214722540139042014010107537+30183-097680FM-15+0151KAUS V0301805N00155027435MN0144845N5+00335+00115102415ADDAA101000095GA1075+027435991GD13991+0274359GE19MSL   +99999+99999GF199999990990027431991991MA1102375100555REMMET09701/01/14 01:53:02 METAR KAUS 010753Z 18003KT 9SM BKN090 03/01 A3023 RMK AO2 SLP241 T00330011 (DP)
0273722540139042014010108537+30183-097680FM-15+0151KAUS V0309999C000052200059N0160935N5+00335+00005102355ADDAA101000095GA1025+024385991GA2045+076205991GD11991+0243859GD22991+0762059GE19MSL   +99999+99999GF199999990990024381991991MA1102305100495MD1890164+9999REMMET11101/01/14 02:53:02 METAR KAUS 010853Z 00000KT 10SM FEW080 SCT250 03/00 A3021 RMK AO2 SLP235 T00330000 58016 (DP)
0216722540139042014010109537+30183-097680FM-15+0151KAUS V0309999C000052200059N0160935N5+00175-00065102325ADDAA101000095GA1025+030485991GD11991+0304859GE19MSL   +99999+99999GF199999990990030481991991MA1102275100455REMMET09901/01/14 03:53:02 METAR KAUS 010953Z 00000KT 10SM FEW100 02/M01 A3020 RMK AO2 SLP232 T00171006 (DP)
0216722540139042014010110537+30183-097680FM-15+0151KAUS V0309999C000052200059N0160935N5+00335-00065102255ADDAA101000095GA1025+030485991GD11991+0304859GE19MSL   +99999+99999GF199999990990030481991991MA1102245100425REMMET09901/01/14 04:53:02 METAR KAUS 011053Z 00000KT 10SM FEW100 03/M01 A3019 RMK AO2 SLP225 T00331006 (DP)
0274722540139042014010111537+30183-097680FM-15+0151KAUS V0302105N001552200059N0160935N5+00285-00065102245ADDAA101000095GA1025+030485991GD11991+0304859GE19MSL   +99999+99999GF199999990990030481991991KA1060M+00391KA2060N+00061MA1102205100395MD1690124+9999REMMET11701/01/14 05:53:02 METAR KAUS 011153Z 21003KT 10SM FEW100 03/M01 A3018 RMK AO2 SLP224 T00281006 10039 20006 56012 (DP)
0214722540139042014010112004+30300-097700FM-12+018999999V0209999N001519999999N016000199+00441-00111102221ADDGE19MSL   +99999+99999GF106991990990999990991991KA1240M+01281KA2240N+00391MA1999990999999MD1610131+9999REMSYN08072254 35966 6//03 10044 21011 39990 40222 56013 91151 333 10128 20039 555 90112=EQDQ01 099903APOSP 
0215722540139042014010112537+30183-097680FM-15+0151KAUS V0301905N001552200059N0144845N5+00225-00065102225ADDAA101000095GA1025+030485991GD11991+0304859GE19MSL   +99999+99999GF199999990990030481991991MA1102175100355REMMET09801/01/14 06:53:02 METAR KAUS 011253Z 19003KT 9SM FEW100 02/M01 A3017 RMK AO2 SLP222 T00221006 (DP)
0278722540139042014010113537+30183-097680FM-15+0151KAUS V0309999C000052200059N0096565N5+00335+00005102225ADDAA101000095AU100007015AW1051GA1025+036585991GA2045+060965991GD11991+0365859GD22991+0609659GE19MSL   +99999+99999GF199999990990036581991991MA1102175100355MW1055REMMET10701/01/14 07:53:02 METAR KAUS 011353Z 00000KT 6SM HZ FEW120 SCT200 03/00 A3017 RMK AO2 SLP222 T00330000 (DP)
0272722540139042014010114537+30183-097680FM-15+0151KAUS V0302105N004152200059N0112655N5+00785+00115102195ADDAA101000095GA1025+036585991GA2045+060965991GD11991+0365859GD22991+0609659GE19MSL   +99999+99999GF199999990990036581991991MA1102135100325MD1690054+9999REMMET11001/01/14 08:53:02 METAR KAUS 011453Z 21008KT 7SM FEW120 SCT200 08/01 A3016 RMK AO2 SLP219 T00780011 56005 (JP)
0252722540139042014010115537+30183-097680FM-15+0151KAUS V0302105N006252200059N0128755N5+01065+00335102205ADDAA101000095GA1025+045725991GA2045+076205991GD11991+0457259GD22991+0762059GE19MSL   +99999+99999GF199999990990045721991991MA1102175100355REMMET10401/01/14 09:53:02 METAR KAUS 011553Z 21012KT 8SM FEW150 SCT250 11/03 A3017 RMK AO2 SLP220 T01060033 (JP)
0253722540139042014010116537+30183-097680FM-15+0151KAUS V0301905N005752200059N0160935N5+01285+00505102165ADDAA101000095GA1025+045725991GA2045+076205991GD11991+0457259GD22991+0762059GE19MSL   +99999+99999GF199999990990045721991991MA1102135100325REMMET10501/01/14 10:53:02 METAR KAUS 011653Z 19011KT 10SM FEW150 SCT250 13/05 A3016 RMK AO2 SLP216 T01280050 (JP)
0311722540139042014010117537+30183-097680FM-15+0151KAUS V0301905N00575014025MN0160935N5+01395+00615102045ADDAA101000095GA1075+014025991GA2075+045725991GD13991+0140259GD23991+0457259GE19MSL   +99999+99999GF199999990990014021991991KA1060M+01501KA2060N+00221MA1102005100195MD1890134+9999REMMET12301/01/14 11:53:02 METAR KAUS 011753Z 19011KT 10SM BKN046 BKN150 14/06 A3012 RMK AO2 SLP204 T01390061 10150 20022 58013 (JP)
0195722540139042014010118004+30300-097700FM-12+018999999V0201901N002119999999N016000199+01611+00671102021ADDGE19MSL   +99999+99999GF108991990990999990991991KA1120M+01671KA2120N+00391MA1999990099762MD1810131+9999REMSYN08072254 35666 81904 10161 20067 39976 40202 58013 91751 333 10167 20039 555 90118=
0291722540139042014010118537+30183-097680FM-15+0151KAUS V0302005N00625016765MN0160935N5+01675+00785101875ADDAA101000095GA1045+012805991GA2075+016765991GA3075+060965991GD12991+0128059GD23991+0167659GD33991+0609659GE19MSL   +99999+99999GF199999990990012801991991MA1101865100055REMMET11201/01/14 12:53:02 METAR KAUS 011853Z 20012KT 10SM SCT042 BKN055 BKN200 17/08 A3008 RMK AO2 SLP187 T01670078 (JP)
0291722540139042014010119537+30183-097680FM-15+0151KAUS V0302005N00575018295MN0160935N5+01675+00785101745ADDAA101000095GA1045+010365991GA2075+018295991GA3075+060965991GD12991+0103659GD23991+0182959GD33991+0609659GE19MSL   +99999+99999GF199999990990010361991991MA1101735099925REMMET11201/01/14 13:53:02 METAR KAUS 011953Z 20011KT 10SM SCT034 BKN060 BKN200 17/08 A3004 RMK AO2 SLP174 T01670078 (JP)
0273722540139042014010120537+30183-097680FM-15+0151KAUS V0301905N00625018295MN0160935N5+01675+00835101705ADDAA101000095GA1045+010365991GA2085+018295991GD12991+0103659GD24991+0182959GE19MSL   +99999+99999GF199999990990010361991991MA1101695099895MD1690324+9999REMMET11101/01/14 14:53:02 METAR KAUS 012053Z 19012KT 10SM SCT034 OVC060 17/08 A3003 RMK AO2 SLP170 T01670083 56032 (JP)
0302722540139042014010121537+30183-097680FM-15+0151KAUS V0302005N00515019815MN0160935N5+01675+00895101695ADDAA101000095GA1045+009145991GA2075+019815991GA3075+060965991GD12991+0091459GD23991+0198159GD33991+0609659GE19MSL   +99999+99999GF199999990990009141991991MA1101665099855OC100885REMMET11501/01/14 15:53:02 METAR KAUS 012153Z 20010G17KT 10SM SCT030 BKN065 BKN200 17/09 A3002 RMK AO2 SLP169 T01670089 (JP)
0183722540139042014010122516+30183-097680FM-16+0151KAUS V0302005N00625007925MN0160935N5+01605+00905999999ADDGA1075+007925999GA2075+015245999GD13991+0079259GD23991+0152459MA1101665099855REMMET09401/01/14 16:51:02 SPECI KAUS 012251Z 20012KT 10SM BKN026 BKN050 16/09 A3002 RMK AO2 FIBI (JTP)
0254722540139042014010122537+30183-097680FM-15+0151KAUS V0302005N00515007925MN0160935N5+01565+00895101675ADDAA101000095GA1075+007925991GA2075+015245991GD13991+0079259GD23991+0152459GE19MSL   +99999+99999GF199999990990007921991991MA1101665099855REMMET10601/01/14 16:53:02 METAR KAUS 012253Z 20010KT 10SM BKN026 BKN050 16/09 A3002 RMK AO2 SLP167 T01560089 (JTP)
0312722540139042014010123537+30183-097680FM-15+0151KAUS V0302005N00415007925MN0160935N5+01445+00835101685ADDAA101000095GA1075+007925991GA2075+015245991GD13991+0079259GD23991+0152459GE19MSL   +99999+99999GF199999990990007921991991KA1060M+01781KA2060N+01391MA1101665099855MD1590024+9999REMMET12401/01/14 17:53:02 METAR KAUS 012353Z 20008KT 10SM BKN026 BKN050 14/08 A3002 RMK AO2 SLP168 T01440083 10178 20139 55002 (JTP)
0166722540139042014010200004+30300-097700FM-12+018999999V0201901N003119999999N016000199+01501+00891101661ADDKA1120M+02061KA2120N+00391MA1999990999999MD1510001+9999REMSYN08072254 35966 01906 10150 20089 39940 40166 55000 92351 333 10206 20039 555 90200=EQDQ01 099403APOSP 
0220722540139042014010200047+30183-097680FM-16+0151KAUS V0301905N00415013725MN0160935N5+01405+00805999999ADDGA1045+008235991GA2075+013725991GD12991+0082359GD23991+0137259GE19MSL   +99999+99999GF199999990990008231991991MA1101665099855REMMET08301/01/14 18:04:01 SPECI KAUS 020004Z 19008KT 10SM SCT027 BKN045 14/08 A3002 RMK AO2
0183722540139042014010200516+30183-097680FM-16+0151KAUS V0302005N00155004885MN0160935N5+01205+00805999999ADDGA1075+004885999GA2075+013725999GD13991+0048859GD23991+0137259MA1101665099855REMMET09401/01/14 18:51:03 SPECI KAUS 020051Z 20003KT 10SM BKN016 BKN045 12/08 A3002 RMK AO2 FIBI (JTP)
0248722540139042014010200537+30183-097680FM-15+0151KAUS V0302105N00215004885MN0160935N5+01225+00785101705ADDAA101000095GA1075+004885991GA2075+013725991GD13991+0048859GD23991+0137259GE19MSL   +99999+99999GF199999990990004881991991MA1101695099895REMMET10001/01/14 18:53:01 METAR KAUS 020053Z 21004KT 10SM BKN016 BKN045 12/08 A3003 RMK AO2 SLP170 T01220078
0210722540139042014010201537+30183-097680FM-15+0151KAUS V0302005N00265007925MN0160935N5+01065+00785101715ADDAA101000095GA1075+007925991GD13991+0079259GE19MSL   +99999+99999GF199999990990007921991991MA1101695099895REMMET09301/01/14 19:53:01 METAR KAUS 020153Z 20005KT 10SM BKN026 11/08 A3003 RMK AO2 SLP171 T01060078
0182722540139042014010202127+30183-097680FM-16+0151KAUS V0301905N002152200059N0160935N5+01105+00805999999ADDGA1045+007925991GD12991+0079259GE19MSL   +99999+99999GF199999990990007921991991MA1101695099895REMMET07601/01/14 20:12:01 SPECI KAUS 020212Z 19004KT 10SM SCT026 11/08 A3003 RMK AO2
0145722540139042014010202516+30183-097680FM-16+0151KAUS V0302005N00155006405MN0160935N5+01005+00705999999ADDGA1075+006405999GD13991+0064059MA1101765099955REMMET08701/01/14 20:51:03 SPECI KAUS 020251Z 20003KT 10SM BKN021 10/07 A3005 RMK AO2 FIBI (JTP)
0230722540139042014010202537+30183-097680FM-15+0151KAUS V0302005N00155006405MN0160935N5+01065+00785101775ADDAA101000095GA1075+006405991GD13991+0064059GE19MSL   +99999+99999GF199999990990006401991991MA1101765099955MD1090074+9999REMMET09901/01/14 20:53:01 METAR KAUS 020253Z 20003KT 10SM BKN021 11/08 A3005 RMK AO2 SLP177 T01060078 50007
0210722540139042014010203537+30183-097680FM-15+0151KAUS V0309999C00005004575MN0160935N5+01225+00835101805ADDAA101000095GA1075+004575991GD13991+0045759GE19MSL   +99999+99999GF199999990990004571991991MA1101795099995REMMET09301/01/14 21:53:02 METAR KAUS 020353Z 00000KT 10SM BKN015 12/08 A3006 RMK AO2 SLP180 T01220083
0182722540139042014010204027+30183-097680FM-16+0151KAUS V0309999C000052200059N0160935N5+01205+00905999999ADDGA1045+004575991GD12991+0045759GE19MSL   +99999+99999GF199999990990004571991991MA1101795099995REMMET07601/01/14 22:02:02 SPECI KAUS 020402Z 00000KT 10SM SCT015 12/09 A3006 RMK AO2
0185722540139042014010204537+30183-097680FM-15+0151KAUS V0309999C000052200059N0160935N5+00675+00565101855ADDAA101000095GA1005+999999999GD10991+9999999GF100991999999999999999999MA1101835100025REMMET09001/01/14 22:53:02 METAR KAUS 020453Z 00000KT 10SM CLR 07/06 A3007 RMK AO2 SLP185 T00670056
0304722540139042014010205537+30183-097680FM-15+0151KAUS V0303405N002652200059N0160935N5+00945+00835101945ADDAA101000095GA1025+060965991GD11991+0609659GE19MSL   +99999+99999GF199999990990060961991991KA1060M+01441KA2060N+00561KA3240M+01781KA4240N+00061MA1101935100125MD1390194+9999REMMET12101/01/14 23:53:02 METAR KAUS 020553Z 34005KT 10SM FEW200 09/08 A3010 RMK AO2 SLP194 T00940083 10144 20056 401780006 53019
0994722540139042014010205596+30183-097680SOD  +0151KAUS V030999999999999999999999999999+99999+99999999999ADDAA124000095AJ100009599999999AN1024000095AX1085245KA1024M+01785KA2024N+00065KG1024W+0072D4KG2024D+0050D4MF1100144102004MG1100144101664OE11240102821099995OE22240080520099995OE33240028299999995RH1024X093D4RH2024N056D4RH3024M073D4REMSOD75624 HR PRECIPITATION (IN): 0.00 SNOW DEPTH (IN):0     24 HR SNOWFALL (IN):0.0  WEATHER(CODE):8  24 HR MAX TEMP (F): 6424 HR MIN TEMP (F): 33AVERAGE STATION PRESSURE:29.570 MINIMUM SEA LEVEL PRESSURE:30.02 TIME OF OCCURRENCE:1831 PEAK WIND SPEED (MPH): 23 PEAK WIND DIR (DEG):210 PEAK WIND TIME (LST):      FASTEST 2MIN SPEED (MPH): 18FASTEST 2MIN DIR (DEG):200 FASTEST 2MIN TIME (LST):     AVERAGE WIND SPEED (MPH): 6.3 24 HR AVG TEMP (F): 49DEPART FROM NORMAL:  0  HEATING DEGREE DAYS: 16 COOLING DEGREE DAYS:  0 LATEST DAY MAX TEMP (0700-1900 LST):64  LATEST NIGHT MIN TEMP(1900-0800 LST):32 HOURLY INCREMENTAL PRECIPITATION VALUES (IN):.00 0.00 0.00 0.00 0.00 0.00 0.00 0.00 0.00 0.00 0.00 0.00 0.00 0.00 0.00 0.00 0.00 0.00 0.00 0.00 0.00 0.00 0.00 0.00
0147722540139042014010206004+30300-097700FM-12+018999999V0203201N002619999999N016000199+01221+00941101971ADDKA1240M+01501KA2240N+00391MA1999990099731MD1310211+9999REMSYN08072254 35966 03205 10122 20094 39973 40197 53021 90551 333 10150 20039 555 90206=
0226722540139042014010206537+30183-097680FM-15+0151KAUS V0303505N006752200059N0160935N5+01115+00785102045ADDAA101000095GA1025+060965991GD11991+0609659GE19MSL   +99999+99999GF199999990990060961991991MA1102075100255OC100985REMMET10101/02/14 00:53:02 METAR KAUS 020653Z 35013G19KT 10SM FEW200 11/08 A3014 RMK AO2 SLP204 T01110078 (DP)
0201722540139042014010207537+30183-097680FM-15+0151KAUS V0303605N006752200059N0160935N5+01005+00175102175ADDAA101000095GA1005+999999999GD10991+9999999GF100991999999999999999999MA1102175100355OC100885REMMET09801/02/14 01:53:02 METAR KAUS 020753Z 36013G17KT 10SM CLR 10/02 A3017 RMK AO2 SLP217 T01000017 (DP)
0253722540139042014010208537+30183-097680FM-15+0151KAUS V0303605N009352200059N0160935N5+00835+00005102345ADDAA101000095GA1005+999999999GD10991+9999999GF100991999999999999999999MA1102345100525MD1390394+9999OC101445OD149999990350REMMET12201/02/14 02:53:02 METAR KAUS 020853Z 36018G28KT 10SM CLR 08/00 A3022 RMK AO2 PK WND 35029/0842 SLP234 T00830000 53039 (DP)
0234722540139042014010209537+30183-097680FM-15+0151KAUS V0303505N006752200059N0160935N5+00565-00115102515ADDAA101000095GA1005+999999999GD10991+9999999GF100991999999999999999999MA1102515100695OC101295OD149999990350REMMET11701/02/14 03:53:02 METAR KAUS 020953Z 35013G25KT 10SM CLR 06/M01 A3027 RMK AO2 PK WND 35026/0900 SLP251 T00561011 (DP)
0234722540139042014010210537+30183-097680FM-15+0151KAUS V0303405N008852200059N0160935N5+00395-00285102655ADDAA101000095GA1005+999999999GD10991+9999999GF100991999999999999999999MA1102615100795OC101295OD149999990340REMMET11701/02/14 04:53:02 METAR KAUS 021053Z 34017G25KT 10SM CLR 04/M03 A3030 RMK AO2 PK WND 34027/1025 SLP265 T00391028 (DP)
0251722540139042014010211537+30183-097680FM-15+0151KAUS V0303505N007752200059N0160935N5+00285-00395102715ADDAA101000095GA1005+999999999GD10991+9999999GF100991999999999999999999KA1060M+01171KA2060N+00281MA1102685100855MD1190344+9999REMMET11601/02/14 05:53:02 METAR KAUS 021153Z 35015KT 10SM CLR 03/M04 A3032 RMK AO2 SLP271 T00281039 10117 20028 51034 $ (DP)
0147722540139042014010212004+30300-097700FM-12+018999999V0203401N004119999999N016000199+00331-00441102771ADDKA1240M+02061KA2240N+00331MA1999990100461MD1110321+9999REMSYN08072254 35966 03408 10033 21044 30046 40277 51032 91151 333 10206 20033 555 90212=
0256722540139042014010212537+30183-097680FM-15+0151KAUS V0303405N007752200059N0160935N5+00225-00445102805ADDAA101000095GA1025+022865991GA2045+036585991GD11991+0228659GD22991+0365859GE19MSL   +99999+99999GF199999990990022861991991MA1102785100955REMMET10801/02/14 06:53:02 METAR KAUS 021253Z 34015KT 10SM FEW075 SCT120 02/M04 A3035 RMK AO2 SLP280 T00221044 $ (DP)
0294722540139042014010213537+30183-097680FM-15+0151KAUS V0303405N00515060965MN0160935N5+00175-00445102945ADDAA101000095GA1025+022865991GA2075+060965991GA3075+076205991GD11991+0228659GD23991+0609659GD33991+0762059GE19MSL   +99999+99999GF199999990990022861991991MA1102885101055REMMET11501/02/14 07:53:02 METAR KAUS 021353Z 34010KT 10SM FEW075 BKN200 BKN250 02/M04 A3038 RMK AO2 SLP294 T00171044 $ (JP)
0314722540139042014010214537+30183-097680FM-15+0151KAUS V0303505N00625060965MN0160935N5+00225-00445103055ADDAA101000095GA1025+030485991GA2075+060965991GA3075+091445991GD11991+0304859GD23991+0609659GD33991+0914459GE19MSL   +99999+99999GF199999990990030481991991MA1103015101195MD1390314+9999REMMET12101/02/14 08:53:02 METAR KAUS 021453Z 35012KT 10SM FEW100 BKN200 BKN300 02/M04 A3042 RMK AO2 SLP305 T00221044 53031 $ (JP)
0256722540139042014010215537+30183-097680FM-15+0151KAUS V0303505N00775091445MN0160935N5+00395-00445103085ADDAA101000095GA1045+060965991GA2075+091445991GD12991+0609659GD23991+0914459GE19MSL   +99999+99999GF199999990990060961991991MA1103055101225REMMET10801/02/14 09:53:02 METAR KAUS 021553Z 35015KT 10SM SCT200 BKN300 04/M04 A3043 RMK AO2 SLP308 T00391044 $ (JP)
0256722540139042014010216537+30183-097680FM-15+0151KAUS V0303505N00825091445MN0160935N5+00565-00445103085ADDAA101000095GA1025+060965991GA2075+091445991GD11991+0609659GD23991+0914459GE19MSL   +99999+99999GF199999990990060961991991MA1103055101225REMMET10801/02/14 10:53:02 METAR KAUS 021653Z 35016KT 10SM FEW200 BKN300 06/M04 A3043 RMK AO2 SLP308 T00561044 $ (JP)
0352722540139042014010217537+30183-097680FM-15+0151KAUS V0300105N00825091445MN0160935N5+00725-00445103025ADDAA101000095GA1025+030485991GA2045+060965991GA3075+091445991GD11991+0304859GD22991+0609659GD33991+0914459GE19MSL   +99999+99999GF199999990990030481991991KA1060M+00721KA2060N+00171MA1102985101155MD1890024+9999REMMET13301/02/14 11:53:02 METAR KAUS 021753Z 01016KT 10SM FEW100 SCT200 BKN300 07/M04 A3041 RMK AO2 SLP302 T00721044 10072 20017 58002 $ (JP)
0167722540139042014010218004+30300-097700FM-12+018999999V0203501N004619999999N016000199+00721-00501103071ADDKA1120M+01281KA2120N+00171MA1999990100761MD1900011+9999OD149900931999REMSYN08672254 35966 03509 10072 21050 30076 40307 50001 91751 333 10128 20017 91018 555 90218=
0303722540139042014010218537+30183-097680FM-15+0151KAUS V0303505N00935091445MN0160935N5+00945-00445102935ADDAA101000095GA1025+033535991GA2045+060965991GA3075+091445991GD11991+0335359GD22991+0609659GD33991+0914459GE19MSL   +99999+99999GF199999990990033531991991MA1102915101095OC101185REMMET11601/02/14 12:53:02 METAR KAUS 021853Z 35018G23KT 10SM FEW110 SCT200 BKN300 09/M04 A3039 RMK AO2 SLP293 T00941044 (JP)
0303722540139042014010219537+30183-097680FM-15+0151KAUS V0303505N00675091445MN0160935N5+01005-00505102905ADDAA101000095GA1025+033535991GA2045+060965991GA3075+091445991GD11991+0335359GD22991+0609659GD33991+0914459GE19MSL   +99999+99999GF199999990990033531991991MA1102885101055OC101135REMMET11601/02/14 13:53:02 METAR KAUS 021953Z 35013G22KT 10SM FEW110 SCT200 BKN300 10/M05 A3038 RMK AO2 SLP290 T01001050 (JP)
0323722540139042014010220537+30183-097680FM-15+0151KAUS V0303505N00575091445MN0160935N5+01065-00505102915ADDAA101000095GA1025+033535991GA2045+060965991GA3075+091445991GD11991+0335359GD22991+0609659GD33991+0914459GE19MSL   +99999+99999GF199999990990033531991991MA1102885101055MD1590094+9999OC100935REMMET12201/02/14 14:53:02 METAR KAUS 022053Z 35011G18KT 10SM FEW110 SCT200 BKN300 11/M05 A3038 RMK AO2 SLP291 T01061050 55009 (JP)
0293722540139042014010221537+30183-097680FM-15+0151KAUS V0300105N00515091445MN0160935N5+01005-00565102975ADDAA101000095GA1025+030485991GA2045+060965991GA3085+091445991GD11991+0304859GD22991+0609659GD34991+0914459GE19MSL   +99999+99999GF199999990990030481991991MA1102955101125REMMET11401/02/14 15:53:02 METAR KAUS 022153Z 01010KT 10SM FEW100 SCT200 OVC300 10/M06 A3040 RMK AO2 SLP297 T01001056 (JTP)
0293722540139042014010222537+30183-097680FM-15+0151KAUS V0300205N00575091445MN0160935N5+01005-00675103005ADDAA101000095GA1025+030485991GA2045+060965991GA3085+091445991GD11991+0304859GD22991+0609659GD34991+0914459GE19MSL   +99999+99999GF199999990990030481991991MA1102985101155REMMET11401/02/14 16:53:02 METAR KAUS 022253Z 02011KT 10SM FEW100 SCT200 OVC300 10/M07 A3041 RMK AO2 SLP300 T01001067 (JTP)
0313722540139042014010223537+30183-097680FM-15+0151KAUS V0300105N00365091445MN0160935N5+00725-00615103035ADDAA101000095GA1045+060965991GA2075+091445991GD12991+0609659GD23991+0914459GE19MSL   +99999+99999GF199999990990060961991991KA1060M+01111KA2060N+00721MA1102985101155MD1190084+9999REMMET12501/02/14 17:53:02 METAR KAUS 022353Z 01007KT 10SM SCT200 BKN300 07/M06 A3041 RMK AO2 SLP303 T00721061 10111 20072 51008 (JTP)
0166722540139042014010300004+30300-097700FM-12+018999999V0203501N001519999999N016000199+00891-00611103061ADDKA1120M+01171KA2120N+00331MA1999990999999MD1110091+9999REMSYN08072254 35966 03503 10089 21061 30073 40306 51009 92351 333 10117 20033 555 90300=EQDQ01 100733APOSP 
0211722540139042014010300537+30183-097680FM-15+0151KAUS V0300105N002652200059N0160935N5+00175-00565103165ADDAA101000095GA1025+060965991GD11991+0609659GE19MSL   +99999+99999GF199999990990060961991991MA1103085101255REMMET09401/02/14 18:53:01 METAR KAUS 030053Z 01005KT 10SM FEW200 02/M06 A3044 RMK AO2 SLP316 T00171056
0211722540139042014010301537+30183-097680FM-15+0151KAUS V0309999C000052200059N0160935N5+00115-00565103185ADDAA101000095GA1025+060965991GD11991+0609659GE19MSL   +99999+99999GF199999990990060961991991MA1103125101295REMMET09401/02/14 19:53:01 METAR KAUS 030153Z 00000KT 10SM FEW200 01/M06 A3045 RMK AO2 SLP318 T00111056
0232722540139042014010302537+30183-097680FM-15+0151KAUS V0300105N003152200059N0160935N5-00065-00565103215ADDAA101000095GA1025+060965991GD11991+0609659GE19MSL   +99999+99999GF199999990990060961991991MA1103125101295MD1190164+9999REMMET10101/02/14 20:53:01 METAR KAUS 030253Z 01006KT 10SM FEW200 M01/M06 A3045 RMK AO2 SLP321 T10061056 51016
0211722540139042014010303537+30183-097680FM-15+0151KAUS V0300205N001552200059N0160935N5+00065-00565103235ADDAA101000095GA1025+060965991GD11991+0609659GE19MSL   +99999+99999GF199999990990060961991991MA1103155101325REMMET09401/02/14 21:53:02 METAR KAUS 030353Z 02003KT 10SM FEW200 01/M06 A3046 RMK AO2 SLP323 T00061056
0212722540139042014010304537+30183-097680FM-15+0151KAUS V0309999C000052200059N0160935N5-00115-00565103235ADDAA101000095GA1025+060965991GD11991+0609659GE19MSL   +99999+99999GF199999990990060961991991MA1103155101325REMMET09501/02/14 22:53:02 METAR KAUS 030453Z 00000KT 10SM FEW200 M01/M06 A3046 RMK AO2 SLP323 T10111056
0306722540139042014010305537+30183-097680FM-15+0151KAUS V0309999C000052200059N0160935N5-00285-00565103245ADDAA101000095GA1025+060965991GD11991+0609659GE19MSL   +99999+99999GF199999990990060961991991KA1060M+00721KA2060N-00281KA3240M+01171KA4240N-00281MA1103155101325MD1190044+9999REMMET12301/02/14 23:53:02 METAR KAUS 030553Z 00000KT 10SM FEW200 M03/M06 A3046 RMK AO2 SLP324 T10281056 10072 21028 401171028 51004
0968722540139042014010305596+30183-097680SOD  +0151KAUS V030999999999999999999999999999+99999+99999999999ADDAA124000095AJ100009599999999AN1024000095KA1024M+01175KA2024N-00275KG1024W+0011D4KG2024D-0039D4MF1101124102914MG1101124101964OE11240147535099995OE22240116234099995OE33240055099999995RH1024X085D4RH2024N030D4RH3024M054D4REMSOD73924 HR PRECIPITATION (IN): 0.00 SNOW DEPTH (IN):0     24 HR SNOWFALL (IN):0.0  24 HR MAX TEMP (F): 5324 HR MIN TEMP (F): 27AVERAGE STATION PRESSURE:29.860 MINIMUM SEA LEVEL PRESSURE:30.11 TIME OF OCCURRENCE:0027 PEAK WIND SPEED (MPH): 33 PEAK WIND DIR (DEG):350 PEAK WIND TIME (LST):      FASTEST 2MIN SPEED (MPH): 26FASTEST 2MIN DIR (DEG):340 FASTEST 2MIN TIME (LST):     AVERAGE WIND SPEED (MPH):12.3 24 HR AVG TEMP (F): 40DEPART FROM NORMAL: -9  HEATING DEGREE DAYS: 25 COOLING DEGREE DAYS:  0 LATEST DAY MAX TEMP (0700-1900 LST):52  LATEST NIGHT MIN TEMP(1900-0800 LST):35 HOURLY INCREMENTAL PRECIPITATION VALUES (IN):.00 0.00 0.00 0.00 0.00 0.00 0.00 0.00 0.00 0.00 0.00 0.00 0.00 0.00 0.00 0.00 0.00 0.00 0.00 0.00 0.00 0.00 0.00 0.00
0166722540139042014010306004+30300-097700FM-12+018999999V0202201N001519999999N016000199+00061-00441103241ADDKA1240M+01281KA2240N+00061MA1999990999999MD1900021+9999REMSYN08072254 35966 02203 10006 21044 30086 40324 50002 90551 333 10128 20006 555 90306=EQDQ01 100863APOSP 
0217722540139042014010306537+30183-097680FM-15+0151KAUS V0309999C000052200059N0160935N5-00395-00615103225ADDAA101000095GA1025+060965991GD11991+0609659GE19MSL   +99999+99999GF199999990990060961991991MA1103155101325REMMET10001/03/14 00:53:02 METAR KAUS 030653Z 00000KT 10SM FEW200 M04/M06 A3046 RMK AO2 SLP322 T10391061 (DP)
0217722540139042014010307537+30183-097680FM-15+0151KAUS V0309999C000052200059N0160935N5-00445-00615103225ADDAA101000095GA1025+060965991GD11991+0609659GE19MSL   +99999+99999GF199999990990060961991991MA1103155101325REMMET10001/03/14 01:53:02 METAR KAUS 030753Z 00000KT 10SM FEW200 M04/M06 A3046 RMK AO2 SLP322 T10441061 (DP)
0237722540139042014010308537+30183-097680FM-15+0151KAUS V0309999C000052200059N0160935N5-00285-00565103215ADDAA101000095GA1025+060965991GD11991+0609659GE19MSL   +99999+99999GF199999990990060961991991MA1103155101325MD1690024+9999REMMET10601/03/14 02:53:02 METAR KAUS 030853Z 00000KT 10SM FEW200 M03/M06 A3046 RMK AO2 SLP321 T10281056 56002 (DP)
0217722540139042014010309537+30183-097680FM-15+0151KAUS V0309999C000052200059N0160935N5-00445-00675103205ADDAA101000095GA1025+060965991GD11991+0609659GE19MSL   +99999+99999GF199999990990060961991991MA1103125101295REMMET10001/03/14 03:53:02 METAR KAUS 030953Z 00000KT 10SM FEW200 M04/M07 A3045 RMK AO2 SLP320 T10441067 (DP)
0217722540139042014010310537+30183-097680FM-15+0151KAUS V0309999C000052200059N0160935N5-00615-00785103155ADDAA101000095GA1025+060965991GD11991+0609659GE19MSL   +99999+99999GF199999990990060961991991MA1103085101255REMMET10001/03/14 04:53:02 METAR KAUS 031053Z 00000KT 10SM FEW200 M06/M08 A3044 RMK AO2 SLP315 T10611078 (DP)
0275722540139042014010311537+30183-097680FM-15+0151KAUS V0309999C000052200059N0160935N5-00615-00725103115ADDAA101000095GA1025+060965991GD11991+0609659GE19MSL   +99999+99999GF199999990990060961991991KA1060M-00221KA2060N-00721MA1103015101195MD1890124+9999REMMET11801/03/14 05:53:02 METAR KAUS 031153Z 00000KT 10SM FEW200 M06/M07 A3042 RMK AO2 SLP311 T10611072 11022 21072 58012 (DP)
0166722540139042014010312004+30300-097700FM-12+018999999V0209999C000019999999N016000199-00111-00611103111ADDKA1240M+01281KA2240N-00171MA1999990999999MD1710121+9999REMSYN08072254 35966 00000 11011 21061 30073 40311 57012 91151 333 10128 21017 555 90312=EQDQ01 100733APOSP 
0217722540139042014010312537+30183-097680FM-15+0151KAUS V0309999C000052200059N0160935N5-00565-00675103175ADDAA101000095GA1025+060965991GD11991+0609659GE19MSL   +99999+99999GF199999990990060961991991MA1103055101225REMMET10001/03/14 06:53:02 METAR KAUS 031253Z 00000KT 10SM FEW200 M06/M07 A3043 RMK AO2 SLP317 T10561067 (DP)
0217722540139042014010313537+30183-097680FM-15+0151KAUS V0309999C000052200059N0160935N5-00565-00675103215ADDAA101000095GA1025+060965991GD11991+0609659GE19MSL   +99999+99999GF199999990990060961991991MA1103085101255REMMET10001/03/14 07:53:02 METAR KAUS 031353Z 00000KT 10SM FEW200 M06/M07 A3044 RMK AO2 SLP321 T10561067 (JP)
0236722540139042014010314537+30183-097680FM-15+0151KAUS V0309999C000052200059N0160935N5+00115-00505103205ADDAA101000095GA1025+060965991GD11991+0609659GE19MSL   +99999+99999GF199999990990060961991991MA1103125101295MD1190084+9999REMMET10501/03/14 08:53:02 METAR KAUS 031453Z 00000KT 10SM FEW200 01/M05 A3045 RMK AO2 SLP320 T00111050 51008 (JP)
0216722540139042014010315537+30183-097680FM-15+0151KAUS V0309999C000052200059N0160935N5+00285-00565103195ADDAA101000095GA1025+060965991GD11991+0609659GE19MSL   +99999+99999GF199999990990060961991991MA1103125101295REMMET09901/03/14 09:53:02 METAR KAUS 031553Z 00000KT 10SM FEW200 03/M06 A3045 RMK AO2 SLP319 T00281056 (JP)
0216722540139042014010316537+30183-097680FM-15+0151KAUS V0301805N003152200059N0160935N5+00615-00565103175ADDAA101000095GA1025+060965991GD11991+0609659GE19MSL   +99999+99999GF199999990990060961991991MA1103085101255REMMET09901/03/14 10:53:02 METAR KAUS 031653Z 18006KT 10SM FEW200 06/M06 A3044 RMK AO2 SLP317 T00611056 (JP)
0249722540139042014010317537+30183-097680FM-15+0151KAUS V0301605N003652200059N0160935N5+00835-00615103015ADDAA101000095GA1005+999999999GD10991+9999999GF100991999999999999999999KA1060M+00831KA2060N-00611MA1102955101125MD1890174+9999REMMET11401/03/14 11:53:02 METAR KAUS 031753Z 16007KT 10SM CLR 08/M06 A3040 RMK AO2 SLP301 T00831061 10083 21061 58017 (JP)
0147722540139042014010318004+30300-097700FM-12+018999999V0201501N003619999999N016000199+00941-00611103021ADDKA1120M+00941KA2120N-00221MA1999990100662MD1810171+9999REMSYN08072254 35966 01507 10094 21061 30066 40302 58017 91751 333 10094 21022 555 90318=
0209722540139042014010318537+30183-097680FM-15+0151KAUS V0301605N005752200059N0160935N5+01065-00615102805ADDAA101000095GA1005+999999999GD10991+9999999GF100991999999999999999999MA1102745100925OC100775REMMET10601/03/14 12:53:02 METAR KAUS 031853Z 16011G15KT 10SM CLR 11/M06 A3034 RMK AO2 PRESFR SLP280 T01061061 (JP)
0202722540139042014010319537+30183-097680FM-15+0151KAUS V0302005N005152200059N0160935N5+01225-00725102645ADDAA101000095GA1005+999999999GD10991+9999999GF100991999999999999999999MA1102575100755OC101035REMMET09901/03/14 13:53:02 METAR KAUS 031953Z 20010G20KT 10SM CLR 12/M07 A3029 RMK AO2 SLP264 T01221072 (JP)
0222722540139042014010320537+30183-097680FM-15+0151KAUS V0301705N006252200059N0160935N5+01285-00725102515ADDAA101000095GA1005+999999999GD10991+9999999GF100991999999999999999999MA1102475100655MD1690474+9999OC100935REMMET10501/03/14 14:53:02 METAR KAUS 032053Z 17012G18KT 10SM CLR 13/M07 A3026 RMK AO2 SLP251 T01281072 56047 (JP)
0191722540139042014010321537+30183-097680FM-15+0151KAUS V0301905N005752200059N0160935N5+01335-00725102435ADDAA101000095GA1005+999999999GD10991+9999999GF100991999999999999999999MA1102375100555REMMET09601/03/14 15:53:02 METAR KAUS 032153Z 19011KT 10SM CLR 13/M07 A3023 RMK AO2 SLP243 T01331072 (WM)
0191722540139042014010322537+30183-097680FM-15+0151KAUS V0301905N005152200059N0160935N5+01225-00785102385ADDAA101000095GA1005+999999999GD10991+9999999GF100991999999999999999999MA1102345100525REMMET09601/03/14 16:53:02 METAR KAUS 032253Z 19010KT 10SM CLR 12/M08 A3022 RMK AO2 SLP238 T01221078 (WM)
0249722540139042014010323537+30183-097680FM-15+0151KAUS V0301705N003652200059N0160935N5+00835-00785102365ADDAA101000095GA1005+999999999GD10991+9999999GF100991999999999999999999KA1060M+01331KA2060N+00831MA1102275100455MD1690184+9999REMMET11401/03/14 17:53:02 METAR KAUS 032353Z 17007KT 10SM CLR 08/M08 A3020 RMK AO2 SLP236 T00831078 10133 20083 56018 (WM)
0166722540139042014010400004+30300-097700FM-12+018999999V0201701N002619999999N016000199+01111-00781102341ADDKA1120M+01441KA2120N-00161MA1999990999999MD1610201+9999REMSYN08072254 35966 01705 10111 21078 30000 40234 56020 92351 333 10144 21016 555 90400=EQDQ01 100003APOSP 
0186722540139042014010400537+30183-097680FM-15+0151KAUS V0301605N002652200059N0160935N5+00335-00615102315ADDAA101000095GA1005+999999999GD10991+9999999GF100991999999999999999999MA1102245100425REMMET09101/03/14 18:53:01 METAR KAUS 040053Z 16005KT 10SM CLR 03/M06 A3019 RMK AO2 SLP231 T00331061
0186722540139042014010401537+30183-097680FM-15+0151KAUS V0301805N002152200059N0160935N5+00285-00615102315ADDAA101000095GA1005+999999999GD10991+9999999GF100991999999999999999999MA1102245100425REMMET09101/03/14 19:53:01 METAR KAUS 040153Z 18004KT 10SM CLR 03/M06 A3019 RMK AO2 SLP231 T00281061
0206722540139042014010402537+30183-097680FM-15+0151KAUS V0301705N002652200059N0160935N5+00395-00395102285ADDAA101000095GA1005+999999999GD10991+9999999GF100991999999999999999999MA1102205100395MD1690064+9999REMMET09701/03/14 20:53:02 METAR KAUS 040253Z 17005KT 10SM CLR 04/M04 A3018 RMK AO2 SLP228 T00391039 56006
0186722540139042014010403537+30183-097680FM-15+0151KAUS V0301705N006252200059N0160935N5+00675-00065102225ADDAA101000095GA1005+999999999GD10991+9999999GF100991999999999999999999MA1102175100355REMMET09101/03/14 21:53:02 METAR KAUS 040353Z 17012KT 10SM CLR 07/M01 A3017 RMK AO2 SLP222 T00671006
0186722540139042014010404537+30183-097680FM-15+0151KAUS V0301805N003652200059N0160935N5+00565-00115102185ADDAA101000095GA1005+999999999GD10991+9999999GF100991999999999999999999MA1102135100325REMMET09101/03/14 22:53:02 METAR KAUS 040453Z 18007KT 10SM CLR 06/M01 A3016 RMK AO2 SLP218 T00561011
0280722540139042014010405537+30183-097680FM-15+0151KAUS V0301805N003152200059N0160935N5+00505-00065102085ADDAA101000095GA1005+999999999GD10991+9999999GF100991999999999999999999KA1060M+00831KA2060N+00221KA3240M+01331KA4240N-00721MA1102035100225MD1890174+9999REMMET11901/03/14 23:53:02 METAR KAUS 040553Z 18006KT 10SM CLR 05/M01 A3013 RMK AO2 SLP208 T00501006 10083 20022 401331072 58017
0968722540139042014010405596+30183-097680SOD  +0151KAUS V030999999999999999999999999999+99999+99999999999ADDAA124000095AJ100009599999999AN1024000095KA1024M+01335KA2024N-00715KG1024W+0006D4KG2024D-0050D4MF1100754102714MG1100754102074OE11240102818099995OE22240076018099995OE33240024199999995RH1024X092D4RH2024N024D4RH3024M057D4REMSOD73924 HR PRECIPITATION (IN): 0.00 SNOW DEPTH (IN):0     24 HR SNOWFALL (IN):0.0  24 HR MAX TEMP (F): 5624 HR MIN TEMP (F): 19AVERAGE STATION PRESSURE:29.750 MINIMUM SEA LEVEL PRESSURE:30.14 TIME OF OCCURRENCE:2359 PEAK WIND SPEED (MPH): 23 PEAK WIND DIR (DEG):180 PEAK WIND TIME (LST):      FASTEST 2MIN SPEED (MPH): 17FASTEST 2MIN DIR (DEG):180 FASTEST 2MIN TIME (LST):     AVERAGE WIND SPEED (MPH): 5.4 24 HR AVG TEMP (F): 38DEPART FROM NORMAL:-11  HEATING DEGREE DAYS: 27 COOLING DEGREE DAYS:  0 LATEST DAY MAX TEMP (0700-1900 LST):56  LATEST NIGHT MIN TEMP(1900-0800 LST):19 HOURLY INCREMENTAL PRECIPITATION VALUES (IN):.00 0.00 0.00 0.00 0.00 0.00 0.00 0.00 0.00 0.00 0.00 0.00 0.00 0.00 0.00 0.00 0.00 0.00 0.00 0.00 0.00 0.00 0.00 0.00
0147722540139042014010406004+30300-097700FM-12+018999999V0209999N002119999999N016000199+00671+00281102071ADDKA1240M+01111KA2240N-00161MA1999990099762MD1810141+9999REMSYN08072254 35966 0//04 10067 20028 39976 40207 58014 90551 333 10111 21016 555 90406=
0190722540139042014010406537+30183-097680FM-15+0151KAUS V0301905N003152200059N0160935N5+00445+00335102005ADDAA101000095GA1005+999999999GD10991+9999999GF100991999999999999999999MA1101965100155REMMET09501/04/14 00:53:02 METAR KAUS 040653Z 19006KT 10SM CLR 04/03 A3011 RMK AO2 SLP200 T00440033 (DF)
0215722540139042014010407537+30183-097680FM-15+0151KAUS V0301805N003652200059N0160935N5+00335+00285101925ADDAA101000095GA1025+036585991GD11991+0365859GE19MSL   +99999+99999GF199999990990036581991991MA1101905100095REMMET09801/04/14 01:53:02 METAR KAUS 040753Z 18007KT 10SM FEW120 03/03 A3009 RMK AO2 SLP192 T00330028 (DF)
0235722540139042014010408537+30183-097680FM-15+0151KAUS V0301805N003652200059N0160935N5+00395+00285101865ADDAA101000095GA1025+036585991GD11991+0365859GE19MSL   +99999+99999GF199999990990036581991991MA1101835100025MD1690204+9999REMMET10401/04/14 02:53:02 METAR KAUS 040853Z 18007KT 10SM FEW120 04/03 A3007 RMK AO2 SLP186 T00390028 56020 (DF)
0214722540139042014010409537+30183-097680FM-15+0151KAUS V0302005N00265010365MN0144845N5+00505+00395101845ADDAA101000095GA1075+010365991GD13991+0103659GE19MSL   +99999+99999GF199999990990010361991991MA1101835100025REMMET09701/04/14 03:53:02 METAR KAUS 040953Z 20005KT 9SM BKN034 05/04 A3007 RMK AO2 SLP184 T00500039 (DF)
0214722540139042014010410537+30183-097680FM-15+0151KAUS V0309999C00005011585MN0128755N5+00565+00445101795ADDAA101000095GA1075+011585991GD13991+0115859GE19MSL   +99999+99999GF199999990990011581991991MA1101765099955REMMET09701/04/14 04:53:02 METAR KAUS 041053Z 00000KT 8SM BKN038 06/04 A3005 RMK AO2 SLP179 T00560044 (DF)
0273722540139042014010411537+30183-097680FM-15+0151KAUS V0301805N00215012195MN0160935N5+00615+00505101805ADDAA101000095GA1075+012195991GD13991+0121959GE19MSL   +99999+99999GF199999990990012191991991KA1060M+00611KA2060N+00331MA1101765099955MD1690064+9999REMMET11601/04/14 05:53:02 METAR KAUS 041153Z 18004KT 10SM BKN040 06/05 A3005 RMK AO2 SLP180 T00610050 10061 20033 56006 (DF)
0195722540139042014010412004+30300-097700FM-12+018999999V0201601N002619999999N016000199+00781+00501101751ADDGE19MSL   +99999+99999GF108991990990999990991991KA1240M+01441KA2240N+00561MA1999990099472MD1810081+9999REMSYN08072254 35666 81605 10078 20050 39947 40175 58008 91151 333 10144 20056 555 90412=
0214722540139042014010412537+30183-097680FM-15+0151KAUS V0301805N004652200059N0144845N5+00615+00505101725ADDAA101000095GA1045+010675991GD12991+0106759GE19MSL   +99999+99999GF199999990990010671991991MA1101665099855REMMET09701/04/14 06:53:02 METAR KAUS 041253Z 18009KT 9SM SCT035 06/05 A3002 RMK AO2 SLP172 T00610050 (DF)
0272722540139042014010413537+30183-097680FM-15+0151KAUS V0301605N002152200059N0096565N5+00565+00445101755ADDAA101000095AU100001015AW1105GA1045+010975991GA2045+076205991GD12991+0109759GD22991+0762059GE19MSL   +99999+99999GF199999990990010971991991MA1101695099895REMMET10701/04/14 07:53:02 METAR KAUS 041353Z 16004KT 6SM BR SCT036 SCT250 06/04 A3003 RMK AO2 SLP175 T00560044 (DF)
0234722540139042014010414537+30183-097680FM-15+0151KAUS V0301805N003652200059N0128755N5+00895+00675101755ADDAA101000095GA1025+010065991GD11991+0100659GE19MSL   +99999+99999GF199999990990010061991991MA1101735099925MD1590054+9999REMMET10301/04/14 08:53:02 METAR KAUS 041453Z 18007KT 8SM FEW033 09/07 A3004 RMK AO2 SLP175 T00890067 55005 (DF)
0226722540139042014010415537+30183-097680FM-15+0151KAUS V0302005N005752200059N0160935N5+01335+00895101725ADDAA101000095GA1025+008845991GD11991+0088459GE19MSL   +99999+99999GF199999990990008841991991MA1101695099895OC100885REMMET10101/04/14 09:53:02 METAR KAUS 041553Z 20011G17KT 10SM FEW029 13/09 A3003 RMK AO2 SLP172 T01330089 (WM)
0296722540139042014010416537+30183-097680FM-15+0151KAUS V0301905N007752200059N0160935N5+01675+01005101665ADDAA101000095GA1045+007015991GA2045+060965991GD12991+0070159GD22991+0609659GE19MSL   +99999+99999GF199999990990007011991991MA1101665099855OC101135OD149999990200REMMET12601/04/14 10:53:02 METAR KAUS 041653Z 19015G22KT 10SM SCT023 SCT200 17/10 A3002 RMK AO2 PK WND 20026/1609 SLP166 T01670100 (WM)
0230722540139042014010417177+30183-097680FM-16+0151KAUS V0302105N00775007925MN0160935N5+01705+01105999999ADDGA1075+007925991GD13991+0079259GE19MSL   +99999+99999GF199999990990007921991991MA1101635099825OC101135OD149999990210REMMET10201/04/14 11:17:02 SPECI KAUS 041717Z 21015G22KT 10SM BKN026 17/11 A3001 RMK AO2 PK WND 21027/1700 (WM)
0316722540139042014010417537+30183-097680FM-15+0151KAUS V0302005N01085008235MN0160935N5+01785+01065101535ADDAA101000095GA1075+008235991GD13991+0082359GE19MSL   +99999+99999GF199999990990008231991991KA1060M+01781KA2060N+00501MA1101525099725MD1890184+9999OC101445OD149999990190REMMET13701/04/14 11:53:02 METAR KAUS 041753Z 20021G28KT 10SM BKN027 18/11 A2998 RMK AO2 PK WND 19029/1741 SLP153 T01780106 10178 20050 58018 (WM)
0215722540139042014010418004+30300-097700FM-12+018999999V0202001N005119999999N016000199+01891+01001101521ADDGE19MSL   +99999+99999GF106991990990999990991991KA1120M+01941KA2120N+00721MA1999990099272MD1810171+9999OD149900981999REMSYN08672254 35566 62010 10189 20100 39927 40152 58017 91751 333 10194 20072 91019 555 90418=
0237722540139042014010418447+30183-097680FM-16+0151KAUS V0302005N009352200059N0160935N5+01905+01105999999ADDGA1045+009455991GD12991+0094559GE19MSL   +99999+99999GF199999990990009451991991MA1101355099555OC101545OD149999990200REMMET10901/04/14 12:44:02 SPECI KAUS 041844Z 20018G30KT 10SM SCT031 19/11 A2993 RMK AO2 PK WND 20033/1832 PRESFR (WM)
0265722540139042014010418537+30183-097680FM-15+0151KAUS V0302105N009352200059N0160935N5+01945+01065101325ADDAA101000095GA1045+009755991GD12991+0097559GE19MSL   +99999+99999GF199999990990009751991991MA1101325099525OC101545OD149999990200REMMET12601/04/14 12:53:02 METAR KAUS 041853Z 21018G30KT 10SM SCT032 19/11 A2992 RMK AO2 PK WND 20033/1832 PRESFR SLP132 T01940106 (WM)
0258722540139042014010419537+30183-097680FM-15+0151KAUS V0301905N009852200059N0160935N5+02005+01065101185ADDAA101000095GA1025+010675991GD11991+0106759GE19MSL   +99999+99999GF199999990990010671991991MA1101195099395OC101295OD149999990190REMMET11901/04/14 13:53:02 METAR KAUS 041953Z 19019G25KT 10SM FEW035 20/11 A2988 RMK AO2 PK WND 19028/1926 SLP118 T02000106 (WM)
0316722540139042014010420537+30183-097680FM-15+0151KAUS V0302005N007252200059N0160935N5+02115+01065101075ADDAA101000095GA1025+013415991GA2045+076205991GD11991+0134159GD22991+0762059GE19MSL   +99999+99999GF199999990990013411991991MA1101085099295MD1690454+9999OC101245OD149999990190REMMET13201/04/14 14:53:02 METAR KAUS 042053Z 20014G24KT 10SM FEW044 SCT250 21/11 A2985 RMK AO2 PK WND 19026/2015 SLP107 T02110106 56045 (WM)
0226722540139042014010421537+30183-097680FM-15+0151KAUS V0301905N00725076205MN0160935N5+02115+01065100995ADDAA101000095GA1075+076205991GD13991+0762059GE19MSL   +99999+99999GF199999990990076201991991MA1101025099225OC101135REMMET10101/04/14 15:53:02 METAR KAUS 042153Z 19014G22KT 10SM BKN250 21/11 A2983 RMK AO2 SLP099 T02110106 (WM)
0226722540139042014010422537+30183-097680FM-15+0151KAUS V0301905N007252200059N0160935N5+02005+01065101035ADDAA101000095GA1045+076205991GD12991+0762059GE19MSL   +99999+99999GF199999990990076201991991MA1101055099255OC100985REMMET10101/04/14 16:53:02 METAR KAUS 042253Z 19014G19KT 10SM SCT250 20/11 A2984 RMK AO2 SLP103 T02000106 (WM)
0311722540139042014010423537+30183-097680FM-15+0151KAUS V0301905N005152200059N0160935N5+01785+01115101035ADDAA101000095GA1025+045725991GA2045+076205991GD11991+0457259GD22991+0762059GE19MSL   +99999+99999GF199999990990045721991991KA1060M+02171KA2060N+01781MA1101055099255MD1690044+9999REMMET12301/04/14 17:53:02 METAR KAUS 042353Z 19010KT 10SM FEW150 SCT250 18/11 A2984 RMK AO2 SLP103 T01780111 10217 20178 56004 (WM)
0166722540139042014010500004+30300-097700FM-12+018999999V0209999N002619999999N016000199+01941+01061101051ADDKA1120M+02171KA2120N+00561MA1999990999999MD1510031+9999REMSYN08072254 35966 0//05 10194 20106 39883 40105 55003 92351 333 10217 20056 555 90500=EQDQ01 098833APOSP 
0210722540139042014010500537+30183-097680FM-15+0151KAUS V0301805N003652200059N0160935N5+01445+01005101075ADDAA101000095GA1025+045725991GD11991+0457259GE19MSL   +99999+99999GF199999990990045721991991MA1101055099255REMMET09301/04/14 18:53:01 METAR KAUS 050053Z 18007KT 10SM FEW150 14/10 A2984 RMK AO2 SLP107 T01440100
0185722540139042014010501537+30183-097680FM-15+0151KAUS V0301705N002652200059N0160935N5+01505+01115101075ADDAA101000095GA1005+999999999GD10991+9999999GF100991999999999999999999MA1101085099295REMMET09001/04/14 19:53:01 METAR KAUS 050153Z 17005KT 10SM CLR 15/11 A2985 RMK AO2 SLP107 T01500111
0230722540139042014010502537+30183-097680FM-15+0151KAUS V0301705N004652200059N0160935N5+01565+01225101045ADDAA101000095GA1025+045725991GD11991+0457259GE19MSL   +99999+99999GF199999990990045721991991MA1101055099255MD1090014+9999REMMET09901/04/14 20:53:02 METAR KAUS 050253Z 17009KT 10SM FEW150 16/12 A2984 RMK AO2 SLP104 T01560122 50001
0210722540139042014010503537+30183-097680FM-15+0151KAUS V0301905N005752200059N0160935N5+01565+01285101015ADDAA101000095GA1025+045725991GD11991+0457259GE19MSL   +99999+99999GF199999990990045721991991MA1101025099225REMMET09301/04/14 21:53:02 METAR KAUS 050353Z 19011KT 10SM FEW150 16/13 A2983 RMK AO2 SLP101 T01560128
0210722540139042014010504537+30183-097680FM-15+0151KAUS V0301805N005752200059N0160935N5+01505+01335100975ADDAA101000095GA1025+045725991GD11991+0457259GE19MSL   +99999+99999GF199999990990045721991991MA1101025099225REMMET09301/04/14 22:53:02 METAR KAUS 050453Z 18011KT 10SM FEW150 15/13 A2983 RMK AO2 SLP097 T01500133
0304722540139042014010505537+30183-097680FM-15+0151KAUS V0301905N006252200059N0160935N5+01445+01335100945ADDAA101000095GA1025+045725991GD11991+0457259GE19MSL   +99999+99999GF199999990990045721991991KA1060M+01781KA2060N+01391KA3240M+02171KA4240N+00331MA1100985099195MD1690074+9999REMMET12101/04/14 23:53:02 METAR KAUS 050553Z 19012KT 10SM FEW150 14/13 A2982 RMK AO2 SLP094 T01440133 10178 20139 402170033 56007
0994722540139042014010505596+30183-097680SOD  +0151KAUS V030999999999999999999999999999+99999+99999999999ADDAA124000095AJ100009599999999AN1024000095AX1015245KA1024M+02175KA2024N+00335KG1024W+0100D4KG2024D+0083D4MF1099534101494MG1099514100954OE11240169920099995OE22240129619099995OE33240051499999995RH1024X097D4RH2024N051D4RH3024M077D4REMSOD75624 HR PRECIPITATION (IN): 0.00 SNOW DEPTH (IN):0     24 HR SNOWFALL (IN):0.0  WEATHER(CODE):1  24 HR MAX TEMP (F): 7124 HR MIN TEMP (F): 38AVERAGE STATION PRESSURE:29.385 MINIMUM SEA LEVEL PRESSURE:29.81 TIME OF OCCURRENCE:2359 PEAK WIND SPEED (MPH): 38 PEAK WIND DIR (DEG):200 PEAK WIND TIME (LST):      FASTEST 2MIN SPEED (MPH): 29FASTEST 2MIN DIR (DEG):190 FASTEST 2MIN TIME (LST):     AVERAGE WIND SPEED (MPH):11.5 24 HR AVG TEMP (F): 55DEPART FROM NORMAL:  6  HEATING DEGREE DAYS: 10 COOLING DEGREE DAYS:  0 LATEST DAY MAX TEMP (0700-1900 LST):71  LATEST NIGHT MIN TEMP(1900-0800 LST):36 HOURLY INCREMENTAL PRECIPITATION VALUES (IN):.00 0.00 0.00 0.00 0.00 0.00 0.00 0.00 0.00 0.00 0.00 0.00 0.00 0.00 0.00 0.00 0.00 0.00 0.00 0.00 0.00 0.00 0.00 0.00
0195722540139042014010506004+30300-097700FM-12+018999999V0201701N002619999999N016000199+01501+01281100951ADDGE19MSL   +99999+99999GF106991990990999990991991KA1240M+01891KA2240N+00561MA1999990098772MD1610071+9999REMSYN08072254 35466 61705 10150 20128 39877 40095 56007 90551 333 10189 20056 555 90506=
0215722540139042014010506537+30183-097680FM-15+0151KAUS V0301905N005752200059N0160935N5+01445+01285100905ADDAA101000095GA1025+045725991GD11991+0457259GE19MSL   +99999+99999GF199999990990045721991991MA1100955099155REMMET09801/05/14 00:53:02 METAR KAUS 050653Z 19011KT 10SM FEW150 14/13 A2981 RMK AO2 SLP090 T01440128 (DF)
0215722540139042014010507537+30183-097680FM-15+0151KAUS V0301905N006752200059N0160935N5+01395+01285100885ADDAA101000095GA1025+045725991GD11991+0457259GE19MSL   +99999+99999GF199999990990045721991991MA1100915099125REMMET09801/05/14 01:53:02 METAR KAUS 050753Z 19013KT 10SM FEW150 14/13 A2980 RMK AO2 SLP088 T01390128 (DF)
0246722540139042014010508537+30183-097680FM-15+0151KAUS V0301905N005752200059N0160935N5+01395+01225100885ADDAA101000095GA1045+045725991GD12991+0457259GE19MSL   +99999+99999GF199999990990045721991991MA1100915099125MD1590054+9999OC100985REMMET10701/05/14 02:53:02 METAR KAUS 050853Z 19011G19KT 10SM SCT150 14/12 A2980 RMK AO2 SLP088 T01390122 55005 (DF)
0215722540139042014010509537+30183-097680FM-15+0151KAUS V0302005N004652200059N0160935N5+01335+01225100895ADDAA101000095GA1045+045725991GD12991+0457259GE19MSL   +99999+99999GF199999990990045721991991MA1100915099125REMMET09801/05/14 03:53:02 METAR KAUS 050953Z 20009KT 10SM SCT150 13/12 A2980 RMK AO2 SLP089 T01330122 (DF)
0194722540139042014010510257+30183-097680FM-16+0151KAUS V0303205N00625002135MN0160935N5+01305+01205999999ADDGA1075+002135991GD13991+0021359GE19MSL   +99999+99999GF199999990990002131991991MA1101055099255REMMET08801/05/14 04:25:02 SPECI KAUS 051025Z 32012KT 10SM BKN007 13/12 A2984 RMK AO2 PRESRR (DF)
0215722540139042014010510537+30183-097680FM-15+0151KAUS V0309999C00005002135MN0160935N5+01445+01225101045ADDAA101000095GA1075+002135991GD13991+0021359GE19MSL   +99999+99999GF199999990990002131991991MA1101085099295REMMET09801/05/14 04:53:02 METAR KAUS 051053Z 00000KT 10SM BKN007 14/12 A2985 RMK AO2 SLP104 T01440122 (DF)
0193722540139042014010511387+30183-097680FM-16+0151KAUS V0303305N003152200059N0144845N5+01105+01005999999ADDGA1045+007625991GD12991+0076259GE19MSL   +99999+99999GF199999990990007621991991MA1101225099425REMMET08701/05/14 05:38:02 SPECI KAUS 051138Z 33006KT 9SM SCT025 11/10 A2989 RMK AO2 PRESRR (DF)
0312722540139042014010511467+30183-097680FM-16+0151KAUS V0303405N00825004575MN0144845N5+01105+00705999999ADDGA1025+002445991GA2075+004575991GA3075+007015991GD11991+0024459GD23991+0045759GD33991+0070159GE19MSL   +99999+99999GF199999990990002441991991MA1101295099495OC101345OD149999990330REMMET12201/05/14 05:46:02 SPECI KAUS 051146Z 34016G26KT 9SM FEW008 BKN015 BKN023 11/07 A2991 RMK AO2 PK WND 33026/1140 PRESRR (DF)
0358722540139042014010511537+30183-097680FM-15+0151KAUS V0303305N00775005185MN0144845N5+01005+00395101315ADDAA101000095GA1025+003965991GA2085+005185991GD11991+0039659GD24991+0051859GE19MSL   +99999+99999GF199999990990003961991991KA1060M+01441MA1101325099525MD1390404+9999OC101185OD149999990330REMMET16101/05/14 05:53:02 METAR KAUS 051153Z 33015G23KT 9SM FEW013 OVC017 10/04 A2992 RMK AO2 PK WND 33026/1140 WSHFT 1139 PRESRR SLP131 T01000039 10144 20100 53040 (DF)
0259722540139042014010511587+30183-097680FM-16+0151KAUS V0303305N01035005185MN0144845N5+00905+00205999999ADDGA1025+003965991GA2085+005185991GD11991+0039659GD24991+0051859GE19MSL   +99999+99999GF199999990990003961991991MA1101355099555OC101395REMMET11401/05/14 05:58:02 SPECI KAUS 051158Z 33020G27KT 9SM FEW013 OVC017 09/02 A2993 RMK AO2 PRESRR WSHFT 1140 FROPA (DF)
0215722540139042014010512004+30300-097700FM-12+018999999V0203301N004619999999N014000199+00831+00061101451ADDGE19MSL   +99999+99999GF108991990990999990991991KA1240M+02171KA2240N+00831MA1999990099201MD1310511+9999OD149901241999REMSYN08672254 35564 83309 10083 20006 39920 40145 53051 91151 333 10217 20083 91024 555 90512=
0289722540139042014010512537+30183-097680FM-15+0151KAUS V0303405N00625007625MN0160935N5+00565-00115101625ADDAA101000095GA1025+005185991GA2085+007625991GD11991+0051859GD24991+0076259GE19MSL   +99999+99999GF199999990990005181991991MA1101595099795OC100985REMMET13301/05/14 06:53:02 METAR KAUS 051253Z 34012G19KT 10SM FEW017 OVC025 06/M01 A3000 RMK AO2 PRESRR SLP162 WSHFT 1140 FROPA T00561011 (DF)
0199722540139042014010513177+30183-097680FM-16+0151KAUS V0303405N00885009145MN0160935N5+00505-00205999999ADDGA1085+009145991GD14991+0091459GE19MSL   +99999+99999GF199999990990009141991991MA1101695099895OC101085REMMET08501/05/14 07:17:02 SPECI KAUS 051317Z 34017G21KT 10SM OVC030 05/M02 A3003 RMK AO2 (DF)
0254722540139042014010513537+30183-097680FM-15+0151KAUS V0303305N00575010365MN0160935N5+00395-00335101825ADDAA101000095GA1075+010365991GA2085+036585991GD13991+0103659GD24991+0365859GE19MSL   +99999+99999GF199999990990010361991991MA1101795099995REMMET10601/05/14 07:53:02 METAR KAUS 051353Z 33011KT 10SM BKN034 OVC120 04/M03 A3006 RMK AO2 SLP182 T00391033 (WM)
0323722540139042014010514537+30183-097680FM-15+0151KAUS V0303405N00985060965MN0160935N5+00445-00395101985ADDAA101000095GA1025+045725991GA2075+060965991GA3075+076205991GD11991+0457259GD23991+0609659GD33991+0762059GE19MSL   +99999+99999GF199999990990045721991991MA1101965100155MD1190634+9999OC101245REMMET12201/05/14 08:53:02 METAR KAUS 051453Z 34019G24KT 10SM FEW150 BKN200 BKN250 04/M04 A3011 RMK AO2 SLP198 T00441039 51063 (WM)
0265722540139042014010515537+30183-097680FM-15+0151KAUS V0303505N008852200059N0160935N5+00445-00445102105ADDAA101000095GA1045+054865991GA2045+076205991GD12991+0548659GD22991+0762059GE19MSL   +99999+99999GF199999990990054861991991MA1102075100255OC101135REMMET10901/05/14 09:53:02 METAR KAUS 051553Z 35017G22KT 10SM SCT180 SCT250 04/M04 A3014 RMK AO2 SLP210 T00441044 (WM)
0265722540139042014010516537+30183-097680FM-15+0151KAUS V0303505N009352200059N0160935N5+00725-00395102135ADDAA101000095GA1025+054865991GA2045+076205991GD11991+0548659GD22991+0762059GE19MSL   +99999+99999GF199999990990054861991991MA1102105100295OC101185REMMET10901/05/14 10:53:02 METAR KAUS 051653Z 35018G23KT 10SM FEW180 SCT250 07/M04 A3015 RMK AO2 SLP213 T00721039 (WM)
0355722540139042014010517537+30183-097680FM-15+0151KAUS V0303305N009852200059N0160935N5+00785-00445102105ADDAA101000095GA1045+060965991GA2045+076205991GD12991+0609659GD22991+0762059GE19MSL   +99999+99999GF199999990990060961991991KA1060M+01001KA2060N+00331MA1102105100295MD1090134+9999OC101445OD149999990350REMMET14501/05/14 11:53:02 METAR KAUS 051753Z 33019G28KT 10SM SCT200 SCT250 08/M04 A3015 RMK AO2 PK WND 35028/1749 SLP210 T00781044 10100 20033 50013 (WM)
0167722540139042014010518004+30300-097700FM-12+018999999V0203501N005119999999N016000199+00831-00441102131ADDKA1120M+01501KA2120N+00331MA1999990099862MD1900111+9999OD149901081999REMSYN08672254 35966 03510 10083 21044 39986 40213 50011 91751 333 10150 20033 91021 555 90518=
0297722540139042014010518537+30183-097680FM-15+0151KAUS V0303505N008252200059N0160935N5+00945-00445102035ADDAA101000095GA1025+060965991GA2045+076205991GD11991+0609659GD22991+0762059GE19MSL   +99999+99999GF199999990990060961991991MA1102035100225OC101395OD149999990350REMMET12701/05/14 12:53:02 METAR KAUS 051853Z 35016G27KT 10SM FEW200 SCT250 09/M04 A3013 RMK AO2 PK WND 35027/1849 SLP203 T00941044 (WM)
0297722540139042014010519537+30183-097680FM-15+0151KAUS V0303405N009352200059N0160935N5+01005-00445102055ADDAA101000095GA1025+060965991GA2045+076205991GD11991+0609659GD22991+0762059GE19MSL   +99999+99999GF199999990990060961991991MA1102075100255OC101345OD149999990350REMMET12701/05/14 13:53:02 METAR KAUS 051953Z 34018G26KT 10SM FEW200 SCT250 10/M04 A3014 RMK AO2 PK WND 35026/1953 SLP205 T01001044 (WM)
0317722540139042014010520537+30183-097680FM-15+0151KAUS V0303505N008852200059N0160935N5+01005-00445102115ADDAA101000095GA1025+060965991GA2045+076205991GD11991+0609659GD22991+0762059GE19MSL   +99999+99999GF199999990990060961991991MA1102105100295MD1390014+9999OC101245OD149999990340REMMET13301/05/14 14:53:02 METAR KAUS 052053Z 35017G24KT 10SM FEW200 SCT250 10/M04 A3015 RMK AO2 PK WND 34029/2030 SLP211 T01001044 53001 (WM)
0297722540139042014010521537+30183-097680FM-15+0151KAUS V0303405N008852200059N0160935N5+00945-00615102195ADDAA101000095GA1025+060965991GA2045+076205991GD11991+0609659GD22991+0762059GE19MSL   +99999+99999GF199999990990060961991991MA1102205100395OC101295OD149999990350REMMET12701/05/14 15:53:02 METAR KAUS 052153Z 34017G25KT 10SM FEW200 SCT250 09/M06 A3018 RMK AO2 PK WND 35028/2131 SLP219 T00941061 (WM)
0297722540139042014010522537+30183-097680FM-15+0151KAUS V0303305N00775060965MN0160935N5+00785-00615102325ADDAA101000095GA1075+060965991GA2075+076205991GD13991+0609659GD23991+0762059GE19MSL   +99999+99999GF199999990990060961991991MA1102305100495OC101135OD149999990360REMMET12701/05/14 16:53:02 METAR KAUS 052253Z 33015G22KT 10SM BKN200 BKN250 08/M06 A3021 RMK AO2 PK WND 36027/2205 SLP232 T00781061 (WM)
0323722540139042014010523537+30183-097680FM-15+0151KAUS V0303505N00825076205MN0160935N5+00615-00725102465ADDAA101000095GA1045+060965991GA2075+076205991GD12991+0609659GD23991+0762059GE19MSL   +99999+99999GF199999990990060961991991KA1060M+01061KA2060N+00611MA1102445100625MD1390314+9999OC101295REMMET12701/05/14 17:53:02 METAR KAUS 052353Z 35016G25KT 10SM SCT200 BKN250 06/M07 A3025 RMK AO2 SLP246 T00611072 10106 20061 53031 (DP)
0167722540139042014010600004+30300-097700FM-12+018999999V0203301N005119999999N016000199+00611-00781102561ADDKA1120M+01001KA2120N+00611MA1999990100231MD1310351+9999OD149900881999REMSYN08672254 35966 03310 10061 21078 30023 40256 53035 92351 333 10100 20061 91017 555 90600=
0229722540139042014010600537+30183-097680FM-15+0151KAUS V0303505N008852200059N0160935N5+00505-00785102615ADDAA101000095GA1005+999999999GD10991+9999999GF100991999999999999999999MA1102575100755OC101295OD149999990360REMMET11201/05/14 18:53:01 METAR KAUS 060053Z 35017G25KT 10SM CLR 05/M08 A3029 RMK AO2 PK WND 36027/2358 SLP261 T00501078
0254722540139042014010601537+30183-097680FM-15+0151KAUS V0303405N006752200059N0160935N5+00445-00785102785ADDAA101000095GA1025+060965991GD11991+0609659GE19MSL   +99999+99999GF199999990990060961991991MA1102745100925OC101085OD149999990350REMMET11501/05/14 19:53:01 METAR KAUS 060153Z 34013G21KT 10SM FEW200 04/M08 A3034 RMK AO2 PK WND 35027/0057 SLP278 T00441078
0242722540139042014010602537+30183-097680FM-15+0151KAUS V0303505N007752200059N0160935N5+00395-00785102895ADDAA101000095GA1025+060965991GD11991+0609659GE19MSL   +99999+99999GF199999990990060961991991MA1102845101025MD1190404+9999OC101135REMMET10301/05/14 20:53:02 METAR KAUS 060253Z 35015G22KT 10SM FEW200 04/M08 A3037 RMK AO2 SLP289 T00391078 51040
0222722540139042014010603537+30183-097680FM-15+0151KAUS V0303605N007752200059N0160935N5+00285-00835103035ADDAA101000095GA1025+060965991GD11991+0609659GE19MSL   +99999+99999GF199999990990060961991991MA1102955101125OC101135REMMET09701/05/14 21:53:02 METAR KAUS 060353Z 36015G22KT 10SM FEW200 03/M08 A3040 RMK AO2 SLP303 T00281083
0222722540139042014010604537+30183-097680FM-15+0151KAUS V0300105N008852200059N0160935N5+00225-00785103095ADDAA101000095GA1025+060965991GD11991+0609659GE19MSL   +99999+99999GF199999990990060961991991MA1103015101195OC101245REMMET09701/05/14 22:53:02 METAR KAUS 060453Z 01017G24KT 10SM FEW200 02/M08 A3042 RMK AO2 SLP309 T00221078
0323722540139042014010605537+30183-097680FM-15+0151KAUS V0300105N010852200059N0160935N5+00115-00895103125ADDAA101000095GA1005+999999999GD10991+9999999GF100991999999999999999999KA1060M+00611KA2060N+00111KA3240M+01441KA4240N+00111MA1103055101225MD1190234+9999OC101345OD149999990360REMMET14001/05/14 23:53:02 METAR KAUS 060553Z 01021G26KT 10SM CLR 01/M09 A3043 RMK AO2 PK WND 36030/0535 SLP312 T00111089 10061 20011 401440011 51023
0968722540139042014010605596+30183-097680SOD  +0151KAUS V030999999999999999999999999999+99999+99999999999ADDAA124000095AJ100009599999999AN1024000095KA1024M+01445KA2024N+00065KG1024W+0039D4KG2024D-0017D4MF1100414102074MG1100414100854OE11240156536099995OE22240134101099995OE33240075599999995RH1024X093D4RH2024N033D4RH3024M053D4REMSOD73924 HR PRECIPITATION (IN): 0.00 SNOW DEPTH (IN):0     24 HR SNOWFALL (IN):0.0  24 HR MAX TEMP (F): 5824 HR MIN TEMP (F): 33AVERAGE STATION PRESSURE:29.650 MINIMUM SEA LEVEL PRESSURE:29.78 TIME OF OCCURRENCE:0414 PEAK WIND SPEED (MPH): 35 PEAK WIND DIR (DEG):360 PEAK WIND TIME (LST):      FASTEST 2MIN SPEED (MPH): 30FASTEST 2MIN DIR (DEG): 10 FASTEST 2MIN TIME (LST):     AVERAGE WIND SPEED (MPH):16.9 24 HR AVG TEMP (F): 46DEPART FROM NORMAL: -3  HEATING DEGREE DAYS: 19 COOLING DEGREE DAYS:  0 LATEST DAY MAX TEMP (0700-1900 LST):51  LATEST NIGHT MIN TEMP(1900-0800 LST):39 HOURLY INCREMENTAL PRECIPITATION VALUES (IN):.00 0.00 0.00 0.00 0.00 0.00 0.00 0.00 0.00 0.00 0.00 0.00 0.00 0.00 0.00 0.00 0.00 0.00 0.00 0.00 0.00 0.00 0.00 0.00
0167722540139042014010606004+30300-097700FM-12+018999999V0200201N003119999999N016000199+00111-00941103211ADDKA1240M+01501KA2240N+00111MA1999990100861MD1110271+9999OD149900931999REMSYN08672254 35966 00206 10011 21094 30086 40321 51027 90551 333 10150 20011 91018 555 90606=
0234722540139042014010606537+30183-097680FM-15+0151KAUS V0300205N010352200059N0160935N5+00005-00895103165ADDAA101000095GA1005+999999999GD10991+9999999GF100991999999999999999999MA1103125101295OC101395OD149999990020REMMET11701/06/14 00:53:02 METAR KAUS 060653Z 02020G27KT 10SM CLR 00/M09 A3045 RMK AO2 PK WND 02029/0633 SLP316 T00001089 (DF)
0235722540139042014010607537+30183-097680FM-15+0151KAUS V0300105N010352200059N0160935N5-00115-00945103235ADDAA101000095GA1005+999999999GD10991+9999999GF100991999999999999999999MA1103185101355OC101545OD149999990010REMMET11801/06/14 01:53:02 METAR KAUS 060753Z 01020G30KT 10SM CLR M01/M09 A3047 RMK AO2 PK WND 01031/0737 SLP323 T10111094 (DF)
0255722540139042014010608537+30183-097680FM-15+0151KAUS V0300105N008252200059N0160935N5-00225-00945103355ADDAA101000095GA1005+999999999GD10991+9999999GF100991999999999999999999MA1103285101455MD1390214+9999OC101185OD149999990020REMMET12401/06/14 02:53:02 METAR KAUS 060853Z 01016G23KT 10SM CLR M02/M09 A3050 RMK AO2 PK WND 02029/0756 SLP335 T10221094 53021 (DF)
0203722540139042014010609537+30183-097680FM-15+0151KAUS V0300105N008252200059N0160935N5-00285-01005103505ADDAA101000095GA1005+999999999GD10991+9999999GF100991999999999999999999MA1103425101595OC101135REMMET10001/06/14 03:53:02 METAR KAUS 060953Z 01016G22KT 10SM CLR M03/M10 A3054 RMK AO2 SLP350 T10281100 (DF)
0235722540139042014010610537+30183-097680FM-15+0151KAUS V0300105N007752200059N0160935N5-00395-01115103575ADDAA101000095GA1005+999999999GD10991+9999999GF100991999999999999999999MA1103495101655OC101035OD149999990360REMMET11801/06/14 04:53:02 METAR KAUS 061053Z 01015G20KT 10SM CLR M04/M11 A3056 RMK AO2 PK WND 36026/1038 SLP357 T10391111 (DF)
0250722540139042014010611537+30183-097680FM-15+0151KAUS V0303605N006752200059N0160935N5-00445-01285103725ADDAA101000095GA1005+999999999GD10991+9999999GF100991999999999999999999KA1060M+00111KA2060N-00501MA1103625101795MD1190344+9999REMMET11501/06/14 05:53:02 METAR KAUS 061153Z 36013KT 10SM CLR M04/M13 A3060 RMK AO2 SLP372 T10441128 10011 21050 51034 (DF)
0166722540139042014010612004+30300-097700FM-12+018999999V0203501N003619999999N016000199-00441-01281103731ADDKA1240M+01501KA2240N-00441MA1999990999999MD1110301+9999REMSYN08072254 35966 03507 11044 21128 30133 40373 51030 91151 333 10150 21044 555 90612=EQDQ01 101333APOSP 
0192722540139042014010612537+30183-097680FM-15+0151KAUS V0303505N006752200059N0160935N5-00565-01445103855ADDAA101000095GA1005+999999999GD10991+9999999GF100991999999999999999999MA1103765101925REMMET09701/06/14 06:53:02 METAR KAUS 061253Z 35013KT 10SM CLR M06/M14 A3064 RMK AO2 SLP385 T10561144 (DF)
0255722540139042014010613537+30183-097680FM-15+0151KAUS V0303405N00575060965MN0160935N5-00565-01395103965ADDAA101000095GA1045+045725991GA2075+060965991GD12991+0457259GD23991+0609659GE19MSL   +99999+99999GF199999990990045721991991MA1103865102025REMMET10701/06/14 07:53:02 METAR KAUS 061353Z 34011KT 10SM SCT150 BKN200 M06/M14 A3067 RMK AO2 SLP396 T10561139 (JP)
0275722540139042014010614537+30183-097680FM-15+0151KAUS V0303605N00675060965MN0160935N5-00505-01445104115ADDAA101000095GA1045+045725991GA2085+060965991GD12991+0457259GD24991+0609659GE19MSL   +99999+99999GF199999990990045721991991MA1104005102165MD1390374+9999REMMET11301/06/14 08:53:02 METAR KAUS 061453Z 36013KT 10SM SCT150 OVC200 M05/M14 A3071 RMK AO2 SLP411 T10501144 53037 (JP)
0217722540139042014010615537+30183-097680FM-15+0151KAUS V0303605N00575060965MN0160935N5-00395-01615104235ADDAA101000095GA1085+060965991GD14991+0609659GE19MSL   +99999+99999GF199999990990060961991991MA1104135102295REMMET10001/06/14 09:53:02 METAR KAUS 061553Z 36011KT 10SM OVC200 M04/M16 A3075 RMK AO2 SLP423 T10391161 (JP)
0217722540139042014010616537+30183-097680FM-15+0151KAUS V0300205N00775060965MN0160935N5-00285-01615104235ADDAA101000095GA1085+060965991GD14991+0609659GE19MSL   +99999+99999GF199999990990060961991991MA1104135102295REMMET10001/06/14 10:53:02 METAR KAUS 061653Z 02015KT 10SM OVC200 M03/M16 A3075 RMK AO2 SLP423 T10281161 (JP)
0275722540139042014010617537+30183-097680FM-15+0151KAUS V0303605N00625060965MN0160935N5-00175-01565104155ADDAA101000095GA1085+060965991GD14991+0609659GE19MSL   +99999+99999GF199999990990060961991991KA1060M-00171KA2060N-00561MA1104035102195MD1090044+9999REMMET11801/06/14 11:53:02 METAR KAUS 061753Z 36012KT 10SM OVC200 M02/M16 A3072 RMK AO2 SLP415 T10171156 11017 21056 50004 (JP)
0147722540139042014010618004+30300-097700FM-12+018999999V0200101N003619999999N016000199-00111-01611104161ADDKA1120M+00111KA2120N-00561MA1999990101732MD1900011+9999REMSYN08072254 35966 00107 11011 21161 30173 40416 50001 91751 333 10011 21056 555 90618=
0217722540139042014010618537+30183-097680FM-15+0151KAUS V0300305N00465060965MN0160935N5-00115-01565104025ADDAA101000095GA1085+060965991GD14991+0609659GE19MSL   +99999+99999GF199999990990060961991991MA1103935102095REMMET10001/06/14 12:53:02 METAR KAUS 061853Z 03009KT 10SM OVC200 M01/M16 A3069 RMK AO2 SLP402 T10111156 (JP)
0265722540139042014010619537+30183-097680FM-15+0151KAUS V0300205N00575060965MN0160935N5+00005-01445103925ADDAA101000095GA1025+028965991GA2085+060965991GD11991+0289659GD24991+0609659GE19MSL   +99999+99999GF199999990990028961991991MA1103835101995OC100825REMMET10901/06/14 13:53:02 METAR KAUS 061953Z 02011G16KT 10SM FEW095 OVC200 00/M14 A3066 RMK AO2 SLP392 T00001144 (JP)
0285722540139042014010620537+30183-097680FM-15+0151KAUS V0300305N00415060965MN0160935N5+00065-01505103915ADDAA101000095GA1025+028965991GA2085+060965991GD11991+0289659GD24991+0609659GE19MSL   +99999+99999GF199999990990028961991991MA1103795101965MD1690234+9999OC100825REMMET11501/06/14 14:53:02 METAR KAUS 062053Z 03008G16KT 10SM FEW095 OVC200 01/M15 A3065 RMK AO2 SLP391 T00061150 56023 (JP)
0254722540139042014010621537+30183-097680FM-15+0151KAUS V0300205N00465060965MN0160935N5+00115-01445103925ADDAA101000095GA1025+027435991GA2075+060965991GD11991+0274359GD23991+0609659GE19MSL   +99999+99999GF199999990990027431991991MA1103835101995REMMET10601/06/14 15:53:02 METAR KAUS 062153Z 02009KT 10SM FEW090 BKN200 01/M14 A3066 RMK AO2 SLP392 T00111144 (DF)
0254722540139042014010622537+30183-097680FM-15+0151KAUS V0300105N00415060965MN0160935N5+00065-01445103875ADDAA101000095GA1025+030485991GA2085+060965991GD11991+0304859GD24991+0609659GE19MSL   +99999+99999GF199999990990030481991991MA1103765101925REMMET10601/06/14 16:53:02 METAR KAUS 062253Z 01008KT 10SM FEW100 OVC200 01/M14 A3064 RMK AO2 SLP387 T00061144 (DF)
0275722540139042014010623537+30183-097680FM-15+0151KAUS V0300405N00265060965MN0160935N5-00065-01395103935ADDAA101000095GA1085+060965991GD14991+0609659GE19MSL   +99999+99999GF199999990990060961991991KA1060M+00111KA2060N-00171MA1103835101995MD1390014+9999REMMET11801/06/14 17:53:02 METAR KAUS 062353Z 04005KT 10SM OVC200 M01/M14 A3066 RMK AO2 SLP393 T10061139 10011 21017 53001 (DF)
0166722540139042014010700004+30300-097700FM-12+018999999V0200201N001519999999N016000199+00061-01501103951ADDKA1120M+00221KA2120N-00441MA1999990999999MD1310011+9999REMSYN08072254 35966 00203 10006 21150 30153 40395 53001 92351 333 10022 21044 555 90700=EQDQ01 101533APOSP 
0250722540139042014010700537+30183-097680FM-15+0151KAUS V0300605N00265076205MN0160935N5-00115-01285103925ADDAA101000095GA1025+060965991GA2075+076205991GD11991+0609659GD23991+0762059GE19MSL   +99999+99999GF199999990990060961991991MA1103795101965REMMET10201/06/14 18:53:01 METAR KAUS 070053Z 06005KT 10SM FEW200 BKN250 M01/M13 A3065 RMK AO2 SLP392 T10111128
0288722540139042014010701537+30183-097680FM-15+0151KAUS V0300605N00155060965MN0160935N5-00175-01285103935ADDAA101000095GA1025+045725991GA2075+060965991GA3085+076205991GD11991+0457259GD23991+0609659GD34991+0762059GE19MSL   +99999+99999GF199999990990045721991991MA1103795101965REMMET10901/06/14 19:53:01 METAR KAUS 070153Z 06003KT 10SM FEW150 BKN200 OVC250 M02/M13 A3065 RMK AO2 SLP393 T10171128
0270722540139042014010702537+30183-097680FM-15+0151KAUS V0309999C00005060965MN0160935N5-00175-01285103975ADDAA101000095GA1025+045725991GA2075+060965991GD11991+0457259GD23991+0609659GE19MSL   +99999+99999GF199999990990045721991991MA1103835101995MD1390034+9999REMMET10801/06/14 20:53:02 METAR KAUS 070253Z 00000KT 10SM FEW150 BKN200 M02/M13 A3066 RMK AO2 SLP397 T10171128 53003
0288722540139042014010703537+30183-097680FM-15+0151KAUS V0309999C00005076205MN0160935N5-00335-01065104015ADDAA101000095GA1025+045725991GA2045+060965991GA3075+076205991GD11991+0457259GD22991+0609659GD33991+0762059GE19MSL   +99999+99999GF199999990990045721991991MA1103895102065REMMET10901/06/14 21:53:02 METAR KAUS 070353Z 00000KT 10SM FEW150 SCT200 BKN250 M03/M11 A3068 RMK AO2 SLP401 T10331106
0288722540139042014010704537+30183-097680FM-15+0151KAUS V0309999C000052200059N0160935N5-00565-00945103995ADDAA101000095GA1025+045725991GA2045+060965991GA3045+076205991GD11991+0457259GD22991+0609659GD32991+0762059GE19MSL   +99999+99999GF199999990990045721991991MA1103865102025REMMET10901/06/14 22:53:02 METAR KAUS 070453Z 00000KT 10SM FEW150 SCT200 SCT250 M06/M09 A3067 RMK AO2 SLP399 T10561094
0344722540139042014010705537+30183-097680FM-15+0151KAUS V0309999C00005076205MN0160935N5-00615-01005103875ADDAA101000095GA1025+045725991GA2075+076205991GD11991+0457259GD23991+0762059GE19MSL   +99999+99999GF199999990990045721991991KA1060M-00061KA2060N-00671KA3240M+00111KA4240N-00671MA1103765101925MD1890094+9999REMMET13001/06/14 23:53:02 METAR KAUS 070553Z 00000KT 10SM FEW150 BKN250 M06/M10 A3064 RMK AO2 SLP387 T10611100 11006 21067 400111067 58009
0968722540139042014010705596+30183-097680SOD  +0151KAUS V030999999999999999999999999999+99999+99999999999ADDAA124000095AJ100009599999999AN1024000095KA1024M+00115KA2024N-00665KG1024W-0044D4KG2024D-0117D4MF1101964103764MG1101964103124OE11240160901099995OE22240129601099995OE33240050199999995RH1024X090D4RH2024N030D4RH3024M046D4REMSOD73924 HR PRECIPITATION (IN): 0.00 SNOW DEPTH (IN):0     24 HR SNOWFALL (IN):0.0  24 HR MAX TEMP (F): 3424 HR MIN TEMP (F): 20AVERAGE STATION PRESSURE:30.110 MINIMUM SEA LEVEL PRESSURE:30.45 TIME OF OCCURRENCE:0025 PEAK WIND SPEED (MPH): 36 PEAK WIND DIR (DEG): 10 PEAK WIND TIME (LST):      FASTEST 2MIN SPEED (MPH): 29FASTEST 2MIN DIR (DEG): 10 FASTEST 2MIN TIME (LST):     AVERAGE WIND SPEED (MPH):11.2 24 HR AVG TEMP (F): 27DEPART FROM NORMAL:-22  HEATING DEGREE DAYS: 38 COOLING DEGREE DAYS:  0 LATEST DAY MAX TEMP (0700-1900 LST):34  LATEST NIGHT MIN TEMP(1900-0800 LST):22 HOURLY INCREMENTAL PRECIPITATION VALUES (IN):.00 0.00 0.00 0.00 0.00 0.00 0.00 0.00 0.00 0.00 0.00 0.00 0.00 0.00 0.00 0.00 0.00 0.00 0.00 0.00 0.00 0.00 0.00 0.00
0147722540139042014010706004+30300-097700FM-12+018999999V0209999C000019999999N016000199-00221-01061103871ADDKA1240M+00111KA2240N-00441MA1999990101432MD1810091+9999REMSYN08072254 35966 00000 11022 21106 30143 40387 58009 90551 333 10011 21044 555 90706=
0217722540139042014010706537+30183-097680FM-15+0151KAUS V0309999C000052200059N0160935N5-00675-01005103795ADDAA101000095GA1025+076205991GD11991+0762059GE19MSL   +99999+99999GF199999990990076201991991MA1103665101825REMMET10001/07/14 00:53:02 METAR KAUS 070653Z 00000KT 10SM FEW250 M07/M10 A3061 RMK AO2 SLP379 T10671100 (DP)
0217722540139042014010707537+30183-097680FM-15+0151KAUS V0309999C000052200059N0160935N5-00725-00945103755ADDAA101000095GA1025+045725991GD11991+0457259GE19MSL   +99999+99999GF199999990990045721991991MA1103625101795REMMET10001/07/14 01:53:02 METAR KAUS 070753Z 00000KT 10SM FEW150 M07/M09 A3060 RMK AO2 SLP375 T10721094 (DP)
0275722540139042014010708537+30183-097680FM-15+0151KAUS V0309999C000052200059N0160935N5-00785-01005103765ADDAA101000095GA1025+060965991GA2045+076205991GD11991+0609659GD22991+0762059GE19MSL   +99999+99999GF199999990990060961991991MA1103625101795MD1590114+9999REMMET11301/07/14 02:53:02 METAR KAUS 070853Z 00000KT 10SM FEW200 SCT250 M08/M10 A3060 RMK AO2 SLP376 T10781100 55011 (DP)
0217722540139042014010709537+30183-097680FM-15+0151KAUS V0301905N001552200059N0160935N5-00785-01065103765ADDAA101000095GA1025+060965991GD11991+0609659GE19MSL   +99999+99999GF199999990990060961991991MA1103625101795REMMET10001/07/14 03:53:02 METAR KAUS 070953Z 19003KT 10SM FEW200 M08/M11 A3060 RMK AO2 SLP376 T10781106 (DP)
0217722540139042014010710537+30183-097680FM-15+0151KAUS V0309999C000052200059N0160935N5-00785-01005103765ADDAA101000095GA1025+060965991GD11991+0609659GE19MSL   +99999+99999GF199999990990060961991991MA1103625101795REMMET10001/07/14 04:53:02 METAR KAUS 071053Z 00000KT 10SM FEW200 M08/M10 A3060 RMK AO2 SLP376 T10781100 (DP)
0275722540139042014010711537+30183-097680FM-15+0151KAUS V0302605N001552200059N0160935N5-00945-01115103785ADDAA101000095GA1025+060965991GD11991+0609659GE19MSL   +99999+99999GF199999990990060961991991KA1060M-00561KA2060N-01001MA1103625101795MD1390004+9999REMMET11801/07/14 05:53:02 METAR KAUS 071153Z 26003KT 10SM FEW200 M09/M11 A3060 RMK AO2 SLP378 T10941111 11056 21100 53000 (DP)
0166722540139042014010712004+30300-097700FM-12+018999999V0209999C000019999999N016000199-00441-01111103771ADDKA1240M+00221KA2240N-00441MA1999990999999MD1310031+9999REMSYN08072254 35966 00000 11044 21111 30133 40377 53003 91151 333 10022 21044 555 90712=EQDQ01 101333APOSP 
0217722540139042014010712537+30183-097680FM-15+0151KAUS V0309999C000052200059N0160935N5-00895-01065103775ADDAA101000095GA1025+045725991GD11991+0457259GE19MSL   +99999+99999GF199999990990045721991991MA1103625101795REMMET10001/07/14 06:53:02 METAR KAUS 071253Z 00000KT 10SM FEW150 M09/M11 A3060 RMK AO2 SLP377 T10891106 (DP)
0255722540139042014010713537+30183-097680FM-15+0151KAUS V0309999C000052200059N0160935N5-00945-01115103775ADDAA101000095GA1025+033535991GA2045+060965991GD11991+0335359GD22991+0609659GE19MSL   +99999+99999GF199999990990033531991991MA1103625101795REMMET10701/07/14 07:53:02 METAR KAUS 071353Z 00000KT 10SM FEW110 SCT200 M09/M11 A3060 RMK AO2 SLP377 T10941111 (JP)
0275722540139042014010714537+30183-097680FM-15+0151KAUS V0309999C000052200059N0160935N5-00395-00835103745ADDAA101000095GA1025+033535991GA2045+076205991GD11991+0335359GD22991+0762059GE19MSL   +99999+99999GF199999990990033531991991MA1103625101795MD1790034+9999REMMET11301/07/14 08:53:02 METAR KAUS 071453Z 00000KT 10SM FEW110 SCT250 M04/M08 A3060 RMK AO2 SLP374 T10391083 57003 (JP)
0254722540139042014010715537+30183-097680FM-15+0151KAUS V0301805N003152200059N0160935N5+00005-01115103765ADDAA101000095GA1025+036585991GA2045+076205991GD11991+0365859GD22991+0762059GE19MSL   +99999+99999GF199999990990036581991991MA1103665101825REMMET10601/07/14 09:53:02 METAR KAUS 071553Z 18006KT 10SM FEW120 SCT250 00/M11 A3061 RMK AO2 SLP376 T00001111 (JP)
0216722540139042014010716537+30183-097680FM-15+0151KAUS V0301805N005152200059N0160935N5+00285-01565103685ADDAA101000095GA1025+036585991GD11991+0365859GE19MSL   +99999+99999GF199999990990036581991991MA1103595101755REMMET09901/07/14 10:53:02 METAR KAUS 071653Z 18010KT 10SM FEW120 03/M16 A3059 RMK AO2 SLP368 T00281156 (JP)
0274722540139042014010717537+30183-097680FM-15+0151KAUS V0301605N004652200059N0160935N5+00445-01725103545ADDAA101000095GA1025+036585991GD11991+0365859GE19MSL   +99999+99999GF199999990990036581991991KA1060M+00501KA2060N-01111MA1103455101625MD1890184+9999REMMET11701/07/14 11:53:02 METAR KAUS 071753Z 16009KT 10SM FEW120 04/M17 A3055 RMK AO2 SLP354 T00441172 10050 21111 58018 (JP)
0147722540139042014010718004+30300-097700FM-12+018999999V0209999N002619999999N016000199+00501-01561103541ADDKA1120M+00561KA2120N-00561MA1999990101132MD1810171+9999REMSYN08072254 35966 0//05 10050 21156 30113 40354 58017 91751 333 10056 21056 555 90718=
0227722540139042014010718537+30183-097680FM-15+0151KAUS V0301605N006252200059N0160935N5+00615-01565103355ADDAA101000095GA1025+036585991GD11991+0365859GE19MSL   +99999+99999GF199999990990036581991991MA1103255101425OC100985REMMET10201/07/14 12:53:02 METAR KAUS 071853Z 16012G19KT 10SM FEW120 06/M16 A3049 RMK AO2 SLP335 T00611156 (JP)
0265722540139042014010719537+30183-097680FM-15+0151KAUS V0301905N005752200059N0160935N5+00725-01505103205ADDAA101000095GA1025+036585991GA2045+060965991GD11991+0365859GD22991+0609659GE19MSL   +99999+99999GF199999990990036581991991MA1103125101295OC100775REMMET10901/07/14 13:53:02 METAR KAUS 071953Z 19011G15KT 10SM FEW120 SCT200 07/M15 A3045 RMK AO2 SLP320 T00721150 (JP)
0247722540139042014010720537+30183-097680FM-15+0151KAUS V0301705N00575015245MN0160935N5+00725-01395103145ADDAA101000095GA1085+015245991GD14991+0152459GE19MSL   +99999+99999GF199999990990015241991991MA1103055101225MD1690394+9999OC100825REMMET10801/07/14 14:53:02 METAR KAUS 072053Z 17011G16KT 10SM OVC050 07/M14 A3043 RMK AO2 SLP314 T00721139 56039 (JP)
0216722540139042014010721537+30183-097680FM-15+0151KAUS V0301905N00625015245MN0160935N5+00725-01395103105ADDAA101000095GA1085+015245991GD14991+0152459GE19MSL   +99999+99999GF199999990990015241991991MA1103015101195REMMET09901/07/14 15:53:02 METAR KAUS 072153Z 19012KT 10SM OVC050 07/M14 A3042 RMK AO2 SLP310 T00721139 (DF)
0216722540139042014010722537+30183-097680FM-15+0151KAUS V0301705N00625014025MN0160935N5+00675-01335103085ADDAA101000095GA1085+014025991GD14991+0140259GE19MSL   +99999+99999GF199999990990014021991991MA1102985101155REMMET09901/07/14 16:53:02 METAR KAUS 072253Z 17012KT 10SM OVC046 07/M13 A3041 RMK AO2 SLP308 T00671133 (DF)
0274722540139042014010723537+30183-097680FM-15+0151KAUS V0301705N00465012805MN0160935N5+00615-01395103045ADDAA101000095GA1085+012805991GD14991+0128059GE19MSL   +99999+99999GF199999990990012801991991KA1060M+00781KA2060N+00441MA1102955101125MD1890114+9999REMMET11701/07/14 17:53:02 METAR KAUS 072353Z 17009KT 10SM OVC042 06/M14 A3040 RMK AO2 SLP304 T00611139 10078 20044 58011 (DF)
0195722540139042014010800004+30300-097700FM-12+018999999V0201801N002619999999N016000199+00671-01331103031ADDGE19MSL   +99999+99999GF108991990990999990991991KA1120M+00891KA2120N-00431MA1999990100662MD1710091+9999REMSYN08072254 35666 81805 10067 21133 30066 40303 57009 92351 333 10089 21043 555 90800=
0211722540139042014010800537+30183-097680FM-15+0151KAUS V0301705N00415012805MN0160935N5+00615-01285102995ADDAA101000095GA1085+012805991GD14991+0128059GE19MSL   +99999+99999GF199999990990012801991991MA1102885101055REMMET09401/07/14 18:53:01 METAR KAUS 080053Z 17008KT 10SM OVC042 06/M13 A3038 RMK AO2 SLP299 T00611128
0211722540139042014010801537+30183-097680FM-15+0151KAUS V0301705N00365012805MN0160935N5+00615-01175102995ADDAA101000095GA1085+012805991GD14991+0128059GE19MSL   +99999+99999GF199999990990012801991991MA1102885101055REMMET09401/07/14 19:53:01 METAR KAUS 080153Z 17007KT 10SM OVC042 06/M12 A3038 RMK AO2 SLP299 T00611117
0231722540139042014010802537+30183-097680FM-15+0151KAUS V0301805N00415012195MN0160935N5+00615-00835102965ADDAA101000095GA1085+012195991GD14991+0121959GE19MSL   +99999+99999GF199999990990012191991991MA1102885101055MD1690064+9999REMMET10001/07/14 20:53:01 METAR KAUS 080253Z 18008KT 10SM OVC040 06/M08 A3038 RMK AO2 SLP296 T00611083 56006
0211722540139042014010803537+30183-097680FM-15+0151KAUS V0301805N00415009455MN0160935N5+00615-00565102935ADDAA101000095GA1085+009455991GD14991+0094559GE19MSL   +99999+99999GF199999990990009451991991MA1102885101055REMMET09401/07/14 21:53:02 METAR KAUS 080353Z 18008KT 10SM OVC031 06/M06 A3038 RMK AO2 SLP293 T00611056
0183722540139042014010804516+30183-097680FM-16+0151KAUS V0301705N00315007325MN0160935N5+00605-00405999999ADDGA1075+007325999GA2085+009145999GD13991+0073259GD24991+0091459MA1102815100995REMMET09401/07/14 22:51:03 SPECI KAUS 080451Z 17006KT 10SM BKN024 OVC030 06/M04 A3036 RMK AO2 FIBI (DF)
0249722540139042014010804537+30183-097680FM-15+0151KAUS V0301705N00365007325MN0160935N5+00615-00445102855ADDAA101000095GA1075+007325991GA2085+009145991GD13991+0073259GD24991+0091459GE19MSL   +99999+99999GF199999990990007321991991MA1102785100955REMMET10101/07/14 22:53:02 METAR KAUS 080453Z 17007KT 10SM BKN024 OVC030 06/M04 A3035 RMK AO2 SLP285 T00611044
0305722540139042014010805537+30183-097680FM-15+0151KAUS V0301705N00465006715MN0160935N5+00615-00335102815ADDAA101000095GA1085+006715991GD14991+0067159GE19MSL   +99999+99999GF199999990990006711991991KA1060M+00611KA2060N+00611KA3240M+00781KA4240N-01111MA1102745100925MD1890124+9999REMMET12201/07/14 23:53:02 METAR KAUS 080553Z 17009KT 10SM OVC022 06/M03 A3034 RMK AO2 SLP281 T00611033 10061 20061 400781111 58012
0968722540139042014010805596+30183-097680SOD  +0151KAUS V030999999999999999999999999999+99999+99999999999ADDAA124000095AJ100009599999999AN1024000095KA1024M+00785KA2024N-01105KG1024W-0028D4KG2024D-0111D4MF1101354103354MG1101354102814OE11240107315099995OE22240076018099995OE33240030899999995RH1024X088D4RH2024N019D4RH3024M048D4REMSOD73924 HR PRECIPITATION (IN): 0.00 SNOW DEPTH (IN):0     24 HR SNOWFALL (IN):0.0  24 HR MAX TEMP (F): 4624 HR MIN TEMP (F): 12AVERAGE STATION PRESSURE:29.930 MINIMUM SEA LEVEL PRESSURE:30.36 TIME OF OCCURRENCE:2359 PEAK WIND SPEED (MPH): 24 PEAK WIND DIR (DEG):150 PEAK WIND TIME (LST):      FASTEST 2MIN SPEED (MPH): 17FASTEST 2MIN DIR (DEG):180 FASTEST 2MIN TIME (LST):     AVERAGE WIND SPEED (MPH): 6.9 24 HR AVG TEMP (F): 29DEPART FROM NORMAL:-20  HEATING DEGREE DAYS: 36 COOLING DEGREE DAYS:  0 LATEST DAY MAX TEMP (0700-1900 LST):46  LATEST NIGHT MIN TEMP(1900-0800 LST):12 HOURLY INCREMENTAL PRECIPITATION VALUES (IN):.00 0.00 0.00 0.00 0.00 0.00 0.00 0.00 0.00 0.00 0.00 0.00 0.00 0.00 0.00 0.00 0.00 0.00 0.00 0.00 0.00 0.00 0.00 0.00
0195722540139042014010806004+30300-097700FM-12+018999999V0209999N002119999999N016000199+00611-00171102811ADDGE19MSL   +99999+99999GF108991990990999990991991KA1240M+00671KA2240N-00431MA1999990100462MD1810091+9999REMSYN08072254 35566 8//04 10061 21017 30046 40281 58009 90551 333 10067 21043 555 90806=
0216722540139042014010806537+30183-097680FM-15+0151KAUS V0301605N00315006105MN0160935N5+00615-00115102695ADDAA101000095GA1085+006105991GD14991+0061059GE19MSL   +99999+99999GF199999990990006101991991MA1102645100825REMMET09901/08/14 00:53:02 METAR KAUS 080653Z 16006KT 10SM OVC020 06/M01 A3031 RMK AO2 SLP269 T00611011 (DP)
0248722540139042014010807537+30183-097680FM-15+0151KAUS V0301705N00215005495MN0160935N5+00565+00115102645ADDAA101000025AU110010015AW1515GA1085+005495991GD14991+0054959GE19MSL   +99999+99999GF199999990990005491991991MA1102615100795REMMET11401/08/14 01:53:02 METAR KAUS 080753Z 17004KT 10SM -DZ OVC018 06/01 A3030 RMK AO2 DZB49 SLP264 P0000 T00560011 (DP)
0317722540139042014010808537+30183-097680FM-15+0151KAUS V0309999C00005005495MN0080475N5+00445+00285102595ADDAA101000025AA203000021AU110010015AU200001015AW1105AW2515GA1085+005495991GD14991+0054959GE19MSL   +99999+99999GF199999990990005491991991MA1102545100725MD1690204+9999REMMET12201/08/14 02:53:02 METAR KAUS 080853Z 00000KT 5SM -DZ BR OVC018 04/03 A3028 RMK AO2 SLP259 P0000 60000 T00440028 56020 (DP)EQDQ01  00008PRCP03
0299722540139042014010809407+30183-097680FM-16+0151KAUS V0309999C00005004275MN0048285N5+00405+00305999999ADDAA101000021AU110010015AU200001015AW1105AW2515GA1025+001225991GA2085+004275991GD11991+0012259GD24991+0042759GE19MSL   +99999+99999GF199999990990001221991991MA1102515100695REMMET11701/08/14 03:40:02 SPECI KAUS 080940Z 00000KT 3SM -DZ BR FEW004 OVC014 04/03 A3027 RMK AO2 VIS 1 3/4 RWY17R P0000 (DP)
0249722540139042014010809516+30183-097680FM-16+0151KAUS V0301205N00155004275MN0040235N5+00405+00405999999ADDAU110010015AU200001015AW1105AW2515GA1025+001225999GA2085+004275999GD11991+0012259GD24991+0042759MA1102445100625REMMET12601/08/14 03:51:02 SPECI KAUS 080951Z 12003KT 2 1/2SM -DZ BR FEW004 OVC014 04/04 A3025 RMK AO2 VIS 1 1/2 RWY17R P0001 FIBI (DP)
0320722540139042014010809537+30183-097680FM-15+0151KAUS V0301205N00155004275MN0040235N5+00445+00395102495ADDAA101000395AU110010015AU200001015AW1105AW2515GA1025+001225991GA2085+004275991GD11991+0012259GD24991+0042759GE19MSL   +99999+99999GF199999990990001221991991MA1102445100625REMMET13801/08/14 03:53:02 METAR KAUS 080953Z 12003KT 2 1/2SM -DZ BR FEW004 OVC014 04/04 A3025 RMK AO2 VIS 1 1/2 RWY17R SLP249 P0001 T00440039 (DP)
0307722540139042014010810297+30183-097680FM-16+0151KAUS V0309999C00005001225MN0032195N5+00405+00405999999ADDAA101000021AU110020015AU200001015AW1105AW2615GA1075+001225991GA2085+003055991GD13991+0012259GD24991+0030559GE19MSL   +99999+99999GF199999990990001221991991MA1102405100595REMMET12501/08/14 04:29:02 SPECI KAUS 081029Z 00000KT 2SM -RA BR BKN004 OVC010 04/04 A3024 RMK AO2 SFC VIS 2 1/2 DZE29RAB29 P0000 (DP)
0310722540139042014010810537+30183-097680FM-15+0151KAUS V0309999C00005001225MN0032195N5+00445+00395102435ADDAA101000395AU110020015AU200001015AW1105AW2615GA1075+001225991GA2085+002445991GD13991+0012259GD24991+0024459GE19MSL   +99999+99999GF199999990990001221991991MA1102375100555REMMET12801/08/14 04:53:02 METAR KAUS 081053Z 00000KT 2SM -RA BR BKN004 OVC008 04/04 A3023 RMK AO2 DZE29RAB29 SLP243 P0001 T00440039 (DP)
0271722540139042014010811047+30183-097680FM-16+0151KAUS V0309999C00005001525MN0032195V5+00405+00405999999ADDAA101000231AU110020015AU200001015AW1105AW2615GA1085+001525991GD14991+0015259GE19MSL   +99999+99999GF199999990990001521991991MA1102375100555REMMET12001/08/14 05:04:02 SPECI KAUS 081104Z 00000KT 2SM -RA BR OVC005 04/04 A3023 RMK AO2 SFC VIS 3 VIS 1 1/2 RWY17R P0001 (DP)
0402722540139042014010811537+30183-097680FM-15+0151KAUS V0309999C00005001525MN0032195N5+00445+00395102405ADDAA101000595AA206001091AA324001091AU110020015AU200001015AW1105AW2615GA1085+001525991GD14991+0015259GE19MSL   +99999+99999GF199999990990001521991991KA1060M+00611KA2060N+00441MA1102345100525MD1690204+9999REMMET15401/08/14 05:53:02 METAR KAUS 081153Z 00000KT 2SM -RA BR OVC005 04/04 A3022 RMK AO2 SFC VIS 2 1/2 SLP240 P0002 60004 70004 T00440039 10061 20044 56020 (DP)EQDQ01  00108PRCP06Q02  00108PRCP24
0241722540139042014010812004+30300-097700FM-12+018999999V0209999N001519999999N006000199+00501+00331102441ADDAA106000531AA224000531AW1101GE19MSL   +99999+99999GF108991990990999990991991KA1240M+00891KA2240N+00441MA1999990100131MD1610051+9999REMSYN09872254 17256 8//03 10050 20033 30013 40244 56005 69951 710// 91151 333 10089 20044 70005 555 90812=
0275722540139042014010812537+30183-097680FM-15+0151KAUS V0309999C00005002745MN0032195N5+00445+00395102395ADDAA101000595AU110020015AU200001015AW1105AW2615GA1085+002745991GD14991+0027459GE19MSL   +99999+99999GF199999990990002741991991MA1102345100525REMMET12401/08/14 06:53:02 METAR KAUS 081253Z 00000KT 2SM -RA BR OVC009 04/04 A3022 RMK AO2 SFC VIS 2 1/2 SLP239 P0002 T00440039 (DP)
0292722540139042014010813487+30183-097680FM-16+0151KAUS V0309999C00005002135MN0016095N5+00505+00405999999ADDAA101000231AU110020015AU200001015AW1105AW2615GA1075+002135991GA2085+003355991GD13991+0021359GD24991+0033559GE19MSL   +99999+99999GF199999990990002131991991MA1102375100555REMMET11001/08/14 07:48:02 SPECI KAUS 081348Z 00000KT 1SM -RA BR BKN007 OVC011 05/04 A3023 RMK AO2 SFC VIS 2 P0001 (JP)
0342722540139042014010813537+30183-097680FM-15+0151KAUS V0301105N00215004575MN0016095N5+00505+00445102395ADDAA101000395AU110020015AU200001015AW1105AW2615GA1045+002135991GA2085+004575991GD12991+0021351GD24991+0045759GE19MSL   +99999+99999GF199999990990002131991991MA1102345100525REMMET16001/08/14 07:53:02 METAR KAUS 081353Z 11004KT 1SM R17L/6000VP6000FT -RA BR SCT007 OVC015 05/04 A3022 RMK AO2 SFC VIS 2 CIG 005 RWY17R SLP239 P0001 T00500044 (JP)
0379722540139042014010814057+30183-097680FM-16+0151KAUS V0301305N00215005185MN0008051NA+00505+00405999999ADDAA101000021AU110020019AU200001019AW1106AW2616GA1045+002135991GA2085+005185991GD12991+0021359GD24991+0051859GE19MSL   +99999+99999GF199999990990002131991991MA1102345100525REMMET13001/08/14 08:05:02 SPECI KAUS 081405Z 13004KT 1/2SM R17L/6000VP6000FT -RA BR SCT007 OVC017 05/04 A3022 RMK AO2 SFC VIS 2 P0000 (JP)EQDR01 1/2SM7VIS018R02-RA BR7AWW018R03SEERMK7MVW018R04-RA BR7MWW018
0292722540139042014010814327+30183-097680FM-16+0151KAUS V0309999C00005005185MN0016095N5+00505+00405999999ADDAA101000021AU110020015AU200001015AW1105AW2615GA1045+002135991GA2085+005185991GD12991+0021359GD24991+0051859GE19MSL   +99999+99999GF199999990990002131991991MA1102375100555REMMET11001/08/14 08:32:02 SPECI KAUS 081432Z 00000KT 1SM -RA BR SCT007 OVC017 05/04 A3023 RMK AO2 SFC VIS 2 P0000 (JP)
0256722540139042014010814516+30183-097680FM-16+0151KAUS V0309999C00005001225MN0016095N5+00605+00505999999ADDAU110020015AU200001015AW1105AW2615GA1075+001225999GA2085+003665999GD13991+0012259GD24991+0036659MA1102375100555REMMET13301/08/14 08:51:02 SPECI KAUS 081451Z 00000KT 1SM R17L/5500VP6000FT -RA BR BKN004 OVC012 06/05 A3023 RMK AO2 SFC VIS 2 P0000 FIBI (JP)
0383722540139042014010814537+30183-097680FM-15+0151KAUS V0309999C00005001225MN0016095N5+00565+00505102415ADDAA101000025AA203000891AU110020015AU200001015AW1105AW2615GA1075+001225991GA2085+003665991GD13991+0012259GD24991+0036659GE19MSL   +99999+99999GF199999990990001221991991MA1102375100555MD1390034+9999REMMET15701/08/14 08:53:02 METAR KAUS 081453Z 00000KT 1SM R17L/5500VP6000FT -RA BR BKN004 OVC012 06/05 A3023 RMK AO2 SFC VIS 2 SLP241 P0000 60003 T00560050 53003 (JP)EQDQ01  00078PRCP03
0282722540139042014010815537+30183-097680FM-15+0151KAUS V0309999C00005001225MN0016095N5+00615+00565102485ADDAA101000395AU110010015AU200001015AW1105AW2515GA1085+001225991GD14991+0012259GE19MSL   +99999+99999GF199999990990001221991991MA1102445100625REMMET13101/08/14 09:53:02 METAR KAUS 081553Z 00000KT 1SM -DZ BR OVC004 06/06 A3025 RMK AO2 SFC VIS 3 RAE49DZB49 SLP248 P0001 T00610056 (JP)
0256722540139042014010816087+30183-097680FM-16+0151KAUS V0309999C00005001225MN0012075N5+00605+00605999999ADDAA101000231AU110010015AU200001015AW1105AW2515GA1075+001225991GD13991+0012259GE19MSL   +99999+99999GF199999990990001221991991MA1102445100625REMMET10501/08/14 10:08:02 SPECI KAUS 081608Z 00000KT 3/4SM -DZ BR BKN004 06/06 A3025 RMK AO2 SFC VIS 2 P0001 (JP)
0291722540139042014010816537+30183-097680FM-15+0151KAUS V0309999C00005000615MN0012075N5+00725+00675102435ADDAA101000595AU110010015AU200001015AW1105AW2515GA1085+000615991GD14991+0006159GE19MSL   +99999+99999GF199999990990000611991991MA1102405100595REMMET14001/08/14 10:53:02 METAR KAUS 081653Z 00000KT 3/4SM R17L/6000VP6000FT -DZ BR OVC002 07/07 A3024 RMK AO2 SFC VIS 2 SLP243 P0002 T00720067 (JP)
0389722540139042014010817537+30183-097680FM-15+0151KAUS V0309999C00005000615MN0012075N5+00785+00725102325ADDAA101000395AA206001891AU110010015AU200001015AW1105AW2515GA1085+000615991GD14991+0006159GE19MSL   +99999+99999GF199999990990000611991991KA1060M+00781KA2060N+00441MA1102275100455MD1890084+9999REMMET16801/08/14 11:53:02 METAR KAUS 081753Z 00000KT 3/4SM R17L/5000VP6000FT -DZ BR OVC002 08/07 A3020 RMK AO2 SFC VIS 1 1/2 SLP232 P0001 60007 T00780072 10078 20044 58008 (JP)EQDQ01  00178PRCP06
0243722540139042014010818004+30300-097700FM-12+018999999V0209999C000019999999N002800199+00831+00671102351ADDAA106003031AW1101GE19MSL   +99999+99999GF108991990990999990991991KA1120M+00831KA2120N+00501MA1999990999999MD1810161+9999REMSYN09272254 17128 80000 10083 20067 30003 40235 58016 60031 710// 91751 333 10083 20050 555 90818=EQDQ01 100033APOSP 
0262722540139042014010818067+30183-097680FM-16+0151KAUS V0309999C00005000615MN0020125N5+00805+00805999999ADDAA101000021AU110010015AU200001015AW1105AW2515GA1085+000615991GD14991+0006159GE19MSL   +99999+99999GF199999990990000611991991MA1102275100455REMMET11101/08/14 12:06:02 SPECI KAUS 081806Z 00000KT 1 1/4SM -DZ BR OVC002 08/08 A3020 RMK AO2 SFC VIS 2 1/2 P0000 (JP)
0328722540139042014010818537+30183-097680FM-15+0151KAUS V0301805N00415001225MN0020125N5+00945+00895102145ADDAA101000595AU110020015AU200001015AW1105AW2615GA1075+001225991GA2085+004275991GD13991+0012259GD24991+0042759GE19MSL   +99999+99999GF199999990990001221991991MA1102105100295REMMET14601/08/14 12:53:02 METAR KAUS 081853Z 18008KT 1 1/4SM -RA BR BKN004 OVC014 09/09 A3015 RMK AO2 SFC VIS 2 1/2 DZE20RAB20 SLP214 P0001 T00940089 (JP)
0279722540139042014010819537+30183-097680FM-15+0151KAUS V0301705N00415001225MN0020125N5+01065+01065102035ADDAA101000025AU110020015AU200001015AW1105AW2615GA1085+001225991GD14991+0012259GE19MSL   +99999+99999GF199999990990001221991991MA1102005100195REMMET12801/08/14 13:53:02 METAR KAUS 081953Z 17008KT 1 1/4SM -RA BR OVC004 11/11 A3012 RMK AO2 SFC VIS 2 1/2 SLP203 P0001 T01060106 (JP)
0316722540139042014010820537+30183-097680FM-15+0151KAUS V0301805N00315001225MN0020125N5+01115+01065102015ADDAA101000025AA203000591AU100001015AW1105GA1085+001225991GD14991+0012259GE19MSL   +99999+99999GF199999990990001221991991MA1101965100155MD1690304+9999REMMET13801/08/14 14:53:02 METAR KAUS 082053Z 18006KT 1 1/4SM BR OVC004 11/11 A3011 RMK AO2 SFC VIS 3 RAE49 SLP201 P0000 60002 T01110106 56030 (JP)EQDQ01  00058PRCP03
0289722540139042014010821157+30183-097680FM-16+0151KAUS V0302005N00215001225MN0008051NA+01105+01105999999ADDAU100001019AW1106GA1085+001225991GD14991+0012259GE19MSL   +99999+99999GF199999990990001221991991MA1102005100195REMMET09901/08/14 15:15:02 SPECI KAUS 082115Z 20004KT 1/2SM BR OVC004 11/11 A3012 RMK AO2 SFC VIS 1 1/4 (JP)EQDR01 1/2SM7VIS018R02    BR7AWW018R03SEERMK7MVW018R04    BR7MWW018
0303722540139042014010821536+30183-097680FM-15+0151KAUS V0302005N00215001225MN0008051NA+01115+01115102035ADDAA101000025AU110020019AU200001019AW1106AW2616GA1085+001225999GD14991+0012259MA1102005100195REMMET13301/08/14 15:53:02 METAR KAUS 082153Z 20004KT 1/2SM -RA BR OVC004 11/11 A3012 RMK AO2 SFC VIS 1 1/4 RAB26 SLP203 P0000 T01110111 (JTP)EQDR01 1/2SM7VIS018R02-RA BR7AWW018R03SEERMK7MVW018R04-RA BR7MWW018
0222722540139042014010822056+30183-097680FM-16+0151KAUS V0302005N00155001225MN0020125N5+01105+01105999999ADDAU110020015AU200001015AW1105AW2615GA1085+001225999GD14991+0012259MA1102005100195REMMET13001/08/14 16:05:02 SPECI KAUS 082205Z 20003KT 1 1/4SM R17L/5000VP6000FT -RA BR OVC004 11/11 A3012 RMK AO2 SFC VIS 1 1/2 P0001 (JTP)
0189722540139042014010822316+30183-097680FM-16+0151KAUS V0302005N00215002135MN0020125N5+01105+01105999999ADDAU100001015AW1105GA1085+002135999GD14991+0021359MA1102005100195REMMET11401/08/14 16:31:02 SPECI KAUS 082231Z 20004KT 1 1/4SM BR OVC007 11/11 A3012 RMK AO2 SFC VIS 1 1/2 RAE15 P0001 (JTP)
0194722540139042014010822516+30183-097680FM-16+0151KAUS V0301905N00215003355MN0020125N5+01105+01105999999ADDAU100001015AW1105GA1085+003355999GD14991+0033559MA1101965100155REMMET11901/08/14 16:51:02 SPECI KAUS 082251Z 19004KT 1 1/4SM BR OVC011 11/11 A3011 RMK AO2 SFC VIS 1 1/2 RAE15 P0001 FIBI (JTP)
0303722540139042014010822537+30183-097680FM-15+0151KAUS V0302005N00155003355MN0020125N5+01115+01115102005ADDAA101000395AU100001015AW1105GA1045+002135991GA2085+003355991GD12991+0021359GD24991+0033559GE19MSL   +99999+99999GF199999990990002131991991MA1101965100155REMMET13801/08/14 16:53:02 METAR KAUS 082253Z 20003KT 1 1/4SM BR SCT007 OVC011 11/11 A3011 RMK AO2 SFC VIS 1 1/2 RAE15 SLP200 P0001 T01110111 (JTP)
0255722540139042014010823217+30183-097680FM-16+0151KAUS V0302105N00155002135MN0032195N5+01105+01105999999ADDAU100001015AW1105GA1075+002135991GA2085+003355991GD13991+0021359GD24991+0033559GE19MSL   +99999+99999GF199999990990002131991991MA1102005100195REMMET10101/08/14 17:21:02 SPECI KAUS 082321Z 21003KT 2SM BR BKN007 OVC011 11/11 A3012 RMK AO2 SFC VIS 3 (JTP)
0362722540139042014010823537+30183-097680FM-15+0151KAUS V0309999C00005001525MN0032195N5+01115+01065102025ADDAA101000595AA206001091AU110020015AU200001015AW1105AW2615GA1085+001525991GD14991+0015259GE19MSL   +99999+99999GF199999990990001521991991KA1060M+01171KA2060N+00831MA1102005100195MD1590014+9999REMMET14101/08/14 17:53:02 METAR KAUS 082353Z 00000KT 2SM -RA BR OVC005 11/11 A3012 RMK AO2 RAB24 SLP202 P0001 60004 T01110106 10117 20083 55001 (JTP)EQDQ01  00108PRCP06
0243722540139042014010900004+30300-097700FM-12+018999999V0209999C000019999999N006000199+01171+01001102051ADDAA106000831AW1101GE19MSL   +99999+99999GF108991990990999990991991KA1120M+01171KA2120N+00441MA1999990999999MD1510001+9999REMSYN09272254 17256 80000 10117 20100 39973 40205 55000 69981 710// 92351 333 10117 20044 555 90900=EQDQ01 099733APOSP 
0277722540139042014010900537+30183-097680FM-15+0151KAUS V0302005N00155002135MN0032195N5+01065+01065102035ADDAA101000025AU110010015AU200001015AW1105AW2515GA1085+002135991GD14991+0021359GE19MSL   +99999+99999GF199999990990002131991991MA1102005100195REMMET12601/08/14 18:53:01 METAR KAUS 090053Z 20003KT 2SM -DZ BR OVC007 11/11 A3012 RMK AO2 SFC VIS 3 RAE28DZB50 SLP203 P0001 T01060106
0176722540139042014010901516+30183-097680FM-16+0151KAUS V0309999C00005002135MN0064375N5+01105+01105999999ADDAU100001015AW1105GA1085+002135999GD14991+0021359MA1102075100255REMMET10101/08/14 19:51:03 SPECI KAUS 090151Z 00000KT 4SM BR OVC007 11/11 A3014 RMK AO2 DZE49 P0001 FIBI (JTP)
0241722540139042014010901537+30183-097680FM-15+0151KAUS V0309999C00005002135MN0064375N5+01065+01065102095ADDAA101000395AU100001015AW1105GA1085+002135991GD14991+0021359GE19MSL   +99999+99999GF199999990990002131991991MA1102075100255REMMET10701/08/14 19:53:01 METAR KAUS 090153Z 00000KT 4SM BR OVC007 11/11 A3014 RMK AO2 DZE49 SLP209 P0001 T01060106
