0069723030137141973010100004+35167-079017SAO  +0066POB  V0201701N002010150019N0112651N9+01701+01601101981ADDAA106000091GF108991999999999999999999MA1102001999999MD1310101+9999
0044723030137141973010101004+35167-079017SAO  +0066POB  V0201701N003010150019N0112651N9+01701+01601999999ADDGF108991999999999999999999MA1102001999999
0050723030137141973010102004+35167-079017SAO  +0066POB  V0201801N004110150019N0064371N9+01701+01601999999ADDGF108991999999999999999999MA1102001999999MW1451
0064723030137141973010103004+35167-079017SAO  +0066POB  V0202101N001510063019N0080471N9+01701+01601102011ADDGF108991999999999999999999MA1102001999999MD1310031+9999MW1451
0050723030137141973010104004+35167-079017SAO  +0066POB  V0201801N002510099019N0080471N9+01701+01601999999ADDGF108991999999999999999999MA1102001999999MW1451
0050723030137141973010105004+35167-079017SAO  +0066POB  V0202001N005112200019N0128741N9+01601+01601999999ADDGF108991999999999999999999MA1102001999999MW1511
0096723030137141973010106004+35167-079017SAO  +0066POB  V0202101N001510135019N0064371N9+01601+01601101981ADDAA106000091GA1999+000151031GF108991999999999999999999MA1102001999999MW1451EQDQ01    003SCCGA1
0050723030137141973010107004+35167-079017SAO  +0066POB  V0201901N002010015019N0064371N9+01601+01601999999ADDGF108991999999999999999999MA1102001999999MW1451
0050723030137141973010108004+35167-079017SAO  +0066POB  V0202401N002510015019N0064371N9+01601+01601999999ADDGF108991999999999999999999MA1102001999999MW1611
0064723030137141973010109004+35167-079017SAO  +0066POB  V0202201N001510015019N0048281N9+01601+01601101981ADDGF108991999999999999999999MA1102001999999MD1010001+9999MW1611
0050723030137141973010110004+35167-079017SAO  +0066POB  V0202601N001510012019N0048281N9+01601+01501999999ADDGF108991999999999999999999MA1102001999999MW1451
0050723030137141973010111004+35167-079017SAO  +0066POB  V0202101N001010006019N0010061N9+01601+01601999999ADDGF108991999999999999999999MA1101901999999MW1451
0094723030137141973010112004+35167-079017SAO  +0066POB  V0202101N002510009019N0020121N9+01601+01601102021ADDAA106000091GF108991999999999999999999MA1102001999999MD1310031+9999MW1451EQDQ01  00003PRCP99
0050723030137141973010113004+35167-079017SAO  +0066POB  V0202101N002010015019N0040231N9+01601+01601999999ADDGF108991999999999999999999MA1102001999999MW1451
0050723030137141973010114004+35167-079017SAO  +0066POB  V0202101N002510018019N0048281N9+01601+01601999999ADDGF108991999999999999999999MA1102101999999MW1451
0058723030137141973010115004+35167-079017SAO  +0066POB  V0202201N003610039019N0112651N9+01701+01601102151ADDGF108991999999999999999999MA1102101999999MD1210141+9999
0044723030137141973010116004+35167-079017SAO  +0066POB  V0202201N003010036019N0112651N9+01701+01601999999ADDGF108991999999999999999999MA1102101999999
0044723030137141973010117004+35167-079017SAO  +0066POB  V0202101N003010036019N0128741N9+01801+01601999999ADDGF108991999999999999999999MA1102101999999
0069723030137141973010118004+35167-079017SAO  +0066POB  V0202201N003610060019N0128741N9+01901+01601101951ADDAA106000091GF107991999999999999999999MA1101901999999MD1810201+9999
0044723030137141973010119004+35167-079017SAO  +0066POB  V0202001N003610600019N0128741N9+01901+01601999999ADDGF107991999999999999999999MA1101901999999
0044723030137141973010120004+35167-079017SAO  +0066POB  V0202101N003010075019N0128741N9+01901+01601999999ADDGF108991999999999999999999MA1101901999999
0058723030137141973010121004+35167-079017SAO  +0066POB  V0202001N003010069019N0128741N9+01801+01601101881ADDGF108991999999999999999999MA1101901999999MD1610071+9999
0044723030137141973010122004+35167-079017SAO  +0066POB  V0202201N001510069019N0112651N9+01801+01601999999ADDGF108991999999999999999999MA1101901999999
0044723030137141973010123004+35167-079017SAO  +0066POB  V0202401N002510069019N0112651N9+01701+01601999999ADDGF108991999999999999999999MA1101901999999
0075723030137141973010200004+35167-079017SAO  +0066POB  V0202601N001010150019N0096561N9+01701+01601101981ADDAA106000091GF108991999999999999999999MA1102001999999MD1110101+9999MW1451
0044723030137141973010201004+35167-079017SAO  +0066POB  V0209999C000010057019N0064371N9+01601+01601999999ADDGF108991999999999999999999MA1102001999999
0050723030137141973010202004+35167-079017SAO  +0066POB  V0209999C000010039019N0064371N9+01601+01601999999ADDGF108991999999999999999999MA1102001999999MW1511
0064723030137141973010203004+35167-079017SAO  +0066POB  V0202301N000510018019N0080471N9+01601+01601102021ADDGF108991999999999999999999MA1102001999999MD1110031+9999MW1451
0050723030137141973010204004+35167-079017SAO  +0066POB  V0209999C000010015019N0080471N9+01601+01601999999ADDGF108991999999999999999999MA1102101999999MW1511
0044723030137141973010205004+35167-079017SAO  +0066POB  V0200401N002010057019N0112651N9+01201+01001999999ADDGF108991999999999999999999MA1102101999999
0088723030137141973010206004+35167-079017SAO  +0066POB  V0200601N000510087019N0112651N9+01201+00901102091ADDAA106000091GF108991999999999999999999MA1102101999999MD1110051+9999EQDQ01  00003PRCP99
0044723030137141973010207004+35167-079017SAO  +0066POB  V0200101N000510114019N0112651N9+01201+00501999999ADDGF108991999999999999999999MA1102101999999
0044723030137141973010208004+35167-079017SAO  +0066POB  V0209999C000010114019N0112651N9+01101+00301999999ADDGF108991999999999999999999MA1102101999999
0064723030137141973010209004+35167-079017SAO  +0066POB  V0203401N000510240019N0096561N9+01101+00401102131ADDGF108991999999999999999999MA1102101999999MD1310021+9999MW1611
0044723030137141973010210004+35167-079017SAO  +0066POB  V0209999C000010090019N0128741N9+01101+00101999999ADDGF108991999999999999999999MA1102101999999
0044723030137141973010211004+35167-079017SAO  +0066POB  V0209999C000010090019N0128741N9+01001+00401999999ADDGF108991999999999999999999MA1102101999999
0088723030137141973010212004+35167-079017SAO  +0066POB  V0203601N001010096019N0128741N9+01101+00201102201ADDAA106000091GF108991999999999999999999MA1102171999999MD1310081+9999EQDQ01  00003PRCP99
0044723030137141973010213004+35167-079017SAO  +0066POB  V0203601N002010099019N0128741N9+01101-00201999999ADDGF108991999999999999999999MA1102371999999
0044723030137141973010214004+35167-079017SAO  +0066POB  V0200101N001010099019N0128741N9+01001-00201999999ADDGF108991999999999999999999MA1102371999999
0070723030137141973010215004+35167-079017SAO  +0066POB  V0200201N000510210019N0096001N1+00891+00221102511ADDGF108991999999999999999999MA1102471101661MD1210301+9999MW1051MW2611
0050723030137141973010216004+35167-079017SAO  +0066POB  V0209999C000010135019N0112651N9+00901+00301999999ADDGF108991999999999999999999MA1102571999999MW1611
0044723030137141973010217004+35167-079017SAO  +0066POB  V0200201N002510210019N0112651N9+01001-00101999999ADDGF108991999999999999999999MA1102571999999
0080723030137141973010218004+35167-079017SAO  +0066POB  V0200301N002010210019N0112651N9+01101-00101102511ADDAA106000091AA299023091GF108991999999999999999999MA1102471999999MD1010001+9999
0044723030137141973010219004+35167-079017SAO  +0066POB  V0200401N002010210019N0112651N9+01101-00201999999ADDGF108991999999999999999999MA1102371999999
0044723030137141973010220004+35167-079017SAO  +0066POB  V0203601N001010360019N0112651N9+01201-00201999999ADDGF107991999999999999999999MA1102371999999
0058723030137141973010221004+35167-079017SAO  +0066POB  V0200301N002510300019N0112651N9+01101-00301102471ADDGF108991999999999999999999MA1102371999999MD1510031+9999
0044723030137141973010222004+35167-079017SAO  +0066POB  V0200401N001010300019N0128741N9+01001-00201999999ADDGF107991999999999999999999MA1102471999999
0044723030137141973010223004+35167-079017SAO  +0066POB  V0203601N001010600019N0128741N9+00901-00101999999ADDGF107991999999999999999999MA1102571999999
0069723030137141973010300004+35167-079017SAO  +0066POB  V0200201N001510600019N0128741N9+00901-00401102681ADDAA106000091GF108991999999999999999999MA1102571999999MD1210201+9999
0044723030137141973010301004+35167-079017SAO  +0066POB  V0209999C000010600019N0128741N9+00701-00301999999ADDGF107991999999999999999999MA1102681999999
0044723030137141973010302004+35167-079017SAO  +0066POB  V0209999C000010600019N0128741N9+00701-00201999999ADDGF107991999999999999999999MA1102781999999
0058723030137141973010303004+35167-079017SAO  +0066POB  V0200601N000510600019N0128741N9+00601-00201102921ADDGF107991999999999999999999MA1102881999999MD1210241+9999
0044723030137141973010304004+35167-079017SAO  +0066POB  V0200301N000512200019N0128741N9+00601-00201999999ADDGF107991999999999999999999MA1102881999999
0044723030137141973010305004+35167-079017SAO  +0066POB  V0209999C000012200019N0128741N9+00401+00001999999ADDGF107991999999999999999999MA1102881999999
0069723030137141973010306004+35167-079017SAO  +0066POB  V0209999C000010750019N0128741N9+00401+00101102961ADDAA106000091GF107991999999999999999999MA1102881999999MD1310031+9999
0044723030137141973010307004+35167-079017SAO  +0066POB  V0200501N002012200019N0128741N9+00301-00101999999ADDGF102991999999999999999999MA1102881999999
0044723030137141973010308004+35167-079017SAO  +0066POB  V0200601N001012200019N0128741N9+00301+00001999999ADDGF102991999999999999999999MA1102881999999
0058723030137141973010309004+35167-079017SAO  +0066POB  V0200601N001010300019N0128741N9+00301+00101103071ADDGF107991999999999999999999MA1102981999999MD1310101+9999
0044723030137141973010310004+35167-079017SAO  +0066POB  V0200601N002010240019N0128741N9+00401+00201999999ADDGF108991999999999999999999MA1102981999999
0044723030137141973010311004+35167-079017SAO  +0066POB  V0200701N002010240019N0128741N9+00401+00001999999ADDGF108991999999999999999999MA1103081999999
0069723030137141973010312004+35167-079017SAO  +0066POB  V0200701N002510240019N0128741N9+00401-00201103201ADDAA106000091GF108991999999999999999999MA1103081999999MD1210141+9999
0044723030137141973010313004+35167-079017SAO  +0066POB  V0200701N005110240019N0128741N9+00401-00301999999ADDGF108991999999999999999999MA1103081999999
0044723030137141973010314004+35167-079017SAO  +0066POB  V0200601N005110210019N0128741N9+00401-00301999999ADDGF108991999999999999999999MA1103181999999
0064723030137141973010315004+35167-079017SAO  +0066POB  V0200601N003610210019N0112651N9+00401-00201103241ADDGF108991999999999999999999MA1103181999999MD1010031+9999MW1611
0050723030137141973010316004+35167-079017SAO  +0066POB  V0200601N005610210019N0112651N9+00401+00301999999ADDGF108991999999999999999999MA1103081999999MW1611
0050723030137141973010317004+35167-079017SAO  +0066POB  V0200501N004610210019N0080471N9+00401+00201999999ADDGF108991999999999999999999MA1102981999999MW1611
0110723030137141973010318004+35167-079017SAO  +0066POB  V0200601N003610138019N0080471N9+00401+00301102931ADDAA106999999GF108991999999999999999999MA1102881999999MD1710301+9999MW1611EQDQ01  00003PRCP99Q02  00002PRCP06
0050723030137141973010319004+35167-079017SAO  +0066POB  V0200501N006110075019N0040231N9+00301+00301999999ADDGF108991999999999999999999MA1102781999999MW1611
0050723030137141973010320004+35167-079017SAO  +0066POB  V0200501N005610021019N0028161N9+00301+00301999999ADDGF108991999999999999999999MA1102681999999MW1611
0064723030137141973010321004+35167-079017SAO  +0066POB  V0200701N006110015019N0018111N9+00301+00301102661ADDGF108991999999999999999999MA1102571999999MD1810271+9999MW1611
0056723030137141973010322004+35167-079017SAO  +0066POB  V0200701N003610015019N0024001N1+00331+00331999999ADDGF108991999999999999999999MA1102571999999MW1451MW2611
0100723030137141973010323004+35167-079017SAO  +0066POB  V0200601N003110012019N0028001N1+00331+00331999999ADDGF108991999999999999999999MA1102541999999MW1451MW2611REMAWY035F3 CIG3V5 VSBY SE-SSW 2 1/2 WET RWY
0096723030137141973010400004+35167-079017SAO  +0066POB  V0200701N002510012019N0040231N9+00401+00401102531ADDAA106999999GA1011+010501041GF108991999999999999999999MA1102471999999MW1611EQDQ01  00002PRCP06
0050723030137141973010401004+35167-079017SAO  +0066POB  V0200701N003010012019N0032191N9+00401+00401999999ADDGF108991999999999999999999MA1102371999999MW1611
0050723030137141973010402004+35167-079017SAO  +0066POB  V0203001N003010012019N0024141N9+00501+00501999999ADDGF108991999999999999999999MA1102271999999MW1611
0064723030137141973010403004+35167-079017SAO  +0066POB  V0200601N001510012019N0028161N9+00401+00401102661ADDGF108991999999999999999999MA1102171999999MD1710271+9999MW1611
0050723030137141973010404004+35167-079017SAO  +0066POB  V0203301N001010012019N0024141N9+00501+00501999999ADDGF108991999999999999999999MA1102171999999MW1451
0050723030137141973010405004+35167-079017SAO  +0066POB  V0200601N001010012019N0024141N9+00501+00501999999ADDGF108991999999999999999999MA1102001999999MW1451
0077723030137141973010406004+35167-079017SAO  +0066POB  V0209999C000010009019N0020121N9+00401+00401101981ADDAA106000091GA1999+003901071GF108991999999999999999999MA1101901999999MW1451
0050723030137141973010407004+35167-079017SAO  +0066POB  V0202501N001010006019N0008051N9+00401+00401999999ADDGF109991999999999999999999MA1101801999999MW1451
0050723030137141973010408004+35167-079017SAO  +0066POB  V0203001N002010003019N0004021N9+00401+00401999999ADDGF109991999999999999999999MA1101901999999MW1451
0050723030137141973010409004+35167-079017SAO  +0066POB  V0203201N002010009019N0018111N9+00401+00401101911ADDGF108991999999999999999999MA1101901999999MW1511
0050723030137141973010410004+35167-079017SAO  +0066POB  V0202801N000510006019N0012071N9+00301+00301999999ADDGF109991999999999999999999MA1101691999999MW1451
0050723030137141973010411004+35167-079017SAO  +0066POB  V0202901N000510003019N0008051N9+00401+00401999999ADDGF109991999999999999999999MA1101801999999MW1451
0086723030137141973010412004+35167-079017SAO  +0066POB  V0202701N001510003019N0012071N9+00401+00401101851ADDAA106000091AA299023091GF109991999999999999999999MA1101801999999MD1510071+9999MW1451
0050723030137141973010413004+35167-079017SAO  +0066POB  V0209999C000010006019N0024141N9+00401+00401999999ADDGF108991999999999999999999MA1101901999999MW1451
0050723030137141973010414004+35167-079017SAO  +0066POB  V0202501N002010012019N0048281N9+00601+00601999999ADDGF108991999999999999999999MA1101901999999MW1451
0064723030137141973010415004+35167-079017SAO  +0066POB  V0202501N001010018019N0064371N9+00601+00601101941ADDGF108991999999999999999999MA1101901999999MD1010101+9999MW1451
0050723030137141973010416004+35167-079017SAO  +0066POB  V0202701N002010024019N0096561N9+00901+00801999999ADDGF108991999999999999999999MA1101901999999MW1451
0050723030137141973010417004+35167-079017SAO  +0066POB  V0203001N001510021019N0096561N9+00901+00801999999ADDGF108991999999999999999999MA1101801999999MW1051
0061723030137141973010418004+35167-079017SAO  +0066POB  V0202901N002510030019N0096561N9+01101+00801101731ADDAA106000091GF108991999999999999999999MA1101691999999MW1051
0044723030137141973010419004+35167-079017SAO  +0066POB  V0202901N003012200019N0112651N9+01301+00901999999ADDGF102991999999999999999999MA1101691999999
0044723030137141973010420004+35167-079017SAO  +0066POB  V0202601N005112200019N0112651N9+01401+00901999999ADDGF102991999999999999999999MA1101691999999
0058723030137141973010421004+35167-079017SAO  +0066POB  V0202601N003612200019N0112651N9+01301+00901101671ADDGF102991999999999999999999MA1101591999999MD1810071+9999
0044723030137141973010422004+35167-079017SAO  +0066POB  V0202601N002012200019N0112651N9+01201+00901999999ADDGF107991999999999999999999MA1101591999999
0044723030137141973010423004+35167-079017SAO  +0066POB  V0202301N003012200019N0112651N9+00801+00801999999ADDGF102991999999999999999999MA1101591999999
0069723030137141973010500004+35167-079017SAO  +0066POB  V0202401N002012200019N0112651N9+00901+00801101631ADDAA106000091GF102991999999999999999999MA1101591999999MD1610031+9999
0044723030137141973010501004+35167-079017SAO  +0066POB  V0209999C000012200019N0112651N9+01101+00901999999ADDGF102991999999999999999999MA1101591999999
0044723030137141973010502004+35167-079017SAO  +0066POB  V0209999C000012200019N0112651N9+00701+00701999999ADDGF102991999999999999999999MA1101691999999
0064723030137141973010503004+35167-079017SAO  +0066POB  V0209999C000010750019N0010061N9+00701+00601101771ADDGF107991999999999999999999MA1101691999999MD1310141+9999MW1451
0050723030137141973010504004+35167-079017SAO  +0066POB  V0202401N001012200019N0008051N9+00401+00401999999ADDGF109991999999999999999999MA1101691999999MW1451
0050723030137141973010505004+35167-079017SAO  +0066POB  V0209999C000012200019N0024141N9+00401+00401999999ADDGF102991999999999999999999MA1101691999999MW1451
0075723030137141973010506004+35167-079017SAO  +0066POB  V0202201N001512200019N0024141N9+00301+00301101731ADDAA106000091GF109991999999999999999999MA1101691999999MD1810031+9999MW1451
0050723030137141973010507004+35167-079017SAO  +0066POB  V0202701N000512200019N0024141N9+00301+00201999999ADDGF109991999999999999999999MA1101691999999MW1451
0061723030137141973010508004+35167-079017SAO  +0066POB  V0202601N001012200019N0024001N1+00171+00111999999ADDGF110991999999999999999999MA1101731999999MW1111REMAWY002F4
0064723030137141973010509004+35167-079017SAO  +0066POB  V0209999C000012200019N0024141N9+00201+00101101771ADDGF109991999999999999999999MA1101691999999MD1110031+9999MW1451
0050723030137141973010510004+35167-079017SAO  +0066POB  V0209999C000012200019N0024141N9+00101+00101999999ADDGF109991999999999999999999MA1101801999999MW1451
0050723030137141973010511004+35167-079017SAO  +0066POB  V0209999C000012200019N0096561N9+00101+00001999999ADDGF102991999999999999999999MA1101801999999MW1451
0075723030137141973010512004+35167-079017SAO  +0066POB  V0202901N001010360019N0096561N9+00101+00001101841ADDAA106000091GF107991999999999999999999MA1101801999999MD1210071+9999MW1451
0050723030137141973010513004+35167-079017SAO  +0066POB  V0202801N001010300019N0096561N9+00201+00101999999ADDGF107991999999999999999999MA1101901999999MW1451
0050723030137141973010514004+35167-079017SAO  +0066POB  V0202501N001010300019N0080471N9+00301+00201999999ADDGF107991999999999999999999MA1101901999999MW1451
0064723030137141973010515004+35167-079017SAO  +0066POB  V0209999C000010300019N0096561N9+00601+00401102041ADDGF108991999999999999999999MA1102001999999MD1310201+9999MW1451
0044723030137141973010516004+35167-079017SAO  +0066POB  V0209999C000010300019N0112651N9+00901+00601999999ADDGF107991999999999999999999MA1101901999999
0044723030137141973010517004+35167-079017SAO  +0066POB  V0209999C000012200019N0112651N9+01101+00401999999ADDGF107991999999999999999999MA1101801999999
0069723030137141973010518004+35167-079017SAO  +0066POB  V0200501N001012200019N0112651N9+01301+00401101701ADDAA106000091GF107991999999999999999999MA1101691999999MD1610341+9999
0044723030137141973010519004+35167-079017SAO  +0066POB  V0200101N002512200019N0128741N9+01301+00401999999ADDGF107991999999999999999999MA1101591999999
0044723030137141973010520004+35167-079017SAO  +0066POB  V0203601N002010300019N0128741N9+01301+00401999999ADDGF107991999999999999999999MA1101591999999
0058723030137141973010521004+35167-079017SAO  +0066POB  V0203601N000510240019N0128741N9+01201+00401101731ADDGF107991999999999999999999MA1101691999999MD1310031+9999
0044723030137141973010522004+35167-079017SAO  +0066POB  V0209999C000010240019N0128741N9+01201+00401999999ADDGF108991999999999999999999MA1101691999999
0044723030137141973010523004+35167-079017SAO  +0066POB  V0200301N001510240019N0128741N9+01101+00501999999ADDGF108991999999999999999999MA1101691999999
0069723030137141973010600004+35167-079017SAO  +0066POB  V0209999C000010240019N0128741N9+01001+00401101771ADDAA106000091GF108991999999999999999999MA1101691999999MD1310031+9999
0050723030137141973010601004+35167-079017SAO  +0066POB  V0209999C000010240019N0112651N9+01001+00401999999ADDGF108991999999999999999999MA1101691999999MW1611
0050723030137141973010602004+35167-079017SAO  +0066POB  V0209999C000010240019N0112651N9+00801+00701999999ADDGF108991999999999999999999MA1101691999999MW1611
0064723030137141973010603004+35167-079017SAO  +0066POB  V0209999C000010240019N0096561N9+00801+00701101801ADDGF108991999999999999999999MA1101801999999MD1310031+9999MW1611
0050723030137141973010604004+35167-079017SAO  +0066POB  V0200301N002010240019N0096561N9+00701+00601999999ADDGF108991999999999999999999MA1101691999999MW1611
0050723030137141973010605004+35167-079017SAO  +0066POB  V0209999C000010114019N0096561N9+00701+00701999999ADDGF108991999999999999999999MA1101691999999MW1611
0110723030137141973010606004+35167-079017SAO  +0066POB  V0209999C000010114019N0080471N9+00701+00601101691ADDAA106999999GF108991999999999999999999MA1101691999999MD1610101+9999MW1611EQDQ01  00003PRCP99Q02  00002PRCP06
0050723030137141973010607004+35167-079017SAO  +0066POB  V0200601N001010063019N0048281N9+00701+00601999999ADDGF108991999999999999999999MA1101691999999MW1611
0050723030137141973010608004+35167-079017SAO  +0066POB  V0209999C000010057019N0048281N9+00701+00601999999ADDGF108991999999999999999999MA1101691999999MW1611
0064723030137141973010609004+35167-079017SAO  +0066POB  V0209999C000010057019N0048281N9+00701+00601101771ADDGF108991999999999999999999MA1101691999999MD1110071+9999MW1611
0050723030137141973010610004+35167-079017SAO  +0066POB  V0209999C000010051019N0040231N9+00701+00601999999ADDGF108991999999999999999999MA1101691999999MW1611
0050723030137141973010611004+35167-079017SAO  +0066POB  V0209999C000010009019N0040231N9+00701+00601999999ADDGF108991999999999999999999MA1101691999999MW1611
0080723030137141973010612004+35167-079017SAO  +0066POB  V0200501N001510045019N0112651N9+00601+00601101771ADDAA106000091AA299001091GF108991999999999999999999MA1101691999999MD1510001+9999
0050723030137141973010613004+35167-079017SAO  +0066POB  V0200201N002010057019N0064371N9+00601+00601999999ADDGF108991999999999999999999MA1101801999999MW1451
0050723030137141973010614004+35167-079017SAO  +0066POB  V0200401N002010114019N0080471N9+00701+00601999999ADDGF108991999999999999999999MA1102001999999MW1451
0064723030137141973010615004+35167-079017SAO  +0066POB  V0200301N003010120019N0096561N9+00701+00401102111ADDGF108991999999999999999999MA1102101999999MD1310341+9999MW1051
0044723030137141973010616004+35167-079017SAO  +0066POB  V0200301N002510300019N0112651N9+00701+00401999999ADDGF108991999999999999999999MA1102101999999
0044723030137141973010617004+35167-079017SAO  +0066POB  V0200201N002510300019N0112651N9+00701+00301999999ADDGF108991999999999999999999MA1102001999999
0063723030137141973010618004+35167-079017SAO  +0066POB  V0203601N003010450019N0112651N9+00701+00201101981ADDAA106000091GF108991999999999999999999MA1101901999999OC100671
0044723030137141973010619004+35167-079017SAO  +0066POB  V0203301N003010450019N0112651N9+00801+00101999999ADDGF108991999999999999999999MA1101901999999
0044723030137141973010620004+35167-079017SAO  +0066POB  V0203501N004112200019N0128741N9+00901+00101999999ADDGF108991999999999999999999MA1101901999999
0058723030137141973010621004+35167-079017SAO  +0066POB  V0203601N004110300019N0128741N9+00801-00101102011ADDGF108991999999999999999999MA1102001999999MD1310031+9999
0044723030137141973010622004+35167-079017SAO  +0066POB  V0203601N002510450019N0128741N9+00701-00101999999ADDGF108991999999999999999999MA1102001999999
0044723030137141973010623004+35167-079017SAO  +0066POB  V0200101N002510510019N0128741N9+00601-00101999999ADDGF107991999999999999999999MA1102101999999
0069723030137141973010700004+35167-079017SAO  +0066POB  V0203601N001012200019N0128741N9+00601-00101102251ADDAA106000091GF107991999999999999999999MA1102171999999MD1210241+9999
0044723030137141973010701004+35167-079017SAO  +0066POB  V0203601N001010600019N0128741N9+00401-00101999999ADDGF107991999999999999999999MA1102271999999
0044723030137141973010702004+35167-079017SAO  +0066POB  V0209999C000010600019N0128741N9+00401-00101999999ADDGF107991999999999999999999MA1102271999999
0058723030137141973010703004+35167-079017SAO  +0066POB  V0209999C000012200019N0128741N9+00301-00201102421ADDGF102991999999999999999999MA1102371999999MD1310171+9999
0044723030137141973010704004+35167-079017SAO  +0066POB  V0200101N001012200019N0128741N9+00201-00301999999ADDGF102991999999999999999999MA1102371999999
0044723030137141973010705004+35167-079017SAO  +0066POB  V0203601N002512200019N0128741N9+00201-00401999999ADDGF102991999999999999999999MA1102371999999
0069723030137141973010706004+35167-079017SAO  +0066POB  V0203601N002510600019N0128741N9+00201-00501102551ADDAA106000091GF107991999999999999999999MA1102471999999MD1210141+9999
0044723030137141973010707004+35167-079017SAO  +0066POB  V0200101N002512200019N0128741N9+00101-00701999999ADDGF102991999999999999999999MA1102471999999
0044723030137141973010708004+35167-079017SAO  +0066POB  V0200201N003012200019N0128741N9+00101-00701999999ADDGF102991999999999999999999MA1102471999999
0058723030137141973010709004+35167-079017SAO  +0066POB  V0200401N002510300019N0128741N9+00101-00601102651ADDGF107991999999999999999999MA1102571999999MD1310101+9999
0044723030137141973010710004+35167-079017SAO  +0066POB  V0200501N006710300019N0128741N9+00101-00701999999ADDGF108991999999999999999999MA1102681999999
0044723030137141973010711004+35167-079017SAO  +0066POB  V0200501N005110300019N0128741N9+00001-00901999999ADDGF108991999999999999999999MA1102681999999
0055723030137141973010712004+35167-079017SAO  +0066POB  V0200501N004610300019N0128741N9-00101-00901102831ADDAA106000091GF108991999999999999999999MA1102781999999
0044723030137141973010713004+35167-079017SAO  +0066POB  V0200401N003610300019N0128741N9-00101-00901999999ADDGF108991999999999999999999MA1102881999999
0044723030137141973010714004+35167-079017SAO  +0066POB  V0200301N006110240019N0128741N9-00101-01001999999ADDGF108991999999999999999999MA1102981999999
0058723030137141973010715004+35167-079017SAO  +0066POB  V0200601N007710240019N0128741N9-00101-01001103111ADDGF108991999999999999999999MA1102981999999MD1110271+9999
0052723030137141973010716004+35167-079017SAO  +0066POB  V0200401N009210240019N0128741N9-00101-01101999999ADDGF108991999999999999999999MA1102981999999OC101341
0044723030137141973010717004+35167-079017SAO  +0066POB  V0200301N006110240019N0128741N9-00101-01101999999ADDGF108991999999999999999999MA1102981999999
0090723030137141973010718004+35167-079017SAO  +0066POB  V0200301N007210240019N0128741N9-00201-00901103041ADDAA106000091GA1999+000151071GF108991999999999999999999MA1102981999999EQDQ01    003SCCGA1
0044723030137141973010719004+35167-079017SAO  +0066POB  V0200501N004610180019N0112651N9-00201-00701999999ADDGF108991999999999999999999MA1102881999999
0050723030137141973010720004+35167-079017SAO  +0066POB  V0200501N006110045019N0012071N9-00301-00601999999ADDGF108991999999999999999999MA1102881999999MW1711
0064723030137141973010721004+35167-079017SAO  +0066POB  V0200501N004110039019N0024141N9-00401-00601102981ADDGF108991999999999999999999MA1102881999999MD1510071+9999MW1711
0050723030137141973010722004+35167-079017SAO  +0066POB  V0200401N005610039019N0010061N9-00401-00601999999ADDGF108991999999999999999999MA1102981999999MW1711
0050723030137141973010723004+35167-079017SAO  +0066POB  V0200401N004610018019N0012071N9-00401-00601999999ADDGF109991999999999999999999MA1102881999999MW1711
0110723030137141973010800004+35167-079017SAO  +0066POB  V0200401N004110015019N0016091N9-00401-00601103021ADDAA106999999GF109991999999999999999999MA1102881999999MD1010031+9999MW1711EQDQ01  00003PRCP99Q02  00002PRCP06
0058723030137141973010801004+35167-079017SAO  +0066POB  V0200701N005110015019N0012071N9-00401-00601999999ADDGF109991999999999999999999MA1102881999999MW1711OC100821
0058723030137141973010802004+35167-079017SAO  +0066POB  V0200601N005110015019N0012071N9-00401-00601999999ADDGF109991999999999999999999MA1102781999999MW1711OC100821
0070723030137141973010803004+35167-079017SAO  +0066POB  V0200501N005110015019N0016001N1-00441-00611102941ADDGF108991999999999999999999MA1102881102071MD1510071+9999MW1711MW2771
0056723030137141973010804004+35167-079017SAO  +0066POB  V0200501N007710015019N0012001N1-00441-00611999999ADDGF108991999999999999999999MA1102881999999MW1711MW2771
0050723030137141973010805004+35167-079017SAO  +0066POB  V0200601N004110015019N0018111N9-00501-00701999999ADDGF109991999999999999999999MA1102781999999MW1771
0094723030137141973010806004+35167-079017SAO  +0066POB  V0200601N005110012019N0012071N9-00501-00701102781ADDAA106999999GF109991999999999999999999MA1102681999999MD1710201+9999MW1711EQDQ01  00002PRCP06
0050723030137141973010807004+35167-079017SAO  +0066POB  V0200701N005110012019N0016091N9-00601-00701999999ADDGF109991999999999999999999MA1102681999999MW1711
0050723030137141973010808004+35167-079017SAO  +0066POB  V0200501N006110015019N0012071N9-00601-00701999999ADDGF109991999999999999999999MA1102571999999MW1711
0064723030137141973010809004+35167-079017SAO  +0066POB  V0200501N007210024019N0016091N9-00601-00701102571ADDGF108991999999999999999999MA1102471999999MD1610201+9999MW1791
0050723030137141973010810004+35167-079017SAO  +0066POB  V0200501N008210024019N0032191N9-00601-00701999999ADDGF108991999999999999999999MA1102371999999MW1791
0058723030137141973010811004+35167-079017SAO  +0066POB  V0200401N009210033019N0032191N9-00601-00801999999ADDGF108991999999999999999999MA1102271999999MW1791OC101441
0088723030137141973010812004+35167-079017SAO  +0066POB  V0200501N008210033019N0032191N9-00601-00801102381ADDAA106999999GF108991999999999999999999MA1102271999999MW1791OC101641EQDQ01  00002PRCP06
0050723030137141973010813004+35167-079017SAO  +0066POB  V0200501N009210030019N0024141N9-00601-00801999999ADDGF108991999999999999999999MA1102371999999MW1791
0050723030137141973010814004+35167-079017SAO  +0066POB  V0200301N006110033019N0032191N9-00601-00801999999ADDGF108991999999999999999999MA1102371999999MW1791
0064723030137141973010815004+35167-079017SAO  +0066POB  V0200301N010310051019N0024141N9-00601-00801102501ADDGF108991999999999999999999MA1102371999999MD1110101+9999MW1791
0050723030137141973010816004+35167-079017SAO  +0066POB  V0200201N010310057019N0024141N9-00601-00801999999ADDGF108991999999999999999999MA1102271999999MW1791
0078723030137141973010817004+35167-079017SAO  +0066POB  V0200301N008210036019N0016001N1-00611-00781999999ADDGF108991999999999999999999MA1102271999999MW1451MW2791REMAWY013IPF3 ?V% IR04
0096723030137141973010818004+35167-079017SAO  +0066POB  V0200201N006110057019N0016091N9-00601-00701102231ADDAA106999999GA1021+010501071GF108991999999999999999999MA1102171999999MW1791EQDQ01  00002PRCP06
0058723030137141973010819004+35167-079017SAO  +0066POB  V0200201N006110036019N0022131N9-00501-00701999999ADDGF108991999999999999999999MA1102101999999MW1791OC101181
0050723030137141973010820004+35167-079017SAO  +0066POB  V0200101N007210027019N0024141N9-00501-00701999999ADDGF108991999999999999999999MA1102101999999MW1561
0058723030137141973010821004+35167-079017SAO  +0066POB  V0200201N008210027019N0040231N9-00501-00701102231ADDGF108991999999999999999999MA1102171999999MW1791OC101081
0050723030137141973010822004+35167-079017SAO  +0066POB  V0200201N007210027019N0080471N9-00601-00701999999ADDGF108991999999999999999999MA1102171999999MW1571
0052723030137141973010823004+35167-079017SAO  +0066POB  V0200101N005110027019N0112651N9-00601-00701999999ADDGF108991999999999999999999MA1102171999999OC101031
0088723030137141973010900004+35167-079017SAO  +0066POB  V0200101N005110027019N0080471N9-00601-00801102341ADDAA106999999GF108991999999999999999999MA1102271999999MW1561OC100921EQDQ01  00002PRCP06
0052723030137141973010901004+35167-079017SAO  +0066POB  V0200101N007710033019N0112651N9-00601-00801999999ADDGF108991999999999999999999MA1102271999999OC101031
0052723030137141973010902004+35167-079017SAO  +0066POB  V0200201N006110009019N0128741N9-00601-00901999999ADDGF108991999999999999999999MA1102271999999OC101081
0058723030137141973010903004+35167-079017SAO  +0066POB  V0200201N006110024019N0128741N9-00601-00801102341ADDGF108991999999999999999999MA1102271999999MD1010001+9999
0044723030137141973010904004+35167-079017SAO  +0066POB  V0200101N005610054019N0128741N9-00601-00901999999ADDGF108991999999999999999999MA1102271999999
0044723030137141973010905004+35167-079017SAO  +0066POB  V0203601N006710075019N0128741N9-00601-00901999999ADDGF108991999999999999999999MA1102271999999
0088723030137141973010906004+35167-079017SAO  +0066POB  V0200101N005610084019N0128741N9-00601-00901102371ADDAA106000091GF108991999999999999999999MA1102271999999MD1010031+9999EQDQ01  00003PRCP99
0044723030137141973010907004+35167-079017SAO  +0066POB  V0200101N005110075019N0128741N9-00601-00901999999ADDGF107991999999999999999999MA1102371999999
0044723030137141973010908004+35167-079017SAO  +0066POB  V0203601N005110069019N0128741N9-00601-00901999999ADDGF107991999999999999999999MA1102371999999
0058723030137141973010909004+35167-079017SAO  +0066POB  V0200101N003610180019N0128741N9-00701-00901102441ADDGF107991999999999999999999MA1102371999999MD1110071+9999
0044723030137141973010910004+35167-079017SAO  +0066POB  V0203601N004110120019N0128741N9-00601-00901999999ADDGF108991999999999999999999MA1102371999999
0044723030137141973010911004+35167-079017SAO  +0066POB  V0200101N004110120019N0128741N9-00601-01001999999ADDGF108991999999999999999999MA1102471999999
0069723030137141973010912004+35167-079017SAO  +0066POB  V0200101N002512200019N0128741N9-00701-01101102541ADDAA106000091GF102991999999999999999999MA1102471999999MD1110101+9999
0044723030137141973010913004+35167-079017SAO  +0066POB  V0200101N002512200019N0128741N9-00801-01201999999ADDGF102991999999999999999999MA1102571999999
0044723030137141973010914004+35167-079017SAO  +0066POB  V0200101N004612200019N0128741N9-00701-01301999999ADDGF102991999999999999999999MA1102571999999
0058723030137141973010915004+35167-079017SAO  +0066POB  V0200201N004612200019N0128741N9-00501-01401102811ADDGF102991999999999999999999MA1102681999999MD1210271+9999
0044723030137141973010916004+35167-079017SAO  +0066POB  V0200401N003612200019N0128741N9-00401-01401999999ADDGF102991999999999999999999MA1102681999999
0044723030137141973010917004+35167-079017SAO  +0066POB  V0200401N004612200019N0128741N9-00301-01201999999ADDGF102991999999999999999999MA1102571999999
0069723030137141973010918004+35167-079017SAO  +0066POB  V0203601N005112200019N0128741N9-00201-01201102571ADDAA106000091GF102991999999999999999999MA1102471999999MD1710241+9999
0044723030137141973010919004+35167-079017SAO  +0066POB  V0203501N002512200019N0128741N9-00101-01101999999ADDGF102991999999999999999999MA1102471999999
0044723030137141973010920004+35167-079017SAO  +0066POB  V0200301N001512200019N0128741N9+00001-01101999999ADDGF102991999999999999999999MA1102471999999
0058723030137141973010921004+35167-079017SAO  +0066POB  V0203601N003612200019N0128741N9+00101-01001102571ADDGF102991999999999999999999MA1102471999999MD1010001+9999
0044723030137141973010922004+35167-079017SAO  +0066POB  V0200301N002512200019N0128741N9+00101-00901999999ADDGF102991999999999999999999MA1102471999999
0044723030137141973010923004+35167-079017SAO  +0066POB  V0209999C000012200019N0128741N9-00201-00701999999ADDGF102991999999999999999999MA1102471999999
0069723030137141973011000004+35167-079017SAO  +0066POB  V0209999C000012200019N0128741N9-00201-00801102671ADDAA106000091GF102991999999999999999999MA1102571999999MD1310101+9999
0044723030137141973011001004+35167-079017SAO  +0066POB  V0209999C000012200019N0128741N9-00601-00801999999ADDGF102991999999999999999999MA1102571999999
0044723030137141973011002004+35167-079017SAO  +0066POB  V0209999C000012200019N0128741N9-00801-00901999999ADDGF102991999999999999999999MA1102571999999
0058723030137141973011003004+35167-079017SAO  +0066POB  V0209999C000012200019N0128741N9-00601-00801102711ADDGF102991999999999999999999MA1102571999999MD1110031+9999
0044723030137141973011004004+35167-079017SAO  +0066POB  V0209999C000012200019N0128741N9-00701-00901999999ADDGF102991999999999999999999MA1102571999999
0044723030137141973011005004+35167-079017SAO  +0066POB  V0209999C000012200019N0128741N9-00801-00901999999ADDGF107991999999999999999999MA1102571999999
0069723030137141973011006004+35167-079017SAO  +0066POB  V0209999C000010750019N0128741N9-00601-00901102711ADDAA106000091GF108991999999999999999999MA1102571999999MD1410001+9999
0044723030137141973011007004+35167-079017SAO  +0066POB  V0209999C000010300019N0128741N9-00601-00801999999ADDGF108991999999999999999999MA1102681999999
0044723030137141973011008004+35167-079017SAO  +0066POB  V0209999C000010450019N0128741N9-00601-00801999999ADDGF108991999999999999999999MA1102681999999
0058723030137141973011009004+35167-079017SAO  +0066POB  V0209999C000010450019N0128741N9-00601-00801102811ADDGF108991999999999999999999MA1102681999999MD1210101+9999
0044723030137141973011010004+35167-079017SAO  +0066POB  V0209999C000010360019N0128741N9-00601-00801999999ADDGF108991999999999999999999MA1102681999999
0044723030137141973011011004+35167-079017SAO  +0066POB  V0209999C000010360019N0128741N9-00501-00801999999ADDGF108991999999999999999999MA1102681999999
0069723030137141973011012004+35167-079017SAO  +0066POB  V0209999C000010360019N0128741N9-00601-00801102741ADDAA106000091GF107991999999999999999999MA1102681999999MD1610071+9999
0044723030137141973011013004+35167-079017SAO  +0066POB  V0209999C000010360019N0112651N9-00601-00801999999ADDGF107991999999999999999999MA1102681999999
0044723030137141973011014004+35167-079017SAO  +0066POB  V0209999C000010450019N0128741N9-00601-00901999999ADDGF108991999999999999999999MA1102781999999
0058723030137141973011015004+35167-079017SAO  +0066POB  V0200401N003010450019N0128741N9-00301-01201102911ADDGF107991999999999999999999MA1102781999999MD1310171+9999
0044723030137141973011016004+35167-079017SAO  +0066POB  V0200501N001510750019N0128741N9-00301-01201999999ADDGF107991999999999999999999MA1102781999999
0044723030137141973011017004+35167-079017SAO  +0066POB  V0200501N004110240019N0128741N9-00201-01301999999ADDGF108991999999999999999999MA1102681999999
0069723030137141973011018004+35167-079017SAO  +0066POB  V0209999C000010750019N0128741N9-00101-01201102671ADDAA106000091GF107991999999999999999999MA1102571999999MD1810251+9999
0044723030137141973011019004+35167-079017SAO  +0066POB  V0209999C000010750019N0128741N9-00101-01201999999ADDGF107991999999999999999999MA1102471999999
0044723030137141973011020004+35167-079017SAO  +0066POB  V0200601N002510750019N0128741N9+00001-01101999999ADDGF107991999999999999999999MA1102471999999
0058723030137141973011021004+35167-079017SAO  +0066POB  V0200701N002010300019N0112651N9+00001-01101102471ADDGF108991999999999999999999MA1102371999999MD1610191+9999
0044723030137141973011022004+35167-079017SAO  +0066POB  V0200801N001510300019N0112651N9+00001-01101999999ADDGF108991999999999999999999MA1102371999999
0044723030137141973011023004+35167-079017SAO  +0066POB  V0209999C000010750019N0112651N9-00101-01101999999ADDGF108991999999999999999999MA1102371999999
0069723030137141973011100004+35167-079017SAO  +0066POB  V0209999C000010750019N0112651N9-00201-01101102471ADDAA106000091GF108991999999999999999999MA1102371999999MD1510001+9999
0044723030137141973011101004+35167-079017SAO  +0066POB  V0209999C000010750019N0112651N9-00201-00801999999ADDGF108991999999999999999999MA1102371999999
0044723030137141973011102004+35167-079017SAO  +0066POB  V0209999C000010750019N0112651N9-00201-00901999999ADDGF108991999999999999999999MA1102371999999
0087723030137141973011103004+35167-079017SAO  +0066POB  V0209999C000010660019N0112001N1-00221-00891102401ADDGF108991999999999999999999MA1102341101521MD1710071+9999MW1001REMAWY014707 1007 PSR15
0064723030137141973011104004+35167-079017SAO  +0066POB  V0209999C000010600019N0112001N1-00281-00781999999ADDGF108991999999999999999999MA1102241999999MW1001REMAWY005PSR15
0064723030137141973011105004+35167-079017SAO  +0066POB  V0209999C000010600019N0112001N1-00331-00671999999ADDGF108991999999999999999999MA1102201999999MW1001REMAWY005PSR15
0087723030137141973011106004+35167-079017SAO  +0066POB  V0200401N001010540019N0112001N1-00331-00611102161ADDGF108991999999999999999999MA1102101101291MD1810241+9999MW1001REMAWY014824 1007 PSR15
0064723030137141973011107004+35167-079017SAO  +0066POB  V0209999C000010150019N0112001N1-00331-00781999999ADDGF108991999999999999999999MA1102031999999MW1001REMAWY005PSR15
0064723030137141973011108004+35167-079017SAO  +0066POB  V0200101N001010450019N0112001N1-00281-00941999999ADDGF108991999999999999999999MA1101961999999MW1001REMAWY005PSR15
0101723030137141973011109004+35167-079017SAO  +0066POB  V0200101N001012200019N0112651N1-00271-01001101991ADDGD12991+0450019GF102991999001999999071001MA1101931999999MD1710171+9999MW1001REMAWY013/ 717 0 PSR15
0094723030137141973011110004+35167-079017SAO  +0066POB  V0209999C000012200019N0112651N1-00331-00941999999ADDGD12991+0450019GD22991+0750019GF102991999999999999999999MA1101861999999MW1001REMAWY005PSR15
0094723030137141973011111004+35167-079017SAO  +0066POB  V0209999C000012200019N0112651N1-00441-00881999999ADDGD12991+0450019GD22991+0750019GF102991999999999999999999MA1101861999999MW1001REMAWY005PSR15
0148723030137141973011112004+35167-079017SAO  +0066POB  V0209999C000012200019N0112651N1-00501-00831101921ADDAJ100109199999999GD12991+0450019GD22991+0750019GF102991999001999999071081MA1102201999999MD1610071+9999MW1001REMAWY028250%V?/ 607 1078 90404 PSR15
0094723030137141973011113004+35167-079017SAO  +0066POB  V0209999C000012200019N0112651N1-00661-00831999999ADDGD12991+0450019GD22991+0750019GF102991999999999999999999MA1101861999999MW1001REMAWY005PSR15
0078723030137141973011114004+35167-079017SAO  +0066POB  V0209999C000012200019N0112651N1-00501-00881999999ADDGD12991+0450019GF102991999999999999999999MA1101861999999MW1001REMAWY004IR19
0103723030137141973011115004+35167-079017SAO  +0066POB  V0209999C000012200019N0112651N1-00111-01111102001ADDGD12991+0450019GF102991999001999999071001MA1101931999999MD1310051+9999MW1001REMAWY015/ 305 1070 IR19
0078723030137141973011116004+35167-079017SAO  +0066POB  V0200201N005112200019N0128741N1+00111-01051999999ADDGD12991+0750019GF102991999999999999999999MA1101861999999MW1001REMAWY004IR19
0078723030137141973011117004+35167-079017SAO  +0066POB  V0200401N003012200019N0128741N1+00271-01051999999ADDGD12991+0750019GF102991999999999999999999MA1101731999999MW1001REMAWY004IR19
0103723030137141973011118004+35167-079017SAO  +0066POB  V0203501N002012200019N0128741N1+00381-01051101681ADDGD12991+0750019GF102991999001999999001081MA1101631999999MD1710301+9999MW1001REMAWY015/ 730 1008 IR19
0093723030137141973011119004+35167-079017SAO  +0066POB  V0200301N003612200019N0128741N1+00441-01001999999ADDGD12991+0450019GD22991+0750019GF102991999999999999999999MA1101521999999MW1001REMAWY004IR19
0078723030137141973011120004+35167-079017SAO  +0066POB  V0203601N004612200019N0128741N1+00501-01051999999ADDGD12991+0750019GF102991999999999999999999MA1101491999999MW1001REMAWY004IR19
0103723030137141973011121004+35167-079017SAO  +0066POB  V0203301N001512200019N0128741N1+00501-01221101441ADDGD12991+0750019GF102991999001999999001051MA1101391999999MD1710221+9999MW1001REMAWY015/ 722 1005 IR19
0078723030137141973011122004+35167-079017SAO  +0066POB  V0203301N001512200019N0128741N1+00551-01221999999ADDGD13991+0750013GF107991999999999999999999MA1101521999999MW1001REMAWY004IR19
0098723030137141973011123004+35167-079017SAO  +0066POB  V0209999C000012200019N0128741N1+00381-01271999999ADDGD12991+0450019GD23991+0750013GF107991999999999999999999MA1101521999999MW1001REMAWY009-?V? IR19
0103723030137141973011200004+35167-079017SAO  +0066POB  V0209999C000012200019N0128741N1+00271-01161101611ADDGD12991+0750019GF102991999001999999001081MA1101561999999MD1110171+9999MW1001REMAWY015/ 117 1008 IR19
0078723030137141973011201004+35167-079017SAO  +0066POB  V0209999C00001066001EN0128741N1+00001-00721999999ADDGD13991+0660019GF107991999999999999999999MA1101691999999MW1001REMAWY004IR19
0078723030137141973011202004+35167-079017SAO  +0066POB  V0209999C00001066001EN0128741N1+00001-00941999999ADDGD13991+0660019GF107991999999999999999999MA1101731999999MW1001REMAWY004IR19
0118723030137141973011203004+35167-079017SAO  +0066POB  V0209999C000012200019N0128741N1-00111-00941101781ADDGD12991+0360019GD23991+0660013GF107991999001999999071081MA1101731999999MD1110171+9999MW1001REMAWY015/ 117 1078 IR19
0108723030137141973011204004+35167-079017SAO  +0066POB  V0209999C000010750019N0112651N1-00161-00831999999ADDGD12991+0300019GD24991+0750019GF108991999999999999999999MA1101731999999MW1001REMAWY019THN SPOTS IOVC IR19
0063723030137141973011205004+35167-079017SAO  +0066POB  V0209999C000010600019N0128001N1+00111-00891999999ADDGF108991999999999999999999MA1101761999999MW1001REMAWY004IR19
0086723030137141973011206004+35167-079017SAO  +0066POB  V0203501N004610600019N0112001N1+00111-00941101851ADDGF108991999999999999999999MA1101801100981MD1310071+9999MW1001REMAWY013307 1077 IR19
0063723030137141973011207004+35167-079017SAO  +0066POB  V0203601N003110600019N0112001N1+00061-01001999999ADDGF108991999999999999999999MA1101861999999MW1001REMAWY004IR19
0063723030137141973011208004+35167-079017SAO  +0066POB  V0203601N004110600019N0112001N1+00001-01061999999ADDGF108991999999999999999999MA1101931999999MW1001REMAWY004IR19
0103723030137141973011209004+35167-079017SAO  +0066POB  V0200101N00301060001EN0112651N1-00051-01051102021ADDGD13991+0600019GF107991999001999999001081MA1101961999999MD1210171+9999MW1001REMAWY015/ 217 1008 IR19
0110723030137141973011210004+35167-079017SAO  +0066POB  V0203601N00511060001EN0112651N1-00111-01051999999ADDGD14991+0600019GF108991999999999999999999MA1102001999999MW1001REMAWY036IR19SKA E3?5SG- 25/23/0705/986/LSR06
0078723030137141973011211004+35167-079017SAO  +0066POB  V0200101N00561060001EN0112651N1-00161-01051999999ADDGD14991+0600019GF108991999999999999999999MA1102031999999MW1001REMAWY004IR19
0111723030137141973011212004+35167-079017SAO  +0066POB  V0200201N002610600019N0112001N1-00221-01111102151ADDAJ100089199999999GD12991+0360019GD24991+0600019GF108991999001999999071081MA1102101101291MD1310141+9999MW1001
0108723030137141973011213004+35167-079017SAO  +0066POB  V0200201N005612200019N0128741N1-00271-01221999999ADDGD12991+0360019GD22991+0450019GD33991+0600013GF107991999999999999999999MA1102301999999MW1001REMAWY004IR19
0100723030137141973011214004+35167-079017SAO  +0066POB  V0200201N00721039001EN0128741N1-00221-01221999999ADDGD13991+0390019GD23991+0600019GF107991999999999999999999MA1102401999999MW1001REMAWY011PRESRR IR19
0118723030137141973011215004+35167-079017SAO  +0066POB  V0200101N008212200019N0128741N1-00221-01271102501ADDGD12991+0390019GD22991+0600019GF102991999001999999071081MA1102441999999MD1210341+9999MW1001REMAWY015/ 234/1078 IR19
0093723030137141973011216004+35167-079017SAO  +0066POB  V0200301N006112200019N0128741N1-00161-01271999999ADDGD12991+0390019GD22991+0600019GF102991999999999999999999MA1102471999999MW1001REMAWY004IR19
0101723030137141973011217004+35167-079017SAO  +0066POB  V0200301N007210600019N0128741N1-00161-01271999999ADDGD12991+0390019GD23991+0600019GF107991999999999999999999MA1102401999999MW1001OC101181REMAWY004IR19
0126723030137141973011218004+35167-079017SAO  +0066POB  V0200301N009210600019N0128741N1-00111-01331102431ADDGD12991+0360019GD23991+0600019GF107991999001999999071081MA1102371999999MD1810071+9999MW1001OC101021REMAWY015/ 807 1078 IR19
0101723030137141973011219004+35167-079017SAO  +0066POB  V0200101N005612200019N0128741N1+00001-01271999999ADDGD12991+0360019GD22991+0600019GF102991999999999999999999MA1102301999999MW1001OC100871REMAWY004IR19
0093723030137141973011220004+35167-079017SAO  +0066POB  V0200501N005612200019N0128741N1+00051-01271999999ADDGD12991+0360019GD22991+0540019GF102991999999999999999999MA1102301999999MW1001REMAWY004IR19
0103723030137141973011221004+35167-079017SAO  +0066POB  V0200101N00611030001EN0128741N1+00001-01271102461ADDGD13991+0300019GF107991999001999999071001MA1102401999999MD1310021+9999MW1001REMAWY015/ 302 1070 IR19
0078723030137141973011222004+35167-079017SAO  +0066POB  V0203601N005612200019N0128741N1+00001-01271999999ADDGD12991+0300019GF102991999999999999999999MA1102471999999MW1001REMAWY004IR19
0093723030137141973011223004+35167-079017SAO  +0066POB  V0209999C000012200019N0128741N1-00111-01111999999ADDGD12991+0300019GD22991+0450019GF102991999999999999999999MA1102541999999MW1001REMAWY004IR19
0103723030137141973011300004+35167-079017SAO  +0066POB  V0209999C000012200019N0128741N1-00331-01111102611ADDGD12991+0300019GF102991999001999999071001MA1102541999999MD1210151+9999MW1001REMAWY015/ 215 1070 IR19
0078723030137141973011301004+35167-079017SAO  +0066POB  V0209999C000012200019N0128741N1-00441-01221999999ADDGD12991+0300013GF102991999999999999999999MA1102611999999MW1001REMAWY004IR19
0065723030137141973011302004+35167-079017SAO  +0066POB  V0200201N003012200019N0128741N1-00271-01271999999ADDGD12991+0360013GF102991999999999999999999MA1102611999999MW1001
0112723030137141973011303004+35167-079017SAO  +0066POB  V0200301N00461030001EN0128741N1-00331-01271102671ADDGD14991+0300019GF108991999001999999071999MA1102611999999MD1110071+9999MW1001REMAWY024THN SPOTS IOVC/ 107 107/
0082723030137141973011304004+35167-079017SAO  +0066POB  V0200301N00301030001EN0128741N1-00381-01271999999ADDGD14991+0300019GF108991999999999999999999MA1102571999999MW1001REMAWY008MOOP VSB
0080723030137141973011305004+35167-079017SAO  +0066POB  V0200501N002010600019N0128741N1-00331-01271999999ADDGD12991+0300019GD24991+0600019GF108991999999999999999999MA1102471999999MW1001
0113723030137141973011306004+35167-079017SAO  +0066POB  V0209999C000010600019N0128741N1-00331-01331102571ADDGD12991+0300019GD24991+0600019GF108991999001999999071071MA1102511999999MD1510101+9999MW1001REMAWY010/ 510 1077
0080723030137141973011307004+35167-079017SAO  +0066POB  V0200501N002510600019N0128741N1-00331-01271999999ADDGD12991+0300019GD24991+0600019GF108991999999999999999999MA1102571999999MW1001
0080723030137141973011308004+35167-079017SAO  +0066POB  V0203501N002510600019N0128741N1-00331-01271999999ADDGD12991+0300019GD24991+0600019GF108991999999999999999999MA1102611999999MW1001
0128723030137141973011309004+35167-079017SAO  +0066POB  V0203601N002010420019N0128741N1-00381-01271102671ADDGD12991+0150019GD23991+0420019GD34991+0600019GF108991999051999999071081MA1102611999999MD1110101+9999MW1001REMAWY010/ 110 1578
0095723030137141973011310004+35167-079017SAO  +0066POB  V0200301N003010420019N0128741N1-00381-01331999999ADDGD12991+0150019GD23991+0420019GD34991+0600019GF108991999999999999999999MA1102541999999MW1001
0107723030137141973011311004+35167-079017SAO  +0066POB  V0200301N005110300019N0112651N1-00331-01381999999ADDGD12991+0150019GD23991+0300019GD34991+0600019GF108991999999999999999999MA1102511999999MW1001REMAWY003?V?
0181723030137141973011312004+35167-079017SAO  +0066POB  V0200501N00611015001EN0112651N1-00331-01381102611ADDAJ100089199999999GD13991+0150019GD23991+0300019GD33991+0600019GF107991999051999999071081MA1102541999999MD1610071+9999MW1001REMAWY046200?V? WND 010V070/ 607 1578       ?     90403
0095723030137141973011313004+35167-079017SAO  +0066POB  V0200301N00611015001EN0128741N1-00221-01381999999ADDGD13991+0150019GD23991+0240019GD33991+0600019GF107991999999999999999999MA1102641999999MW1001
0080723030137141973011314004+35167-079017SAO  +0066POB  V0200401N00721024001EN0128741N1-00221-01331999999ADDGD13991+0240019GD23991+0600019GF107991999999999999999999MA1102741999999MW1001
0107723030137141973011315004+35167-079017SAO  +0066POB  V0200501N007212200019N0128741N1-00111-01331102911ADDGD12991+0300019GF102991999999999999999999MA1102841999999MD1210301+9999MW1001OC101331REMAWY011/ 230 1070K
0073723030137141973011316004+35167-079017SAO  +0066POB  V0200401N007212200019N0128741N1+00001-01161999999ADDGD12991+0300019GF102991999999999999999999MA1102841999999MW1001OC101081
0074723030137141973011317004+35167-079017SAO  +0066POB  V0200501N006112200019N0128741N1+00111-01001999999ADDGF100991999999999999999999MA1102741999999MW1001OC101021REMAWY007AC SW-E
0110723030137141973011318004+35167-079017SAO  +0066POB  V0200501N003012200019N0128741N1+00221-00881102661ADDGF100991999001999999001999MA1102611999999MD1810241+9999MW1001REMAWY018CS SW-NE/ 824 1008EQDQ01    083SCOHCG
0092723030137141973011319004+35167-079017SAO  +0066POB  V0200301N006112200019N0128741N1+00331-00831999999ADDGD12991+0600013GF102991999999999999999999MA1102611999999MW1001OC100771REMAWY010WND360V060
0092723030137141973011320004+35167-079017SAO  +0066POB  V0203301N004112200019N0128741N1+00381-00881999999ADDGD12991+0600013GF102991999999999999999999MA1102641999999MW1001OC100721REMAWY010WND300V030
0098723030137141973011321004+35167-079017SAO  +0066POB  V0203401N005112200019N0128741N1+00441-00831102731ADDGD13991+0600013GF107991999001999999001081MA1102681999999MD1810051+9999MW1001REMAWY010/ 805 1008
0065723030137141973011322004+35167-079017SAO  +0066POB  V0200401N003012200019N0128741N1+00331-00771999999ADDGD12991+0600013GF102991999999999999999999MA1102641999999MW1001
0065723030137141973011323004+35167-079017SAO  +0066POB  V0209999C000012200019N0128741N1+00161-00721999999ADDGD12991+0600013GF102991999999999999999999MA1102711999999MW1001
0113723030137141973011400004+35167-079017SAO  +0066POB  V0209999C000012200019N0128741N1-00051-00721102811ADDGF100991999001999999001999MA1102741999999MD1310071+9999MW1001REMAWY021THN CS S-SW/ 307 1008EQDQ01    083SCOHCG
0050723030137141973011401004+35167-079017SAO  +0066POB  V0209999C000012200019N0128741N1-00271-00551999999ADDGF100991999999999999999999MA1102741999999MW1001
0065723030137141973011402004+35167-079017SAO  +0066POB  V0209999C000012200019N0128741N1-00331-00611999999ADDGD12991+0660013GF102991999999999999999999MA1102781999999MW1001
0098723030137141973011403004+35167-079017SAO  +0066POB  V0209999C000012200019N0128741N1-00441-00721102881ADDGD12991+0660013GF102991999001999999001081MA1102811999999MD1210071+9999MW1001REMAWY010/ 207 1008
0050723030137141973011404004+35167-079017SAO  +0066POB  V0209999C000012200019N0128741N1-00551-00721999999ADDGF100991999999999999999999MA1102741999999MW1001
0050723030137141973011405004+35167-079017SAO  +0066POB  V0209999C000012200019N0128741N1-00611-00831999999ADDGF100991999999999999999999MA1102741999999MW1001
0089723030137141973011406004+35167-079017SAO  +0066POB  V0209999C000012200019N0128741N1-00611-00771102781ADDGF100991999999999999999999MA1102711999999MD1810081+9999MW1001REMAWY016K ALF NNE-E/ 808
0066723030137141973011407004+35167-079017SAO  +0066POB  V0209999C000012200019N0128741N1-00721-00881999999ADDGF100991999999999999999999MA1102711999999MW1001REMAWY007K ALF E
0050723030137141973011408004+35167-079017SAO  +0066POB  V0209999C000012200019N0128741N1-00721-00831999999ADDGF100991999999999999999999MA1102711999999MW1001
0078723030137141973011409004+35167-079017SAO  +0066POB  V0209999C000012200019N0128741N1-00881-00941102781ADDGF100991999999999999999999MA1102711999999MD1410001+9999MW1001REMAWY005/ 400
0050723030137141973011410004+35167-079017SAO  +0066POB  V0209999C000012200019N0128741N1-00831-00941999999ADDGF100991999999999999999999MA1102611999999MW1001
0050723030137141973011411004+35167-079017SAO  +0066POB  V0209999C000012200019N0128741N1-00881-01001999999ADDGF100991999999999999999999MA1102611999999MW1001
0120723030137141973011412004+35167-079017SAO  +0066POB  V0209999C000012200019N0128741N1-00941-01111102741ADDAJ100089199999999GD12991+0750019GF102991999001999999001011MA1102681999999MD1510031+9999MW1001REMAWY015/ 5031001 90403
0065723030137141973011413004+35167-079017SAO  +0066POB  V0209999C000012200019N0128741N1-00941-01111999999ADDGD12991+0750019GF102991999999999999999999MA1102681999999MW1001
0065723030137141973011414004+35167-079017SAO  +0066POB  V0209999C000012200019N0128741N1-00721-01001999999ADDGD12991+0750019GF102991999999999999999999MA1102741999999MW1001
0098723030137141973011415004+35167-079017SAO  +0066POB  V0202201N004112200019N0128741N1-00051-00721102811ADDGD12991+0750019GF102991999001999999001081MA1102741999999MD1310071+9999MW1001REMAWY010/ 307 1008
0066723030137141973011416004+35167-079017SAO  +0066POB  V0202201N002512200019N0128741N1+00161-00661999999ADDGF100991999999999999999999MA1102681999999MW1001REMAWY007CS W-SE
0080723030137141973011417004+35167-079017SAO  +0066POB  V0202201N003012200019N0128741N1+00381-00771999999ADDGD12991+0750019GF102991999999999999999999MA1102511999999MW1001REMAWY006PRESFR
0098723030137141973011418004+35167-079017SAO  +0066POB  V0202301N004612200019N0128741N1+00501-00721102431ADDGD12991+0750019GF102991999001999999001081MA1102371999999MD1610371+9999MW1001REMAWY010/   7 1008
0065723030137141973011419004+35167-079017SAO  +0066POB  V0202201N006112200019N0128741N1+00611-00721999999ADDGD12991+0750013GF102991999999999999999999MA1102271999999MW1001
0065723030137141973011420004+35167-079017SAO  +0066POB  V0202301N006112200019N0128741N1+00611-00721999999ADDGF100991999999999999999999MA1102201999999MW1001REMAWY006CI E-S
0088723030137141973011421004+35167-079017SAO  +0066POB  V0202201N006112200019N0128741N1+00661-00721102291ADDGF100991999001999999071001MA1102241999999MD1510171+9999MW1001REMAWY015AC NE/ 517 1070
0072723030137141973011422004+35167-079017SAO  +0066POB  V0202201N005612200019N0112651N1+00611-00721999999ADDGF100991999999999999999999MA1102131999999MW1001REMAWY013AS AND CS W-N
0081723030137141973011423004+35167-079017SAO  +0066POB  V0202101N002012200019N0112651N1+00381-00551999999ADDGD12991+0750013GF102991999999999999999999MA1102171999999MW1001REMAWY007AS NW-N
0104723030137141973011500004+35167-079017SAO  +0066POB  V0202101N002012200019N0112651N1+00331-00551102131ADDGD12991+0750013GF102991999001999999001051MA1102071999999MD1810171+9999MW1001REMAWY016PRESFR/ 817 1005
0065723030137141973011501004+35167-079017SAO  +0066POB  V0202101N004112200019N0112651N1+00381-00611999999ADDGD12991+0750013GF102991999999999999999999MA1102031999999MW1001
0065723030137141973011502004+35167-079017SAO  +0066POB  V0202201N003612200019N0112651N1+00331-00611999999ADDGD12991+0750013GF102991999999999999999999MA1102001999999MW1001
0113723030137141973011503004+35167-079017SAO  +0066POB  V0202601N003010750019N0112651N1+00161-00551102051ADDGD12991+0450019GD23991+0750019GF107991999001999999071061MA1102001999999MD1610071+9999MW1001REMAWY010/ 607 1076
0079723030137141973011504004+35167-079017SAO  +0066POB  V0202301N004112200019N0112651N1+00271-00501999999ADDGD14991+0750013GF108991999999999999999999MA1101961999999MW1001REMAWY005-?V-?
0080723030137141973011505004+35167-079017SAO  +0066POB  V0202401N00411036001EN0112651N1+00331-00501999999ADDGD13991+0360019GD24991+0750019GF108991999999999999999999MA1101901999999MW1001
0113723030137141973011506004+35167-079017SAO  +0066POB  V0202301N00301036001EN0112651N1+00331-00501101871ADDGD13991+0360019GD24991+0750019GF108991999001999999071071MA1101831999999MD1810221+9999MW1001REMAWY010/ 822 1077
0080723030137141973011507004+35167-079017SAO  +0066POB  V0202301N00361036001EN0112651N1+00331-00441999999ADDGD13991+0360019GD24991+0750019GF108991999999999999999999MA1101801999999MW1001
0065723030137141973011508004+35167-079017SAO  +0066POB  V0202401N00301036001EN0112651N1+00271-00501999999ADDGD13991+0360019GF107991999999999999999999MA1101731999999MW1001
0098723030137141973011509004+35167-079017SAO  +0066POB  V0202301N003012200019N0112651N1+00221-00501101701ADDGD12991+0360019GF102991999001999999071001MA1101661999999MD1810151+9999MW1001REMAWY010/ 815 1070
0080723030137141973011510004+35167-079017SAO  +0066POB  V0202401N00411013501EN0096561N1+00331-00381999999ADDGD13991+0135019GD24991+0360019GF108991999999999999999999MA1101631999999MW1511
0109723030137141973011511004+35167-079017SAO  +0066POB  V0202201N004610360019N0112651N1+00331-00381999999ADDGD12991+0135019GD23991+0360019GD33991+0750019GF107991999999999999999999MA1101521999999MW1001REMAWY005INTMT
0183723030137141973011512004+35167-079017SAO  +0066POB  V0202101N002510300019N0112651N1+00331-00331101541ADDAA106000091AJ100059199999999GD12991+0135019GD23991+0300019GD33991+0750019GF107991999051999999071081MA1101491999999MD1610171+9999MW1001REMAWY018/   700 1578 90402EQDQ01  00003PRCP99
0080723030137141973011513004+35167-079017SAO  +0066POB  V0202101N004610300019N0112651N1+00381-00331999999ADDGD12991+0135019GD23991+0300019GF107991999999999999999999MA1101391999999MW1001
0080723030137141973011514004+35167-079017SAO  +0066POB  V0202501N002012200019N0112651N1+00381-00271999999ADDGD12991+0135019GD22991+0300019GF102991999999999999999999MA1101491999999MW1001
0098723030137141973011515004+35167-079017SAO  +0066POB  V0202501N005612200019N0128741N1+00551-00161101581ADDGD12991+0300019GF102991999001999999071001MA1101521999999MD1310031+9999MW1001REMAWY010/ 303 1070
0050723030137141973011516004+35167-079017SAO  +0066POB  V0202801N005112200019N0128741N1+00721-00111999999ADDGF100991999999999999999999MA1101561999999MW1001
0070723030137141973011517004+35167-079017SAO  +0066POB  V0202801N003612200019N0128741N1+00881-00051999999ADDGF100991999999999999999999MA1101461999999MW1001REMAWY011WND 230V330
0078723030137141973011518004+35167-079017SAO  +0066POB  V0202701N002012200019N0128741N1+01001-00051101471ADDGF100991999999999999999999MA1101421999999MD1610101+9999MW1001REMAWY005/   0
0065723030137141973011519004+35167-079017SAO  +0066POB  V0202801N003012200019N0128741N1+01161+00001999999ADDGD12991+0300019GF102991999999999999999999MA1101421999999MW1001
0098723030137141973011520004+35167-079017SAO  +0066POB  V0203401N003012200019N0128741N1+01271+00001999999ADDGD12991+0300019GF102991999999999999999999MA1101521999999MW1001REMAWY024LWR CLDS N-NE APCHNG STN
0113723030137141973011521004+35167-079017SAO  +0066POB  V0203401N005112200019N0128741N1+01221+00001101681ADDGD12991+0150019GD22991+0300019GF102991999041999999071001MA1101631999999MD1210201+9999MW1001REMAWY010/ 220 1470
0095723030137141973011522004+35167-079017SAO  +0066POB  V0203201N003012200019N0128741N1+01111+00001999999ADDGD12991+0150019GD22991+0750019GF102991999999999999999999MA1101801999999MW1001REMAWY006PRESRR
0080723030137141973011523004+35167-079017SAO  +0066POB  V0203301N00051015001EN0128741N1+01001+00001999999ADDGD13991+0150019GD23991+0750019GF107991999999999999999999MA1101931999999MW1001
0098723030137141973011600004+35167-079017SAO  +0066POB  V0203301N003012200019N0128741N1+00941-00111102111ADDGD12991+0150019GF102991999051999999001001MA1102071999999MD1210441+9999MW1001REMAWY010/ 244 1500
0065723030137141973011601004+35167-079017SAO  +0066POB  V0203401N001012200019N0128741N1+00771-00161999999ADDGD12991+0150019GF102991999999999999999999MA1102201999999MW1001
0065723030137141973011602004+35167-079017SAO  +0066POB  V0209999C000012200019N0128741N1+00611-00161999999ADDGD12991+0750019GF102991999999999999999999MA1102301999999MW1001
0078723030137141973011603004+35167-079017SAO  +0066POB  V0203201N001012200019N0128741N1+00551-00111102451ADDGF100991999999999999999999MA1102401999999MD1210341+9999MW1001REMAWY005/ 234
0050723030137141973011604004+35167-079017SAO  +0066POB  V0209999C000012200019N0128741N1+00441-00111999999ADDGF100991999999999999999999MA1102471999999MW1001
0050723030137141973011605004+35167-079017SAO  +0066POB  V0209999C000012200019N0128741N1+00161-00161999999ADDGF100991999999999999999999MA1102541999999MW1001
0078723030137141973011606004+35167-079017SAO  +0066POB  V0202101N002012200019N0128741N1+00111-00221102621ADDGF100991999999999999999999MA1102571999999MD1210171+9999MW1001REMAWY005/ 217
0050723030137141973011607004+35167-079017SAO  +0066POB  V0209999C000012200019N0128741N1-00051-00271999999ADDGF100991999999999999999999MA1102571999999MW1001
0050723030137141973011608004+35167-079017SAO  +0066POB  V0202501N001012200019N0128741N1-00051-00271999999ADDGF100991999999999999999999MA1102681999999MW1001
0078723030137141973011609004+35167-079017SAO  +0066POB  V0209999C000012200019N0128741N1-00111-00271102791ADDGF100991999999999999999999MA1102741999999MD1310171+9999MW1001REMAWY005/ 317
0050723030137141973011610004+35167-079017SAO  +0066POB  V0209999C000012200019N0128741N1-00161-00271999999ADDGF100991999999999999999999MA1102741999999MW1001
0050723030137141973011611004+35167-079017SAO  +0066POB  V0202301N001012200019N0112651N1-00271-00381999999ADDGF100991999999999999999999MA1102811999999MW1001
0089723030137141973011612004+35167-079017SAO  +0066POB  V0209999C000012200019N0112651N1-00221-00381102931ADDGF100991999999999999999999MA1102881999999MD1310141+9999MW1001REMAWY016K LYR NE-SE/ 314
0081723030137141973011613004+35167-079017SAO  +0066POB  V0202501N002012200019N0096561N1-00331-00441999999ADDGF100991999999999999999999MA1102981999999MW1041MW2051MW3111REMAWY010K LYR E-SE
0096723030137141973011614004+35167-079017SAO  +0066POB  V0202401N001012200019N0096561N1-00051-00221999999ADDGD12991+0750019GF102991999999999999999999MA1103081999999MW1041MW2051MW3111REMAWY010K LYR NE-S
0105723030137141973011615004+35167-079017SAO  +0066POB  V0209999C000012200019N0112651N1+00221-00111103251ADDGD12991+0750019GF102991999001999999001081MA1103181999999MD1210301+9999MW1001REMAWY017K ALF S/ 230 1008
0065723030137141973011616004+35167-079017SAO  +0066POB  V0201101N001012200019N0128741N1+00661+00001999999ADDGD13991+0750013GF107991999999999999999999MA1103221999999MW1001
0065723030137141973011617004+35167-079017SAO  +0066POB  V0209999C000012200019N0128741N1+00771-00111999999ADDGD12991+0750013GF102991999999999999999999MA1103081999999MW1001
0098723030137141973011618004+35167-079017SAO  +0066POB  V0202101N001512200019N0128741N1+00941-00051103071ADDGD12991+0750013GF102991999001999999001081MA1103011999999MD1810171+9999MW1001REMAWY010/ 817 1008
0065723030137141973011619004+35167-079017SAO  +0066POB  V0202201N002512200019N0128741N1+01001+00001999999ADDGD12991+0750013GF102991999999999999999999MA1102951999999MW1001
0065723030137141973011620004+35167-079017SAO  +0066POB  V0202101N002012200019N0128741N1+01051+00001999999ADDGD12991+0750013GF102991999999999999999999MA1102911999999MW1001
0098723030137141973011621004+35167-079017SAO  +0066POB  V0202101N002512200019N0128741N1+01051-00111102921ADDGD12991+0750013GF102991999001999999001081MA1102881999999MD1610141+9999MW1001REMAWY010/   4 1008
0065723030137141973011622004+35167-079017SAO  +0066POB  V0202201N003012200019N0128741N1+00881+00001999999ADDGD12991+0750013GF102991999999999999999999MA1102911999999MW1001
0065723030137141973011623004+35167-079017SAO  +0066POB  V0202001N003012200019N0128741N1+00771-00051999999ADDGD12991+0750013GF102991999999999999999999MA1102911999999MW1001
0078723030137141973011700004+35167-079017SAO  +0066POB  V0202101N001012200019N0128741N1+00551-00111102971ADDGF100991999999999999999999MA1102911999999MD1110031+9999MW1001REMAWY005/ 103
0050723030137141973011701004+35167-079017SAO  +0066POB  V0209999C000012200019N0128741N1+00381-00111999999ADDGF100991999999999999999999MA1102951999999MW1001
0050723030137141973011702004+35167-079017SAO  +0066POB  V0209999C000012200019N0128741N1+00001-00271999999ADDGF100991999999999999999999MA1102951999999MW1001
0078723030137141973011703004+35167-079017SAO  +0066POB  V0209999C000012200019N0128741N1-00051-00271103011ADDGF100991999999999999999999MA1102951999999MD1110031+9999MW1001REMAWY005/ 103
0050723030137141973011704004+35167-079017SAO  +0066POB  V0209999C000012200019N0128741N1-00051-00271999999ADDGF100991999999999999999999MA1102951999999MW1001
0050723030137141973011705004+35167-079017SAO  +0066POB  V0209999C000012200019N0128741N1-00111-00271999999ADDGF100991999999999999999999MA1102911999999MW1001
0078723030137141973011706004+35167-079017SAO  +0066POB  V0209999C000012200019N0128741N1-00111-00331102921ADDGF100991999999999999999999MA1102881999999MD1810071+9999MW1001REMAWY005/ 807
0050723030137141973011707004+35167-079017SAO  +0066POB  V0209999C000012200019N0128001N1+00171-00171999999ADDGF100991999999999999999999MA1102881999999MW1001
0143723030137141973011708004+35167-079017SAO  +0066POB  V0202601N001012200019N0128741N1+00111-00161999999ADDGF100991999999999999999999MA1102841999999MW1001REMAWY084CHS TTZZYYYYYYYYYYYYYYXXXXXXXXXXEEDDBXXXXXXXXXXXXXXXXXXXXXXXXXXXXXX          ?//////
0078723030137141973011709004+35167-079017SAO  +0066POB  V0209999C000012200019N0128741N1+00001-00271102891ADDGF100991999999999999999999MA1102841999999MD1810031+9999MW1001REMAWY005/ 803
0050723030137141973011710004+35167-079017SAO  +0066POB  V0209999C000012200019N0128741N1-00221-00381999999ADDGF100991999999999999999999MA1102811999999MW1001
0050723030137141973011711004+35167-079017SAO  +0066POB  V0209999C000012200019N0112651N1-00221-00441999999ADDGF100991999999999999999999MA1102841999999MW1001
0084723030137141973011712004+35167-079017SAO  +0066POB  V0209999C000012200019N0080471N1-00221-00381102931ADDGF100991999999999999999999MA1102881999999MD1310031+9999MW1051MW2111REMAWY005/ 303
0071723030137141973011713004+35167-079017SAO  +0066POB  V0209999C000012200019N0080471N1-00221-00381999999ADDGD12991+0750013GF102991999999999999999999MA1102911999999MW1051MW2111
0071723030137141973011714004+35167-079017SAO  +0066POB  V0202801N001012200019N0096561N1+00331-00051999999ADDGD12991+0750013GF102991999999999999999999MA1102911999999MW1041MW2051
0104723030137141973011715004+35167-079017SAO  +0066POB  V0202701N001012200019N0096561N1+00611+00111103001ADDGD12991+0750013GF102991999001999999001081MA1102951999999MD1210071+9999MW1041MW2051REMAWY010/ 207 1008
0065723030137141973011716004+35167-079017SAO  +0066POB  V0202501N004112200019N0112651N1+01161+00271999999ADDGD12991+0750013GF102991999999999999999999MA1102951999999MW1001
0065723030137141973011717004+35167-079017SAO  +0066POB  V0202501N005112200019N0112651N1+01381+00271999999ADDGD12991+0750013GF102991999999999999999999MA1102881999999MW1001
0098723030137141973011718004+35167-079017SAO  +0066POB  V0202201N004612200019N0112651N1+01441+00161102861ADDGD12991+0750013GF102991999001999999001081MA1102811999999MD1810141+9999MW1001REMAWY010/ 814 1008
0065723030137141973011719004+35167-079017SAO  +0066POB  V0202301N004112200019N0112651N1+01501+00161999999ADDGD13991+0750013GF107991999999999999999999MA1102711999999MW1001
0065723030137141973011720004+35167-079017SAO  +0066POB  V0202201N005112200019N0128741N1+01611+00221999999ADDGD13991+0750013GF107991999999999999999999MA1102681999999MW1001
0098723030137141973011721004+35167-079017SAO  +0066POB  V0202201N005612200019N0128741N1+01551+00271102721ADDGD13991+0750013GF107991999001999999001081MA1102681999999MD1710141+9999MW1001REMAWY010/ 714 1008
0065723030137141973011722004+35167-079017SAO  +0066POB  V0202201N003612200019N0128741N1+01331+00221999999ADDGD14991+0750013GF108991999999999999999999MA1102681999999MW1001
0065723030137141973011723004+35167-079017SAO  +0066POB  V0201901N002012200019N0128741N1+01161+00161999999ADDGD14991+0750013GF108991999999999999999999MA1102681999999MW1001
0113723030137141973011800004+35167-079017SAO  +0066POB  V0202401N000512200019N0128741N1+00941+00161102731ADDGD12991+0300019GD23991+0750013GF107991999001999999071081MA1102681999999MD1410001+9999MW1001REMAWY010/ 400 1078
0065723030137141973011801004+35167-079017SAO  +0066POB  V0209999C000012200019N0128741N1+00441+00051999999ADDGD14991+0750013GF108991999999999999999999MA1102711999999MW1001
0065723030137141973011802004+35167-079017SAO  +0066POB  V0209999C000012200019N0128741N1+00381+00001999999ADDGD12991+0750013GF102991999999999999999999MA1102681999999MW1001
0098723030137141973011803004+35167-079017SAO  +0066POB  V0209999C000012200019N0128741N1+00221+00001102771ADDGD13991+0750013GF107991999001999999001081MA1102711999999MD1310031+9999MW1001REMAWY010/ 303 1008
0080723030137141973011804004+35167-079017SAO  +0066POB  V0209999C000012200019N0128741N1+00161-00051999999ADDGD12991+0360019GD23991+0750013GF107991999999999999999999MA1102711999999MW1001
0080723030137141973011805004+35167-079017SAO  +0066POB  V0209999C000012200019N0128741N1+00331+00001999999ADDGD12991+0360019GD24991+0750013GF108991999999999999999999MA1102681999999MW1001
0113723030137141973011806004+35167-079017SAO  +0066POB  V0209999C000012200019N0128741N1+00111-00111102721ADDGD12991+0360019GD22991+0750013GF102991999001999999071011MA1102681999999MD1610031+9999MW1001REMAWY010/ 603 1071
0080723030137141973011807004+35167-079017SAO  +0066POB  V0209999C000012200019N0128741N1-00051-00221999999ADDGD12991+0036019GD22991+0750013GF102991999999999999999999MA1102681999999MW1001
0065723030137141973011808004+35167-079017SAO  +0066POB  V0209999C000012200019N0112651N1+00001-00161999999ADDGD12991+0750013GF102991999999999999999999MA1102681999999MW1001
0098723030137141973011809004+35167-079017SAO  +0066POB  V0209999C000012200019N0112651N1-00111-00221102691ADDGD12991+0750013GF102991999001999999001081MA1102641999999MD1810031+9999MW1001REMAWY010/ 803 1008
0071723030137141973011810004+35167-079017SAO  +0066POB  V0209999C000012200019N0096561N1-00051-00221999999ADDGD12991+0750013GF102991999999999999999999MA1102611999999MW1051MW2111
0071723030137141973011811004+35167-079017SAO  +0066POB  V0209999C000012200019N0096561N1+00001-00221999999ADDGD13991+0750013GF107991999999999999999999MA1102611999999MW1051MW2111
0104723030137141973011812004+35167-079017SAO  +0066POB  V0209999C00001075001EN0080471N1-00221-00331102661ADDGD13991+0750019GF107991999001999999001081MA1102611999999MD1610031+9999MW1051MW2111REMAWY010/ 603 1008
0071723030137141973011813004+35167-079017SAO  +0066POB  V0209999C000012200019N0080471N1-00051-00221999999ADDGD14991+0750013GF108991999999999999999999MA1102641999999MW1051MW2111
0071723030137141973011814004+35167-079017SAO  +0066POB  V0209999C000012200019N0096561N1+00051-00111999999ADDGD14991+0750013GF108991999999999999999999MA1102681999999MW1051MW2111
0108723030137141973011815004+35167-079017SAO  +0066POB  V0209999C00001075001EN0096561N1+00611+00271102761ADDGD14991+0750019GF108991999999999999999999MA1102711999999MD1210101+9999MW1051MW2111REMAWY014BINOVC SW/ 210
0065723030137141973011816004+35167-079017SAO  +0066POB  V0209999C000012200019N0096561N1+01161+00611999999ADDGD13991+0750013GF107991999999999999999999MA1102711999999MW1051
0092723030137141973011817004+35167-079017SAO  +0066POB  V0202901N002010750019N0112651N1+01611+00831999999ADDGD12991+0450019GD24991+0750019GF108991999999999999999999MA1102571999999MW1001REMAWY003?V?
0113723030137141973011818004+35167-079017SAO  +0066POB  V0202001N005112200019N0112651N1+01831+00831102491ADDGD12991+0450019GD24991+0750013GF108991999001999999071071MA1102441999999MD1810271+9999MW1001REMAWY010/ 827 1077
0080723030137141973011819004+35167-079017SAO  +0066POB  V0202301N005112200019N0112651N1+01831+00831999999ADDGD12991+0450019GD23991+0750013GF107991999999999999999999MA1102371999999MW1001
0065723030137141973011820004+35167-079017SAO  +0066POB  V0202201N00511075001EN0112651N1+01831+00771999999ADDGD13991+0750019GF107991999999999999999999MA1102271999999MW1001
0113723030137141973011821004+35167-079017SAO  +0066POB  V0202101N004112200019N0112651N1+01831+00771102251ADDGD12991+0450019GD22991+0750019GF102991999001999999071081MA1102201999999MD1710241+9999MW1001REMAWY010/ 724 1078
0085723030137141973011822004+35167-079017SAO  +0066POB  V0202101N003012200019N0112651N1+01661+00771999999ADDGD13991+0750013GF107991999999999999999999MA1102201999999MW1001REMAWY011AC E AND SW
0080723030137141973011823004+35167-079017SAO  +0066POB  V0201701N002012200019N0112651N1+01551+00771999999ADDGD12991+0360019GD23991+0750013GF107991999999999999999999MA1102171999999MW1001
0098723030137141973011900004+35167-079017SAO  +0066POB  V0201601N002512200019N0112651N1+01441+00771102181ADDGD14991+0750013GF108991999001999999001071MA1102131999999MD1610071+9999MW1001REMAWY010/ 607 1007
0065723030137141973011901004+35167-079017SAO  +0066POB  V0202801N001512200019N0112651N1+01111+00661999999ADDGD13991+0750013GF107991999999999999999999MA1102101999999MW1001
0065723030137141973011902004+35167-079017SAO  +0066POB  V0209999C000012200019N0112651N1+00831+00551999999ADDGD12991+0750013GF102991999999999999999999MA1102131999999MW1001
0098723030137141973011903004+35167-079017SAO  +0066POB  V0209999C000012200019N0112651N1+00551+00381102111ADDGD12991+0750013GF102991999001999999001081MA1102071999999MD1810071+9999MW1001REMAWY010/ 807 1008
0065723030137141973011904004+35167-079017SAO  +0066POB  V0209999C000012200019N0112651N1+00441+00381999999ADDGD12991+0750019GF102991999999999999999999MA1102001999999MW1001
0080723030137141973011905004+35167-079017SAO  +0066POB  V0209999C000012200019N0112651N1+00381+00331999999ADDGD12991+0099019GD22991+0750019GF102991999999999999999999MA1101901999999MW1001
0098723030137141973011906004+35167-079017SAO  +0066POB  V0209999C000012200019N0112651N1+00441+00331101831ADDGD12991+0750019GF102991999001999999001081MA1101801999999MD1710291+9999MW1001REMAWY010/ 729 1008
0086723030137141973011907004+35167-079017SAO  +0066POB  V0209999C000012200019N0096561N1+00331+00271999999ADDGD12991+0150019GD22991+0750019GF102991999999999999999999MA1101661999999MW1051MW2111
0086723030137141973011908004+35167-079017SAO  +0066POB  V0209999C000012200019N0064371N1+00441+00381999999ADDGD12991+0300019GD22991+0750019GF102991999999999999999999MA1101561999999MW1051MW2111
0119723030137141973011909004+35167-079017SAO  +0066POB  V0209999C000012200019N0048281N1+00381+00331101491ADDGD12991+0300019GD23991+0750013GF107991999001999999071081MA1101461999999MD1710321+9999MW1051MW2111REMAWY010/ 732 1078
0106723030137141973011910004+35167-079017SAO  +0066POB  V0209999C000012200019N0040231N1+00881+00831999999ADDGD16991+0001519GD22991+0240019GD34991+0750013GF108991999999999999999999MA1101351999999MW1111REMAWY002F3
0121723030137141973011911004+35167-079017SAO  +0066POB  V0201701N003612200019N0018111N1+01001+00941999999ADDGD16991+0001519GD23991+0003013GD33991+0240013GD43991+0750013GF107991999999999999999999MA1101251999999MW1451REMAWY002F3
0135723030137141973011912004+35167-079017SAO  +0066POB  V0201801N003010006019N0008051N1+01051+01001101251ADDED122U18289GD16991+0001519GD24991+0006019GF108991999061999999999999MA1101221999999MD1610241+9999MW1451REMAWY021R22VR60& F5/ 624 16//
0076723030137141973011913004+35167-079017SAO  +0066POB  V0201701N00101000601WN0003001N1+01061+01061999999ADDED122U04879GD15991+0006019GF108991999999999999999999MA1101151999999MW1451
0111723030137141973011914004+35167-079017SAO  +0066POB  V0202101N003010009019N0004021N1+01221+01161999999ADDED122U03049GD16991+0001519GD24991+0009019GF108991999999999999999999MA1101121999999MW1451REMAWY011R22VR10- F9
0119723030137141973011915004+35167-079017SAO  +0066POB  V0202401N004110015019N0048281N1+01271+01271101121ADDGD12991+0006019GD24991+0015019GF108991999051999999999999MA1101081999999MD1810141+9999MW1451MW2801REMAWY010/ 814 15//
0087723030137141973011916004+35167-079017SAO  +0066POB  V0202501N00411008401MN0064371N1+01221+01161999999ADDGD14991+0084019GF108991999999999999999999MA1101081999999MW1451MW2801REMAWY007WET RWY
0102723030137141973011917004+35167-079017SAO  +0066POB  V0202401N00201008401EN0064371N1+01221+01111999999ADDGD13991+0084019GD24991+0240019GF108991999999999999999999MA1100911999999MW1111MW2801REMAWY007WET RWY
0170723030137141973011918004+35167-079017SAO  +0066POB  V0202501N002010240019N0096561N1+01271+01161100701ADDAA106006091GD12991+0030019GD22991+0090019GD33991+0240019GF107991999051999999071001MA1100681999999MD1810411+9999MW1051MW2111REMAWY016/ 84122 1570 WETEQDQ01  00603PRCP99
0104723030137141973011919004+35167-079017SAO  +0066POB  V0202301N005110069019N0096561N1+01501+01161999999ADDGD12991+0045019GD23991+0069019GF107991999999999999999999MA1100541999999MW1051OC100871REMAWY007WET RWY
0094723030137141973011920004+35167-079017SAO  +0066POB  V0202701N002010075019N0096561N1+01551+01111999999ADDGD12991+0045019GD23991+0075019GF107991999999999999999999MA1100581999999MW1051REMSYN005T RWY
0159723030137141973011921004+35167-079017SAO  +0066POB  V0202601N004612200019N0096561N1+01661+01111100571ADDGD12991+0045019GD22991+0075019GD32991+0750019GF102991999021999999001999MA1100541999999MD1610141+9999MW1051REMAWY02225%V? TCU SE/   4 1200EQDQ01    003SCOHCG
0138723030137141973011922004+35167-079017SAO  +0066POB  V0202701N003012200019N0112651N1+01611+01001999999ADDGD12991+0036019GD22991+0075019GD32991+0240019GD42991+0750019GF102991999999999999999999MA1100611999999MW1001REMAWY019LRG CU BLDUP SE-SSW
0095723030137141973011923004+35167-079017SAO  +0066POB  V0202601N00201013801EN0112651N1+01441+00941999999ADDGD13991+0138019GD23991+0240019GD33991+0750019GF107991999999999999999999MA1100611999999MW1001
0153723030137141973012000004+35167-079017SAO  +0066POB  V0202701N00201013801EN0096561N1+01271+01001100671ADDAA106000291GD13991+0138019GD23991+0240019GF107991999051999999071001MA1100641999999MD1110121+9999MW1111REMAWY020OCNL RW-/ 11201 1570EQDQ01  00023PRCP99
0065723030137141973012001004+35167-079017SAO  +0066POB  V0203001N004112200019N0112651N1+01271+00941999999ADDGD12991+0240019GF102991999999999999999999MA1100711999999MW1001
0070723030137141973012002004+35167-079017SAO  +0066POB  V0203001N003612200019N0112651N1+01111+00611999999ADDGF100991999999999999999999MA1100851999999MW1001REMAWY011WND 270V330
0078723030137141973012003004+35167-079017SAO  +0066POB  V0203001N002512200019N0112651N1+01001+00501100941ADDGF100991999999999999999999MA1100911999999MD1210251+9999MW1001REMAWY005/ 225
0050723030137141973012004004+35167-079017SAO  +0066POB  V0202801N002012200019N0128741N1+00941+00331999999ADDGF100991999999999999999999MA1100981999999MW1001
0050723030137141973012005004+35167-079017SAO  +0066POB  V0202801N001012200019N0128741N1+00721+00271999999ADDGF100991999999999999999999MA1100981999999MW1001
0078723030137141973012006004+35167-079017SAO  +0066POB  V0203001N001012200019N0128741N1+00661+00161101011ADDGF100991999999999999999999MA1100981999999MD1110071+9999MW1001REMAWY005/ 107
0050723030137141973012007004+35167-079017SAO  +0066POB  V0209999C000012200019N0128741N1+00441+00111999999ADDGF100991999999999999999999MA1100951999999MW1001
0050723030137141973012008004+35167-079017SAO  +0066POB  V0209999C000012200019N0128741N1+00381+00111999999ADDGF100991999999999999999999MA1100981999999MW1001
0078723030137141973012009004+35167-079017SAO  +0066POB  V0209999C000012200019N0128741N1+00381+00051101041ADDGF100991999999999999999999MA1101021999999MD1310031+9999MW1001REMAWY005/ 303
0050723030137141973012010004+35167-079017SAO  +0066POB  V0209999C000012200019N0128741N1+00161+00001999999ADDGF100991999999999999999999MA1101051999999MW1001
0050723030137141973012011004+35167-079017SAO  +0066POB  V0202201N000512200019N0112651N1-00051-00161999999ADDGF100991999999999999999999MA1101081999999MW1001
0130723030137141973012012004+35167-079017SAO  +0066POB  V0202201N000512200019N0080471N1+00051-00111101151ADDAA124006091GD12991+0300019GF102991999001999999071001MA1101121999999MD1310101+9999MW1051MW2111REMAWY025K DRFTG OVR RWY/ 310 1070
0104723030137141973012013004+35167-079017SAO  +0066POB  V0202801N000512200019N0112651N1+00051-00111999999ADDGD12991+0300019GD22991+0750019GF102991999999999999999999MA1101191999999MW1001REMAWY015K DRFTG OVR RWY
0065723030137141973012014004+35167-079017SAO  +0066POB  V0202201N001512200019N0112651N1+00331+00051999999ADDGD12991+0750013GF102991999999999999999999MA1101251999999MW1001
0093723030137141973012015004+35167-079017SAO  +0066POB  V0202501N002512200019N0112651N1+00771+00111101361ADDGD13991+0750013GF107991999999999999999999MA1101321999999MD1210201+9999MW1001REMAWY005/ 220
0079723030137141973012016004+35167-079017SAO  +0066POB  V0202601N003012200019N0112651N1+01221+00001999999ADDGD13991+0750013GF107991999999999999999999MA1101351999999MW1001REMAWY005-?V-%
0085723030137141973012017004+35167-079017SAO  +0066POB  V0202801N003612200019N0112651N1+01611-00271999999ADDGD13991+0750013GF107991999999999999999999MA1101221999999MW1001REMAWY011WND 240V330
0113723030137141973012018004+35167-079017SAO  +0066POB  V0202801N006110750019N0128741N1+01611-00441101211ADDGD12991+0300019GD23991+0750019GF107991999001999999071081MA1101191999999MD1810151+9999MW1001REMAWY010/ 815 1078
0100723030137141973012019004+35167-079017SAO  +0066POB  V0203101N004110750019N0128741N1+01661-00551999999ADDGD12991+0300019GD23991+0750019GF107991999999999999999999MA1101121999999MW1001REMAWY011WND 260V350
0100723030137141973012020004+35167-079017SAO  +0066POB  V0203001N005112200019N0128741N1+01721-00551999999ADDGD12991+0300019GD22991+0750019GF102991999999999999999999MA1101121999999MW1001REMAWY011WND 200V360
0093723030137141973012021004+35167-079017SAO  +0066POB  V0203601N003012200019N0128741N1+01611-00661101211ADDGD13991+0750013GF107991999999999999999999MA1101191999999MD1310021+9999MW1001REMAWY005/ 302
0065723030137141973012022004+35167-079017SAO  +0066POB  V0203101N001012200019N0128741N1+01551-00611999999ADDGD12991+0750013GF102991999999999999999999MA1101221999999MW1001
0065723030137141973012023004+35167-079017SAO  +0066POB  V0203301N002012200019N0128741N1+01381-00501999999ADDGD12991+0750013GF102991999999999999999999MA1101251999999MW1001
0098723030137141973012100004+35167-079017SAO  +0066POB  V0202401N001512200019N0128741N1+00721-00161101401ADDGD12991+0750013GF102991999001999999001011MA1101351999999MD1310171+9999MW1001REMAWY010/ 317 1001
0050723030137141973012101004+35167-079017SAO  +0066POB  V0209999C000012200019N0128741N1+00551-00221999999ADDGF100991999999999999999999MA1101421999999MW1001
0065723030137141973012102004+35167-079017SAO  +0066POB  V0200201N002012200019N0128741N1+00831-00221999999ADDGD12991+0750019GF102991999999999999999999MA1101521999999MW1001
0098723030137141973012103004+35167-079017SAO  +0066POB  V0200801N002012200019N0128741N1+00611-00221101671ADDGD12991+0750013GF102991999001999999001081MA1101631999999MD1210271+9999MW1001REMAWY010/ 227 1008
0065723030137141973012104004+35167-079017SAO  +0066POB  V0200301N004112200019N0128741N1+00551-00221999999ADDGD12991+0750013GF102991999999999999999999MA1101731999999MW1001
0065723030137141973012105004+35167-079017SAO  +0066POB  V0200301N003012200019N0128741N1+00501-00271999999ADDGD12991+0750013GF102991999999999999999999MA1101801999999MW1001
0113723030137141973012106004+35167-079017SAO  +0066POB  V0200401N004112200019N0128741N1+00441-00271101861ADDGD12991+0300019GD24991+0750013GF108991999001999999071071MA1101831999999MD1210201+9999MW1001REMAWY010/ 220 1077
0065723030137141973012107004+35167-079017SAO  +0066POB  V0200301N002512200019N0128741N1+00331-00271999999ADDGD13991+0750013GF107991999999999999999999MA1101931999999MW1001
0065723030137141973012108004+35167-079017SAO  +0066POB  V0200401N002012200019N0128741N1+00221-00331999999ADDGD13991+0750013GF107991999999999999999999MA1102001999999MW1001
0098723030137141973012109004+35167-079017SAO  +0066POB  V0200501N002012200019N0128741N1+00161-00331102081ADDGD14991+0750013GF108991999001999999001071MA1102031999999MD1210201+9999MW1001REMAWY010/ 220 1007
0080723030137141973012110004+35167-079017SAO  +0066POB  V0200601N003612200019N0128741N1+00161-00331999999ADDGD12991+0300019GD24991+0750013GF108991999999999999999999MA1102031999999MW1001
0095723030137141973012111004+35167-079017SAO  +0066POB  V0200501N003012200019N0128741N1+00051-00441999999ADDGD12991+0300019GD22991+0450019GD34991+0750013GF108991999999999999999999MA1102101999999MW1001
0081723030137141973012112004+35167-079017SAO  +0066POB  V0200601N003612200019N0128001N1+00061-00561102191ADDGF108991999999999999999999MA1102131101321MD1310101+9999MW1001REMAWY008310 1077
0065723030137141973012113004+35167-079017SAO  +0066POB  V0200601N00201075001EN0128741N1+00001-00551999999ADDGD14991+0750019GF108991999999999999999999MA1102271999999MW1001
0095723030137141973012114004+35167-079017SAO  +0066POB  V0200701N004110750019N0128741N1+00111-00661999999ADDGD12991+0150019GD22991+0360019GD33991+0750019GF107991999999999999999999MA1102371999999MW1001
0128723030137141973012115004+35167-079017SAO  +0066POB  V0200701N003010750019N0128741N1+00161-00721102601ADDGD12991+0150019GD22991+0360019GD33991+0750019GF107991999051999999071081MA1102541999999MD1310411+9999MW1001REMAWY010/ 341 1578
0080723030137141973012116004+35167-079017SAO  +0066POB  V0200601N005110750019N0128741N1+00381-00721999999ADDGD12991+0360019GD23991+0750019GF107991999999999999999999MA1102511999999MW1001
0080723030137141973012117004+35167-079017SAO  +0066POB  V0200701N005112200019N0128741N1+00551-00721999999ADDGD12991+0360019GD22991+0750019GF102991999999999999999999MA1102401999999MW1001
0113723030137141973012118004+35167-079017SAO  +0066POB  V0200701N003012200019N0128741N1+00721-00721102321ADDGD12991+0360019GD23991+0750013GF107991999001999999071081MA1102271999999MD1810271+9999MW1001REMAWY010/ 827 1078
0080723030137141973012119004+35167-079017SAO  +0066POB  V0201001N004112200019N0128741N1+00881-00771999999ADDGD12991+0360019GD23991+0750013GF107991999999999999999999MA1102201999999MW1001
0065723030137141973012120004+35167-079017SAO  +0066POB  V0201001N004112200019N0128741N1+01001-00661999999ADDGD13991+0750013GF107991999999999999999999MA1102171999999MW1001
0113723030137141973012121004+35167-079017SAO  +0066POB  V0200901N004112200019N0128741N1+01001-00611102181ADDGD12991+0300019GD24991+0750013GF108991999001999999071081MA1102131999999MD1610141+9999MW1001REMAWY010/   4 1078
0118723030137141973012122004+35167-079017SAO  +0066POB  V0200801N003010300019N0128741N1+00831-00501999999ADDGD12991+0135019GD23991+0300019GD34991+0750019GF108991999999999999999999MA1102131999999MW1001REMAWY014THN SPOTS IOVC
0116723030137141973012123004+35167-079017SAO  +0066POB  V0200801N002510300019N0128741N1+00611-00381999999ADDGD12991+0105019GD22991+0240019GD34991+0300019GF108991999999999999999999MA1102101999999MW1001REMAWY012HIR CLDS VSB
0121723030137141973012200004+35167-079017SAO  +0066POB  V0200801N003610240019N0128741N1+00611-00331102151ADDGD12991+0120019GD23991+0240019GD34991+0600013GF108991999999999999999999MA1102101999999MD1810031+9999MW1001REMSYN003803
0080723030137141973012201004+35167-079017SAO  +0066POB  V0200801N00461005101MN0128741N1+00721-00271999999ADDGD13991+0051019GD24991+0600019GF108991999999999999999999MA1102071999999MW1001
0110723030137141973012202004+35167-079017SAO  +0066POB  V0200901N004110600019N0128741N1+00721-00161999999ADDGD12991+0075019GD22991+0300019GD34991+0600019GF108991999999999999999999MA1102001999999MW1001REMAWY006100%V?
0151723030137141973012203004+35167-079017SAO  +0066POB  V0200801N00561060001EN0128741N1+00661-00051101941ADDGD14991+0600019GF108991999001999999001071MA1101901999999MD1710201+9999MW1001REMAWY063THN SPOTS IOVC STARS VSB MOON DMLY VSB         ?     / 720 1007
0096723030137141973012204004+35167-079017SAO  +0066POB  V0200801N00411060001EN0128741N1+00661+00161999999ADDGD14991+0600019GF108991999999999999999999MA1101831999999MW1001REMAWY022BINOVC E MOON DMLY VSB
0095723030137141973012205004+35167-079017SAO  +0066POB  V0200901N003610114019N0128741N1+00721+00331999999ADDGD12991+0096019GD23991+0114019GD34991+0600019GF108991999999999999999999MA1101801999999MW1001
0119723030137141973012206004+35167-079017SAO  +0066POB  V0200901N00511009901MN0112651N1+00721+00331101631ADDGD13991+0099019GD24991+0600019GF108991999051999999001071MA1101591999999MD1810301+9999MW1001REMAWY016PRESFR/ 830 1507
0105723030137141973012207004+35167-079017SAO  +0066POB  V0200901N00511008701MN0112651N1+00881+00551999999ADDGD13991+0087019GD24991+0300019GF108991999999999999999999MA1101521999999MW1001OC100921REMAWY008INTMT R-
0109723030137141973012208004+35167-079017SAO  +0066POB  V0200901N00201006901MN0112651N1+00941+00611999999ADDGD13991+0069019GD23991+0096019GD34991+0240019GF108991999999999999999999MA1101421999999MW1001REMAWY00523?V?
0133723030137141973012209004+35167-079017SAO  +0066POB  V0201001N00201006901MN0096561N1+01051+00771101381ADDGD13991+0069019GD23991+0114019GD34991+0240019GF108991999051999999071999MA1101351999999MD1810241+9999MW1611REMAWY01523?V%/ 824 157/
0094723030137141973012210004+35167-079017SAO  +0066POB  V0201101N00411006901MN0064371N1+01161+00941999999ADDGD13991+0069019GD24991+0135019GF108991999999999999999999MA1101191999999MW1631REMSYN005T RWY
0128723030137141973012211004+35167-079017SAO  +0066POB  V0201301N004610087019N0112651N1+01221+01111999999ADDGD12991+0069019GD23991+0087019GD34991+0135019GF108991999999999999999999MA1101081999999MW1001REMAWY024CIG RGD INTMT R- WET RWY
0204723030137141973012212004+35167-079017SAO  +0066POB  V0201301N00411008401MN0064371N1+01331+01221101041ADDAA106001091AA224001091GD13991+0084019GD24991+0135019GF108991999051999999021999MA1101021999999MD1710341+9999MW1631REMAWY060CIG RGD WND 100V160/ 73403 152/ 20003          ?     WET RWYEQDQ01  00103PRCP99
0181723030137141973012213004+35167-079017SAO  +0066POB  V0201601N005110087019N0080471N1+01551+01381999999ADDGD12991+0045019GD23991+0087019GD33991+0135019GD44991+0240019GF108991999999999999999999MA1100911999999MW1511MW2611OC100971REMAWY04829?V% CIG RGD WND 100V180          ?     WET RWY
0152723030137141973012214004+35167-079017SAO  +0066POB  V0201601N005110036019N0064371N1+01661+01501999999ADDGD12991+0027019GD23991+0036019GD33991+0105019GD44991+0135019GF108991999999999999999999MA1100881999999MW1111MW2611OC101021REMAWY019WND 100V190 WET RWY
0148723030137141973012215004+35167-079017SAO  +0066POB  V0201801N005610036019N0048281N1+01661+01501100941ADDGD12991+0024019GD23991+0036019GD34991+0045019GF108991999071999999021999MA1100911999999MD1510101+9999MW1111MW2511MW3611REMAWY018/ 510 172/ WET RWY
0096723030137141973012216004+35167-079017SAO  +0066POB  V0201701N003010060019N0112651N1+01661+01551999999ADDGD12991+0033019GD24991+0060019GF108991999999999999999999MA1100881999999MW1001REMAWY007WET RWY
0092723030137141973012217004+35167-079017SAO  +0066POB  V0201801N004110060019N0112651N1+01771+01661999999ADDGD12991+0033019GD24991+0060019GF108991999999999999999999MA1100781999999MW1001REMAWY003WET
0153723030137141973012218004+35167-079017SAO  +0066POB  V0201901N00511004501MN0128741N1+01881+01721100731ADDAA106008091GD13991+0045019GD23991+0090019GF107991999051999999001001MA1100711999999MD1710201+9999MW1001REMAWY020/ 72032 1500 WET RWYEQDQ01  00803PRCP99
0079723030137141973012219004+35167-079017SAO  +0066POB  V0202101N00511006001MN0128741N1+02111+01661999999ADDGD13991+0060019GF107991999999999999999999MA1100611999999MW1001REMSYN005T RWY
0073723030137141973012220004+35167-079017SAO  +0066POB  V0202201N009212200019N0128741N1+02161+01441999999ADDGD12991+0060019GF102991999999999999999999MA1100581999999MW1001OC101231
0117723030137141973012221004+35167-079017SAO  +0066POB  V0202301N007212200019N0128741N1+02111+01001100661ADDGF100991999999999999001001MA1100641999999MD1510071+9999MW1001OC101021REMAWY017CU NW-E/ 507 1100EQDQ01    013SCOLCG
0072723030137141973012222004+35167-079017SAO  +0066POB  V0202301N004612200019N0128741N1+01941+00551999999ADDGF100991999999999999999999MA1100681999999MW1001REMAWY013FEW CU NNE-NE
0050723030137141973012223004+35167-079017SAO  +0066POB  V0202301N003612200019N0128001N1+01501+00441999999ADDGF100991999999999999999999MA1100751999999MW1001
0078723030137141973012300004+35167-079017SAO  +0066POB  V0202301N004112200019N0128741N1+01381+00611100871ADDGF100991999999999999999999MA1100851999999MD1210201+9999MW1001REMAWY005/ 220
0050723030137141973012301004+35167-079017SAO  +0066POB  V0202301N004112200019N0128741N1+01381+00441999999ADDGF100991999999999999999999MA1100881999999MW1001
0065723030137141973012302004+35167-079017SAO  +0066POB  V0202301N003012200019N0128741N1+01161+00381999999ADDGD12991+0750019GF102991999999999999999999MA1100981999999MW1001
0093723030137141973012303004+35167-079017SAO  +0066POB  V0202301N004612200019N0128741N1+01051+00441101041ADDGD12991+0750019GF102991999999999999999999MA1101021999999MD1310171+9999MW1001REMAWY005/ 317
0065723030137141973012304004+35167-079017SAO  +0066POB  V0202201N004112200019N0128741N1+01111+00331999999ADDGD12991+0750019GF102991999999999999999999MA1101021999999MW1001
0065723030137141973012305004+35167-079017SAO  +0066POB  V0202301N005112200019N0128741N1+01111+00331999999ADDGD12991+0750019GF102991999999999999999999MA1101051999999MW1001
0078723030137141973012306004+35167-079017SAO  +0066POB  V0202301N006612200019N0128741N1+01161+00331101081ADDGF100991999999999999999999MA1101051999999MD1110031+9999MW1001REMAWY005/ 103
0050723030137141973012307004+35167-079017SAO  +0066POB  V0202401N005112200019N0128741N1+01111+00271999999ADDGF100991999999999999999999MA1101121999999MW1001
0050723030137141973012308004+35167-079017SAO  +0066POB  V0202401N005612200019N0128741N1+01161+00221999999ADDGF100991999999999999999999MA1101191999999MW1001
0078723030137141973012309004+35167-079017SAO  +0066POB  V0202601N004112200019N0128741N1+01111+00161101201ADDGF100991999999999999999999MA1101191999999MD1110141+9999MW1001REMAWY005/ 114
0050723030137141973012310004+35167-079017SAO  +0066POB  V0202201N003612200019N0128741N1+00831+00051999999ADDGF100991999999999999999999MA1101191999999MW1001
0065723030137141973012311004+35167-079017SAO  +0066POB  V0202301N004612200019N0128741N1+00721+00161999999ADDGD12991+0300019GF102991999999999999999999MA1101191999999MW1001
0087723030137141973012312004+35167-079017SAO  +0066POB  V0202201N004112200019N0128001N1+00721+00171101281ADDGF102991999999999999999999MA1101251100441MD1310071+9999MW1001REMAWY014307 1078 20032
0065723030137141973012313004+35167-079017SAO  +0066POB  V0202401N004612200019N0128741N1+00771+00161999999ADDGD12991+0600019GF102991999999999999999999MA1101321999999MW1001
0065723030137141973012314004+35167-079017SAO  +0066POB  V0202401N005112200019N0128741N1+01051+00221999999ADDGD12991+0600019GF102991999999999999999999MA1101321999999MW1001
0106723030137141973012315004+35167-079017SAO  +0066POB  V0202501N007212200019N0128741N1+01331+00161101421ADDGD12991+0600019GF102991999001999999001081MA1101391999999MD1310141+9999MW1001OC101331REMAWY010/ 314 1008
0065723030137141973012316004+35167-079017SAO  +0066POB  V0202601N007212200019N0128741N1+01551+00161999999ADDGD12991+0600019GF102991999999999999999999MA1101421999999MW1001
0065723030137141973012317004+35167-079017SAO  +0066POB  V0202501N007212200019N0128741N1+01721+00111999999ADDGD12991+0600019GF102991999999999999999999MA1101321999999MW1001
0106723030137141973012318004+35167-079017SAO  +0066POB  V0202601N006612200019N0128741N1+01941+00001101201ADDGD12991+0600019GF102991999001999999001081MA1101191999999MD1810201+9999MW1001OC101021REMAWY010/ 820 1008
0073723030137141973012319004+35167-079017SAO  +0066POB  V0202501N007212200019N0128741N1+02221+00001999999ADDGD12991+0600019GF102991999999999999999999MA1101081999999MW1001OC101131
0073723030137141973012320004+35167-079017SAO  +0066POB  V0202401N008212200019N0128741N1+02111+00001999999ADDGD12991+0600019GF102991999999999999999999MA1101081999999MW1001OC101131
0106723030137141973012321004+35167-079017SAO  +0066POB  V0202401N008212200019N0128741N1+01941-00111101031ADDGD12991+0600019GF102991999001999999001081MA1101021999999MD1610171+9999MW1001OC101331REMAWY010/   7 1008
0073723030137141973012322004+35167-079017SAO  +0066POB  V0202301N006112200019N0128741N1+01611-00111999999ADDGD12991+0600019GF102991999999999999999999MA1101081999999MW1001OC100971
0065723030137141973012323004+35167-079017SAO  +0066POB  V0202301N005112200019N0128741N1+01551-00111999999ADDGD12991+0600019GF102991999999999999999999MA1101151999999MW1001
0098723030137141973012400004+35167-079017SAO  +0066POB  V0202301N005112200019N0128741N1+01441-00111101211ADDGD12991+0600019GF102991999001999999001081MA1101191999999MD1210171+9999MW1001REMAWY010/ 217 1008
0065723030137141973012401004+35167-079017SAO  +0066POB  V0202201N003012200019N0128741N1+01111-00051999999ADDGD12991+0600019GF102991999999999999999999MA1101221999999MW1001
0065723030137141973012402004+35167-079017SAO  +0066POB  V0202301N004112200019N0128741N1+01221+00221999999ADDGD12991+0600019GF102991999999999999999999MA1101251999999MW1001
0093723030137141973012403004+35167-079017SAO  +0066POB  V0202401N004112200019N0128741N1+01001+00271101311ADDGD12991+0600019GF102991999999999999999999MA1101291999999MD1210101+9999MW1001REMAWY005/ 210
0065723030137141973012404004+35167-079017SAO  +0066POB  V0202501N002012200019N0128741N1+00721+00111999999ADDGD12991+0600019GF102991999999999999999999MA1101321999999MW1001
0065723030137141973012405004+35167-079017SAO  +0066POB  V0202201N002012200019N0128741N1+00661+00051999999ADDGD12991+0600019GF102991999999999999999999MA1101351999999MW1001
0098723030137141973012406004+35167-079017SAO  +0066POB  V0209999C000012200019N0128741N1+00661+00001101421ADDGD12991+0750019GF102991999001999999001081MA1101391999999MD1210101+9999MW1001REMAWY010/ 210 1008
