047472530094846198301010000C+41983-087900SY-SA+0201ORD  V0202505N00465010064MN0240005N1+00065-00615102195ADDAA101000095AA206000091AG10000AY101999GA1999+010064064GD14085+0099099GD20995+9999999GD30995+9999999GD40995+9999999GF108085081051012501999999KA1999M+00171KA2999N-00441MA1102101099665MD1310101+9999MW1021REMSYN036333   10017 21044 555   1033  035026AWY012310 15// 35?EQDQ01    003PRSWM1Q02  00003PRCP99N01 00000JPWTH 1QNNE11 1 00610E11 1 00099E11 1 00099E11 1 00099G11 1 00033H11 1 15033K11 1 00021L11 1 01500M11 1 29430N11 1 00000Q11 1 10219S11 1 00033V11 1 01010X11 1 25009
029372530094846198301010100C+41983-087900SAO  +0201ORD  V0202405N00415010064MN0240005N1+00065-00565102235ADDAA101000095AG10999GD14995+0099099GD20995+9999999GD30995+9999999GD40995+9999999GF108085999999999999999999MA1102131099705MW1001EQDN01 00000JPWTH 1QNNE11 1 00699E11 1 00099E11 1 00099E11 1 00099G11 1 00033K11 1 00022L11 1 01500M11 1 29440N11 1 00000Q11 1 10223S11 1 00033V11 1 01010X11 1 24008
029372530094846198301010200C+41983-087900SAO  +0201ORD  V0202505N00465010064MN0240005N1+00065-00565102235ADDAA101000095AG10999GD14995+0099099GD20995+9999999GD30995+9999999GD40995+9999999GF108085999999999999999999MA1102131099705MW1001EQDN01 00000JPWTH 1QNNE11 1 00699E11 1 00099E11 1 00099E11 1 00099G11 1 00033K11 1 00022L11 1 01500M11 1 29440N11 1 00000Q11 1 10223S11 1 00033V11 1 01010X11 1 25009
043372530094846198301010300C+41983-087900SAO  +0201ORD  V0202405N004152200059N0240005N1-00065-00615102195ADDAA101000095AG10000GA1999+010064064GA2999+999999999GA3999+999999999GA4999+999999999GD12015+0099099GD20005+9999999GD30005+9999999GD40005+9999999GF101015999051999999001991MA1102101099665MD1010001+9999MW1001REMAWY009000 1500?EQDN01 00000JPWTH 1QNNE11 1 00201E11 1 00000E11 1 00000E11 1 00000G11U1 99999H11 1 15033H11 1 00999H11 1 00999H11 1 00999K11 1 00021L11 1 01500M11 1 29430N11 1 00000Q11 1 10219S11 1 00031V11 1 00101X11 1 24008
027872530094846198301010400C+41983-087900SAO  +0201ORD  V0202105N003652200059N0240005N1-00225-00615102165ADDAA101000095AG10999GD10995+9999999GD20995+9999999GD30995+9999999GF100005999999999999999999MA1102071099635MW1001EQDN01 00000JPWTH 1QNNE11 1 00099E11 1 00099E11 1 00099E11 1 00099G11U1 99999K11 1 00021L11 1 01500M11 1 29420N11 1 00000Q11 1 10216S11 1 00028V11 1 00000X11 1 21007
027872530094846198301010500C+41983-087900SAO  +0201ORD  V0202205N003652200059N0240005N1-00285-00675102135ADDAA101000095AG10999GD10995+9999999GD20995+9999999GD30995+9999999GF100005999999999999999999MA1102031099595MW1001EQDN01 00000JPWTH 1QNNE11 1 00099E11 1 00099E11 1 00099E11 1 00099G11U1 99999K11 1 00020L11 1 01500M11 1 29410N11 1 00000Q11 1 10213S11 1 00027V11 1 00000X11 1 22007
040972530094846198301010600C+41983-087900SY-SA+0201ORD  V0202105N004152200059N0240005N1-00335-00615102125ADDAA101000095AA206000091AA324000091AG14000AY101999GD10995+9999999GD20995+9999999GD30995+9999999GF100005001001999999001991KA1999M+00171KA2999N-00441MA1102031099595MD1610071+9999MW1021REMSYN023333   10017 21044 70000AWY007607 35?EQDQ01    003PRSWM1N01 00000JPWTH 1QNNE11 1 00099E11 1 00099E11 1 00099E11 1 00099G11U1 99999K11 1 00021L11 1 01500M11 1 29410N11 1 00000Q11 1 10212S11 1 00026V11 1 00000X11 1 21008
028972530094846198301010700C+41983-087900SAO  +0201ORD  V0202105N004652200059N0240005N1-00335-00615102085ADDAA101000095AG10999GD10995+9999999GD20995+9999999GD30995+9999999GF100005999999999999999999MA1102001099565MW1001REMAWY002N?EQDN01 00000JPWTH 1QNNE11 1 00099E11 1 00099E11 1 00099E11 1 00099G11U1 99999K11 1 00021L11 1 01500M11 1 29400N11 1 00000Q11 1 10208S11 1 00026V11 1 00000X11 1 21009
029372530094846198301010800C+41983-087900SAO  +0201ORD  V0202305N004152200059N0192005N1-00335-00615102055ADDAA101000095AG10999GD10995+9999999GD20995+9999999GD30995+9999999GF100005999999999999999999MA1101961099535MW1001REMAWY00698262?EQDN01 00000JPWTH 1QNNE11 1 00099E11 1 00099E11 1 00099E11 1 00099G11U1 99999K11 1 00021L11 1 01200M11 1 29390N11 1 00000Q11 1 10205S11 1 00026V11 1 00000X11 1 23008
030572530094846198301010900C+41983-087900SAO  +0201ORD  V0202005N005752200059N0192005N1-00285-00565101985ADDAA101000095AG10000GD10995+9999999GD20995+9999999GD30995+9999999GF100005999999999999999999MA1101901099465MD1810141+9999MW1001REMAWY004814?EQDN01 00000JPWTH 1QNNE11 1 00099E11 1 00099E11 1 00099E11 1 00099G11U1 99999K11 1 00022L11 1 01200M11 1 29370N11 1 00000Q11 1 10198S11 1 00027V11 1 00000X11 1 20011
027872530094846198301011000C+41983-087900SAO  +0201ORD  V0202205N007252200059N0192005N1-00285-00565101915ADDAA101000095AG10999GD10995+9999999GD20995+9999999GD30995+9999999GF100005999999999999999999MA1101831099395MW1001EQDN01 00000JPWTH 1QNNE11 1 00099E11 1 00099E11 1 00099E11 1 00099G11U1 99999K11 1 00022L11 1 01200M11 1 29350N11 1 00000Q11 1 10191S11 1 00027V11 1 00000X11 1 22014
027872530094846198301011100C+41983-087900SAO  +0201ORD  V0202205N006252200059N0192005N1-00225-00565101845ADDAA101000095AG10999GD10995+9999999GD20995+9999999GD30995+9999999GF100005999999999999999999MA1101761099325MW1001EQDN01 00000JPWTH 1QNNE11 1 00099E11 1 00099E11 1 00099E11 1 00099G11U1 99999K11 1 00022L11 1 01200M11 1 29330N11 1 00000Q11 1 10184S11 1 00028V11 1 00000X11 1 22012
041272530094846198301011200C+41983-087900SY-SA+0201ORD  V0202205N008852200059N0192005N1-00225-00565101815ADDAA101000095AA206000091AG14000AY101999GD10995+9999999GD20995+9999999GD30995+9999999GF100005001001999999001991KA1999M+00171KA2999N-00331MA1101731099295MD1710171+9999MW1021REMSYN021333   10017 21033 555AWY007717 26?EQDQ01    003PRSWM1Q02  00003PRCP99N01 00000JPWTH 1QNNE11 1 00099E11 1 00099E11 1 00099E11 1 00099G11U1 99999K11 1 00022L11 1 01200M11 1 29320N11 1 00000Q11 1 10181S11 1 00028V11 1 00000X11 1 22017
027872530094846198301011300C+41983-087900SAO  +0201ORD  V0202105N006752200059N0240005N1-00285-00615101845ADDAA101000095AG10999GD10995+9999999GD20995+9999999GD30995+9999999GF100005999999999999999999MA1101761099325MW1001EQDN01 00000JPWTH 1QNNE11 1 00099E11 1 00099E11 1 00099E11 1 00099G11U1 99999K11 1 00021L11 1 01500M11 1 29330N11 1 00000Q11 1 10184S11 1 00027V11 1 00000X11 1 21013
027872530094846198301011400C+41983-087900SAO  +0201ORD  V0202305N006752200059N0240005N1-00285-00615101885ADDAA101000095AG10999GD10995+9999999GD20995+9999999GD30995+9999999GF100005999999999999999999MA1101801099365MW1001EQDN01 00000JPWTH 1QNNE11 1 00099E11 1 00099E11 1 00099E11 1 00099G11U1 99999K11 1 00021L11 1 01500M11 1 29340N11 1 00000Q11 1 10188S11 1 00027V11 1 00000X11 1 23013
030572530094846198301011500C+41983-087900SAO  +0201ORD  V0202405N007252200059N0240005N1-00175-00565101915ADDAA101000095AG10000GD10995+9999999GD20995+9999999GD30995+9999999GF100005999999999999999999MA1101831099395MD1210101+9999MW1001REMAWY004210?EQDN01 00000JPWTH 1QNNE11 1 00099E11 1 00099E11 1 00099E11 1 00099G11U1 99999K11 1 00022L11 1 01500M11 1 29350N11 1 00000Q11 1 10191S11 1 00029V11 1 00000X11 1 24014
027872530094846198301011600C+41983-087900SAO  +0201ORD  V0202505N008252200059N0240005N1-00065-00565101985ADDAA101000095AG10999GD10995+9999999GD20995+9999999GD30995+9999999GF100005999999999999999999MA1101901099465MW1001EQDN01 00000JPWTH 1QNNE11 1 00099E11 1 00099E11 1 00099E11 1 00099G11U1 99999K11 1 00022L11 1 01500M11 1 29370N11 1 00000Q11 1 10198S11 1 00031V11 1 00000X11 1 25016
027872530094846198301011700C+41983-087900SAO  +0201ORD  V0202405N006252200059N0240005N1+00065-00505101985ADDAA101000095AG10999GD10995+9999999GD20995+9999999GD30995+9999999GF100005999999999999999999MA1101901099465MW1001EQDN01 00000JPWTH 1QNNE11 1 00099E11 1 00099E11 1 00099E11 1 00099G11U1 99999K11 1 00023L11 1 01500M11 1 29370N11 1 00000Q11 1 10198S11 1 00033V11 1 00000X11 1 24012
039872530094846198301011800C+41983-087900SY-SA+0201ORD  V0202305N006752200059N0240005N1+00175-00445101915ADDAA101000095AA206000091AG14000AY101999GD10995+9999999GD20995+9999999GD30995+9999999GF100005001001999999001991KA1999M+00171KA2999N-00331MA1101831099395MD1010001+9999MW1021REMSYN023333   10017 21033 90903AWY007000 26?EQDQ01    003PRSWM1N01 00000JPWTH 1QNNE11 1 00099E11 1 00099E11 1 00099E11 1 00099G11U1 99999K11 1 00024L11 1 01500M11 1 29350N11 1 00000Q11 1 10191S11 1 00035V11 1 00000X11 1 23013
027872530094846198301011900C+41983-087900SAO  +0201ORD  V0202305N006752200059N0240005N1+00225-00445101915ADDAA101000095AG10999GD10995+9999999GD20995+9999999GD30995+9999999GF100005999999999999999999MA1101831099395MW1001EQDN01 00000JPWTH 1QNNE11 1 00099E11 1 00099E11 1 00099E11 1 00099G11U1 99999K11 1 00024L11 1 01500M11 1 29350N11 1 00000Q11 1 10191S11 1 00036V11 1 00000X11 1 23013
029472530094846198301012000C+41983-087900SAO  +0201ORD  V0202305N007252200059N0240005N1+00225-00395101955ADDAA101000095AG10999GD10995+9999999GD20995+9999999GD30995+9999999GF100005999999999999999999MA1101861099425MW1001REMAWY007FEW SC?EQDN01 00000JPWTH 1QNNE11 1 00099E11 1 00099E11 1 00099E11 1 00099G11U1 99999K11 1 00025L11 1 01500M11 1 29360N11 1 00000Q11 1 10195S11 1 00036V11 1 00000X11 1 23014
044272530094846198301012100C+41983-087900SAO  +0201ORD  V0202605N005252200059N0240005N1+00225-00445101985ADDAA101000095AG10000GA1999+007624064GA2999+999999999GA3999+999999999GA4999+999999999GD10005+9999999GD20005+9999999GD30005+9999999GF100005999999999999001991MA1101901099465MD1210071+9999MW1001REMAWY017FEW SC/ 207 1500?EQDQ01    053SCOLCGN01 00000JPWTH 1QNNE11 1 00000E11 1 00000E11 1 00000E11 1 00000G11U1 99999H11 1 15025H11 1 00999H11 1 00999H11 1 00999K11 1 00024L11 1 01500M11 1 29370N11 1 00000Q11 1 10198S11 1 00036V11 1 00000X11 1 26010
029372530094846198301012200C+41983-087900SAO  +0201ORD  V0202505N004652200059N0240005N1+00175-00445102055ADDAA101000095AG10999GD12995+0075099GD20995+9999999GD30995+9999999GD40995+9999999GF101015999999999999999999MA1101961099535MW1001EQDN01 00000JPWTH 1QNNE11 1 00299E11 1 00099E11 1 00099E11 1 00099G11U1 99999K11 1 00024L11 1 01500M11 1 29390N11 1 00000Q11 1 10205S11 1 00035V11 1 00101X11 1 25009
029372530094846198301012300C+41983-087900SAO  +0201ORD  V0203005N002652200059N0192005N1+00065-00505102125ADDAA101000095AG10999GD12995+0075099GD20995+9999999GD30995+9999999GD40995+9999999GF101015999999999999999999MA1102031099595MW1001EQDN01 00000JPWTH 1QNNE11 1 00299E11 1 00099E11 1 00099E11 1 00099G11U1 99999K11 1 00023L11 1 01200M11 1 29410N11 1 00000Q11 1 10212S11 1 00033V11 1 00101X11 1 30005
055572530094846198301020000C+41983-087900SY-SA+0201ORD  V0202905N003652200059N0192005N1+00005-00565102185ADDAA101000095AA206000091AG14000AY101999GA1999+007624064GA2999+024384034GA3999+999999999GA4999+999999999GD12015+0075099GD22015+9999999GD30005+9999999GD40005+9999999GF102025011051008001071991KA1999M+00221KA2999N-00331MA1102101099665MD1210201+9999MW1021REMSYN036333   10022 21033 555   1034  038028AWY012220 1570 36?EQDQ01    003PRSWM1Q02  00003PRCP99N01 00000JPWTH 1QNNE11 1 00201E11 1 00201E11 1 00000E11 1 00000G11U1 99999H11 1 15025H11 1 23080H11 1 00999H11 1 00999K11 1 00022L11 1 01200M11 1 29430N11 1 00000Q11 1 10218S11 1 00032V11 1 00202X11 1 29007
029372530094846198301020100C+41983-087900SAO  +0201ORD  V0203005N00575007014MN0240005N1+00005-00565102225ADDAA101000095AG10999GD14995+0069099GD20995+9999999GD30995+9999999GD40995+9999999GF108085999999999999999999MA1102131099705MW1001EQDN01 00000JPWTH 1QNNE11 1 00699E11 1 00099E11 1 00099E11 1 00099G11 1 00023K11 1 00022L11 1 01500M11 1 29440N11 1 00000Q11 1 10222S11 1 00032V11 1 01010X11 1 30011
029372530094846198301020200C+41983-087900SAO  +0201ORD  V0203205N00575005794MN0192005N1-00065-00675102305ADDAA101000095AG10999GD14995+0057099GD20995+9999999GD30995+9999999GD40995+9999999GF108085999999999999999999MA1102201099765MW1001EQDN01 00000JPWTH 1QNNE11 1 00699E11 1 00099E11 1 00099E11 1 00099G11 1 00019K11 1 00020L11 1 01200M11 1 29460N11 1 00000Q11 1 10230S11 1 00031V11 1 01010X11 1 32011
035272530094846198301020300C+41983-087900SAO  +0201ORD  V0203205N00625005794MN0192005N1-00175-00785102365ADDAA101000095AG10000GA1999+005794064GD14085+0057099GD20995+9999999GD30995+9999999GD40995+9999999GF108085999051999999999999MA1102271099835MD1210171+9999MW1001REMAWY009217 15//?EQDN01 00000JPWTH 1QNNE11 1 00610E11 1 00099E11 1 00099E11 1 00099G11 1 00019H11 1 15019K11 1 00018L11 1 01200M11 1 29480N11 1 00000Q11 1 10236S11 1 00029V11 1 01010X11 1 32012
029372530094846198301020400C+41983-087900SAO  +0201ORD  V0203105N002652200059N0192005N1-00395-00835102365ADDAA101000095AG10999GD12995+0060099GD20995+9999999GD30995+9999999GD40995+9999999GF101015999999999999999999MA1102271099835MW1001EQDN01 00000JPWTH 1QNNE11 1 00299E11 1 00099E11 1 00099E11 1 00099G11U1 99999K11 1 00017L11 1 01200M11 1 29480N11 1 00000Q11 1 10236S11 1 00025V11 1 00101X11 1 31005
029372530094846198301020500C+41983-087900SAO  +0201ORD  V0203105N002652200059N0240005N1-00445-00835102365ADDAA101000095AG10999GD12995+0060099GD20995+9999999GD30995+9999999GD40995+9999999GF101015999999999999999999MA1102271099835MW1001EQDN01 00000JPWTH 1QNNE11 1 00299E11 1 00099E11 1 00099E11 1 00099G11U1 99999K11 1 00017L11 1 01500M11 1 29480N11 1 00000Q11 1 10236S11 1 00024V11 1 00101X11 1 31005
040972530094846198301020600C+41983-087900SY-SA+0201ORD  V0203105N002652200059N0192005N1-00505-00835102365ADDAA101000095AA206000091AA324000091AG14000AY101999GD10995+9999999GD20995+9999999GD30995+9999999GF100005001001999999001991KA1999M+00221KA2999N-00501MA1102271099835MD1410001+9999MW1021REMSYN023333   10022 21050 70000AWY007400 36?EQDQ01    003PRSWM1N01 00000JPWTH 1QNNE11 1 00099E11 1 00099E11 1 00099E11 1 00099G11U1 99999K11 1 00017L11 1 01200M11 1 29480N11 1 00000Q11 1 10236S11 1 00023V11 1 00000X11 1 31005
027872530094846198301020700C+41983-087900SAO  +0201ORD  V0203205N002652200059N0240005N1-00505-00835102395ADDAA101000095AG10999GD10995+9999999GD20995+9999999GD30995+9999999GF100005999999999999999999MA1102301099665MW1001EQDN01 00000JPWTH 1QNNE11 1 00099E11 1 00099E11 1 00099E11 1 00099G11U1 99999K11 1 00017L11 1 01500M11 1 29430N11 1 00000Q11 1 10239S11 1 00023V11 1 00000X11 1 32005
029372530094846198301020800C+41983-087900SAO  +0201ORD  V0202705N002152200059N0240005N1-00505-00785102425ADDAA101000095AG10999GD10995+9999999GD20995+9999999GD30995+9999999GF100005999999999999999999MA1102341099905MW1001REMAWY00698489?EQDN01 00000JPWTH 1QNNE11 1 00099E11 1 00099E11 1 00099E11 1 00099G11U1 99999K11 1 00018L11 1 01500M11 1 29500N11 1 00000Q11 1 10242S11 1 00023V11 1 00000X11 1 27004
030572530094846198301020900C+41983-087900SAO  +0201ORD  V0203305N002652200059N0240005N1-00565-00895102475ADDAA101000095AG10000GD10995+9999999GD20995+9999999GD30995+9999999GF100005999999999999999999MA1102371099935MD1210101+9999MW1001REMAWY004210?EQDN01 00000JPWTH 1QNNE11 1 00099E11 1 00099E11 1 00099E11 1 00099G11U1 99999K11 1 00016L11 1 01500M11 1 29510N11 1 00000Q11 1 10247S11 1 00022V11 1 00000X11 1 33005
027872530094846198301021000C+41983-087900SAO  +0201ORD  V0203605N002152200059N0240005N1-00505-00785102435ADDAA101000095AG10999GD10995+9999999GD20995+9999999GD30995+9999999GF100005999999999999999999MA1102341099905MW1001EQDN01 00000JPWTH 1QNNE11 1 00099E11 1 00099E11 1 00099E11 1 00099G11U1 99999K11 1 00018L11 1 01500M11 1 29500N11 1 00000Q11 1 10243S11 1 00023V11 1 00000X11 1 36004
029372530094846198301021100C+41983-087900SAO  +0201ORD  V0203205N002152200059N0240005N1-00565-00895102475ADDAA101000095AG10999GD12995+0360099GD20995+9999999GD30995+9999999GD40995+9999999GF102025999999999999999999MA1102371099935MW1001EQDN01 00000JPWTH 1QNNE11 1 00299E11 1 00099E11 1 00099E11 1 00099G11U1 99999K11 1 00016L11 1 01500M11 1 29510N11 1 00000Q11 1 10247S11 1 00022V11 1 00202X11 1 32004
056372530094846198301021200C+41983-087900SY-SA+0201ORD  V0203005N002152200059N0240005N1-00615-00895102505ADDAA101000095AA206000091AG14000AY101999GA1999+036584034GA2999+999999999GA3999+999999999GA4999+999999999GD10005+9999999GD20005+9999999GD30005+9999999GF199009011001999999071991KA1999M+00221KA2999N-00611MA1102401099975MD1310101+9999MW1021REMSYN036333   10022 21061 555   1028  038028AWY019AC SE/ 310 1070 21?EQDQ01    003PRSWM1Q02  00003PRCP99N01 00000JPWTH 1P01    003SCOTCVQNNE11 1 00000E11 1 00000E11 1 00000E11 1 00000G11U1 99999H11 1 23120H11 1 00999H11 1 00999H11 1 00999K11 1 00016L11 1 01500M11 1 29520N11 1 00000Q11 1 10250S11 1 00021V11 1 00000X11 1 30004
029372530094846198301021300C+41983-087900SAO  +0201ORD  V0203005N002652200059N0240005N1-00615-00895102535ADDAA101000095AG10999GD12995+0360099GD20995+9999999GD30995+9999999GD40995+9999999GF102025999999999999999999MA1102441100005MW1001EQDN01 00000JPWTH 1QNNE11 1 00299E11 1 00099E11 1 00099E11 1 00099G11U1 99999K11 1 00016L11 1 01500M11 1 29530N11 1 00000Q11 1 10253S11 1 00021V11 1 00202X11 1 30005
029372530094846198301021400C+41983-087900SAO  +0201ORD  V0203005N00215024384EN0240005N1-00505-00785102605ADDAA101000095AG10999GD13995+0240099GD23995+0750099GD30995+9999999GD40995+9999999GF107055999999999999999999MA1102511100035MW1001EQDN01 00000JPWTH 1QNNE11 1 00499E11 1 00499E11 1 00099E11 1 00099G11 1 00080K11 1 00018L11 1 01500M11 1 29540N11 1 00000Q11 1 10260S11 1 00023V11 1 00906X11 1 30004
043372530094846198301021500C+41983-087900SAO  +0201ORD  V0203305N004150548649N0240005N1-00445-00725102645ADDAA101000095AG10000GA1999+024384034GA2999+054864034GA3999+999999999GA4999+999999999GD12025+0240099GD23035+0540099GD30005+9999999GD40005+9999999GF105035999001999999071991MA1102541100075MD1210121+9999MW1001REMAWY009212 1070?EQDN01 00000JPWTH 1QNNE11 1 00202E11 1 00404E11 1 00000E11 1 00000G11 1 00180H11 1 23080H11 1 23180H11 1 00999H11 1 00999K11 1 00019L11 1 01500M11 1 29550N11 1 00000Q11 1 10264S11 1 00024V11 1 00604X11 1 33008
030972530094846198301021600C+41983-087900SAO  +0201ORD  V0203305N005250548649N0240005N1-00225-00725102705ADDAA101000095AG10999GD12995+0240099GD23995+0540099GD30995+9999999GD40995+9999999GF107055999999999999999999MA1102611100145MW1001REMAWY007FEW SC?EQDN01 00000JPWTH 1QNNE11 1 00299E11 1 00499E11 1 00099E11 1 00099G11 1 00180K11 1 00019L11 1 01500M11 1 29570N11 1 00000Q11 1 10270S11 1 00028V11 1 00906X11 1 33010
029372530094846198301021700C+41983-087900SAO  +0201ORD  V0203305N00525007014MN0240005N1-00175-00835102705ADDAA101000095AG10999GD13995+0069099GD20995+9999999GD30995+9999999GD40995+9999999GF107075999999999999999999MA1102611100145MW1001EQDN01 00000JPWTH 1QNNE11 1 00499E11 1 00099E11 1 00099E11 1 00099G11 1 00023K11 1 00017L11 1 01500M11 1 29570N11 1 00000Q11 1 10270S11 1 00029V11 1 00909X11 1 33010
054272530094846198301021800C+41983-087900SY-SA+0201ORD  V0203305N00525007014MN0240005N1-00115-00835102575ADDAA101000095AA206000091AG14000AY101999GA1999+007014064GA2999+016764034GA3999+054864034GA4999+999999999GD13065+0069099GD23999+0150099GD33015+0540099GD40005+9999999GF107065061051008001071991KA1999M-00111KA2999N-00611MA1102471100005MD1810071+9999MW1021REMSYN023333   11011 21061 90903AWY012807 1570 21?EQDQ01    003PRSWM1N01 00000JPWTH 1P01    003SCCGD2QNNE11 1 00408E11 1 00400E11 1 00401E11 1 00000G11 1 00023H11 1 15023H11 1 23055H11 1 23180H11 1 00999K11 1 00017L11 1 01500M11 1 29530N11 1 00000Q11 1 10257S11 1 00030V11 1 00908X11 1 33010
029372530094846198301021900C+41983-087900SAO  +0201ORD  V0203205N004152200059N0240005N1+00005-00945102505ADDAA101000095AG10999GD12995+0075099GD22995+0450099GD30995+9999999GD40995+9999999GF103035999999999999999999MA1102401099975MW1001EQDN01 00000JPWTH 1QNNE11 1 00299E11 1 00299E11 1 00099E11 1 00099G11U1 99999K11 1 00015L11 1 01500M11 1 29520N11 1 00000Q11 1 10250S11 1 00032V11 1 00404X11 1 32008
029372530094846198301022000C+41983-087900SAO  +0201ORD  V0203405N005252200059N0240005N1+00005-01115102475ADDAA101000095AG10999GD12995+0090099GD20995+9999999GD30995+9999999GD40995+9999999GF101015999999999999999999MA1102371099935MW1001EQDN01 00000JPWTH 1QNNE11 1 00299E11 1 00099E11 1 00099E11 1 00099G11U1 99999K11 1 00012L11 1 01500M11 1 29510N11 1 00000Q11 1 10247S11 1 00032V11 1 00101X11 1 34010
044272530094846198301022100C+41983-087900SAO  +0201ORD  V0203205N005752200059N0240005N1+00005-01115102475ADDAA101000095AG10000GA1999+009144064GA2999+999999999GA3999+999999999GA4999+999999999GD10005+9999999GD20005+9999999GD30005+9999999GF100005999999999999001991MA1102371099935MD1610081+9999MW1001REMAWY017FEW SC/ 608 1500?EQDQ01    053SCOLCGN01 00000JPWTH 1QNNE11 1 00000E11 1 00000E11 1 00000E11 1 00000G11U1 99999H11 1 15030H11 1 00999H11 1 00999H11 1 00999K11 1 00012L11 1 01500M11 1 29510N11 1 00000Q11 1 10247S11 1 00032V11 1 00000X11 1 32011
027872530094846198301022200C+41983-087900SAO  +0201ORD  V0203505N005252200059N0240005N1-00115-01225102535ADDAA101000095AG10999GD10995+9999999GD20995+9999999GD30995+9999999GF100005999999999999999999MA1102441100005MW1001EQDN01 00000JPWTH 1QNNE11 1 00099E11 1 00099E11 1 00099E11 1 00099G11U1 99999K11 1 00010L11 1 01500M11 1 29530N11 1 00000Q11 1 10253S11 1 00030V11 1 00000X11 1 35010
027872530094846198301022300C+41983-087900SAO  +0201ORD  V0203505N005752200059N0240005N1-00395-01285102585ADDAA101000095AG10999GD10995+9999999GD20995+9999999GD30995+9999999GF100005999999999999999999MA1102471100005MW1001EQDN01 00000JPWTH 1QNNE11 1 00099E11 1 00099E11 1 00099E11 1 00099G11U1 99999K11 1 00009L11 1 01500M11 1 29530N11 1 00000Q11 1 10258S11 1 00025V11 1 00000X11 1 35011
042772530094846198301030000C+41983-087900SY-SA+0201ORD  V0203305N005252200059N0240005N1-00445-01225102655ADDAA101000095AA206000091AG10000AY101999GD10995+9999999GD20995+9999999GD30995+9999999GF100005001001999999001991KA1999M+00061KA2999N-00611MA1102541100075MD1210151+9999MW1021REMSYN036333   10006 21061 555   1028  031026AWY007215 33?EQDQ01    003PRSWM1Q02  00003PRCP99N01 00000JPWTH 1QNNE11 1 00099E11 1 00099E11 1 00099E11 1 00099G11U1 99999K11 1 00010L11 1 01500M11 1 29550N11 1 00000Q11 1 10265S11 1 00024V11 1 00000X11 1 33010
027872530094846198301030100C+41983-087900SAO  +0201ORD  V0203505N005752200059N0240005N1-00565-01225102695ADDAA101000095AG10999GD10995+9999999GD20995+9999999GD30995+9999999GF100005999999999999999999MA1102571100105MW1001EQDN01 00000JPWTH 1QNNE11 1 00099E11 1 00099E11 1 00099E11 1 00099G11U1 99999K11 1 00010L11 1 01500M11 1 29560N11 1 00000Q11 1 10269S11 1 00022V11 1 00000X11 1 35011
027872530094846198301030200C+41983-087900SAO  +0201ORD  V0203305N005252200059N0240005N1-00565-01335102715ADDAA101000095AG10999GD10995+9999999GD20995+9999999GD30995+9999999GF100005999999999999999999MA1102611100145MW1001EQDN01 00000JPWTH 1QNNE11 1 00099E11 1 00099E11 1 00099E11 1 00099G11U1 99999K11 1 00008L11 1 01500M11 1 29570N11 1 00000Q11 1 10271S11 1 00022V11 1 00000X11 1 33010
030572530094846198301030300C+41983-087900SAO  +0201ORD  V0203205N003652200059N0240005N1-00675-01395102765ADDAA101000095AG10000GD10995+9999999GD20995+9999999GD30995+9999999GF100005999999999999999999MA1102641100175MD1210101+9999MW1001REMAWY004210?EQDN01 00000JPWTH 1QNNE11 1 00099E11 1 00099E11 1 00099E11 1 00099G11U1 99999K11 1 00007L11 1 01500M11 1 29580N11 1 00000Q11 1 10276S11 1 00020V11 1 00000X11 1 32007
027872530094846198301030400C+41983-087900SAO  +0201ORD  V0203105N002652200059N0240005N1-00725-01445102755ADDAA101000095AG10999GD10995+9999999GD20995+9999999GD30995+9999999GF100005999999999999999999MA1102641100175MW1001EQDN01 00000JPWTH 1QNNE11 1 00099E11 1 00099E11 1 00099E11 1 00099G11U1 99999K11 1 00006L11 1 01500M11 1 29580N11 1 00000Q11 1 10275S11 1 00019V11 1 00000X11 1 31005
027872530094846198301030500C+41983-087900SAO  +0201ORD  V0203105N002652200059N0240005N1-00785-01505102755ADDAA101000095AG10999GD10995+9999999GD20995+9999999GD30995+9999999GF100005999999999999999999MA1102641100175MW1001EQDN01 00000JPWTH 1QNNE11 1 00099E11 1 00099E11 1 00099E11 1 00099G11U1 99999K11 1 00005L11 1 01500M11 1 29580N11 1 00000Q11 1 10275S11 1 00018V11 1 00000X11 1 31005
040972530094846198301030600C+41983-087900SY-SA+0201ORD  V0203005N003152200059N0240005N1-00835-01505102755ADDAA101000095AA206000091AA324000091AG10000AY101999GD10995+9999999GD20995+9999999GD30995+9999999GF100005001001999999001991KA1999M+00061KA2999N-00831MA1102641100175MD1410001+9999MW1021REMSYN023333   10006 21083 70000AWY007400 33?EQDQ01    003PRSWM1N01 00000JPWTH 1QNNE11 1 00099E11 1 00099E11 1 00099E11 1 00099G11U1 99999K11 1 00005L11 1 01500M11 1 29580N11 1 00000Q11 1 10275S11 1 00017V11 1 00000X11 1 30006
027872530094846198301030700C+41983-087900SAO  +0201ORD  V0202705N002652200059N0240005N1-00895-01505102715ADDAA101000095AG10999GD10995+9999999GD20995+9999999GD30995+9999999GF100005999999999999999999MA1102611100145MW1001EQDN01 00000JPWTH 1QNNE11 1 00099E11 1 00099E11 1 00099E11 1 00099G11U1 99999K11 1 00005L11 1 01500M11 1 29570N11 1 00000Q11 1 10271S11 1 00016V11 1 00000X11 1 27005
029372530094846198301030800C+41983-087900SAO  +0201ORD  V0202805N003152200059N0240005N1-00945-01445102755ADDAA101000095AG10999GD10995+9999999GD20995+9999999GD30995+9999999GF100005999999999999999999MA1102641100175MW1001REMAWY00698459?EQDN01 00000JPWTH 1QNNE11 1 00099E11 1 00099E11 1 00099E11 1 00099G11U1 99999K11 1 00006L11 1 01500M11 1 29580N11 1 00000Q11 1 10275S11 1 00015V11 1 00000X11 1 28006
030572530094846198301030900C+41983-087900SAO  +0201ORD  V0202905N003152200059N0240005N1-00945-01445102785ADDAA101000095AG10000GD10995+9999999GD20995+9999999GD30995+9999999GF100005999999999999999999MA1102681100205MD1310031+9999MW1001REMAWY004303?EQDN01 00000JPWTH 1QNNE11 1 00099E11 1 00099E11 1 00099E11 1 00099G11U1 99999K11 1 00006L11 1 01500M11 1 29590N11 1 00000Q11 1 10278S11 1 00015V11 1 00000X11 1 29006
027872530094846198301031000C+41983-087900SAO  +0201ORD  V0202905N002652200059N0240005N1-01005-01505102765ADDAA101000095AG10999GD10995+9999999GD20995+9999999GD30995+9999999GF100005999999999999999999MA1102641100175MW1001EQDN01 00000JPWTH 1QNNE11 1 00099E11 1 00099E11 1 00099E11 1 00099G11U1 99999K11 1 00005L11 1 01500M11 1 29580N11 1 00000Q11 1 10276S11 1 00014V11 1 00000X11 1 29005
027872530094846198301031100C+41983-087900SAO  +0201ORD  V0202705N002652200059N0240005N1-01065-01505102775ADDAA101000095AG10999GD10995+9999999GD20995+9999999GD30995+9999999GF100005999999999999999999MA1102641100175MW1001EQDN01 00000JPWTH 1QNNE11 1 00099E11 1 00099E11 1 00099E11 1 00099G11U1 99999K11 1 00005L11 1 01500M11 1 29580N11 1 00000Q11 1 10277S11 1 00013V11 1 00000X11 1 27005
042772530094846198301031200C+41983-087900SY-SA+0201ORD  V0203105N002652200059N0240005N1-01115-01505102775ADDAA101000095AA206000091AG14000AY101999GD10995+9999999GD20995+9999999GD30995+9999999GF100005001001999999001991KA1999M+00061KA2999N-01111MA1102641100175MD1610031+9999MW1021REMSYN036333   10006 21111 555   1018  031018AWY007603 12?EQDQ01    003PRSWM1Q02  00003PRCP99N01 00000JPWTH 1QNNE11 1 00099E11 1 00099E11 1 00099E11 1 00099G11U1 99999K11 1 00005L11 1 01500M11 1 29580N11 1 00000Q11 1 10277S11 1 00012V11 1 00000X11 1 31005
028672530094846198301031300C+41983-087900SAO  +0201ORD  V0202805N002652200059N0240005N1-01115-01505102845ADDAA101000095GD10995+9999999GD20995+9999999GD30995+9999999GD40995+9999999GF100005999999999999999999MA1102711100245MW1001EQDN01 00000JPWTH 1QNNE11 1 00099E11 1 00099E11 1 00099E11 1 00099G11U1 99999K11 1 00005L11 1 01500M11 1 29600N11 1 00000Q11 1 10284S11 1 00012V11 1 00000X11 1 28005
027872530094846198301031400C+41983-087900SAO  +0201ORD  V0202905N002152200059N0240005N1-01115-01395102915ADDAA101000095AG10999GD10995+9999999GD20995+9999999GD30995+9999999GF100005999999999999999999MA1102781100305MW1001EQDN01 00000JPWTH 1QNNE11 1 00099E11 1 00099E11 1 00099E11 1 00099G11U1 99999K11 1 00007L11 1 01500M11 1 29620N11 1 00000Q11 1 10291S11 1 00012V11 1 00000X11 1 29004
030572530094846198301031500C+41983-087900SAO  +0201ORD  V0202805N002652200059N0240005N1-00895-01335103015ADDAA101000095AG10000GD10995+9999999GD20995+9999999GD30995+9999999GF100005999999999999999999MA1102881100415MD1210241+9999MW1001REMAWY004224?EQDN01 00000JPWTH 1QNNE11 1 00099E11 1 00099E11 1 00099E11 1 00099G11U1 99999K11 1 00008L11 1 01500M11 1 29650N11 1 00000Q11 1 10301S11 1 00016V11 1 00000X11 1 28005
029872530094846198301031600C+41983-087900SAO  +0201ORD  V0203105N003152200059N0240005N1-00725-01395103015ADDAA101000095AG10999GD10995+9999999GD20995+9999999GD30995+9999999GF100005999999999999999999MA1102881100415MW1001REMAWY011SC  DSNT W?EQDN01 00000JPWTH 1QNNE11 1 00099E11 1 00099E11 1 00099E11 1 00099G11U1 99999K11 1 00007L11 1 01500M11 1 29650N11 1 00000Q11 1 10301S11 1 00019V11 1 00000X11 1 31006
029472530094846198301031700C+41983-087900SAO  +0201ORD  V0202705N004652200059N0240005N1-00565-01225102965ADDAA101000095AG10999GD10995+9999999GD20995+9999999GD30995+9999999GF100005999999999999999999MA1102841100375MW1001REMAWY007SC W-N?EQDN01 00000JPWTH 1QNNE11 1 00099E11 1 00099E11 1 00099E11 1 00099G11U1 99999K11 1 00010L11 1 01500M11 1 29640N11 1 00000Q11 1 10296S11 1 00022V11 1 00000X11 1 27009
054472530094846198301031800C+41983-087900SY-SA+0201ORD  V0202805N004152200059N0240005N1-00445-01175102865ADDAA101000095AA206000091AG10000AY101999GA1999+004574064GA2999+999999999GA3999+999999999GA4999+999999999GD12015+0045099GD20005+9999999GD30005+9999999GD40005+9999999GF101015011051004501001991KA1999M-00441KA2999N-01111MA1102741100275MD1810141+9999MW1021REMSYN041333   11044 21111 90903 555   5036  60856AWY012814 1500 12?EQDQ01    003PRSWM1N01 00000JPWTH 1QNNE11 1 00201E11 1 00000E11 1 00000E11 1 00000G11U1 99999H11 1 15015H11 1 00999H11 1 00999H11 1 00999K11 1 00011L11 1 01500M11 1 29610N11 1 00000Q11 1 10286S11 1 00024V11 1 00101X11 1 28008
029372530094846198301031900C+41983-087900SAO  +0201ORD  V0202705N004152200059N0240005N1-00395-01065102795ADDAA101000095AG10999GD12995+0045099GD22995+0750099GD30995+9999999GD40995+9999999GF102025999999999999999999MA1102681100205MW1001EQDN01 00000JPWTH 1QNNE11 1 00299E11 1 00299E11 1 00099E11 1 00099G11U1 99999K11 1 00013L11 1 01500M11 1 29590N11 1 00000Q11 1 10279S11 1 00025V11 1 00202X11 1 27008
029472530094846198301032000C+41983-087900SAO  +0201ORD  V0202805N003652200059N0240005N1-00285-01065102765ADDAA101000095AG10999GD10995+9999999GD20995+9999999GD30995+9999999GF100005999999999999999999MA1102641100175MW1001REMAWY007FEW SC?EQDN01 00000JPWTH 1QNNE11 1 00099E11 1 00099E11 1 00099E11 1 00099G11U1 99999K11 1 00013L11 1 01500M11 1 29580N11 1 00000Q11 1 10276S11 1 00027V11 1 00000X11 1 28007
044572530094846198301032100C+41983-087900SAO  +0201ORD  V0202605N003652200059N0240005N1-00285-01005102765ADDAA101000095AG10000GA1999+007624064GA2999+076204004GA3999+999999999GA4999+999999999GD10005+9999999GD20005+9999999GD30005+9999999GF100005999999999999001991MA1102641100175MD1610101+9999MW1001REMAWY020FEW SC/CI/ 610 1501?EQDQ01    053SCOLCGN01 00000JPWTH 1QNNE11 1 00000E11 1 00000E11 1 00000E11 1 00000G11U1 99999H11 1 15025H11 1 32250H11 1 00999H11 1 00999K11 1 00014L11 1 01500M11 1 29580N11 1 00000Q11 1 10276S11 1 00027V11 1 00000X11 1 26007
029372530094846198301032200C+41983-087900SAO  +0201ORD  V0202505N003652200059N0240005N1-00335-01005102765ADDAA101000095AG10999GD12995+0075099GD20995+9999999GD30995+9999999GD40995+9999999GF101015999999999999999999MA1102641100175MW1001EQDN01 00000JPWTH 1QNNE11 1 00299E11 1 00099E11 1 00099E11 1 00099G11U1 99999K11 1 00014L11 1 01500M11 1 29580N11 1 00000Q11 1 10276S11 1 00026V11 1 00101X11 1 25007
029372530094846198301032300C+41983-087900SAO  +0201ORD  V0202505N003152200059N0240005N1-00505-01065102845ADDAA101000095AG10999GD12995+0075099GD22995+0240099GD32995+0750099GD40995+9999999GF102025999999999999999999MA1102711100245MW1001EQDN01 00000JPWTH 1QNNE11 1 00299E11 1 00299E11 1 00299E11 1 00099G11U1 99999K11 1 00013L11 1 01500M11 1 29600N11 1 00000Q11 1 10284S11 1 00023V11 1 00302X11 1 25006
055572530094846198301040000C+41983-087900SY-SA+0201ORD  V0202305N002652200059N0240005N1-00565-01005102845ADDAA101000095AA206000091AG10000AY101999GA1999+076204004GA2999+999999999GA3999+999999999GA4999+999999999GD12015+0750099GD20005+9999999GD30005+9999999GD40005+9999999GF101015001001999999001991KA1999M-00281KA2999N-01111MA1102711100245MD1110071+9999MW1021REMSYN036333   11028 21111 555   1026  028018AWY012107 1001 27?EQDQ01    003PRSWM1Q02  00003PRCP99N01 00000JPWTH 1QNNE11 1 00201E11 1 00000E11 1 00000E11 1 00000G11U1 99999H11 1 32250H11 1 00999H11 1 00999H11 1 00999K11 1 00014L11 1 01500M11 1 29600N11 1 00000Q11 1 10284S11 1 00022V11 1 00101X11 1 23005
027872530094846198301040100C+41983-087900SAO  +0201ORD  V0202105N002152200059N0240005N1-00615-01005102845ADDAA101000095AG10999GD10995+9999999GD20995+9999999GD30995+9999999GF100005999999999999999999MA1102711100245MW1001EQDN01 00000JPWTH 1QNNE11 1 00099E11 1 00099E11 1 00099E11 1 00099G11U1 99999K11 1 00014L11 1 01500M11 1 29600N11 1 00000Q11 1 10284S11 1 00021V11 1 00000X11 1 21004
027872530094846198301040200C+41983-087900SAO  +0201ORD  V0201905N002652200059N0192005N1-00725-01005102815ADDAA101000095AG10999GD10995+9999999GD20995+9999999GD30995+9999999GF100005999999999999999999MA1102681100205MW1001EQDN01 00000JPWTH 1QNNE11 1 00099E11 1 00099E11 1 00099E11 1 00099G11U1 99999K11 1 00014L11 1 01200M11 1 29590N11 1 00000Q11 1 10281S11 1 00019V11 1 00000X11 1 19005
030572530094846198301040300C+41983-087900SAO  +0201ORD  V0202105N003152200059N0192005N1-00725-01005102805ADDAA101000095AG10000GD10995+9999999GD20995+9999999GD30995+9999999GF100005999999999999999999MA1102681100175MD1610031+9999MW1001REMAWY004603?EQDN01 00000JPWTH 1QNNE11 1 00099E11 1 00099E11 1 00099E11 1 00099G11U1 99999K11 1 00014L11 1 01200M11 1 29580N11 1 00000Q11 1 10280S11 1 00019V11 1 00000X11 1 21006
027872530094846198301040400C+41983-087900SAO  +0201ORD  V0201805N002652200059N0192005N1-00785-01065102805ADDAA101000095AG10999GD10995+9999999GD20995+9999999GD30995+9999999GF100005999999999999999999MA1102681100205MW1001EQDN01 00000JPWTH 1QNNE11 1 00099E11 1 00099E11 1 00099E11 1 00099G11U1 99999K11 1 00013L11 1 01200M11 1 29590N11 1 00000Q11 1 10280S11 1 00018V11 1 00000X11 1 18005
027872530094846198301040500C+41983-087900SAO  +0201ORD  V0201705N003152200059N0160005N1-00785-01065102765ADDAA101000095AG10999GD10995+9999999GD20995+9999999GD30995+9999999GF100005999999999999999999MA1102641100175MW1001EQDN01 00000JPWTH 1QNNE11 1 00099E11 1 00099E11 1 00099E11 1 00099G11U1 99999K11 1 00013L11 1 01000M11 1 29580N11 1 00000Q11 1 10276S11 1 00018V11 1 00000X11 1 17006
040972530094846198301040600C+41983-087900SY-SA+0201ORD  V0201705N003652200059N0160005N1-00785-01005102695ADDAA101000095AA206000091AA324000091AG14000AY101999GD10995+9999999GD20995+9999999GD30995+9999999GF100005001001999999001991KA1999M-00281KA2999N-01111MA1102571100105MD1810101+9999MW1021REMSYN023333   11028 21111 70000AWY007810 27?EQDQ01    003PRSWM1N01 00000JPWTH 1QNNE11 1 00099E11 1 00099E11 1 00099E11 1 00099G11U1 99999K11 1 00014L11 1 01000M11 1 29560N11 1 00000Q11 1 10269S11 1 00018V11 1 00000X11 1 17007
027872530094846198301040700C+41983-087900SAO  +0201ORD  V0201705N003652200059N0160005N1-00785-01065102665ADDAA101000095AG10999GD10995+9999999GD20995+9999999GD30995+9999999GF100005999999999999999999MA1102541100075MW1001EQDN01 00000JPWTH 1QNNE11 1 00099E11 1 00099E11 1 00099E11 1 00099G11U1 99999K11 1 00013L11 1 01000M11 1 29550N11 1 00000Q11 1 10266S11 1 00018V11 1 00000X11 1 17007
029372530094846198301040800C+41983-087900SAO  +0201ORD  V0201805N004152200059N0160005N1-00785-01065102655ADDAA101000095AG10999GD10995+9999999GD20995+9999999GD30995+9999999GF100005999999999999999999MA1102541100075MW1001REMAWY00698500?EQDN01 00000JPWTH 1QNNE11 1 00099E11 1 00099E11 1 00099E11 1 00099G11U1 99999K11 1 00013L11 1 01000M11 1 29550N11 1 00000Q11 1 10265S11 1 00018V11 1 00000X11 1 18008
030572530094846198301040900C+41983-087900SAO  +0201ORD  V0201805N004652200059N0160005N1-00675-01005102685ADDAA101000095AG10000GD10995+9999999GD20995+9999999GD30995+9999999GF100005999999999999999999MA1102571100105MD1510001+9999MW1001REMAWY004500?EQDN01 00000JPWTH 1QNNE11 1 00099E11 1 00099E11 1 00099E11 1 00099G11U1 99999K11 1 00014L11 1 01000M11 1 29560N11 1 00000Q11 1 10268S11 1 00020V11 1 00000X11 1 18009
027872530094846198301041000C+41983-087900SAO  +0201ORD  V0201705N005752200059N0160005N1-00675-01005102655ADDAA101000095AG10999GD10995+9999999GD20995+9999999GD30995+9999999GF100005999999999999999999MA1102541100075MW1001EQDN01 00000JPWTH 1QNNE11 1 00099E11 1 00099E11 1 00099E11 1 00099G11U1 99999K11 1 00014L11 1 01000M11 1 29550N11 1 00000Q11 1 10265S11 1 00020V11 1 00000X11 1 17011
027872530094846198301041100C+41983-087900SAO  +0201ORD  V0201805N006252200059N0160005N1-00675-01005102555ADDAA101000095AG10999GD10995+9999999GD20995+9999999GD30995+9999999GF100005999999999999999999MA1102441100005MW1001EQDN01 00000JPWTH 1QNNE11 1 00099E11 1 00099E11 1 00099E11 1 00099G11U1 99999K11 1 00014L11 1 01000M11 1 29530N11 1 00000Q11 1 10255S11 1 00020V11 1 00000X11 1 18012
042772530094846198301041200C+41983-087900SY-SA+0201ORD  V0201905N005252200059N0160005N1-00785-01065102525ADDAA101000095AA206000091AG10000AY101999GD10995+9999999GD20995+9999999GD30995+9999999GF100005001001999999001991KA1999M-00281KA2999N-00781MA1102401099975MD1610151+9999MW1021REMSYN036333   11028 21078 555   1022  028022AWY007615 18?EQDQ01    003PRSWM1Q02  00003PRCP99N01 00000JPWTH 1QNNE11 1 00099E11 1 00099E11 1 00099E11 1 00099G11U1 99999K11 1 00013L11 1 01000M11 1 29520N11 1 00000Q11 1 10252S11 1 00018V11 1 00000X11 1 19010
027872530094846198301041300C+41983-087900SAO  +0201ORD  V0201905N005752200059N0144005N1-00785-01005102455ADDAA101000095AG10999GD10995+9999999GD20995+9999999GD30995+9999999GF100005999999999999999999MA1102341099905MW1001EQDN01 00000JPWTH 1QNNE11 1 00099E11 1 00099E11 1 00099E11 1 00099G11U1 99999K11 1 00014L11 1 00900M11 1 29500N11 1 00000Q11 1 10245S11 1 00018V11 1 00000X11 1 19011
027872530094846198301041400C+41983-087900SAO  +0201ORD  V0201805N005252200059N0192005N1-00565-00895102425ADDAA101000095AG10999GD10995+9999999GD20995+9999999GD30995+9999999GF100005999999999999999999MA1102301099865MW1001EQDN01 00000JPWTH 1QNNE11 1 00099E11 1 00099E11 1 00099E11 1 00099G11U1 99999K11 1 00016L11 1 01200M11 1 29490N11 1 00000Q11 1 10242S11 1 00022V11 1 00000X11 1 18010
030572530094846198301041500C+41983-087900SAO  +0201ORD  V0201805N007252200059N0192005N1-00395-00895102425ADDAA101000095AG10000GD10995+9999999GD20995+9999999GD30995+9999999GF100005999999999999999999MA1102301099865MD1610101+9999MW1001REMAWY004610?EQDN01 00000JPWTH 1QNNE11 1 00099E11 1 00099E11 1 00099E11 1 00099G11U1 99999K11 1 00016L11 1 01200M11 1 29490N11 1 00000Q11 1 10242S11 1 00025V11 1 00000X11 1 18014
027872530094846198301041600C+41983-087900SAO  +0201ORD  V0202005N007252200059N0192005N1-00175-00725102375ADDAA101000095AG10999GD10995+9999999GD20995+9999999GD30995+9999999GF100005999999999999999999MA1102271099835MW1001EQDN01 00000JPWTH 1QNNE11 1 00099E11 1 00099E11 1 00099E11 1 00099G11U1 99999K11 1 00019L11 1 01200M11 1 29480N11 1 00000Q11 1 10237S11 1 00029V11 1 00000X11 1 20014
029972530094846198301041700C+41983-087900SAO  +0201ORD  V0201805N007752200059N0240005N1+00115-00725102275ADDAA101000095AG10999GD10995+9999999GD20995+9999999GD30995+9999999GF100005999999999999999999MA1102171099735MW1001REMAWY012FEW CI W-NW?EQDN01 00000JPWTH 1QNNE11 1 00099E11 1 00099E11 1 00099E11 1 00099G11U1 99999K11 1 00019L11 1 01500M11 1 29450N11 1 00000Q11 1 10227S11 1 00034V11 1 00000X11 1 18015
053472530094846198301041800C+41983-087900SY-SA+0201ORD  V0201905N009352200059N0240005N1+00285-00615102095ADDAA101000095AA206000091AG14000AY101999GA1999+076204004GA2999+999999999GA3999+999999999GA4999+999999999GD11015+0750093GD20005+9999999GD30005+9999999GD40005+9999999GF101005001001999999001991KA1999M+00281KA2999N-00831MA1102001099565MD1810301+9999MW1021REMSYN023333   10028 21083 90903AWY020PRESFR/ 830 1001 17?EQDQ01    003PRSWM1N01 00000JPWTH 1QNNE11 1 00101E11 1 00000E11 1 00000E11 1 00000G11U1 99999H11 1 32250H11 1 00999H11 1 00999H11 1 00999K11 1 00021L11 1 01500M11 1 29400N11 1 00000Q11 1 10209S11 1 00037V11 1 00100X11 1 19018
029372530094846198301041900C+41983-087900SAO  +0201ORD  V0201905N010352200059N0240005N1+00395-00615101995ADDAA101000095AG10999GD13995+0750093GD20995+9999999GD30995+9999999GD40995+9999999GF106025999999999999999999MA1101901099465MW1001EQDN01 00000JPWTH 1QNNE11 1 00399E11 1 00099E11 1 00099E11 1 00099G11U1 99999K11 1 00021L11 1 01500M11 1 29370N11 1 00000Q11 1 10199S11 1 00039V11 1 00802X11 1 19020
031772530094846198301042000C+41983-087900SAO  +0201ORD  V0201905N00725076204EN0240005N1+00335-00505101995ADDAA101000095AG10999GD13995+0750099GD20995+9999999GD30995+9999999GD40995+9999999GF106055999999999999999999MA1101901099465MW1001OC101231REMAWY007FEW SC?EQDN01 00000JPWTH 1QNNE11 1 00499E11 1 00099E11 1 00099E11 1 00099G11 1 00250K11 1 00023L11 1 01500M11 1 29370N11 1 00000Q11 1 10199S11 1 00038V11 1 00806X11 1 19014
043372530094846198301042100C+41983-087900SAO  +0201ORD  V0202205N008250762049N0240005N1+00335-00445102025ADDAA101000095AG10000GA1999+006104064GA2999+076204004GA3999+999999999GA4999+999999999GD12015+0060099GD23065+0750099GD30005+9999999GD40005+9999999GF106045999051999999001991MA1101931099495MD1510071+9999MW1001REMAWY009507 1501?EQDN01 00000JPWTH 1QNNE11 1 00201E11 1 00408E11 1 00000E11 1 00000G11 1 00250H11 1 15020H11 1 32250H11 1 00999H11 1 00999K11 1 00024L11 1 01500M11 1 29380N11 1 00000Q11 1 10202S11 1 00038V11 1 00805X11 1 22016
029372530094846198301042200C+41983-087900SAO  +0201ORD  V0202105N00675076204EN0240005N1+00225-00445102065ADDAA101000095AG10999GD13995+0750099GD20995+9999999GD30995+9999999GD40995+9999999GF107065999999999999999999MA1101961099535MW1001EQDN01 00000JPWTH 1QNNE11 1 00499E11 1 00099E11 1 00099E11 1 00099G11 1 00250K11 1 00024L11 1 01500M11 1 29390N11 1 00000Q11 1 10206S11 1 00036V11 1 00907X11 1 21013
029372530094846198301042300C+41983-087900SAO  +0201ORD  V0202205N00675033534EN0240005N1+00225-00395102095ADDAA101000095AG10999GD13995+0330099GD24995+0750099GD30995+9999999GD40995+9999999GF108085999999999999999999MA1102001099565MW1001EQDN01 00000JPWTH 1QNNE11 1 00499E11 1 00699E11 1 00099E11 1 00099G11 1 00110K11 1 00025L11 1 01500M11 1 29400N11 1 00000Q11 1 10209S11 1 00036V11 1 01010X11 1 22013
050172530094846198301050000C+41983-087900SY-SA+0201ORD  V0202205N00625007624MN0240005N1+00225-00395102095ADDAA101000095AA206000091AG10000AY101999GA1999+007624064GA2999+033534034GD13065+0075099GD24025+0330099GD30995+9999999GD40995+9999999GF108085061051008001071999KA1999M+00391KA2999N-00831MA1102001099565MD1110071+9999MW1021REMSYN036333   10039 21083 555   1036  040022AWY012107 157/ 39?EQDQ01    003PRSWM1Q02  00003PRCP99N01 00000JPWTH 1QNNE11 1 00407E11 1 00603E11 1 00099E11 1 00099G11 1 00025H11 1 15025H11 1 23110K11 1 00025L11 1 01500M11 1 29400N11 1 00000Q11 1 10209S11 1 00036V11 1 01010X11 1 22012
029372530094846198301050100C+41983-087900SAO  +0201ORD  V0202205N005250335349N0240005N1+00225-00395102135ADDAA101000095AG10999GD12995+0090099GD24995+0330099GD30995+9999999GD40995+9999999GF108085999999999999999999MA1102031099595MW1001EQDN01 00000JPWTH 1QNNE11 1 00299E11 1 00699E11 1 00099E11 1 00099G11 1 00110K11 1 00025L11 1 01500M11 1 29410N11 1 00000Q11 1 10213S11 1 00036V11 1 01010X11 1 22010
029372530094846198301050200C+41983-087900SAO  +0201ORD  V0202605N004650274349N0240005N1+00115-00395102165ADDAA101000095AG10999GD12995+0075099GD24995+0270099GD30995+9999999GD40995+9999999GF108085999999999999999999MA1102071099635MW1001EQDN01 00000JPWTH 1QNNE11 1 00299E11 1 00699E11 1 00099E11 1 00099G11 1 00090K11 1 00025L11 1 01500M11 1 29420N11 1 00000Q11 1 10216S11 1 00034V11 1 01010X11 1 26009
035272530094846198301050300C+41983-087900SAO  +0201ORD  V0202505N00415024384EN0240005N1+00065-00445102165ADDAA101000095AG10000GA1999+024384034GD14085+0240099GD20995+9999999GD30995+9999999GD40995+9999999GF108085999001999999071999MA1102071099635MD1110071+9999MW1001REMAWY009107 107/?EQDN01 00000JPWTH 1QNNE11 1 00610E11 1 00099E11 1 00099E11 1 00099G11 1 00080H11 1 23080K11 1 00024L11 1 01500M11 1 29420N11 1 00000Q11 1 10216S11 1 00033V11 1 01010X11 1 25008
029372530094846198301050400C+41983-087900SAO  +0201ORD  V0202305N00315024384EN0128005N1+00005-00395102155ADDAA101000095AG10999GD14995+0240099GD20995+9999999GD30995+9999999GD40995+9999999GF108085999999999999999999MA1102071099635MW1001EQDN01 00000JPWTH 1QNNE11 1 00699E11 1 00099E11 1 00099E11 1 00099G11 1 00080K11 1 00025L11 1 00800M11 1 29420N11 1 00000Q11 1 10215S11 1 00032V11 1 01010X11 1 23006
029372530094846198301050500C+41983-087900SAO  +0201ORD  V0202405N004150243849N0112005N1+00005-00395102115ADDAA101000095AG10999GD12995+0036099GD24995+0240099GD30995+9999999GD40995+9999999GF108085999999999999999999MA1102031099595MW1001EQDN01 00000JPWTH 1QNNE11 1 00299E11 1 00699E11 1 00099E11 1 00099G11 1 00080K11 1 00025L11 1 00700M11 1 29410N11 1 00000Q11 1 10211S11 1 00032V11 1 01010X11 1 24008
045672530094846198301050600C+41983-087900SY-SA+0201ORD  V0202305N00525003054MN0112005N1+00005-00395102075ADDAA101000095AA206000091AA324000091AG10000AY101999GA1999+003054064GD14085+0030099GD20995+9999999GD30995+9999999GD40995+9999999GF108085081051004501999999KA1999M+00391KA2999N-00831MA1102001099565MD1810071+9999MW1021REMSYN023333   10039 21083 70000AWY012807 15// 39?EQDQ01    003PRSWM1N01 00000JPWTH 1QNNE11 1 00610E11 1 00099E11 1 00099E11 1 00099G11 1 00010H11 1 15010K11 1 00025L11 1 00700M11 1 29400N11 1 00000Q11 1 10207S11 1 00032V11 1 01010X11 1 23010
029372530094846198301050700C+41983-087900SAO  +0201ORD  V0202405N00525003054MN0112005N1+00005-00395102045ADDAA101000095AG10999GD14995+0030099GD20995+9999999GD30995+9999999GD40995+9999999GF108085999999999999999999MA1101961099535MW1001EQDN01 00000JPWTH 1QNNE11 1 00699E11 1 00099E11 1 00099E11 1 00099G11 1 00010K11 1 00025L11 1 00700M11 1 29390N11 1 00000Q11 1 10204S11 1 00032V11 1 01010X11 1 24010
030872530094846198301050800C+41983-087900SAO  +0201ORD  V0202405N00525003054MN0112005N1-00065-00395102075ADDAA101000095AG10999GD14995+0030099GD20995+9999999GD30995+9999999GD40995+9999999GF108085999999999999999999MA1102001099565MW1001REMAWY00698458?EQDN01 00000JPWTH 1QNNE11 1 00699E11 1 00099E11 1 00099E11 1 00099G11 1 00010K11 1 00025L11 1 00700M11 1 29400N11 1 00000Q11 1 10207S11 1 00031V11 1 01010X11 1 24010
035272530094846198301050900C+41983-087900SAO  +0201ORD  V0202305N00315003354MN0096005N1-00065-00445102075ADDAA101000095AG10000GA1999+003354064GD14085+0033099GD20995+9999999GD30995+9999999GD40995+9999999GF108085999051999999999999MA1102001099565MD1510001+9999MW1055REMAWY009500 15//?EQDN01 08100JPWTH 1QNNE11 1 00610E11 1 00099E11 1 00099E11 1 00099G11 1 00011H11 1 15011K11 1 00024L11 1 00600M11 1 29400N11 1 08100Q11 1 10207S11 1 00031V11 1 01010X11 1 23006
029372530094846198301051000C+41983-087900SAO  +0201ORD  V0202605N00365003054MN0096005N1-00065-00395102075ADDAA101000095AG10999GD14995+0030099GD20995+9999999GD30995+9999999GD40995+9999999GF108085999999999999999999MA1102001099565MW1055EQDN01 08100JPWTH 1QNNE11 1 00699E11 1 00099E11 1 00099E11 1 00099G11 1 00010K11 1 00025L11 1 00600M11 1 29400N11 1 08100Q11 1 10207S11 1 00031V11 1 01010X11 1 26007
029372530094846198301051100C+41983-087900SAO  +0201ORD  V0202705N00415002444MN0096005N1-00115-00395102115ADDAA101000095AG10999GD14995+0024099GD20995+9999999GD30995+9999999GD40995+9999999GF108085999999999999999999MA1102031099595MW1055EQDN01 08100JPWTH 1QNNE11 1 00699E11 1 00099E11 1 00099E11 1 00099G11 1 00008K11 1 00025L11 1 00600M11 1 29410N11 1 08100Q11 1 10211S11 1 00030V11 1 01010X11 1 27008
045872530094846198301051200C+41983-087900SY-SA+0201ORD  V0202905N00525002134MN0096005N1-00115-00395102145ADDAA101000095AA206000091AG14000AY121999GA1999+002134074GD14085+0021099GD20995+9999999GD30995+9999999GD40995+9999999GF108085081061002501999999KA1999M+00391KA2999N-00111MA1102071099635MD1310071+9999MW1055REMSYN036333   10039 21011 555   1030  040030AWY012307 16// 30?EQDQ01  00003PRCP99N01 08100JPWTH 1QNNE11 1 00610E11 1 00099E11 1 00099E11 1 00099G11 1 00007H11 1 16007K11 1 00025L11 1 00600M11 1 29420N11 1 08100Q11 1 10214S11 1 00030V11 1 01010X11 1 29010
029372530094846198301051300C+41983-087900SAO  +0201ORD  V0202505N00365001834MN0096005N1-00115-00395102175ADDAA101000095AG10999GD14995+0018099GD20995+9999999GD30995+9999999GD40995+9999999GF108085999999999999999999MA1102101099665MW1055EQDN01 08100JPWTH 1QNNE11 1 00699E11 1 00099E11 1 00099E11 1 00099G11 1 00006K11 1 00025L11 1 00600M11 1 29430N11 1 08100Q11 1 10217S11 1 00030V11 1 01010X11 1 25007
029972530094846198301051400C+41983-087900SAO  +0201ORD  V0202405N00365001524MN0048005N1-00175-00395102225ADDAA101000095AG10999GD14995+0015099GD20995+9999999GD30995+9999999GD40995+9999999GF108085999999999999999999MA1102131099705MW1055MW2455EQDN01 07081JPWTH 1QNNE11 1 00699E11 1 00099E11 1 00099E11 1 00099G11 1 00005K11 1 00025L11 1 00300M11 1 29440N11 1 07081Q11 1 10222S11 1 00029V11 1 01010X11 1 24007
035872530094846198301051500C+41983-087900SAO  +0201ORD  V0202705N00265001524MN0032005N1-00225-00395102255ADDAA101000095AG10000GA1999+001524074GD14085+0015099GD20995+9999999GD30995+9999999GD40995+9999999GF108085999061999999999999MA1102171099735MD1210101+9999MW1055MW2455REMAWY009210 16//?EQDN01 07081JPWTH 1QNNE11 1 00610E11 1 00099E11 1 00099E11 1 00099G11 1 00005H11 1 16005K11 1 00025L11 1 00200M11 1 29450N11 1 07081Q11 1 10225S11 1 00028V11 1 01010X11 1 27005
029972530094846198301051600C+41983-087900SAO  +0201ORD  V0202405N00415001524MN0032005N1-00225-00395102295ADDAA101000095AG10999GD14995+0015099GD20995+9999999GD30995+9999999GD40995+9999999GF108085999999999999999999MA1102201099765MW1055MW2455EQDN01 07081JPWTH 1QNNE11 1 00699E11 1 00099E11 1 00099E11 1 00099G11 1 00005K11 1 00025L11 1 00200M11 1 29460N11 1 07081Q11 1 10229S11 1 00028V11 1 01010X11 1 24008
029972530094846198301051700C+41983-087900SAO  +0201ORD  V0202505N00315001524MN0032005N1-00225-00395102255ADDAA101000095AG10999GD14995+0015099GD20995+9999999GD30995+9999999GD40995+9999999GF108085999999999999999999MA1102171099735MW1055MW2455EQDN01 07081JPWTH 1QNNE11 1 00699E11 1 00099E11 1 00099E11 1 00099G11 1 00005K11 1 00025L11 1 00200M11 1 29450N11 1 07081Q11 1 10225S11 1 00028V11 1 01010X11 1 25006
039572530094846198301051800C+41983-087900SAO  +0201ORD  V0202305N00265001834MN0048005N1-00175-00395102225ADDAA101000095AA206000091AG10000GA1999+001834074GD14085+0018099GD20995+9999999GD30995+9999999GD40995+9999999GF108085999061999999999999KA1999N-00231MA1102131099705MD1810031+9999MW1055REMAWY012803 16// 28?EQDQ01  00003PRCP99N01 08100JPWTH 1QNNE11 1 00610E11 1 00099E11 1 00099E11 1 00099G11 1 00006H11 1 16006K11 1 00025L11 1 00300M11 1 29440N11 1 08100Q11 1 10222S11 1 00029V11 1 01010X11 1 23005
029372530094846198301051900C+41983-087900SAO  +0201ORD  V0202505N00365001834MN0048005N1-00115-00335102155ADDAA101000095AG10999GD14995+0018099GD20995+9999999GD30995+9999999GD40995+9999999GF108085999999999999999999MA1102071099635MW1055EQDN01 08100JPWTH 1QNNE11 1 00699E11 1 00099E11 1 00099E11 1 00099G11 1 00006K11 1 00026L11 1 00300M11 1 29420N11 1 08100Q11 1 10215S11 1 00030V11 1 01010X11 1 25007
029372530094846198301052000C+41983-087900SAO  +0201ORD  V0202405N00365001524MN0048005N1-00115-00395102085ADDAA101000095AG10999GD14995+0015099GD20995+9999999GD30995+9999999GD40995+9999999GF108085999999999999999999MA1102001099565MW1055EQDN01 08100JPWTH 1QNNE11 1 00699E11 1 00099E11 1 00099E11 1 00099G11 1 00005K11 1 00025L11 1 00300M11 1 29400N11 1 08100Q11 1 10208S11 1 00030V11 1 01010X11 1 24007
032072530094846198301052100C+41983-087900SAO  +0201ORD  V0202205N00315002134MN0048005N1-00175-00225102085ADDAA101000095AG10000GA1999+002134074GD14085+0021099GD20995+9999999GD30995+9999999GD40995+9999999GF108085999999999999999999MA1102001099565MW1455EQDN01 07000JPWTH 1QNNE11 1 00610E11 1 00099E11 1 00099E11 1 00099G11 1 00007H11 1 16007K11 1 00028L11 1 00300M11 1 29400N11 1 07000Q11 1 10208S11 1 00029V11 1 01010X11 1 22006
029372530094846198301052200C+41983-087900SAO  +0201ORD  V0202605N00265002134MN0048005N1-00175-00285102125ADDAA101000095AG10999GD14995+0021099GD20995+9999999GD30995+9999999GD40995+9999999GF108085999999999999999999MA1102031099595MW1455EQDN01 07000JPWTH 1QNNE11 1 00699E11 1 00099E11 1 00099E11 1 00099G11 1 00007K11 1 00027L11 1 00300M11 1 29410N11 1 07000Q11 1 10212S11 1 00029V11 1 01010X11 1 26005
029372530094846198301052300C+41983-087900SAO  +0201ORD  V0202605N00365002134MN0048005N1-00225-00335102165ADDAA101000095AG10999GD14995+0021099GD20995+9999999GD30995+9999999GD40995+9999999GF108085999999999999999999MA1102071099635MW1455EQDN01 07000JPWTH 1QNNE11 1 00699E11 1 00099E11 1 00099E11 1 00099G11 1 00007K11 1 00026L11 1 00300M11 1 29420N11 1 07000Q11 1 10216S11 1 00028V11 1 01010X11 1 26007
046172530094846198301060000C+41983-087900SY-SA+0201ORD  V0202305N00315002134MN0048005N1-00285-00395102165ADDAA101000095AA206000091AG10000AY121999GA1999+002134074GD14085+0021099GD20995+9999999GD30995+9999999GD40995+9999999GF108085081061002501999999KA1999M-00111KA2999N-00281MA1102071099635MD1110071+9999MW1101MW2455REMSYN036333   11011 21028 555   1030  031030AWY009107 16//?EQDQ01  00003PRCP99N01 07000JPWTH 1QNNE11 1 00610E11 1 00099E11 1 00099E11 1 00099G11 1 00007H11 1 16007K11 1 00025L11 1 00300M11 1 29420N11 1 07000Q11 1 10216S11 1 00027V11 1 01010X11 1 23006
031372530094846198301060100C+41983-087900SAO  +0201ORD  V0202705N00415002134MN0048005N1-00285-00395102195ADDAA101000095AG10999GD14995+0021099GD20995+9999999GD30995+9999999GD40995+9999999GF108085999999999999999999MA1102101099665MW1455MW2715REMAWY005SB05?EQDN01 04070JPWTH 1QNNE11 1 00699E11 1 00099E11 1 00099E11 1 00099G11 1 00007K11 1 00025L11 1 00300M11 1 29430N11 1 04070Q11 1 10219S11 1 00027V11 1 01010X11 1 27008
029972530094846198301060200C+41983-087900SAO  +0201ORD  V0202305N00415002134MN0048005N1-00285-00395102135ADDAA101000095AG10999GD14995+0021099GD20995+9999999GD30995+9999999GD40995+9999999GF108085999999999999999999MA1102031099595MW1455MW2715EQDN01 04070JPWTH 1QNNE11 1 00699E11 1 00099E11 1 00099E11 1 00099G11 1 00007K11 1 00025L11 1 00300M11 1 29410N11 1 04070Q11 1 10213S11 1 00027V11 1 01010X11 1 23008
036972530094846198301060300C+41983-087900SAO  +0201ORD  V0202205N00465001524MN0048005N1-00225-00395102095ADDAA101000095AG10001GA1999+001524134GD14085+0015091GD20995+9999999GD30995+9999999GD40995+9999999GF108085999071999999999999MA1102001099565MD1810071+9999MW1455MW2715REMAWY020CIG 4V6/ 80700 17//?EQDN01 04070JPWTH 1QNNE11 1 00610E11 1 00099E11 1 00099E11 1 00099G11 1 00005H11 1 13005K11 1 00025L11 1 00300M11 1 29400N11 1 04070Q11 1 10209S11 1 00028V11 1 01010X11 1 22009
029972530094846198301060400C+41983-087900SAO  +0201ORD  V0202305N00315001224MN0048005N1-00225-00395102095ADDAA101000095AG10999GD14995+0012099GD20995+9999999GD30995+9999999GD40995+9999999GF108085999999999999999999MA1102001099565MW1455MW2715EQDN01 04070JPWTH 1QNNE11 1 00699E11 1 00099E11 1 00099E11 1 00099G11 1 00004K11 1 00025L11 1 00300M11 1 29400N11 1 04070Q11 1 10209S11 1 00028V11 1 01010X11 1 23006
029972530094846198301060500C+41983-087900SAO  +0201ORD  V0202005N00415001224MN0048005N1-00225-00395102025ADDAA101000095AG10999GD14995+0012099GD20995+9999999GD30995+9999999GD40995+9999999GF108085999999999999999999MA1101931099495MW1455MW2715EQDN01 04070JPWTH 1QNNE11 1 00699E11 1 00099E11 1 00099E11 1 00099G11 1 00004K11 1 00025L11 1 00300M11 1 29380N11 1 04070Q11 1 10202S11 1 00028V11 1 01010X11 1 20008
046072530094846198301060600C+41983-087900SY-SA+0201ORD  V0202205N00525001224MN0048005N1-00285-00395101995ADDAA101000095AA206999929AA324999929AG10001AY171999GA1999+001224134GD14085+0012099GD20995+9999999GD30995+9999999GD40995+9999999GF108085081071001501999999KA1999M+00001KA2999N-00331MA1101901099465MD1810101+9999MW1221MW2455REMSYN029333   10000 21033 79999 90562AWY020SE01/ 81000 17// 32?EQDN01 07000JPWTH 1QNNE11 1 00610E11 1 00099E11 1 00099E11 1 00099G11 1 00004H11 1 13004K11 1 00025L11 1 00300M11 1 29370N11 1 07000Q11 1 10199S11 1 00027V11 1 01010X11 1 22010
029372530094846198301060700C+41983-087900SAO  +0201ORD  V0202305N00365001224MN0048005N1-00225-00395101925ADDAA101000095AG10999GD14995+0012099GD20995+9999999GD30995+9999999GD40995+9999999GF108085999999999999999999MA1101831099395MW1455EQDN01 07000JPWTH 1QNNE11 1 00699E11 1 00099E11 1 00099E11 1 00099G11 1 00004K11 1 00025L11 1 00300M11 1 29350N11 1 07000Q11 1 10192S11 1 00028V11 1 01010X11 1 23007
030872530094846198301060800C+41983-087900SAO  +0201ORD  V0202205N00625001224MN0048005N1-00285-00395101895ADDAA101000095AG10999GD14995+0012099GD20995+9999999GD30995+9999999GD40995+9999999GF108085999999999999999999MA1101801099365MW1455REMAWY00698000?EQDN01 07000JPWTH 1QNNE11 1 00699E11 1 00099E11 1 00099E11 1 00099G11 1 00004K11 1 00025L11 1 00300M11 1 29340N11 1 07000Q11 1 10189S11 1 00027V11 1 01010X11 1 22012
035272530094846198301060900C+41983-087900SAO  +0201ORD  V0202105N00575001224MN0048005N1-00225-00395101825ADDAA101000095AG10000GA1999+001224074GD14085+0012099GD20995+9999999GD30995+9999999GD40995+9999999GF108085999061999999999999MA1101731099295MD1710171+9999MW1455REMAWY009717 16//?EQDN01 07000JPWTH 1QNNE11 1 00610E11 1 00099E11 1 00099E11 1 00099G11 1 00004H11 1 16004K11 1 00025L11 1 00300M11 1 29320N11 1 07000Q11 1 10182S11 1 00028V11 1 01010X11 1 21011
029372530094846198301061000C+41983-087900SAO  +0201ORD  V0202005N00575001224MN0048005N1-00285-00395101795ADDAA101000095AG10999GD14995+0012099GD20995+9999999GD30995+9999999GD40995+9999999GF108085999999999999999999MA1101691099265MW1455EQDN01 07000JPWTH 1QNNE11 1 00699E11 1 00099E11 1 00099E11 1 00099G11 1 00004K11 1 00025L11 1 00300M11 1 29310N11 1 07000Q11 1 10179S11 1 00027V11 1 01010X11 1 20011
029372530094846198301061100C+41983-087900SAO  +0201ORD  V0201905N00725000914MN0048005N1-00285-00395101725ADDAA101000095AG10999GD14995+0009099GD20995+9999999GD30995+9999999GD40995+9999999GF108085999999999999999999MA1101631099195MW1455EQDN01 07000JPWTH 1QNNE11 1 00699E11 1 00099E11 1 00099E11 1 00099G11 1 00003K11 1 00025L11 1 00300M11 1 29290N11 1 07000Q11 1 10172S11 1 00027V11 1 01010X11 1 19014
046472530094846198301061200C+41983-087900SY-SA+0201ORD  V0201805N00625000914MN0048005N1-00285-00395101685ADDAA101000095AA206000091AG14000AY121999GA1999+000914074GD14085+0009099GD20995+9999999GD30995+9999999GD40995+9999999GF108085081061001501999999KA1999M+00001KA2999N-00331MA1101591099155MD1710121+9999MW1101MW2455REMSYN036333   10000 21033 555   1028  032028AWY012712 16// 26?EQDQ01  00003PRCP99N01 07000JPWTH 1QNNE11 1 00610E11 1 00099E11 1 00099E11 1 00099G11 1 00003H11 1 16003K11 1 00025L11 1 00300M11 1 29280N11 1 07000Q11 1 10168S11 1 00027V11 1 01010X11 1 18012
029372530094846198301061300C+41983-087900SAO  +0201ORD  V0202005N00625001224MN0048005N1-00285-00395101625ADDAA101000095AG10999GD14995+0012099GD20995+9999999GD30995+9999999GD40995+9999999GF108085999999999999999999MA1101521099095MW1455EQDN01 07000JPWTH 1QNNE11 1 00699E11 1 00099E11 1 00099E11 1 00099G11 1 00004K11 1 00025L11 1 00300M11 1 29260N11 1 07000Q11 1 10162S11 1 00027V11 1 01010X11 1 20012
031072530094846198301061400C+41983-087900SAO  +0201ORD  V0201805N00625001524MN0048005N1-00225-00395101485ADDAA101000095AG10999GD14995+0015091GD20995+9999999GD30995+9999999GD40995+9999999GF108085999999999999999999MA1101391098955MW1455REMAWY008CIG 4V6?EQDN01 07000JPWTH 1QNNE11 1 00699E11 1 00099E11 1 00099E11 1 00099G11 1 00005K11 1 00025L11 1 00300M11 1 29220N11 1 07000Q11 1 10148S11 1 00028V11 1 01010X11 1 18012
036072530094846198301061500C+41983-087900SAO  +0201ORD  V0201805N00725001834MN0048005N1-00225-00395101445ADDAA101000095AG10000GA1999+001834074GD14085+0018091GD20995+9999999GD30995+9999999GD40995+9999999GF108085999061999999999999MA1101351098925MD1610241+9999MW1455REMAWY017CIG5V7/ 624 16//?EQDN01 07000JPWTH 1QNNE11 1 00610E11 1 00099E11 1 00099E11 1 00099G11 1 00006H11 1 16006K11 1 00025L11 1 00300M11 1 29210N11 1 07000Q11 1 10144S11 1 00028V11 1 01010X11 1 18014
029372530094846198301061600C+41983-087900SAO  +0201ORD  V0201905N00675002134MN0048005N1-00175-00395101445ADDAA101000095AG10999GD14995+0021099GD20995+9999999GD30995+9999999GD40995+9999999GF108085999999999999999999MA1101351098925MW1455EQDN01 07000JPWTH 1QNNE11 1 00699E11 1 00099E11 1 00099E11 1 00099G11 1 00007K11 1 00025L11 1 00300M11 1 29210N11 1 07000Q11 1 10144S11 1 00029V11 1 01010X11 1 19013
032772530094846198301061700C+41983-087900SAO  +0201ORD  V0201805N00825002134MN0064005N1-00175-00395101245ADDAA101000095AG10999GD14995+0021099GD20995+9999999GD30995+9999999GD40995+9999999GF108085999999999999999999MA1101151098715MW1455MW2615REMAWY019RB41PRESFR       ??EQDN01 02070JPWTH 1QNNE11 1 00699E11 1 00099E11 1 00099E11 1 00099G11 1 00007K11 1 00025L11 1 00400M11 1 29150N11 1 02070Q11 1 10124S11 1 00029V11 1 01010X11 1 18016
048372530094846198301061800C+41983-087900SY-SA+0201ORD  V0201605N00725002134MN0048005N1-00065-00285100935ADDAA101000095AA206999929AG10001AY161999GA1999+002134134GD14085+0021099GD20995+9999999GD30995+9999999GD40995+9999999GF108085081071002501999999KA1999M-00061KA2999N-00331MA1100851098415MD1810511+9999MW1241MW2455REMSYN035333   11006 21033 90510 90700 90903AWY048RE1658ZLB1658E30 PRESFR/     ?    85100 17// 26?EQDN01 07000JPWTH 1QNNE11 1 00610E11 1 00099E11 1 00099E11 1 00099G11 1 00007H11 1 13007K11 1 00027L11 1 00300M11 1 29060N11 1 07000Q11 1 10093S11 1 00031V11 1 01010X11 1 16014
030972530094846198301061900C+41983-087900SAO  +0201ORD  V0201605N00885002134MN0048005N1+00005-00225100555ADDAA101000095AG10999GD14995+0021099GD20995+9999999GD30995+9999999GD40995+9999999GF108085999999999999999999MA1100471098075MW1455REMAWY007PRESFR?EQDN01 07000JPWTH 1QNNE11 1 00699E11 1 00099E11 1 00099E11 1 00099G11 1 00007K11 1 00028L11 1 00300M11 1 28960N11 1 07000Q11 1 10055S11 1 00032V11 1 01010X11 1 16017
029972530094846198301062000C+41983-087900SAO  +0201ORD  V0201605N01035002444MN0048005N1+00115-00175100415ADDAA101000095AG10999GD14995+0024099GD20995+9999999GD30995+9999999GD40995+9999999GF108085999999999999999999MA1100341097935MW1055MW2455EQDN01 07081JPWTH 1QNNE11 1 00699E11 1 00099E11 1 00099E11 1 00099G11 1 00008K11 1 00029L11 1 00300M11 1 28920N11 1 07081Q11 1 10041S11 1 00034V11 1 01010X11 1 16020
035272530094846198301062100C+41983-087900SAO  +0201ORD  V0201805N00935004574MN0080005N1+00285-00115100205ADDAA101000095AG10000GA1999+004574064GD14085+0045099GD20995+9999999GD30995+9999999GD40995+9999999GF108085999051999999999999MA1100141097735MD1810691+9999MW1055REMAWY009869 15//?EQDN01 08100JPWTH 1QNNE11 1 00610E11 1 00099E11 1 00099E11 1 00099G11 1 00015H11 1 15015K11 1 00030L11 1 00500M11 1 28860N11 1 08100Q11 1 10020S11 1 00037V11 1 01010X11 1 18018
029372530094846198301062200C+41983-087900SAO  +0201ORD  V0202105N00775005184MN0128005N1+00285-00115100185ADDAA101000095AG10999GD13995+0051099GD24995+0069099GD30995+9999999GD40995+9999999GF108085999999999999999999MA1100101097705MW1001EQDN01 00000JPWTH 1QNNE11 1 00499E11 1 00699E11 1 00099E11 1 00099G11 1 00017K11 1 00030L11 1 00800M11 1 28850N11 1 00000Q11 1 10018S11 1 00037V11 1 01010X11 1 21015
030172530094846198301062300C+41983-087900SAO  +0201ORD  V0202205N00725007014MN0128005N1+00395-00065100065ADDAA101000095AG10999GD14995+0069099GD20995+9999999GD30995+9999999GD40995+9999999GF108085999999999999999999MA1100001097605MW1001OC101081EQDN01 00000JPWTH 1QNNE11 1 00699E11 1 00099E11 1 00099E11 1 00099G11 1 00023K11 1 00031L11 1 00800M11 1 28820N11 1 00000Q11 1 10006S11 1 00039V11 1 01010X11 1 22014
049072530094846198301070000C+41983-087900SY-SA+0201ORD  V0202205N00725007624MN0144005N1+00395-00115100065ADDAA101000095AA206000091AG10000AY101999GA1999+007624064GD14085+0075099GD20995+9999999GD30995+9999999GD40995+9999999GF108085081051008001999999KA1999M+00391KA2999N-00281MA1100001097605MD1610141+9999MW1021REMSYN036333   10039 21028 555   1041  041028AWY012614 15// 39?EQDQ01+097583APOSP Q02    003PRSWM1Q03  00003PRCP99N01 00000JPWTH 1QNNE11 1 00610E11 1 00099E11 1 00099E11 1 00099G11 1 00025H11 1 15025K11 1 00030L11 1 00900M11 1 28820N11 1 00000Q11 1 10006S11 1 00039V11 1 01010X11 1 22014
029372530094846198301070100C+41983-087900SAO  +0201ORD  V0202305N00935006404MN0160005N1+00445-00065100065ADDAA101000095AG10999GD14995+0063099GD20995+9999999GD30995+9999999GD40995+9999999GF108085999999999999999999MA1100001097605MW1001EQDN01 00000JPWTH 1QNNE11 1 00699E11 1 00099E11 1 00099E11 1 00099G11 1 00021K11 1 00031L11 1 01000M11 1 28820N11 1 00000Q11 1 10006S11 1 00040V11 1 01010X11 1 23018
030772530094846198301070200C+41983-087900SAO  +0201ORD  V0202405N00825006404MN0144005N1+00395+00115100105ADDAA101000095AG10999GD14995+0063099GD20995+9999999GD30995+9999999GD40995+9999999GF108085999999999999999999MA1100031097635MW1615REMAWY005RB13?EQDN01 02000JPWTH 1QNNE11 1 00699E11 1 00099E11 1 00099E11 1 00099G11 1 00021K11 1 00034L11 1 00900M11 1 28830N11 1 02000Q11 1 10010S11 1 00039V11 1 01010X11 1 24016
036072530094846198301070300C+41983-087900SAO  +0201ORD  V0202405N00575005794MN0080005N1+00395+00115100105ADDAA101000095AG10000GA1999+005794064GD14085+0057099GD20995+9999999GD30995+9999999GD40995+9999999GF108085999051999999999999MA1100031097635MD1110031+9999MW1455MW2515REMAWY01110300 15//?EQDN01 03370JPWTH 1QNNE11 1 00610E11 1 00099E11 1 00099E11 1 00099G11 1 00019H11 1 15019K11 1 00034L11 1 00500M11 1 28830N11 1 03370Q11 1 10010S11 1 00039V11 1 01010X11 1 24011
031072530094846198301070400C+41983-087900SAO  +0201ORD  V0202705N00935003664MN0112005N1+00225-00065100235ADDAA101000095AG10999GD14995+0036099GD20995+9999999GD30995+9999999GD40995+9999999GF108085999999999999999999MA1100171097775MW1515REMAWY008LE25B45?EQDN01 03300JPWTH 1QNNE11 1 00699E11 1 00099E11 1 00099E11 1 00099G11 1 00012K11 1 00031L11 1 00700M11 1 28870N11 1 03300Q11 1 10023S11 1 00036V11 1 01010X11 1 27018
030772530094846198301070500C+41983-087900SAO  +0201ORD  V0202805N00985006404MN0192005N1+00285-00065100375ADDAA101000095AG10999GD14995+0063099GD20995+9999999GD30995+9999999GD40995+9999999GF108085999999999999999999MA1100311097905MW1001REMAWY005LE15?EQDN01 00000JPWTH 1QNNE11 1 00699E11 1 00099E11 1 00099E11 1 00099G11 1 00021K11 1 00031L11 1 01200M11 1 28910N11 1 00000Q11 1 10037S11 1 00037V11 1 01010X11 1 28019
049972530094846198301070600C+41983-087900SY-SA+0201ORD  V0203205N00575007014MN0240005N1+00225-00335100545ADDAA101000095AA206999929AA324999929AG10001AY161999GA1999+007014064GA2999+024384034GD13065+0069099GD24025+0240099GD30995+9999999GD40995+9999999GF108085061051008001071999KA1999M+00501KA2999N-00281MA1100471098075MD1210441+9999MW1021OC101281REMSYN029333   10050 21028 79999 90525AWY01424400 157/ 41?EQDQ01    003PRSWM1N01 00000JPWTH 1QNNE11 1 00408E11 1 00602E11 1 00099E11 1 00099G11 1 00023H11 1 15023H11 1 23080K11 1 00026L11 1 01500M11 1 28960N11 1 00000Q11 1 10054S11 1 00036V11 1 01010X11 1 32011
030172530094846198301070700C+41983-087900SAO  +0201ORD  V0202905N00675007014MN0240005N1+00175-00445100685ADDAA101000095AG10999GD14995+0069099GD20995+9999999GD30995+9999999GD40995+9999999GF108085999999999999999999MA1100611098215MW1001OC101131EQDN01 00000JPWTH 1QNNE11 1 00699E11 1 00099E11 1 00099E11 1 00099G11 1 00023K11 1 00024L11 1 01500M11 1 29000N11 1 00000Q11 1 10068S11 1 00035V11 1 01010X11 1 29013
029372530094846198301070800C+41983-087900SAO  +0201ORD  V0203105N00625007014MN0240005N1+00115-00505100815ADDAA101000095AG10999GD14995+0069099GD20995+9999999GD30995+9999999GD40995+9999999GF108085999999999999999999MA1100751098315MW1001EQDN01 00000JPWTH 1QNNE11 1 00699E11 1 00099E11 1 00099E11 1 00099G11 1 00023K11 1 00023L11 1 01500M11 1 29030N11 1 00000Q11 1 10081S11 1 00034V11 1 01010X11 1 31012
036072530094846198301070900C+41983-087900SAO  +0201ORD  V0202905N00725006404MN0240005N1+00115-00445100985ADDAA101000095AG10000GA1999+006404064GD14085+0063099GD20995+9999999GD30995+9999999GD40995+9999999GF108085999051999999999999MA1100911098485MD1210421+9999MW1001OC101131REMAWY009242 15//?EQDN01 00000JPWTH 1QNNE11 1 00610E11 1 00099E11 1 00099E11 1 00099G11 1 00021H11 1 15021K11 1 00024L11 1 01500M11 1 29080N11 1 00000Q11 1 10098S11 1 00034V11 1 01010X11 1 29014
029372530094846198301071000C+41983-087900SAO  +0201ORD  V0202705N00675006404MN0240005N1+00115-00445101025ADDAA101000095AG10999GD14995+0063099GD20995+9999999GD30995+9999999GD40995+9999999GF108085999999999999999999MA1100951098515MW1001EQDN01 00000JPWTH 1QNNE11 1 00699E11 1 00099E11 1 00099E11 1 00099G11 1 00021K11 1 00024L11 1 01500M11 1 29090N11 1 00000Q11 1 10102S11 1 00034V11 1 01010X11 1 27013
029372530094846198301071100C+41983-087900SAO  +0201ORD  V0202605N00525007014MN0240005N1+00115-00445101075ADDAA101000095AG10999GD14995+0069099GD20995+9999999GD30995+9999999GD40995+9999999GF108085999999999999999999MA1101021098585MW1001EQDN01 00000JPWTH 1QNNE11 1 00699E11 1 00099E11 1 00099E11 1 00099G11 1 00023K11 1 00024L11 1 01500M11 1 29110N11 1 00000Q11 1 10107S11 1 00034V11 1 01010X11 1 26010
047472530094846198301071200C+41983-087900SY-SA+0201ORD  V0202705N00575007624MN0240005N1+00115-00445101145ADDAA101000095AA206000091AG14000AY101999GA1999+007624064GD14085+0075099GD20995+9999999GD30995+9999999GD40995+9999999GF108085081051008001999999KA1999M+00501KA2999N+00111MA1101081098655MD1210171+9999MW1021REMSYN036333   10050 20011 555   1035  041035AWY012217 15// 34?EQDQ01    003PRSWM1Q02  00003PRCP99N01 00000JPWTH 1QNNE11 1 00610E11 1 00099E11 1 00099E11 1 00099G11 1 00025H11 1 15025K11 1 00024L11 1 01500M11 1 29130N11 1 00000Q11 1 10114S11 1 00034V11 1 01010X11 1 27011
029372530094846198301071300C+41983-087900SAO  +0201ORD  V0202705N00825006404MN0240005N1+00065-00565101255ADDAA101000095AG10999GD14995+0063099GD20995+9999999GD30995+9999999GD40995+9999999GF108085999999999999999999MA1101191098755MW1001EQDN01 00000JPWTH 1QNNE11 1 00699E11 1 00099E11 1 00099E11 1 00099G11 1 00021K11 1 00022L11 1 01500M11 1 29160N11 1 00000Q11 1 10125S11 1 00033V11 1 01010X11 1 27016
029372530094846198301071400C+41983-087900SAO  +0201ORD  V0202705N00725007624MN0240005N1+00005-00615101325ADDAA101000095AG10999GD14995+0075099GD20995+9999999GD30995+9999999GD40995+9999999GF108085999999999999999999MA1101251098815MW1001EQDN01 00000JPWTH 1QNNE11 1 00699E11 1 00099E11 1 00099E11 1 00099G11 1 00025K11 1 00021L11 1 01500M11 1 29180N11 1 00000Q11 1 10132S11 1 00032V11 1 01010X11 1 27014
035272530094846198301071500C+41983-087900SAO  +0201ORD  V0202705N00775005184MN0240005N1-00065-00615101465ADDAA101000095AG10000GA1999+005184064GD14085+0051099GD20995+9999999GD30995+9999999GD40995+9999999GF108085999051999999999999MA1101391098955MD1210301+9999MW1001REMAWY009230 15//?EQDN01 00000JPWTH 1QNNE11 1 00610E11 1 00099E11 1 00099E11 1 00099G11 1 00017H11 1 15017K11 1 00021L11 1 01500M11 1 29220N11 1 00000Q11 1 10146S11 1 00031V11 1 01010X11 1 27015
029372530094846198301071600C+41983-087900SAO  +0201ORD  V0202805N00525005494MN0192005N1-00065-00615101565ADDAA101000095AG10999GD14995+0054099GD20995+9999999GD30995+9999999GD40995+9999999GF108085999999999999999999MA1101491099055MW1001EQDN01 00000JPWTH 1QNNE11 1 00699E11 1 00099E11 1 00099E11 1 00099G11 1 00018K11 1 00021L11 1 01200M11 1 29250N11 1 00000Q11 1 10156S11 1 00031V11 1 01010X11 1 28010
029372530094846198301071700C+41983-087900SAO  +0201ORD  V0202905N00625005794MN0192005N1-00065-00675101665ADDAA101000095AG10999GD14995+0057099GD20995+9999999GD30995+9999999GD40995+9999999GF108085999999999999999999MA1101591099155MW1001EQDN01 00000JPWTH 1QNNE11 1 00699E11 1 00099E11 1 00099E11 1 00099G11 1 00019K11 1 00020L11 1 01200M11 1 29280N11 1 00000Q11 1 10166S11 1 00031V11 1 01010X11 1 29012
039572530094846198301071800C+41983-087900SAO  +0201ORD  V0203005N007250064049N0240005N1-00115-00785101705ADDAA101000095AA206000091AG14000AY101999GA1999+006404064GD14085+9999999GD20995+9999999GD30995+9999999GD40995+9999999GF108085081051008001999999KA1999M+00221KA2999N-00111MA1101631099195MD1110221+9999MW1021EQDQ01    003PRSWM1N01 00000JPWTH 1QNNE11 1 00610E11 1 00099E11 1 00099E11 1 00099G11 1 00021H11 1 15021K11 1 00018L11 1 01500M11 1 29290N11 1 00000Q11 1 10170S11 1 00030V11 1 01010X11 1 30014
029372530094846198301071900C+41983-087900SAO  +0201ORD  V0202905N00675006404MN0240005N1-00115-00675101705ADDAA101000095AG10999GD14995+0063099GD20995+9999999GD30995+9999999GD40995+9999999GF108085999999999999999999MA1101631099195MW1001EQDN01 00000JPWTH 1QNNE11 1 00699E11 1 00099E11 1 00099E11 1 00099G11 1 00021K11 1 00020L11 1 01500M11 1 29290N11 1 00000Q11 1 10170S11 1 00030V11 1 01010X11 1 29013
029372530094846198301072000C+41983-087900SAO  +0201ORD  V0203105N00525006404MN0240005N1-00065-00615101775ADDAA101000095AG10999GD14995+0063099GD20995+9999999GD30995+9999999GD40995+9999999GF108085999999999999999999MA1101691099265MW1001EQDN01 00000JPWTH 1QNNE11 1 00699E11 1 00099E11 1 00099E11 1 00099G11 1 00021K11 1 00021L11 1 01500M11 1 29310N11 1 00000Q11 1 10177S11 1 00031V11 1 01010X11 1 31010
036072530094846198301072100C+41983-087900SAO  +0201ORD  V0203105N00625005794MN0240005N1-00115-00615101885ADDAA101000095AG10000GA1999+005794064GD14085+0057099GD20995+9999999GD30995+9999999GD40995+9999999GF108085999051999999999999MA1101801099365MD1310171+9999MW1001REMAWY017PRESRR/ 317 15//?EQDN01 00000JPWTH 1QNNE11 1 00610E11 1 00099E11 1 00099E11 1 00099G11 1 00019H11 1 15019K11 1 00021L11 1 01500M11 1 29340N11 1 00000Q11 1 10188S11 1 00030V11 1 01010X11 1 31012
029372530094846198301072200C+41983-087900SAO  +0201ORD  V0203205N00725005794MN0240005N1-00115-00615101985ADDAA101000095AG10999GD14995+0057099GD20995+9999999GD30995+9999999GD40995+9999999GF108085999999999999999999MA1101901099465MW1001EQDN01 00000JPWTH 1QNNE11 1 00699E11 1 00099E11 1 00099E11 1 00099G11 1 00019K11 1 00021L11 1 01500M11 1 29370N11 1 00000Q11 1 10198S11 1 00030V11 1 01010X11 1 32014
029372530094846198301072300C+41983-087900SAO  +0201ORD  V0203305N00625005794MN0240005N1-00115-00565102085ADDAA101000095AG10999GD14995+0057099GD20995+9999999GD30995+9999999GD40995+9999999GF108085999999999999999999MA1102001099565MW1001EQDN01 00000JPWTH 1QNNE11 1 00699E11 1 00099E11 1 00099E11 1 00099G11 1 00019K11 1 00022L11 1 01500M11 1 29400N11 1 00000Q11 1 10208S11 1 00030V11 1 01010X11 1 33012
047472530094846198301080000C+41983-087900SY-SA+0201ORD  V0203305N00625005794MN0240005N1-00175-00565102155ADDAA101000095AA206000091AG14000AY101999GA1999+005794064GD14085+0057099GD20995+9999999GD30995+9999999GD40995+9999999GF108085081051008001999999KA1999M+00111KA2999N-00171MA1102071099635MD1310271+9999MW1021REMSYN036333   10011 21017 555   1028  035028AWY012327 15// 34?EQDQ01    003PRSWM1Q02  00003PRCP99N01 00000JPWTH 1QNNE11 1 00610E11 1 00099E11 1 00099E11 1 00099G11 1 00019H11 1 15019K11 1 00022L11 1 01500M11 1 29420N11 1 00000Q11 1 10215S11 1 00029V11 1 01010X11 1 33012
029372530094846198301080100C+41983-087900SAO  +0201ORD  V0203505N00465005794MN0240005N1-00115-00565102255ADDAA101000095AG10999GD14995+0057099GD20995+9999999GD30995+9999999GD40995+9999999GF108085999999999999999999MA1102171099735MW1001EQDN01 00000JPWTH 1QNNE11 1 00699E11 1 00099E11 1 00099E11 1 00099G11 1 00019K11 1 00022L11 1 01500M11 1 29450N11 1 00000Q11 1 10225S11 1 00030V11 1 01010X11 1 35009
029372530094846198301080200C+41983-087900SAO  +0201ORD  V0203305N00365005794MN0240005N1-00225-00505102295ADDAA101000095AG10999GD14995+0057099GD20995+9999999GD30995+9999999GD40995+9999999GF108085999999999999999999MA1102201099765MW1001EQDN01 00000JPWTH 1QNNE11 1 00699E11 1 00099E11 1 00099E11 1 00099G11 1 00019K11 1 00023L11 1 01500M11 1 29460N11 1 00000Q11 1 10229S11 1 00028V11 1 01010X11 1 33007
035272530094846198301080300C+41983-087900SAO  +0201ORD  V0203105N00265006404MN0240005N1-00225-00505102355ADDAA101000095AG10000GA1999+006404064GD14085+0063099GD20995+9999999GD30995+9999999GD40995+9999999GF108085999051999999999999MA1102271099835MD1210201+9999MW1001REMAWY009220 15//?EQDN01 00000JPWTH 1QNNE11 1 00610E11 1 00099E11 1 00099E11 1 00099G11 1 00021H11 1 15021K11 1 00023L11 1 01500M11 1 29480N11 1 00000Q11 1 10235S11 1 00028V11 1 01010X11 1 31005
029372530094846198301080400C+41983-087900SAO  +0201ORD  V0202805N00265006404MN0240005N1-00175-00505102425ADDAA101000095AG10999GD14995+0063099GD20995+9999999GD30995+9999999GD40995+9999999GF108085999999999999999999MA1102341099905MW1001EQDN01 00000JPWTH 1QNNE11 1 00699E11 1 00099E11 1 00099E11 1 00099G11 1 00021K11 1 00023L11 1 01500M11 1 29500N11 1 00000Q11 1 10242S11 1 00029V11 1 01010X11 1 28005
029372530094846198301080500C+41983-087900SAO  +0201ORD  V0202905N00265006404MN0240005N1-00175-00505102465ADDAA101000095AG10999GD14995+0063099GD20995+9999999GD30995+9999999GD40995+9999999GF108085999999999999999999MA1102371099935MW1001EQDN01 00000JPWTH 1QNNE11 1 00699E11 1 00099E11 1 00099E11 1 00099G11 1 00021K11 1 00023L11 1 01500M11 1 29510N11 1 00000Q11 1 10246S11 1 00029V11 1 01010X11 1 29005
045672530094846198301080600C+41983-087900SY-SA+0201ORD  V0203105N00215007014MN0240005N1-00225-00505102505ADDAA101000095AA206000091AA324000091AG14000AY101999GA1999+007014064GD14085+0069099GD20995+9999999GD30995+9999999GD40995+9999999GF108085081051008001999999KA1999M+00221KA2999N-00281MA1102401099975MD1210141+9999MW1021REMSYN023333   10022 21028 70000AWY012214 15// 36?EQDQ01    003PRSWM1N01 00000JPWTH 1QNNE11 1 00610E11 1 00099E11 1 00099E11 1 00099G11 1 00023H11 1 15023K11 1 00023L11 1 01500M11 1 29520N11 1 00000Q11 1 10250S11 1 00028V11 1 01010X11 1 31004
029372530094846198301080700C+41983-087900SAO  +0201ORD  V0203305N00215006404MN0240005N1-00285-00565102475ADDAA101000095AG10999GD14995+0063099GD20995+9999999GD30995+9999999GD40995+9999999GF108085999999999999999999MA1102371099935MW1001EQDN01 00000JPWTH 1QNNE11 1 00699E11 1 00099E11 1 00099E11 1 00099G11 1 00021K11 1 00022L11 1 01500M11 1 29510N11 1 00000Q11 1 10247S11 1 00027V11 1 01010X11 1 33004
030872530094846198301080800C+41983-087900SAO  +0201ORD  V0202405N00215006404MN0240005N1-00285-00505102505ADDAA101000095AG10999GD14995+0063099GD20995+9999999GD30995+9999999GD40995+9999999GF108085999999999999999999MA1102401099975MW1001REMAWY00698000?EQDN01 00000JPWTH 1QNNE11 1 00699E11 1 00099E11 1 00099E11 1 00099G11 1 00021K11 1 00023L11 1 01500M11 1 29520N11 1 00000Q11 1 10250S11 1 00027V11 1 01010X11 1 24004
036072530094846198301080900C+41983-087900SAO  +0201ORD  V0209995900005006404MN0240005N1-00285-00505102505ADDAA101000095AG10000GA1999+006404064GD14085+0063099GD20995+9999999GD30995+9999999GD40995+9999999GF108085999051999999999999MA1102401099975MD1510001+9999MW1001REMAWY017BINOVC/ 500 15//?EQDN01 00000JPWTH 1QNNE11 1 00610E11 1 00099E11 1 00099E11 1 00099G11 1 00021H11 1 15021K11 1 00023L11 1 01500M11 1 29520N11 1 00000Q11 1 10250S11 1 00027V11 1 01010X11 1 00000
030972530094846198301081000C+41983-087900SAO  +0201ORD  V0202505N00265006404MN0240005N1-00335-00505102505ADDAA101000095AG10999GD14995+0063099GD20995+9999999GD30995+9999999GD40995+9999999GF108085999999999999999999MA1102401099975MW1001REMAWY007BINOVC?EQDN01 00000JPWTH 1QNNE11 1 00699E11 1 00099E11 1 00099E11 1 00099G11 1 00021K11 1 00023L11 1 01500M11 1 29520N11 1 00000Q11 1 10250S11 1 00026V11 1 01010X11 1 25005
029372530094846198301081100C+41983-087900SAO  +0201ORD  V0202705N00215006404MN0240005N1-00225-00445102505ADDAA101000095AG10999GD14995+0063099GD20995+9999999GD30995+9999999GD40995+9999999GF108085999999999999999999MA1102401099975MW1001EQDN01 00000JPWTH 1QNNE11 1 00699E11 1 00099E11 1 00099E11 1 00099G11 1 00021K11 1 00024L11 1 01500M11 1 29520N11 1 00000Q11 1 10250S11 1 00028V11 1 01010X11 1 27004
047472530094846198301081200C+41983-087900SY-SA+0201ORD  V0202505N00265006404MN0240005N1-00225-00445102535ADDAA101000095AA206000091AG14000AY101999GA1999+006404064GD14085+0063099GD20995+9999999GD30995+9999999GD40995+9999999GF108085081051008001999999KA1999M+00221KA2999N-00331MA1102441100005MD1210031+9999MW1021REMSYN036333   10022 21033 555   1030  038028AWY012203 15// 26?EQDQ01    003PRSWM1Q02  00003PRCP99N01 00000JPWTH 1QNNE11 1 00610E11 1 00099E11 1 00099E11 1 00099G11 1 00021H11 1 15021K11 1 00024L11 1 01500M11 1 29530N11 1 00000Q11 1 10253S11 1 00028V11 1 01010X11 1 25005
029372530094846198301081300C+41983-087900SAO  +0201ORD  V0202705N00315006404MN0240005N1-00225-00505102575ADDAA101000095AG10999GD14995+0063099GD20995+9999999GD30995+9999999GD40995+9999999GF108085999999999999999999MA1102471100005MW1001EQDN01 00000JPWTH 1QNNE11 1 00699E11 1 00099E11 1 00099E11 1 00099G11 1 00021K11 1 00023L11 1 01500M11 1 29530N11 1 00000Q11 1 10257S11 1 00028V11 1 01010X11 1 27006
029372530094846198301081400C+41983-087900SAO  +0201ORD  V0202505N00265007014MN0240005N1-00225-00505102535ADDAA101000095AG10999GD14995+0069099GD20995+9999999GD30995+9999999GD40995+9999999GF108085999999999999999999MA1102441100005MW1001EQDN01 00000JPWTH 1QNNE11 1 00699E11 1 00099E11 1 00099E11 1 00099G11 1 00023K11 1 00023L11 1 01500M11 1 29530N11 1 00000Q11 1 10253S11 1 00028V11 1 01010X11 1 25005
035272530094846198301081500C+41983-087900SAO  +0201ORD  V0202605N00265007624MN0240005N1-00175-00445102605ADDAA101000095AG10000GA1999+007624064GD14085+0075099GD20995+9999999GD30995+9999999GD40995+9999999GF108085999051999999999999MA1102511100035MD1310051+9999MW1001REMAWY009305 15//?EQDN01 00000JPWTH 1QNNE11 1 00610E11 1 00099E11 1 00099E11 1 00099G11 1 00025H11 1 15025K11 1 00024L11 1 01500M11 1 29540N11 1 00000Q11 1 10260S11 1 00029V11 1 01010X11 1 26005
029372530094846198301081600C+41983-087900SAO  +0201ORD  V0202405N00155007624MN0192005N1-00115-00445102635ADDAA101000095AG10999GD14995+0075099GD20995+9999999GD30995+9999999GD40995+9999999GF108085999999999999999999MA1102541100075MW1001EQDN01 00000JPWTH 1QNNE11 1 00699E11 1 00099E11 1 00099E11 1 00099G11 1 00025K11 1 00024L11 1 01200M11 1 29550N11 1 00000Q11 1 10263S11 1 00030V11 1 01010X11 1 24003
032172530094846198301081700C+41983-087900SAO  +0201ORD  V0202705N00155007624MN0240005N1-00065-00445102565ADDAA101000095AG10999GD14995+0075099GD20995+9999999GD30995+9999999GD40995+9999999GF108075999999999999999999MA1102471100005MW1001REMAWY019OCNLBINOVC       ??EQDN01 00000JPWTH 1QNNE11 1 00699E11 1 00099E11 1 00099E11 1 00099G11 1 00025K11 1 00024L11 1 01500M11 1 29530N11 1 00000Q11 1 10256S11 1 00031V11 1 01009X11 1 27003
044572530094846198301081800C+41983-087900SY-SA+0201ORD  V0201805N00215007624MN0160005N1+00065-00395102495ADDAA101000095AA206000091AG14000AY101999GA1999+007624064GD14085+0075099GD20995+9999999GD30995+9999999GD40995+9999999GF108085081051008001999999KA1999M+00061KA2999N-00331MA1102401099975MD1810081+9999MW1021REMSYN023333   10006 21033 90903AWY012808 15// 26?EQDQ01    003PRSWM1N01 00000JPWTH 1QNNE11 1 00610E11 1 00099E11 1 00099E11 1 00099G11 1 00025H11 1 15025K11 1 00025L11 1 01000M11 1 29520N11 1 00000Q11 1 10249S11 1 00033V11 1 01010X11 1 18004
029372530094846198301081900C+41983-087900SAO  +0201ORD  V0201905N002650076249N0192005N1+00175-00395102395ADDAA101000095AG10999GD12995+0045099GD23995+0075099GD30995+9999999GD40995+9999999GF107075999999999999999999MA1102301099865MW1001EQDN01 00000JPWTH 1QNNE11 1 00299E11 1 00499E11 1 00099E11 1 00099G11 1 00025K11 1 00025L11 1 01200M11 1 29490N11 1 00000Q11 1 10239S11 1 00035V11 1 00909X11 1 19005
030972530094846198301082000C+41983-087900SAO  +0201ORD  V0201605N00315007014MN0192005N1+00225-00445102295ADDAA101000095AG10999GD14995+0069099GD20995+9999999GD30995+9999999GD40995+9999999GF108075999999999999999999MA1102201099765MW1001REMAWY007BINOVC?EQDN01 00000JPWTH 1QNNE11 1 00699E11 1 00099E11 1 00099E11 1 00099G11 1 00023K11 1 00024L11 1 01200M11 1 29460N11 1 00000Q11 1 10229S11 1 00036V11 1 01009X11 1 16006
043372530094846198301082100C+41983-087900SAO  +0201ORD  V0201705N00525007014MN0192005N1+00115-00505102295ADDAA101000095AG10000GA1999+007014064GA2999+999999999GA3999+999999999GA4999+999999999GD13065+0069099GD20005+9999999GD30005+9999999GD40005+9999999GF106065999051999999001991MA1102201099765MD1610201+9999MW1001REMAWY009620 1500?EQDN01 00000JPWTH 1QNNE11 1 00408E11 1 00000E11 1 00000E11 1 00000G11 1 00023H11 1 15023H11 1 00999H11 1 00999H11 1 00999K11 1 00023L11 1 01200M11 1 29460N11 1 00000Q11 1 10229S11 1 00034V11 1 00808X11 1 17010
029372530094846198301082200C+41983-087900SAO  +0201ORD  V0201905N00415007624MN0240005N1+00175-00505102255ADDAA101000095AG10999GD14995+0075099GD20995+9999999GD30995+9999999GD40995+9999999GF108085999999999999999999MA1102171099735MW1001EQDN01 00000JPWTH 1QNNE11 1 00699E11 1 00099E11 1 00099E11 1 00099G11 1 00025K11 1 00023L11 1 01500M11 1 29450N11 1 00000Q11 1 10225S11 1 00035V11 1 01010X11 1 19008
029372530094846198301082300C+41983-087900SAO  +0201ORD  V0201705N00465007624MN0240005N1+00115-00505102255ADDAA101000095AG10999GD14995+0075099GD20995+9999999GD30995+9999999GD40995+9999999GF108085999999999999999999MA1102171099735MW1001EQDN01 00000JPWTH 1QNNE11 1 00699E11 1 00099E11 1 00099E11 1 00099G11 1 00025K11 1 00023L11 1 01500M11 1 29450N11 1 00000Q11 1 10225S11 1 00034V11 1 01010X11 1 17009
047472530094846198301090000C+41983-087900SY-SA+0201ORD  V0201505N00265007624MN0240005N1+00005-00445102295ADDAA101000095AA206000091AG10000AY101999GA1999+007624064GD14085+0075099GD20995+9999999GD30995+9999999GD40995+9999999GF108085081051008001999999KA1999M+00221KA2999N-00331MA1102201099765MD1510001+9999MW1021REMSYN036333   10022 21033 555   1032  032030AWY012500 15// 36?EQDQ01    003PRSWM1Q02  00003PRCP99N01 00000JPWTH 1QNNE11 1 00610E11 1 00099E11 1 00099E11 1 00099G11 1 00025H11 1 15025K11 1 00024L11 1 01500M11 1 29460N11 1 00000Q11 1 10229S11 1 00032V11 1 01010X11 1 15005
030972530094846198301090100C+41983-087900SAO  +0201ORD  V0201505N00365007014MN0240005N1-00065-00445102255ADDAA101000095AG10999GD14995+0069099GD20995+9999999GD30995+9999999GD40995+9999999GF108085999999999999999999MA1102171099735MW1001REMAWY007BINOVC?EQDN01 00000JPWTH 1QNNE11 1 00699E11 1 00099E11 1 00099E11 1 00099G11 1 00023K11 1 00024L11 1 01500M11 1 29450N11 1 00000Q11 1 10225S11 1 00031V11 1 01010X11 1 15007
029372530094846198301090200C+41983-087900SAO  +0201ORD  V0201705N004152200059N0240005N1-00175-00505102235ADDAA101000095AG10999GD12995+0075099GD20995+9999999GD30995+9999999GD40995+9999999GF102025999999999999999999MA1102131099705MW1001EQDN01 00000JPWTH 1QNNE11 1 00299E11 1 00099E11 1 00099E11 1 00099G11U1 99999K11 1 00023L11 1 01500M11 1 29440N11 1 00000Q11 1 10223S11 1 00029V11 1 00303X11 1 17008
043372530094846198301090300C+41983-087900SAO  +0201ORD  V0201505N00315006404MN0240005N1-00335-00505102235ADDAA101000095AG10000GA1999+006404064GA2999+999999999GA3999+999999999GA4999+999999999GD13065+0063099GD20005+9999999GD30005+9999999GD40005+9999999GF106065999051999999001991MA1102131099705MD1610071+9999MW1001REMAWY009607 1500?EQDN01 00000JPWTH 1QNNE11 1 00407E11 1 00000E11 1 00000E11 1 00000G11 1 00021H11 1 15021H11 1 00999H11 1 00999H11 1 00999K11 1 00023L11 1 01500M11 1 29440N11 1 00000Q11 1 10223S11 1 00026V11 1 00707X11 1 15006
029372530094846198301090400C+41983-087900SAO  +0201ORD  V0201505N00365006404MN0240005N1-00175-00445102225ADDAA101000095AG10999GD14995+0063099GD20995+9999999GD30995+9999999GD40995+9999999GF108085999999999999999999MA1102131099705MW1001EQDN01 00000JPWTH 1QNNE11 1 00699E11 1 00099E11 1 00099E11 1 00099G11 1 00021K11 1 00024L11 1 01500M11 1 29440N11 1 00000Q11 1 10222S11 1 00029V11 1 01010X11 1 15007
029372530094846198301090500C+41983-087900SAO  +0201ORD  V0201505N005752200059N0240005N1-00175-00445102185ADDAA101000095AG10999GD12995+0060099GD20995+9999999GD30995+9999999GD40995+9999999GF103035999999999999999999MA1102101099665MW1001EQDN01 00000JPWTH 1QNNE11 1 00299E11 1 00099E11 1 00099E11 1 00099G11U1 99999K11 1 00024L11 1 01500M11 1 29430N11 1 00000Q11 1 10218S11 1 00029V11 1 00404X11 1 15011
053772530094846198301090600C+41983-087900SY-SA+0201ORD  V0201505N00315006404MN0240005N1-00285-00505102155ADDAA101000095AA206000091AA324000091AG10000AY101999GA1999+006404064GA2999+999999999GA3999+999999999GA4999+999999999GD13055+0063099GD20005+9999999GD30005+9999999GD40005+9999999GF105055051051008001001991KA1999M+00221KA2999N-00331MA1102071099635MD1810071+9999MW1021REMSYN023333   10022 21033 70000AWY012807 1500 36?EQDQ01    003PRSWM1N01 00000JPWTH 1QNNE11 1 00406E11 1 00000E11 1 00000E11 1 00000G11 1 00021H11 1 15021H11 1 00999H11 1 00999H11 1 00999K11 1 00023L11 1 01500M11 1 29420N11 1 00000Q11 1 10215S11 1 00027V11 1 00606X11 1 15006
027872530094846198301090700C+41983-087900SAO  +0201ORD  V0201505N003652200059N0240005N1-00395-00505102055ADDAA101000095AG10999GD10995+9999999GD20995+9999999GD30995+9999999GF100005999999999999999999MA1101961099535MW1001EQDN01 00000JPWTH 1QNNE11 1 00099E11 1 00099E11 1 00099E11 1 00099G11U1 99999K11 1 00023L11 1 01500M11 1 29390N11 1 00000Q11 1 10205S11 1 00025V11 1 00000X11 1 15007
029372530094846198301090800C+41983-087900SAO  +0201ORD  V0201505N004652200059N0240005N1-00285-00395102055ADDAA101000095AG10999GD10995+9999999GD20995+9999999GD30995+9999999GF100005999999999999999999MA1101961099535MW1001REMAWY00698012?EQDN01 00000JPWTH 1QNNE11 1 00099E11 1 00099E11 1 00099E11 1 00099G11U1 99999K11 1 00025L11 1 01500M11 1 29390N11 1 00000Q11 1 10205S11 1 00027V11 1 00000X11 1 15009
043372530094846198301090900C+41983-087900SAO  +0201ORD  V0201605N004652200059N0240005N1-00285-00445102015ADDAA101000095AG10000GA1999+076204004GA2999+999999999GA3999+999999999GA4999+999999999GD12025+0750099GD20005+9999999GD30005+9999999GD40005+9999999GF102025999001999999001991MA1101931099495MD1710141+9999MW1001REMAWY009714 1001?EQDN01 00000JPWTH 1QNNE11 1 00202E11 1 00000E11 1 00000E11 1 00000G11U1 99999H11 1 32250H11 1 00999H11 1 00999H11 1 00999K11 1 00024L11 1 01500M11 1 29380N11 1 00000Q11 1 10201S11 1 00027V11 1 00202X11 1 16009
027872530094846198301091000C+41983-087900SAO  +0201ORD  V0201505N004152200059N0240005N1-00335-00505101985ADDAA101000095AG10999GD10995+9999999GD20995+9999999GD30995+9999999GF100005999999999999999999MA1101901099465MW1001EQDN01 00000JPWTH 1QNNE11 1 00099E11 1 00099E11 1 00099E11 1 00099G11U1 99999K11 1 00023L11 1 01500M11 1 29370N11 1 00000Q11 1 10198S11 1 00026V11 1 00000X11 1 15008
027872530094846198301091100C+41983-087900SAO  +0201ORD  V0201405N003652200059N0240005N1-00395-00505101885ADDAA101000095AG10999GD10995+9999999GD20995+9999999GD30995+9999999GF100005999999999999999999MA1101801099365MW1001EQDN01 00000JPWTH 1QNNE11 1 00099E11 1 00099E11 1 00099E11 1 00099G11U1 99999K11 1 00023L11 1 01500M11 1 29340N11 1 00000Q11 1 10188S11 1 00025V11 1 00000X11 1 14007
042772530094846198301091200C+41983-087900SY-SA+0201ORD  V0201405N004152200059N0240005N1-00395-00445101925ADDAA101000095AA206000091AG14000AY101999GD10995+9999999GD20995+9999999GD30995+9999999GF100005001001999999001991KA1999M+00221KA2999N-00441MA1101831099395MD1610101+9999MW1021REMSYN036333   10022 21044 555   1030  032030AWY007610 24?EQDQ01    003PRSWM1Q02  00003PRCP99N01 00000JPWTH 1QNNE11 1 00099E11 1 00099E11 1 00099E11 1 00099G11U1 99999K11 1 00024L11 1 01500M11 1 29350N11 1 00000Q11 1 10192S11 1 00025V11 1 00000X11 1 14008
029672530094846198301091300C+41983-087900SAO  +0201ORD  V0201505N003152200059N0240005N1-00395-00445101895ADDAA101000095AG10999GD10995+9999999GD20995+9999999GD30995+9999999GF100005999999999999999999MA1101801099365MW1001REMAWY009FEW CI E?EQDN01 00000JPWTH 1QNNE11 1 00099E11 1 00099E11 1 00099E11 1 00099G11U1 99999K11 1 00024L11 1 01500M11 1 29340N11 1 00000Q11 1 10189S11 1 00025V11 1 00000X11 1 15006
027872530094846198301091400C+41983-087900SAO  +0201ORD  V0201505N003152200059N0240005N1-00335-00395101895ADDAA101000095AG10999GD10995+9999999GD20995+9999999GD30995+9999999GF100005999999999999999999MA1101801099365MW1001EQDN01 00000JPWTH 1QNNE11 1 00099E11 1 00099E11 1 00099E11 1 00099G11U1 99999K11 1 00025L11 1 01500M11 1 29340N11 1 00000Q11 1 10189S11 1 00026V11 1 00000X11 1 15006
043372530094846198301091500C+41983-087900SAO  +0201ORD  V0201505N004652200059N0192005N1-00225-00335101925ADDAA101000095AG10000GA1999+076204004GA2999+999999999GA3999+999999999GA4999+999999999GD11035+0750093GD20005+9999999GD30005+9999999GD40005+9999999GF103015999001999999001991MA1101831099395MD1510001+9999MW1001REMAWY009500 1005?EQDN01 00000JPWTH 1QNNE11 1 00104E11 1 00000E11 1 00000E11 1 00000G11U1 99999H11 1 32250H11 1 00999H11 1 00999H11 1 00999K11 1 00026L11 1 01200M11 1 29350N11 1 00000Q11 1 10192S11 1 00028V11 1 00401X11 1 15009
029372530094846198301091600C+41983-087900SAO  +0201ORD  V0201305N004652200059N0144005N1-00065-00225101885ADDAA101000095AG10999GD13995+0750093GD20995+9999999GD30995+9999999GD40995+9999999GF107025999999999999999999MA1101801099365MW1001EQDN01 00000JPWTH 1QNNE11 1 00399E11 1 00099E11 1 00099E11 1 00099G11U1 99999K11 1 00028L11 1 00900M11 1 29340N11 1 00000Q11 1 10188S11 1 00031V11 1 00902X11 1 13009
029372530094846198301091700C+41983-087900SAO  +0201ORD  V0201305N003652200059N0144005N1+00175-00225101785ADDAA101000095AG10999GD14995+0750093GD20995+9999999GD30995+9999999GD40995+9999999GF108025999999999999999999MA1101691099265MW1001EQDN01 00000JPWTH 1QNNE11 1 00599E11 1 00099E11 1 00099E11 1 00099G11U1 99999K11 1 00028L11 1 00900M11 1 29310N11 1 00000Q11 1 10178S11 1 00035V11 1 01003X11 1 13007
052672530094846198301091800C+41983-087900SY-SA+0201ORD  V0201505N005752200059N0144005N1+00335-00335101665ADDAA101000095AA206000091AG14000AY101999GA1999+030484034GA2999+076204024GA3999+999999999GA4999+999999999GD12025+0300099GD24065+0750093GD30005+9999999GD40005+9999999GF108035021001999999071991KA1999M+00331KA2999N-00441MA1101591099155MD1810221+9999MW1021REMSYN023333   10033 21044 90902AWY012822 1077 24?EQDQ01    003PRSWM1N01 00000JPWTH 1QNNE11 1 00202E11 1 00508E11 1 00000E11 1 00000G11U1 99999H11 1 23100H11 1 37250H11 1 00999H11 1 00999K11 1 00026L11 1 00900M11 1 29280N11 1 00000Q11 1 10166S11 1 00038V11 1 01004X11 1 15011
029372530094846198301091900C+41983-087900SAO  +0201ORD  V0201505N006752200059N0144005N1+00445-00225101495ADDAA101000095AG10999GD12995+0300099GD24995+0750093GD30995+9999999GD40995+9999999GF108045999999999999999999MA1101421098985MW1001EQDN01 00000JPWTH 1QNNE11 1 00299E11 1 00599E11 1 00099E11 1 00099G11U1 99999K11 1 00028L11 1 00900M11 1 29230N11 1 00000Q11 1 10149S11 1 00040V11 1 01005X11 1 15013
029372530094846198301092000C+41983-087900SAO  +0201ORD  V0201205N005252200059N0144005N1+00505-00175101395ADDAA101000095AG10999GD12995+0300099GD24995+0750093GD30995+9999999GD40995+9999999GF108045999999999999999999MA1101321098885MW1001EQDN01 00000JPWTH 1QNNE11 1 00299E11 1 00599E11 1 00099E11 1 00099G11U1 99999K11 1 00029L11 1 00900M11 1 29200N11 1 00000Q11 1 10139S11 1 00041V11 1 01005X11 1 12010
043372530094846198301092100C+41983-087900SAO  +0201ORD  V0201205N005252200059N0160005N1+00615-00335101325ADDAA101000095AG10000GA1999+030484034GA2999+076204024GA3999+999999999GA4999+999999999GD12015+0300099GD24085+0750093GD30005+9999999GD40005+9999999GF108025999001999999031991MA1101251098815MD1810341+9999MW1001REMAWY009834 1037?EQDN01 00000JPWTH 1QNNE11 1 00201E11 1 00510E11 1 00000E11 1 00000G11U1 99999H11 1 23100H11 1 37250H11 1 00999H11 1 00999K11 1 00026L11 1 01000M11 1 29180N11 1 00000Q11 1 10132S11 1 00043V11 1 01003X11 1 12010
029372530094846198301092200C+41983-087900SAO  +0201ORD  V0201405N00415007014MN0128005N1+00505-00065101325ADDAA101000095AG10999GD14995+0069099GD20995+9999999GD30995+9999999GD40995+9999999GF108085999999999999999999MA1101251098815MW1001EQDN01 00000JPWTH 1QNNE11 1 00699E11 1 00099E11 1 00099E11 1 00099G11 1 00023K11 1 00031L11 1 00800M11 1 29180N11 1 00000Q11 1 10132S11 1 00041V11 1 01010X11 1 14008
029372530094846198301092300C+41983-087900SAO  +0201ORD  V0201205N00525006404MN0112005N1+00395+00115101235ADDAA101000095AG10999GD14995+0063099GD20995+9999999GD30995+9999999GD40995+9999999GF108085999999999999999999MA1101151098715MW1001EQDN01 00000JPWTH 1QNNE11 1 00699E11 1 00099E11 1 00099E11 1 00099G11 1 00021K11 1 00034L11 1 00700M11 1 29150N11 1 00000Q11 1 10123S11 1 00039V11 1 01010X11 1 12010
048272530094846198301100000C+41983-087900SY-SA+0201ORD  V0201305N00525005184MN0144005N1+00445+00175101125ADDAA101000095AA206000091AG10000AY101999GA1999+005184064GD14085+0051099GD20995+9999999GD30995+9999999GD40995+9999999GF108085081051004501999999KA1999M+00611KA2999N-00441MA1101051098615MD1810201+9999MW1021REMSYN036333   10061 21044 555   1037  038030AWY020PRESFR/ 820 15// 43?EQDQ01    003PRSWM1Q02  00003PRCP99N01 00000JPWTH 1QNNE11 1 00610E11 1 00099E11 1 00099E11 1 00099G11 1 00017H11 1 15017K11 1 00035L11 1 00900M11 1 29120N11 1 00000Q11 1 10112S11 1 00040V11 1 01010X11 1 13010
029372530094846198301100100C+41983-087900SAO  +0201ORD  V0201405N00575003664MN0128005N1+00395+00225101065ADDAA101000095AG10999GD14995+0036099GD20995+9999999GD30995+9999999GD40995+9999999GF108085999999999999999999MA1100981098545MW1001EQDN01 00000JPWTH 1QNNE11 1 00699E11 1 00099E11 1 00099E11 1 00099G11 1 00012K11 1 00036L11 1 00800M11 1 29100N11 1 00000Q11 1 10106S11 1 00039V11 1 01010X11 1 14011
031372530094846198301100200C+41983-087900SAO  +0201ORD  V0201305N00575002744MN0064005N1+00335+00285100925ADDAA101000095AG10999GD13995+0027099GD24995+0036099GD30995+9999999GD40995+9999999GF108085999999999999999999MA1100851098415MW1455MW2515REMAWY005LB10?EQDN01 03370JPWTH 1QNNE11 1 00499E11 1 00699E11 1 00099E11 1 00099G11 1 00009K11 1 00037L11 1 00400M11 1 29060N11 1 03370Q11 1 10092S11 1 00038V11 1 01010X11 1 13011
036072530094846198301100300C+41983-087900SAO  +0201ORD  V0201305N00525002134MN0080005N1+00335+00335100815ADDAA101000095AG10000GA1999+002134134GD14085+0021099GD20995+9999999GD30995+9999999GD40995+9999999GF108085999071999999999999MA1100751098315MD1710301+9999MW1455REMAWY017LE40/ 73000 17//?EQDN01 07000JPWTH 1QNNE11 1 00610E11 1 00099E11 1 00099E11 1 00099G11 1 00007H11 1 13007K11 1 00038L11 1 00500M11 1 29030N11 1 07000Q11 1 10081S11 1 00038V11 1 01010X11 1 13010
029372530094846198301100400C+41983-087900SAO  +0201ORD  V0201505N00575001224MN0040005N1+00335+00335100715ADDAA101000095AG10999GD14995+0012099GD20995+9999999GD30995+9999999GD40995+9999999GF108085999999999999999999MA1100641098245MW1455EQDN01 07000JPWTH 1QNNE11 1 00699E11 1 00099E11 1 00099E11 1 00099G11 1 00004K11 1 00038L11 1 00250M11 1 29010N11 1 07000Q11 1 10071S11 1 00038V11 1 01010X11 1 15011
029272530094846198301100500C+41983-087900SAO  +0201ORD  V0201605N005250012249N0016005N1+00335+00335100675ADDAA101000095GD14995+9999999GD20995+9999999GD30995+9999999GD40995+9999999GF108085999999999999999999MA1100611098215MW1455MW2515EQDN01 03370JPWTH 1QNNE11 1 00699E11 1 00099E11 1 00099E11 1 00099G11 1 00004K11 1 00038L11 1 00100M11 1 29000N11 1 03370Q11 1 10067S11 1 00038V11 1 01010X11 1 16010
044872530094846198301100600C+41983-087900SY-SA+0201ORD  V0201605N00625001524MN0040005N1+00445+00445100565ADDAA101000095AA206999929AA324999929AG10000AY151999GA1999+001524134GD14085+0015099GD20995+9999999GD30995+9999999GD40995+9999999GF108085081071001501999999KA1999M+00611KA2999N-00441MA1100511098105MD1710221+9999MW1455MW2515REMSYN023333   10061 21044 79999AWY01472200 17// 43?EQDN01 03370JPWTH 1QNNE11 1 00610E11 1 00099E11 1 00099E11 1 00099G11 1 00005H11 1 13005K11 1 00040L11 1 00250M11 1 28970N11 1 03370Q11 1 10056S11 1 00040V11 1 01010X11 1 16012
031672530094846198301100700C+41983-087900SAO  +0201ORD  V0201705N00575001524MN0048005N1+00445+00445100455ADDAA101000095AG10999GD14995+0015091GD20995+9999999GD30995+9999999GD40995+9999999GF108085999999999999999999MA1100411098005MW1455MW2515REMAWY008CIG 4V6?EQDN01 03370JPWTH 1QNNE11 1 00699E11 1 00099E11 1 00099E11 1 00099G11 1 00005K11 1 00040L11 1 00300M11 1 28940N11 1 03370Q11 1 10045S11 1 00040V11 1 01010X11 1 17011
032872530094846198301100800C+41983-087900SAO  +0201ORD  V0201705N00575002444MN0048005N1+00505+00505100455ADDAA101000095AG10999GD14995+0024099GD20995+9999999GD30995+9999999GD40995+9999999GF108085999999999999999999MA1100411098005MW1455MW2515REMAWY020PCPN VRY LGT/ 98455?EQDN01 03370JPWTH 1QNNE11 1 00699E11 1 00099E11 1 00099E11 1 00099G11 1 00008K11 1 00041L11 1 00300M11 1 28940N11 1 03370Q11 1 10045S11 1 00041V11 1 01010X11 1 17011
036072530094846198301100900C+41983-087900SAO  +0201ORD  V0201705N00625002444MN0096005N1+00505+00505100385ADDAA101000395AG10000GA1999+002444134GD14085+0024099GD20995+9999999GD30995+9999999GD40995+9999999GF108085999071999999999999MA1100341097935MD1810171+9999MW1455MW2515REMAWY01181700 17//?EQDN01 03370JPWTH 1QNNE11 1 00610E11 1 00099E11 1 00099E11 1 00099G11 1 00008H11 1 13008K11 1 00041L11 1 00600M11 1 28920N11 1 03370Q11 1 10038S11 1 00041V11 1 01010X11 1 17012
029372530094846198301101000C+41983-087900SAO  +0201ORD  V0201905N00675003054MN0112005N1+00505+00445100325ADDAA101000395AG10999GD14995+0030099GD20995+9999999GD30995+9999999GD40995+9999999GF108085999999999999999999MA1100271097875MW1515EQDN01 03300JPWTH 1QNNE11 1 00699E11 1 00099E11 1 00099E11 1 00099G11 1 00010K11 1 00040L11 1 00700M11 1 28900N11 1 03300Q11 1 10032S11 1 00041V11 1 01010X11 1 19013
