0227725300948462014010100004+41983-087900FM-12+020599999V0209999C000019999999N001600199-01111-01441102661ADDAA106002031AJ100033100030094GE19MSL   +99999+99999GF108991990990999990991991KA1120M-01111KA2120N-01671MA1999990100101MW1711REMSYN09272530 11416 80000 11111 21144 30010 40266 60021 771// 92351 333 11111 21167 4/003 555 90100=
0193725300948462014010100496+41995-087934FM-16+0205KORD V0302505N00155005795MN0024145N5-01105-01405999999ADDAU110030015AW1715GA1085+005795999GD14991+0057959MA1102575100115REMMET11812/31/13 18:49:03 SPECI KORD 010049Z 25003KT 1 1/2SM -SN OVC019 M11/M14 A3029 RMK AO2 SFC VIS 1 3/4 P0003 $ FIBI (KLC)
0250725300948462014010100517+41995-087934FM-15+0205KORD V0302505N00155005795MN0024145N5-01115-01445102735ADDAA101000895AU110030015AW1715GA1085+005795991GD14991+0057959GE19MSL   +99999+99999GF199999990990005791991991MA1102575100115REMMET11612/31/13 18:51:03 METAR KORD 010051Z 25003KT 1 1/2SM -SN OVC019 M11/M14 A3029 RMK AO2 SLP273 P0003 T11111144 $ (KLC)
0243725300948462014010101087+41995-087934FM-16+0205KORD V0302905N00155004575MN0020125N5-01115-01445999999ADDAA101000231AU110030015AW1715GA1085+004575991GD14991+0045759GE19MSL   +99999+99999GF199999990990004571991991MA1102615100145REMMET10912/31/13 19:08:03 SPECI KORD 010108Z 29003KT 1 1/4SM -SN OVC015 M11/M14 A3030 RMK AO2 P0001 T11111144 $ (KLC)
0243725300948462014010101177+41995-087934FM-16+0205KORD V0303105N00155005185MN0024145N5-01115-01505999999ADDAA101000231AU110030015AW1715GA1085+005185991GD14991+0051859GE19MSL   +99999+99999GF199999990990005181991991MA1102645100185REMMET10912/31/13 19:17:03 SPECI KORD 010117Z 31003KT 1 1/2SM -SN OVC017 M11/M15 A3031 RMK AO2 P0001 T11111150 $ (KLC)
0250725300948462014010101517+41995-087934FM-15+0205KORD V0302705N00155005185MN0024145N5-01115-01445102825ADDAA101001095AU110030015AW1715GA1085+005185991GD14991+0051859GE19MSL   +99999+99999GF199999990990005181991991MA1102685100215REMMET11612/31/13 19:51:03 METAR KORD 010151Z 27003KT 1 1/2SM -SN OVC017 M11/M14 A3032 RMK AO2 SLP282 P0003 T11111144 $ (KLC)
0340725300948462014010102517+41995-087934FM-15+0205KORD V0303505N00315006105MN0048285N5-01115-01505102815ADDAA101000895AA203002391AU110030015AW1715GA1075+006105991GA2085+018295991GD13991+0061059GD24991+0182959GE19MSL   +99999+99999GF199999990990006101991991MA1102645100185MD1090144+9999REMMET13112/31/13 20:51:03 METAR KORD 010251Z 35006KT 3SM -SN BKN020 OVC060 M11/M15 A3031 RMK AO2 SLP281 P0003 60009 T11111150 50014 $ (KLC)EQDQ01  00228PRCP03
0277725300948462014010103007+41995-087934FM-16+0205KORD V0303405N00315018295MN0064375N5-01175-01505999999ADDAA101000231AU110030015AW1715GA1045+006105991GA2085+018295991GD12991+0061059GD24991+0182959GE19MSL   +99999+99999GF199999990990006101991991MA1102645100185REMMET11212/31/13 21:00:03 SPECI KORD 010300Z 34006KT 4SM -SN SCT020 OVC060 M12/M15 A3031 RMK AO2 P0001 T11171150 $ (KLC)
0239725300948462014010103397+41995-087934FM-16+0205KORD V0300105N00415015245MN0080475N5-01175-01505999999ADDAA101000531AU110030015AW1715GA1085+015245991GD14991+0152459GE19MSL   +99999+99999GF199999990990015241991991MA1102575100115REMMET10512/31/13 21:39:03 SPECI KORD 010339Z 01008KT 5SM -SN OVC050 M12/M15 A3029 RMK AO2 P0002 T11171150 $ (KLC)
0284725300948462014010103517+41995-087934FM-15+0205KORD V0300105N00415015245MN0096565N5-01175-01565102735ADDAA101000595AU110030015AW1715GA1025+013115991GA2085+015245991GD11991+0131159GD24991+0152459GE19MSL   +99999+99999GF199999990990013111991991MA1102575100115REMMET11912/31/13 21:51:03 METAR KORD 010351Z 01008KT 6SM -SN FEW043 OVC050 M12/M16 A3029 RMK AO2 SLP273 P0003 T11171156 $ (KLC)
0277725300948462014010104177+41995-087934FM-16+0205KORD V0300205N00365012195MN0048285N5-01175-01565999999ADDAA101000231AU110030015AW1715GA1075+012195991GA2085+014945991GD13991+0121959GD24991+0149459GE19MSL   +99999+99999GF199999990990012191991991MA1102615100145REMMET11212/31/13 22:17:03 SPECI KORD 010417Z 02007KT 3SM -SN BKN040 OVC049 M12/M16 A3030 RMK AO2 P0001 T11171156 $ (SMN)
0281725300948462014010104257+41995-087934FM-16+0205KORD V0300205N00465009455MN0028165N5-01175-01565999999ADDAA101000531AU110030015AW1715GA1075+009455991GA2085+014945991GD13991+0094559GD24991+0149459GE19MSL   +99999+99999GF199999990990009451991991MA1102575100115REMMET11612/31/13 22:25:03 SPECI KORD 010425Z 02009KT 1 3/4SM -SN BKN031 OVC049 M12/M16 A3029 RMK AO2 P0002 T11171156 $ (SMN)
0233725300948462014010104457+41995-087934FM-16+0205KORD V0300105N00415007325MN0020125N5-01205-01605999999ADDAA101001231AU110030015AW1715GA1085+007325991GD14991+0073259GE19MSL   +99999+99999GF199999990990007321991991MA1102575100115REMMET09912/31/13 22:45:03 SPECI KORD 010445Z 01008KT 1 1/4SM -SN OVC024 M12/M16 A3029 RMK AO2 P0005 $ (SMN)
0259725300948462014010104517+41995-087934FM-15+0205KORD V0300105N00365007325MN0016095N5-01225-01565102705ADDAA101001595AU110030015AW1715GA1085+007325991GD14991+0073259GE19MSL   +99999+99999GF199999990990007321991991MA1102575100115REMMET12512/31/13 22:51:03 METAR KORD 010451Z 01007KT 1SM R10L/P6000FT -SN OVC024 M12/M16 A3029 RMK AO2 SLP270 P0005 T11221156 $ (SMN)
0479725300948462014010105517+41995-087934FM-15+0205KORD V0300105N00465007015MN0028165N5-01225-01565102655ADDAA101001095AA206005691AJ100089500007694AU110030015AW1715GA1075+007015991GA2075+011285991GA3085+016765991GD13991+0070159GD23991+0112859GD34991+0167659GE19MSL   +99999+99999GF199999990990007011991991KA1060M-01111KA2060N-01221KA3240M-01111KA4240N-01671MA1102515100045MD1690154+9999REMMET17012/31/13 23:51:03 METAR KORD 010551Z 01009KT 1 3/4SM -SN BKN023 BKN037 OVC055 M12/M16 A3027 RMK AO2 SLP265 4/003 P0005 60022 T11221156 11111 21122 411111167 56015 $ (SMN)EQDQ01  00558PRCP06
0315725300948462014010105567+41995-087934FM-16+0205KORD V0300105N00515011285MN0048285N5-01225-01565999999ADDAA101000021AU110030015AW1715GA1045+006405991GA2075+011285991GA3085+016765991GD12991+0064059GD23991+0112859GD34991+0167659GE19MSL   +99999+99999GF199999990990006401991991MA1102515100045REMMET11912/31/13 23:56:03 SPECI KORD 010556Z 01010KT 3SM -SN SCT021 BKN037 OVC055 M12/M16 A3027 RMK AO2 P0000 T11221156 $ (SMN)
0968725300948462014010105596+41995-087934SOD  +0205KORD V030999999999999999999999999999+99999+99999999999ADDAA124007695AJ100039599999999AN1024007695KA1024M-01105KA2024N-01665KG1024W-0139D4KG2024D-0172D4MF1099974102614MG1099984102274OE11240098304099995OE22240067126099995OE33240036299999995RH1024X077D4RH2024N061D4RH3024M070D4REMSOD73924 HR PRECIPITATION (IN): 0.30 SNOW DEPTH (IN):1     24 HR SNOWFALL (IN):3.0  24 HR MAX TEMP (F): 1224 HR MIN TEMP (F):  2AVERAGE STATION PRESSURE:29.525 MINIMUM SEA LEVEL PRESSURE:30.20 TIME OF OCCURRENCE:0231 PEAK WIND SPEED (MPH): 22 PEAK WIND DIR (DEG): 40 PEAK WIND TIME (LST):      FASTEST 2MIN SPEED (MPH): 15FASTEST 2MIN DIR (DEG):260 FASTEST 2MIN TIME (LST):     AVERAGE WIND SPEED (MPH): 8.1 24 HR AVG TEMP (F):  7DEPART FROM NORMAL:-17  HEATING DEGREE DAYS: 58 COOLING DEGREE DAYS:  0 LATEST DAY MAX TEMP (0700-1900 LST):12  LATEST NIGHT MIN TEMP(1900-0800 LST):1  HOURLY INCREMENTAL PRECIPITATION VALUES (IN):    T    0.00 0.00 0.00 0.00 0.00 0.00 0.00 0.00 0.00 0.00 0.00 T    0.01 0.02 0.03 0.02 0.03 0.04 0.03 0.02 0.06 0.04
1448725300948462014010105596+41995-087934SOM  +0205KORD V030999999999999999999999999999+99999+99999999999ADDAB10049299AD10011292122999999999AE1189069009009AH1005000892206275AH2010001392206275AH3015001392206355AH4020001592206355AH5030001892206445AH6045002092207055AI1060002592207145AI2080002592207145AI3100002892207555AI4120002892207555AI5150003092121265AI6180003692121079AK1001331699999AM1010291414999999999AN1024036099KB1744N-09119KB2744M-00509KB3744A-04839KC1N9-02111099999KC2M9+01330499999KD1744H08036KD2744C00005KE1169009269059MH109936U101939MK1104000709519099930415519REMSOM792PCP MTOT:1.54 PCP GT 24HRS:0.44 DATE(S):21-22 DAYS W/PCP >=.01:13 DAYS W/PCP >=.10:5  DAYS W/ PCP >=.50:0 DAYS W/PCP >=1.00:0 MSDP AMTS W/DATE-TIME TAGS:MIN:5 0.03  22/0627 MIN:10 0.05  22/0627 MIN:15 0.05  22/0635 MIN:20 0.06  22/0635 MIN:30 0.07  22/0644 MIN:45 0.08  22/0705 MIN:60 0.10  22/0714 MIN:80 0.10  22/0714 MIN:100 0.11  22/0755 MIN:120 0.11  22/0755 MIN:150 0.12  21/2126 MIN:180 0.14  21/2107 AVG DLY MIN:15.8  AVG DLY MAX:29.9  AVG MLY TMP:22.9  MIN TMP:-2 DATE(S):24 MAX TMP:50  DATE(S):28 DAYS MAX <=32:1 DAYS MAX >=90:0  DAYS MIN <=32:17 DAYS MIN  <=0:2  AVG STP:29.320 LWST SLP:29.58 DATE/TIME:212241 HGST SLP:30.58 DATE/TIME:241041 HDD MTH TOT:803 DEP NORM:-2553 SEASON(JUL 1-JUN 30):803 DEP NORM:-25536 CDD MTH TOT:0 DEP NORM:-2553 SEASON(JAN 1-DEC 31):0 DEP NORM:-25536EQDR01  1.547ABP071R02  0.447ADP081R03    137AE1100R04     07AE2103R05  0.147A12079R06 -2 247KCN026R07 50 287KCX019R08   8037KDH044R09    107KE1032R10    177KE3038R11     27KE4041
0247725300948462014010106004+41983-087900FM-12+020599999V0200101N004619999999N002800199-01221-01561102651ADDAA106006031AJ100083100080094GE19MSL   +99999+99999GF108991990990999990991991KA1240M-01111KA2240N-01671MA1999990100101MD1610151+9999MW1711REMSYN09872530 11528 80109 11122 21156 30010 40265 56015 60061 771// 90551 333 11111 21167 4/008 555 90106=
0315725300948462014010106187+41995-087934FM-16+0205KORD V0300105N00465016765MN0112655N5-01225-01615999999ADDAA101000021AU110030015AW1715GA1025+011285991GA2025+013415991GA3085+016765991GD11991+0112859GD21991+0134159GD34991+0167659GE19MSL   +99999+99999GF199999990990011281991991MA1102475100015REMMET11901/01/14 00:18:02 SPECI KORD 010618Z 01009KT 7SM -SN FEW037 FEW044 OVC055 M12/M16 A3026 RMK AO2 P0000 T11221161 $ (SMN)
0246725300948462014010106517+41995-087934FM-15+0205KORD V0303605N00465011285MN0144845N5-01175-01565102635ADDAA101000025AU110030015AW1715GA1085+011285991GD14991+0112859GE19MSL   +99999+99999GF199999990990011281991991MA1102475100015REMMET11201/01/14 00:51:02 METAR KORD 010651Z 36009KT 9SM -SN OVC037 M12/M16 A3026 RMK AO2 SLP263 P0000 T11171156 $ (SMN)
0290725300948462014010107227+41995-087934FM-16+0205KORD V0303605N00415003965MN0064375N5-01175-01505999999ADDAA101000021AU100007015AW1051GA1075+003965991GA2085+011895991GD13991+0039659GD24991+0118959GE19MSL   +99999+99999GF199999990990003961991991MA1102475100015MW1055REMMET11901/01/14 01:22:02 SPECI KORD 010722Z 36008KT 4SM HZ BKN013 OVC039 M12/M15 A3026 RMK AO2 SNE0657 P0000 T11171150 $ (SMN)
0276725300948462014010107347+41995-087934FM-16+0205KORD V0303605N00415003355MN0144845N5-01175-01505999999ADDAA101000021GA1075+003355991GA2085+012195991GD13991+0033551GD24991+0121959GE19MSL   +99999+99999GF199999990990003351991991MA1102475100015REMMET12801/01/14 01:34:02 SPECI KORD 010734Z 36008KT 9SM BKN011 OVC040 M12/M15 A3026 RMK AO2 SNE0657 CIG 009V014 P0000 T11171150 $ (SMN)
0233725300948462014010107517+41995-087934FM-15+0205KORD V0300105N00415003055MN0128755N5-01175-01505102615ADDAA101000095GA1085+003055991GD14991+0030559GE19MSL   +99999+99999GF199999990990003051991991MA1102475100015REMMET11601/01/14 01:51:02 METAR KORD 010751Z 01008KT 8SM OVC010 M12/M15 A3026 RMK AO2 SNE0657 SLP261 P0000 T11171150 $ (SMN)
0282725300948462014010108517+41995-087934FM-15+0205KORD V0303605N00415003965MN0096565N5-01115-01395102575ADDAA101000095AA203000021AU100007015AW1051GA1085+003965991GD14991+0039659GE19MSL   +99999+99999GF199999990990003961991991MA1102445099985MD1890064+9999MW1055REMMET11701/01/14 02:51:02 METAR KORD 010851Z 36008KT 6SM HZ OVC013 M11/M14 A3025 RMK AO2 SLP257 60000 T11111139 58006 $ (SMN)
0278725300948462014010109517+41995-087934FM-15+0205KORD V0300105N00365003355MN0096565N5-01005-01285102505ADDAA101000025AU100007015AW1051GA1085+003355991GD14991+0033559GE19MSL   +99999+99999GF199999990990003351991991MA1102375099915MW1055REMMET13801/01/14 03:51:02 METAR KORD 010951Z 01007KT 6SM R10L/5500VP6000FT HZ OVC011 M10/M13 A3023 RMK AO2 SNB07E16 SLP250 P0000 T11001128 $ (SMN)
0219725300948462014010110517+41995-087934FM-15+0205KORD V0303505N00365003965MN0128755N5-01005-01285102515ADDAA101000095GA1085+003965991GD14991+0039659GE19MSL   +99999+99999GF199999990990003961991991MA1102375099915REMMET10201/01/14 04:51:02 METAR KORD 011051Z 35007KT 8SM OVC013 M10/M13 A3023 RMK AO2 SLP251 T11001128 $ (SMN)
0381725300948462014010111517+41995-087934FM-15+0205KORD V0303605N00365003665MN0112655N5-00945-01225102515ADDAA101000095AA206000021AA324007691AJ100089500007694GA1085+003665991GD14991+0036659GE19MSL   +99999+99999GF199999990990003661991991KA1060M-00941KA2060N-01221MA1102375099915MD1690064+9999REMMET15001/01/14 05:51:02 METAR KORD 011151Z 36007KT 7SM OVC012 M09/M12 A3023 RMK AO2 SLP251 4/003 60000 70030 I1000 I6000 T10941122 11094 21122 56006 $ (SMN)EQDQ01  00008PRCP06Q02  00768PRCP24
0258725300948462014010112004+41983-087900FM-12+020599999V0203601N003619999999N011000199-00941-01221102511ADDAA106000021AA224007631AJ100083100080094GE19MSL   +99999+99999GF108991990990999990991991KA1240N-01201MA1999990099971MD1610061+9999REMSYN09872530 12461 83607 11094 21122 39997 40251 56006 69901 91151 333 11111 21122 4/008 70076 555 90112=EQDQ01-112EATMX    
0321725300948462014010112367+41995-087934FM-16+0205KORD V0300105N00415002445MN0064375N5-00945-01175999999ADDAA101000021AU110030015AU200001015AW1105AW2715GA1075+002445991GA2085+003665991GD13991+0024451GD24991+0036659GE19MSL   +99999+99999GF199999990990002441991991MA1102375099915REMMET13901/01/14 06:36:02 SPECI KORD 011236Z 01008KT 4SM -SN BR BKN008 OVC012 M09/M12 A3023 RMK AO2 SNB30 CIG 006V010 P0000 I1000 T10941117 $ (BLH)
0296725300948462014010112517+41995-087934FM-15+0205KORD V0300105N00465002445MN0064375N5-00895-01175102495ADDAA101000395AU110030015AW1715GA1075+002445991GA2085+003665991GD13991+0024459GD24991+0036659GE19MSL   +99999+99999GF199999990990002441991991MA1102375099915REMMET13101/01/14 06:51:02 METAR KORD 011251Z 01009KT 4SM -SN BKN008 OVC012 M09/M12 A3023 RMK AO2 SNB30 SLP249 P0000 I1000 T10891117 $ (BLH)
0251725300948462014010113257+41995-087934FM-16+0205KORD V0300405N00315003055MN0080475N5-00835-01115999999ADDAA101000231AU110030015AW1715GA1085+003055991GD14991+0030551GE19MSL   +99999+99999GF199999990990003051991991MA1102375099915REMMET11701/01/14 07:25:02 SPECI KORD 011325Z 04006KT 5SM -SN OVC010 M08/M11 A3023 RMK AO2 CIG 007V013 P0001 T10831111 $ (BLH)
0251725300948462014010113437+41995-087934FM-16+0205KORD V0300205N00215003055MN0064375N5-00835-01115999999ADDAA101000231AU110030015AW1715GA1085+003055991GD14991+0030551GE19MSL   +99999+99999GF199999990990003051991991MA1102375099915REMMET11701/01/14 07:43:02 SPECI KORD 011343Z 02004KT 4SM -SN OVC010 M08/M11 A3023 RMK AO2 CIG 008V013 P0001 T10831111 $ (BLH)
0175725300948462014010113496+41995-087934FM-16+0205KORD V0300505V00365003055MN0096565N5-00805-01105999999ADDAU110030015AW1715GA1085+003055999GD14991+0030559MA1102375099915REMMET10001/01/14 07:49:02 SPECI KORD 011349Z 05007KT 6SM -SN OVC010 M08/M11 A3023 RMK AO2 P0001 $ FIBI (BLH)
0246725300948462014010113517+41995-087934FM-15+0205KORD V0300805N00365003055MN0096565N5-00725-01065102515ADDAA101000025AU110030015AW1715GA1085+003055991GD14991+0030559GE19MSL   +99999+99999GF199999990990003051991991MA1102375099915REMMET11201/01/14 07:51:02 METAR KORD 011351Z 08007KT 6SM -SN OVC010 M07/M11 A3023 RMK AO2 SLP251 P0001 T10721106 $ (BLH)
0257725300948462014010114147+41995-087934FM-16+0205KORD V0300705N00465003965MN0048285N5-00615-00945999999ADDAA101000021AU110030015AW1715GA1085+003965991GD14991+0039659GE19MSL   +99999+99999GF199999990990003961991991MA1102405099945REMMET12301/01/14 08:14:02 SPECI KORD 011414Z 07009KT 3SM R10L/5500VP6000FT -SN OVC013 M06/M09 A3024 RMK AO2 P0000 T10611094 $ (BLH)
0257725300948462014010114317+41995-087934FM-16+0205KORD V0300705N00515003965MN0016095N5-00615-00945999999ADDAA101000231AU110030015AW1715GA1085+003965991GD14991+0039659GE19MSL   +99999+99999GF199999990990003961991991MA1102405099945REMMET12301/01/14 08:31:02 SPECI KORD 011431Z 07010KT 1SM R10L/5500VP6000FT -SN OVC013 M06/M09 A3024 RMK AO2 P0001 T10611094 $ (BLH)
0247725300948462014010114547+41995-087934FM-16+0205KORD V0300705N005750036619N0016095N5-00611-00941102531ADDAA101000231AW1711GA1991+003661991GA2991+004571991GD13991+0036619GD24991+0045719GE19MSL   +99999+99999GF199999990990003661991991MA1102441999990REMMET05801/01/14 08:54:02 SPECI KORD 011454Z 07011KT 1SM RVRNO RMKEQDR01      7SKY009R02      7GAS009
0249725300948462014010115067+41995-087934FM-16+0205KORD V0300705N006250036619N0012075N5-00611-00941999999ADDAA101000531AW1711GA1991+003661991GA2991+005791991GD13991+0036619GD24991+0057919GE19MSL   +99999+99999GF199999990990003661991991MA1102441999990REMMET06001/01/14 09:06:02 SPECI KORD 011506Z 07012KT 3/4SM RVRNO RMKEQDR01      7SKY009R02      7GAS009
0255725300948462014010115397+41995-087934FM-16+0205KORD V0300705N00465003965WN0016095N5-00615-00945999999ADDAA101000531AU110030015AW1715GA1095+003965991GD15991+0039659GE19MSL   +99999+99999GF109991990990003961991991MA1102475100015REMMET12101/01/14 09:39:02 SPECI KORD 011539Z 07009KT 1SM R10L/3000V6000FT -SN VV013 M06/M09 A3026 RMK AO2 P0002 T10611094 $ (BLH)
0258725300948462014010115497+41995-087934FM-16+0205KORD V0300605N00625004275WN0012075N5-00605-00905999999ADDAA101001031AU110030015AW1715GA1095+004275991GD15991+0042759GE19MSL   +99999+99999GF109991990990004271991991MA1102475100015OC101035REMMET11601/01/14 09:49:02 SPECI KORD 011549Z 06012G20KT 3/4SM R10L/2000V3000FT -SN VV014 M06/M09 A3026 RMK AO2 P0004 $ (BLH)
0275725300948462014010115517+41995-087934FM-15+0205KORD V0300605N00625004275WN0012075N5-00615-00945102615ADDAA101000895AU110030015AW1715GA1095+004275991GD15991+0042759GE19MSL   +99999+99999GF109991990990004271991991MA1102475100015OC101035REMMET13301/01/14 09:51:02 METAR KORD 011551Z 06012G20KT 3/4SM R10L/2000V3000FT -SN VV014 M06/M09 A3026 RMK AO2 SLP261 P0004 T10611094 $ (BLH)
0257725300948462014010115537+41995-087934FM-16+0205KORD V0300605N00725004575WN0012075N5-00615-00945999999ADDAA101000021AU110030015AW1715GA1095+004575991GD15991+0045759GE19MSL   +99999+99999GF109991990990004571991991MA1102475100015REMMET12301/01/14 09:53:02 SPECI KORD 011553Z 06014KT 3/4SM R10L/2000V4500FT -SN VV015 M06/M09 A3026 RMK AO2 P0000 T10611094 $ (BLH)
0313725300948462014010116487+41995-087934FM-16+0205KORD V0300605N00725003665WN0008051NA-00605-00905999999ADDAA101000531AU120030019AW1726GA1095+003665991GD15991+0036659GE19MSL   +99999+99999GF109991990990003661991991MA1102405099945REMMET11201/01/14 10:48:02 SPECI KORD 011648Z 06014KT 1/2SM R10L/2600V3500FT SN VV012 M06/M09 A3024 RMK AO2 P0002 $ (BLH)EQDR01 1/2SM7VIS018R02    SN7AWW018R03SEERMK7MVW018R04    SN7MWW018
0330725300948462014010116517+41995-087934FM-15+0205KORD V0300605N00725003665WN0008051NA-00615-00945102545ADDAA101000595AU120030019AW1726GA1095+003665991GD15991+0036659GE19MSL   +99999+99999GF109991990990003661991991MA1102405099945REMMET12901/01/14 10:51:02 METAR KORD 011651Z 06014KT 1/2SM R10L/3000V4000FT SN VV012 M06/M09 A3024 RMK AO2 SLP254 P0002 T10611094 $ (BLH)EQDR01 1/2SM7VIS018R02    SN7AWW018R03SEERMK7MVW018R04    SN7MWW018
0323725300948462014010117087+41995-087934FM-16+0205KORD V0300605N00675002745WN0008051NA-00615-00945999999ADDAA101000231AU120030019AW1726GA1095+002745991GD15991+0027459GE19MSL   +99999+99999GF109991990990002741991991MA1102405099945REMMET12201/01/14 11:08:02 SPECI KORD 011708Z 06013KT 1/2SM R10L/3500V5000FT SN VV009 M06/M09 A3024 RMK AO2 P0001 T10611094 $ (BLH)EQDR01 1/2SM7VIS018R02    SN7AWW018R03SEERMK7MVW018R04    SN7MWW018
0206725300948462014010117496+41995-087934FM-16+0205KORD V0300605N00675003665WN0012075N5-00605-00905999999ADDAU110030015AW1715GA1095+003665999GD15991+0036659MA1102345099885REMMET13101/01/14 11:49:02 SPECI KORD 011749Z 06013KT 3/4SM R10L/1200V3500FT -SN VV012 M06/M09 A3022 RMK AO2 4/004 933019 P0002 $ FIBI (BLH)
0388725300948462014010117517+41995-087934FM-15+0205KORD V0300605N00675003665WN0012075N5-00615-00945102475ADDAA101000896AA206002391AJ100109500010194AU110030015AW1715GA1095+003665991GD15991+0036659GE19MSL   +99999+99999GF109991990990003661991991KA1060M-00611KA2060N-01001MA1102345099885MD1890134+9999REMMET16701/01/14 11:51:02 METAR KORD 011751Z 06013KT 3/4SM R10L/1200V4000FT -SN VV012 M06/M09 A3022 RMK AO2 SLP247 4/004 933019 P0002 60009 T10611094 11061 21100 58013 $ (BLH)EQDQ01  00228PRCP06
0199725300948462014010118004+41983-087900FM-12+020599999V0200601N006719999999N001200199-00611-00941102471ADDAA106002031AJ100103100100094KA1120M-00611KA2120N-01221MA1999990099931MD1810131+9999MW1711REMSYN09872530 11412 /0613 11061 21094 39993 40247 58013 60021 771// 91751 333 11061 21122 4/010 555 90118=
0316725300948462014010118267+41995-087934FM-16+0205KORD V0300505N00625005185MN0016095N5-00615-00945999999ADDAA101000531AU110030015AU225030015AW1275AW2715GA1075+005185991GA2085+007925991GD13991+0051859GD24991+0079259GE19MSL   +99999+99999GF199999990990005181991991MA1102345099885REMMET13401/01/14 12:26:02 SPECI KORD 011826Z 05012KT 1SM R10L/2000V6000FT -SN BLSN BKN017 OVC026 M06/M09 A3022 RMK AO2 P0002 T10611094 $ (BLH)
0279725300948462014010118437+41995-087934FM-16+0205KORD V0300605N00675004275WN0012075N5-00615-00945999999ADDAA101000731AU110030015AU225030015AW1275AW2715GA1095+004275991GD15991+0042759GE19MSL   +99999+99999GF109991990990004271991991MA1102305099845REMMET12801/01/14 12:43:02 SPECI KORD 011843Z 06013KT 3/4SM R10L/3500V5500FT -SN BLSN VV014 M06/M09 A3021 RMK AO2 P0003 T10611094 $ (BLH)
0286725300948462014010118517+41995-087934FM-15+0205KORD V0300505N00575004275WN0012075N5-00615-00945102425ADDAA101000595AU110030015AU225030015AW1275AW2715GA1095+004275991GD15991+0042759GE19MSL   +99999+99999GF109991990990004271991991MA1102305099845REMMET13501/01/14 12:51:02 METAR KORD 011851Z 05011KT 3/4SM R10L/4000V5500FT -SN BLSN VV014 M06/M09 A3021 RMK AO2 SLP242 P0003 T10611094 $ (BLH)
0278725300948462014010119107+41995-087934FM-16+0205KORD V0300505N00775004275WN0016095N5-00615-00945999999ADDAA101000231AU110030015AU225030015AW1275AW2715GA1095+004275991GD15991+0042759GE19MSL   +99999+99999GF109991990990004271991991MA1102275099815REMMET12701/01/14 13:10:02 SPECI KORD 011910Z 05015KT 1SM R10L/2000VP6000FT -SN BLSN VV014 M06/M09 A3020 RMK AO2 P0001 T10611094 $ (BLH)
0318725300948462014010119337+41995-087934FM-16+0205KORD V0300605N00775005185MN0012075N5-00615-00945999999ADDAA101000231AU110030015AU225030015AW1275AW2715GA1075+005185991GA2085+006715991GD13991+0051859GD24991+0067159GE19MSL   +99999+99999GF199999990990005181991991MA1102245099785REMMET13601/01/14 13:33:02 SPECI KORD 011933Z 06015KT 3/4SM R10L/3500V4500FT -SN BLSN BKN017 OVC022 M06/M09 A3019 RMK AO2 P0001 T10611094 $ (BLH)
0286725300948462014010119517+41995-087934FM-15+0205KORD V0300505N00625004575WN0012075N5-00615-00945102375ADDAA101000595AU110030015AU225030015AW1275AW2715GA1095+004575991GD15991+0045759GE19MSL   +99999+99999GF109991990990004571991991MA1102245099785REMMET13501/01/14 13:51:02 METAR KORD 011951Z 05012KT 3/4SM R10L/3000V3500FT -SN BLSN VV015 M06/M09 A3019 RMK AO2 SLP237 P0002 T10611094 $ (BLH)
0381725300948462014010120517+41995-087934FM-15+0205KORD V0300605N00675005185MN0012075N5-00615-00945102335ADDAA101000895AA203001891AU110030015AU225030015AW1275AW2715GA1025+003355991GA2085+005185991GD11991+0033559GD24991+0051859GE19MSL   +99999+99999GF199999990990003351991991MA1102205099745MD1690144+9999REMMET15501/01/14 14:51:02 METAR KORD 012051Z 06013KT 3/4SM R10L/3000V5500FT -SN BLSN FEW011 OVC017 M06/M09 A3018 RMK AO2 SLP233 P0002 60007 T10611094 56014 $ (KLC)EQDQ01  00178PRCP03
0287725300948462014010121517+41995-087934FM-15+0205KORD V0300505N00515005185WN0012075N5-00615-00945102355ADDAA101000595AU110030015AU225030015AW1275AW2715GA1095+005185991GD15991+0051859GE19MSL   +99999+99999GF109991990990005181991991MA1102245099785REMMET13601/01/14 15:51:02 METAR KORD 012151Z 05010KT 3/4SM R10L/3500VP6000FT -SN BLSN VV017 M06/M09 A3019 RMK AO2 SLP235 P0003 T10611094 $ (KLC)
0319725300948462014010122207+41995-087934FM-16+0205KORD V0300505N00625003965MN0012075N5-00615-00895999999ADDAA101000231AU110030015AU225030015AW1275AW2715GA1075+003965991GA2085+005795991GD13991+0039659GD24991+0057959GE19MSL   +99999+99999GF199999990990003961991991MA1102205099745REMMET13701/01/14 16:20:02 SPECI KORD 012220Z 05012KT 3/4SM R10L/4500VP6000FT -SN BLSN BKN013 OVC019 M06/M09 A3018 RMK AO2 P0001 T10611089 $ (KLC)
0319725300948462014010122337+41995-087934FM-16+0205KORD V0300405N00575004575MN0012075N5-00565-00895999999ADDAA101000231AU110030015AU225030015AW1275AW2715GA1075+004575991GA2085+007015991GD13991+0045759GD24991+0070159GE19MSL   +99999+99999GF199999990990004571991991MA1102205099745REMMET13701/01/14 16:33:02 SPECI KORD 012233Z 04011KT 3/4SM R10L/5500VP6000FT -SN BLSN BKN015 OVC023 M06/M09 A3018 RMK AO2 P0001 T10561089 $ (KLC)
0309725300948462014010122457+41995-087934FM-16+0205KORD V0300405N00515005495MN0020125N5-00605-00905999999ADDAA101000231AU110030015AW1715GA1045+003965991GA2075+005495991GA3085+007015991GD12991+0039659GD23991+0054959GD34991+0070159GE19MSL   +99999+99999GF199999990990003961991991MA1102205099745REMMET11301/01/14 16:45:02 SPECI KORD 012245Z 04010KT 1 1/4SM -SN SCT013 BKN018 OVC023 M06/M09 A3018 RMK AO2 P0001 $ (KLC)
0306725300948462014010122517+41995-087934FM-15+0205KORD V0300505N00515004575MN0020125N5-00615-00895102325ADDAA101000595AU110030015AW1715GA1075+004575991GA2085+006715991GD13991+0045759GD24991+0067159GE19MSL   +99999+99999GF199999990990004571991991MA1102205099745REMMET14101/01/14 16:51:02 METAR KORD 012251Z 05010KT 1 1/4SM R10L/2200VP6000FT -SN BKN015 OVC022 M06/M09 A3018 RMK AO2 SLP232 P0002 T10611089 $ (KLC)
0341725300948462014010123267+41995-087934FM-16+0205KORD V0300605N00625005185MN0028165N5-00615-00895999999ADDAA101000021AU110030015AU225030015AW1275AW2715GA1025+003665991GA2075+005185991GA3085+008845991GD11991+0036659GD23991+0051859GD34991+0088459GE19MSL   +99999+99999GF199999990990003661991991MA1102205099745REMMET12801/01/14 17:26:02 SPECI KORD 012326Z 06012KT 1 3/4SM -SN BLSN FEW012 BKN017 OVC029 M06/M09 A3018 RMK AO2 P0000 T10611089 $ (KLC)
0456725300948462014010123517+41995-087934FM-15+0205KORD V0300505N00675006405MN0028165N5-00565-00895102315ADDAA101000392AA201000022AA306003091AJ100139500012794AU110030015AU225030015AW1275AW2715GA1075+006405991GA2085+008845991GD13991+0064059GD24991+0088459GE19MSL   +99999+99999GF199999990990006401991991KA1060M-00561KA2060N-00611MA1102205099745MD1690034+9999REMMET17601/01/14 17:51:02 METAR KORD 012351Z 05013KT 1 3/4SM R10L/4500VP6000FT -SN BLSN BKN021 OVC029 M06/M09 A3018 RMK AO2 SLP231 4/005 P0000 60012 T10561089 11056 21061 56003 $ (KLC)EQDQ01  00308PRCP06
0253725300948462014010200004+41983-087900FM-12+020599999V0200501N006719999999N002800199-00561-00891102311ADDAA106003031AJ100133100130094GE19MSL   +99999+99999GF108991990990999990991991KA1120M-00561KA2120N-01221MA1999990099801MD1610031+9999MW1711REMSYN10472530 11528 80513 11056 21089 39980 40231 56003 60031 771// 92351 333 11056 21122 4/013 96038 555 90200=
0353725300948462014010200077+41995-087934FM-16+0205KORD V0300505N00625008235MN0040235N5-00565-00895999999ADDAA101000021AU110030015AU225030015AW1275AW2715GA1025+003665991GA2025+005185991GA3085+008235991GD11991+0036659GD21991+0051859GD34991+0082359GE19MSL   +99999+99999GF199999990990003661991991MA1102205099745REMMET14001/01/14 18:07:01 SPECI KORD 020007Z 05012KT 2 1/2SM R10L/5000VP6000FT -SN BLSN FEW012 FEW017 OVC027 M06/M09 A3018 RMK AO2 P0000 T10561089 $
0335725300948462014010200227+41995-087934FM-16+0205KORD V0300505N00625008845MN0028165N5-00565-00895999999ADDAA101000231AU110030015AU225030015AW1275AW2715GA1025+003665991GA2045+007015991GA3085+008845991GD11991+0036659GD22991+0070159GD34991+0088459GE19MSL   +99999+99999GF199999990990003661991991MA1102205099745REMMET12201/01/14 18:22:01 SPECI KORD 020022Z 05012KT 1 3/4SM -SN BLSN FEW012 SCT023 OVC029 M06/M09 A3018 RMK AO2 P0001 T10561089 $
0315725300948462014010200417+41995-087934FM-16+0205KORD V0300505N00675007015MN0028165N5-00565-00895999999ADDAA101000531AU110030015AU225030015AW1275AW2715GA1025+003665991GA2085+007015991GD11991+0036659GD24991+0070159GE19MSL   +99999+99999GF199999990990003661991991MA1102205099745REMMET13301/01/14 18:41:01 SPECI KORD 020041Z 05013KT 1 3/4SM R10L/5000VP6000FT -SN BLSN FEW012 OVC023 M06/M09 A3018 RMK AO2 P0002 T10561089 $
0315725300948462014010200517+41995-087934FM-15+0205KORD V0300505N00515007015MN0028165N5-00565-00895102335ADDAA101000595AU110030015AU225030015AW1275AW2715GA1025+003665991GA2085+007015991GD11991+0036659GD24991+0070159GE19MSL   +99999+99999GF199999990990003661991991MA1102205099745OC100985REMMET12501/01/14 18:51:01 METAR KORD 020051Z 05010G19KT 1 3/4SM -SN BLSN FEW012 OVC023 M06/M09 A3018 RMK AO2 SLP233 P0002 T10561089 $
0297725300948462014010201197+41995-087934FM-16+0205KORD V0300505N00575004885MN0020125N5-00565-00895999999ADDAA101000021AU110030015AU225030015AW1275AW2715GA1025+003055991GA2085+004885991GD11991+0030559GD24991+0048859GE19MSL   +99999+99999GF199999990990003051991991MA1102205099745REMMET11501/01/14 19:19:01 SPECI KORD 020119Z 05011KT 1 1/4SM -SN BLSN FEW010 OVC016 M06/M09 A3018 RMK AO2 P0000 T10561089 $
0277725300948462014010201367+41995-087934FM-16+0205KORD V0300505N00625003965MN0020125N5-00565-00895999999ADDAA101000231AU110030015AU225030015AW1275AW2715GA1085+003965991GD14991+0039659GE19MSL   +99999+99999GF199999990990003961991991MA1102205099745REMMET12601/01/14 19:36:01 SPECI KORD 020136Z 05012KT 1 1/4SM R10L/5000VP6000FT -SN BLSN OVC013 M06/M09 A3018 RMK AO2 P0001 T10561089 $
0322725300948462014010201517+41995-087934FM-15+0205KORD V0300605N00515003665MN0020125N5-00565-00895102315ADDAA101000395AU110030015AU225030015AW1275AW2715GA1075+003665991GA2085+006715991GD13991+0036659GD24991+0067159GE19MSL   +99999+99999GF199999990990003661991991MA1102205099745REMMET14001/01/14 19:51:01 METAR KORD 020151Z 06010KT 1 1/4SM R10L/5000VP6000FT -SN BLSN BKN012 OVC022 M06/M09 A3018 RMK AO2 SLP231 P0001 T10561089 $
0382725300948462014010202147+41995-087934FM-16+0205KORD V0300605N00461003055MN0024145N5-00565-00895999999ADDAA101000021AU110030019AU225030019AW1276AW2716GA1075+003055991GA2085+004885991GD13991+0030559GD24991+0048859GE19MSL   +99999+99999GF199999990990003051991991MA1102205099745REMMET13301/01/14 20:14:01 SPECI KORD 020214Z 06009KT 1 1/2SM R10L/5500VP6000FT -SN BLSN BKN010 OVC016 M06/M09 A3018 RMK AO2 P0000 T10561089 $EQDR01    097WNS020R02-SN BL7AWW020R03SEERMK7MVW020R04-SN BL7MWW020
0360725300948462014010202517+41995-087934FM-15+0205KORD V0300605N00625004275MN0028165N5-00615-00945102315ADDAA101000395AA203001091AU110030015AU225030015AW1275AW2715GA1075+004275991GA2085+005495991GD13991+0042759GD24991+0054959GE19MSL   +99999+99999GF199999990990004271991991MA1102205099745MD1090004+9999REMMET13401/01/14 20:51:01 METAR KORD 020251Z 06012KT 1 3/4SM -SN BLSN BKN014 OVC018 M06/M09 A3018 RMK AO2 SLP231 P0001 60004 T10611094 50000 $EQDQ01  00108PRCP03
0331725300948462014010203037+41995-087934FM-16+0205KORD V0300605N00625006105MN0032195N5-00615-00945999999ADDAA101000021AU110030015AU225030015AW1275AW2715GA1025+003665991GA2075+006105991GA3085+009455991GD11991+0036659GD23991+0061059GD34991+0094559GE19MSL   +99999+99999GF199999990990003661991991MA1102205099745REMMET11801/01/14 21:03:02 SPECI KORD 020303Z 06012KT 2SM -SN BLSN FEW012 BKN020 OVC031 M06/M09 A3018 RMK AO2 P0000 T10611094 $
0331725300948462014010203307+41995-087934FM-16+0205KORD V0300605N00625007625MN0048285N5-00615-00945999999ADDAA101000021AU110030015AU225030015AW1275AW2715GA1045+004275991GA2075+007625991GA3085+010065991GD12991+0042759GD23991+0076259GD34991+0100659GE19MSL   +99999+99999GF199999990990004271991991MA1102175099715REMMET11801/01/14 21:30:02 SPECI KORD 020330Z 06012KT 3SM -SN BLSN SCT014 BKN025 OVC033 M06/M09 A3017 RMK AO2 P0000 T10611094 $
0300725300948462014010203517+41995-087934FM-15+0205KORD V0300505N00575007625MN0048285N5-00615-00945102265ADDAA101000025AU110030015AU225030015AW1275AW2715GA1045+003965991GA2085+007625991GD12991+0039659GD24991+0076259GE19MSL   +99999+99999GF199999990990003961991991MA1102175099715REMMET11801/01/14 21:51:02 METAR KORD 020351Z 05011KT 3SM -SN BLSN SCT013 OVC025 M06/M09 A3017 RMK AO2 SLP226 P0000 T10611094 $
0255725300948462014010204137+41995-087934FM-16+0205KORD V0300505N00575005795MN0064375N5-00615-01005999999ADDAA101000021AU110030015AU225030015AW1275AW2715GA1085+005795991GD14991+0057959GE19MSL   +99999+99999GF199999990990005791991991MA1102175099715REMMET10401/01/14 22:13:02 SPECI KORD 020413Z 05011KT 4SM -SN BLSN OVC019 M06/M10 A3017 RMK AO2 P0000 T10611100 $
0262725300948462014010204517+41995-087934FM-15+0205KORD V0300605N00575005185MN0064375N5-00615-01005102245ADDAA101000025AU110030015AU225030015AW1275AW2715GA1085+005185991GD14991+0051859GE19MSL   +99999+99999GF199999990990005181991991MA1102135099685REMMET11101/01/14 22:51:02 METAR KORD 020451Z 06011KT 4SM -SN BLSN OVC017 M06/M10 A3016 RMK AO2 SLP224 P0000 T10611100 $
0203725300948462014010205496+41995-087934FM-16+0205KORD V0300505N00725004275MN0064375N5-00605-01005999999ADDAU110030015AU225030015AW1275AW2715GA1085+004275999GD14991+0042759MA1102075099615REMMET11101/01/14 23:49:03 SPECI KORD 020549Z 05014KT 4SM -SN BLSN OVC014 M06/M10 A3014 RMK AO2 4/005 P0000 $ FIBI (SMN)
0415725300948462014010205517+41995-087934FM-15+0205KORD V0300505N00725004275MN0096565N5-00615-01005102175ADDAA101000025AA206001091AJ100139500012794AU110030015AU225030015AW1275AW2715GA1085+004275991GD14991+0042759GE19MSL   +99999+99999GF199999990990004271991991KA1060M-00561KA2060N-00611KA3240M-00561KA4240N-01221MA1102075099615MD1890144+9999REMMET15101/01/14 23:51:02 METAR KORD 020551Z 05014KT 6SM -SN BLSN OVC014 M06/M10 A3014 RMK AO2 SLP217 4/005 P0000 60004 T10611100 11056 21061 410561122 58014 $EQDQ01  00108PRCP06
1011725300948462014010205596+41995-087934SOD  +0205KORD V030999999999999999999999999999+99999+99999999999ADDAA124006495AJ100089599999999AN1024005395KA1024M-00555KA2024N-01215KG1024W-0083D4KG2024D-0106D4MF1099764102404MG1099764102174OE11240107306099995OE22240089406099995OE33240051099999995RH1024X081D4RH2024N074D4RH3024M078D4REMSOD78224 HR PRECIPITATION (IN): 0.25 SNOW DEPTH (IN):3     24 HR SNOWFALL (IN):2.1  WEATHER(CODE):189  24 HR MAX TEMP (F): 2224 HR MIN TEMP (F): 10AVERAGE STATION PRESSURE:29.460 MINIMUM SEA LEVEL PRESSURE:30.17 TIME OF OCCURRENCE:2359 PEAK WIND SPEED (MPH): 24 PEAK WIND DIR (DEG): 60 PEAK WIND TIME (LST):      FASTEST 2MIN SPEED (MPH): 20FASTEST 2MIN DIR (DEG): 60 FASTEST 2MIN TIME (LST):     AVERAGE WIND SPEED (MPH):11.4 24 HR AVG TEMP (F): 16DEPART FROM NORMAL: -8  SKY COVER SR-SS (TENTHS): 1HEATING DEGREE DAYS: 49 COOLING DEGREE DAYS:  0 LATEST DAY MAX TEMP (0700-1900 LST):22  LATEST NIGHT MIN TEMP(1900-0800 LST):10 HOURLY INCREMENTAL PRECIPITATION VALUES (IN):    0.00 0.00 T    0.00 0.00 0.01 T    0.01 0.03 0.02 0.03 0.02 0.02 0.03 0.02 0.02 T    0.02 0.01 0.01 T    T    T
0253725300948462014010206004+41983-087900FM-12+020599999V0200501N007219999999N009000199-00611-01001102171ADDAA106001031AJ100133100130094GE19MSL   +99999+99999GF108991990990999990991991KA1240M-00561KA2240N-01221MA1999990099671MD1810141+9999MW1711REMSYN10472530 11459 80514 11061 21100 39967 40217 58014 60011 771// 90551 333 11056 21122 4/013 96038 555 90206=
0268725300948462014010206517+41995-087934FM-15+0205KORD V0300505N00675004275MN0096565N5-00615-01005102125ADDAA101000025AU110030015AU225030015AW1275AW2715GA1085+004275991GD14991+0042759GE19MSL   +99999+99999GF199999990990004271991991MA1102035099585REMMET11701/02/14 00:51:02 METAR KORD 020651Z 05013KT 6SM -SN BLSN OVC014 M06/M10 A3013 RMK AO2 SLP212 P0000 T10611100 $ (SMN)
0261725300948462014010207187+41995-087934FM-16+0205KORD V0300605N00575004575MN0096565N5-00615-01005999999ADDAA101000021AU110030015AU225030015AW1275AW2715GA1085+004575991GD14991+0045759GE19MSL   +99999+99999GF199999990990004571991991MA1102005099545REMMET11001/02/14 01:18:02 SPECI KORD 020718Z 06011KT 6SM -SN BLSN OVC015 M06/M10 A3012 RMK AO2 P0000 T10611100 $ (SMN)
0246725300948462014010207517+41995-087934FM-15+0205KORD V0300505N00575004575MN0112655N5-00615-01005102115ADDAA101000025AU110030015AW1715GA1085+004575991GD14991+0045759GE19MSL   +99999+99999GF199999990990004571991991MA1102005099545REMMET11201/02/14 01:51:02 METAR KORD 020751Z 05011KT 7SM -SN OVC015 M06/M10 A3012 RMK AO2 SLP211 P0000 T10611100 $ (SMN)
0239725300948462014010208407+41995-087934FM-16+0205KORD V0300505N00575004575MN0064375N5-00615-01005999999ADDAA101000021AU110030015AW1715GA1085+004575991GD14991+0045759GE19MSL   +99999+99999GF199999990990004571991991MA1102005099545REMMET10501/02/14 02:40:02 SPECI KORD 020840Z 05011KT 4SM -SN OVC015 M06/M10 A3012 RMK AO2 P0000 T10611100 $ (SMN)
0239725300948462014010208537+41995-087934FM-15+0205KORD V0300505N00515004575MN0048285N5-00615-01005999999ADDAA101000025AU110030015AW1715GA1085+004575991GD14991+0045759GE19MSL   +99999+99999GF199999990990004571991991MA1102005099545REMMET10501/02/14 02:53:02 METAR KORD 020853Z 05010KT 3SM -SN OVC015 M06/M10 A3012 RMK AO2 P0000 T10611100 $ (SMN)
0239725300948462014010209137+41995-087934FM-16+0205KORD V0300505N00465006105MN0032195N5-00615-00945999999ADDAA101000231AU110030015AW1715GA1085+006105991GD14991+0061059GE19MSL   +99999+99999GF199999990990006101991991MA1101935099485REMMET10501/02/14 03:13:02 SPECI KORD 020913Z 05009KT 2SM -SN OVC020 M06/M09 A3010 RMK AO2 P0001 T10611094 $ (SMN)
0239725300948462014010209317+41995-087934FM-16+0205KORD V0300405N00415006105MN0032195N5-00615-00895999999ADDAA101000231AU110030015AW1715GA1085+006105991GD14991+0061059GE19MSL   +99999+99999GF199999990990006101991991MA1101935099485REMMET10501/02/14 03:31:02 SPECI KORD 020931Z 04008KT 2SM -SN OVC020 M06/M09 A3010 RMK AO2 P0001 T10611089 $ (SMN)
0179725300948462014010209496+41995-087934FM-16+0205KORD V0300405N00465006105MN0024145N5-00605-00905999999ADDAU110030015AW1715GA1085+006105999GD14991+0061059MA1101935099485REMMET10401/02/14 03:49:02 SPECI KORD 020949Z 04009KT 1 1/2SM -SN OVC020 M06/M09 A3010 RMK AO2 P0001 $ FIBI (SMN)
0288725300948462014010209517+41995-087934FM-15+0205KORD V0300305N00515005495MN0024145N5-00615-00895102015ADDAA101000395AU110030015AW1715GA1075+005495991GA2085+007625991GD13991+0054959GD24991+0076259GE19MSL   +99999+99999GF199999990990005491991991MA1101935099485REMMET12301/02/14 03:51:02 METAR KORD 020951Z 03010KT 1 1/2SM -SN BKN018 OVC025 M06/M09 A3010 RMK AO2 SLP201 P0001 T10611089 $ (SMN)
0319725300948462014010210207+41995-087934FM-16+0205KORD V0303405N00515003965MN0024145N5-00835-01115999999ADDAA101000231AU110030015AW1715GA1025+002745991GA2075+003965991GA3085+009145991GD11991+0027459GD23991+0039659GD34991+0091459GE19MSL   +99999+99999GF199999990990002741991991MA1101905099455REMMET12301/02/14 04:20:02 SPECI KORD 021020Z 34010KT 1 1/2SM -SN FEW009 BKN013 OVC030 M08/M11 A3009 RMK AO2 P0001 T10831111 $ (SMN)
0299725300948462014010210337+41995-087934FM-16+0205KORD V0303405N00515003355MN0020125N5-00835-01115999999ADDAA101000231AU110030015AW1715GA1075+003355991GA2085+005495991GD13991+0033559GD24991+0054959GE19MSL   +99999+99999GF199999990990003351991991MA1101905099455REMMET13401/02/14 04:33:02 SPECI KORD 021033Z 34010KT 1 1/4SM R10L/4500VP6000FT -SN BKN011 OVC018 M08/M11 A3009 RMK AO2 P0001 T10831111 $ (SMN)
0250725300948462014010210517+41995-087934FM-15+0205KORD V0303405N00515003355MN0020125N5-00835-01115102005ADDAA101000595AU110030015AW1715GA1085+003355991GD14991+0033559GE19MSL   +99999+99999GF199999990990003351991991MA1101905099455REMMET11601/02/14 04:51:02 METAR KORD 021051Z 34010KT 1 1/4SM -SN OVC011 M08/M11 A3009 RMK AO2 SLP200 P0002 T10831111 $ (SMN)
0269725300948462014010211407+41995-087934FM-16+0205KORD V0303505N00465002745MN0016095N5-00785-01065999999ADDAA101000231AU110030015AW1715GA1085+002745991GD14991+0027451GE19MSL   +99999+99999GF199999990990002741991991MA1101935099485REMMET13501/02/14 05:40:02 SPECI KORD 021140Z 35009KT 1SM R10L/4500VP6000FT -SN OVC009 M08/M11 A3010 RMK AO2 CIG 008V013 P0001 T10781106 $ (SMN)
0401725300948462014010211517+41995-087934FM-15+0205KORD V0303505N00465002745MN0016095N5-00785-01065102055ADDAA101000396AA206001091AA324007491AJ100159500015294AU110030015AW1715GA1085+002745991GD14991+0027459GE19MSL   +99999+99999GF199999990990002741991991KA1060M-00611MA1101965099515MD1390034+9999REMMET16601/02/14 05:51:02 METAR KORD 021151Z 35009KT 1SM R10L/5000VP6000FT -SN OVC009 M08/M11 A3011 RMK AO2 SLP205 4/006 P0001 60004 70029 T10781106 11061 21083 53003 $ (SMN)EQDQ01  00108PRCP06Q02  00738PRCP24
0264725300948462014010212004+41983-087900FM-12+020599999V0203501N004619999999N001600199-00781-01061102051ADDAA106001031AA224007431AJ100153100150094GE19MSL   +99999+99999GF108991990990999990991991KA1240M-00561KA2240N-00831MA1999990099571MD1310031+9999MW1711REMSYN10472530 11316 83509 11078 21106 39957 40205 53003 60011 771// 91151 333 11056 21083 4/015 70074 555 90212=
0264725300948462014010212517+41995-087934FM-15+0205KORD V0303505N00515002745MN0016095N5-00835-01115102115ADDAA101000895AU110030015AW1715GA1085+002745991GD14991+0027459GE19MSL   +99999+99999GF199999990990002741991991MA1102005099545REMMET13001/02/14 06:51:02 METAR KORD 021251Z 35010KT 1SM R10L/4000VP6000FT -SN OVC009 M08/M11 A3012 RMK AO2 SLP211 P0002 T10831111 $ (EPA)
0322725300948462014010213327+41995-087934FM-16+0205KORD V0303405N00575002745MN0008051NA-00835-01175999999ADDAA101000731AU120030019AW1726GA1085+002745991GD14991+0027459GE19MSL   +99999+99999GF199999990990002741991991MA1102035099585REMMET12101/02/14 07:32:02 SPECI KORD 021332Z 34011KT 1/2SM R10L/3000V6000FT SN OVC009 M08/M12 A3013 RMK AO2 P0003 T10831117 (EPA)EQDR01 1/2SM7VIS018R02    SN7AWW018R03SEERMK7MVW018R04    SN7MWW018
0340725300948462014010213517+41995-087934FM-15+0205KORD V0303405N00625002745MN0008051NA-00895-01175102175ADDAA101001395AU120030019AW1726GA1085+002745991GD14991+0027459GE19MSL   +99999+99999GF199999990990002741991991MA1102075099615REMMET13901/02/14 07:51:02 METAR KORD 021351Z 34012KT 1/2SM R10L/3000V4500FT SN OVC009 M09/M12 A3014 RMK AO2 SLP217 SNINCR 1/7 P0005 T10891117 (EPA)EQDR01 1/2SM7VIS018R02    SN7AWW018R03SEERMK7MVW018R04    SN7MWW018
0361725300948462014010214257+41995-087934FM-16+0205KORD V0303505N00515002745MN0004021NA-00895-01175999999ADDAA101000531AU130030019AW1736GA1075+002745991GA2085+004275991GD13991+0027459GD24991+0042759GE19MSL   +99999+99999GF199999990990002741991991MA1102105099645REMMET12901/02/14 08:25:02 SPECI KORD 021425Z 35010KT 1/4SM R10L/1600V4000FT +SN BKN009 OVC014 M09/M12 A3015 RMK AO2 P0002 T10891117 (EPA)EQDR01 1/4SM7VIS018R02   +SN7AWW018R03SEERMK7MVW018R04   +SN7MWW018
0416725300948462014010214517+41995-087934FM-15+0205KORD V0303505N00575002745MN0004021NA-00945-01225102245ADDAA101000595AA203002591AU130030019AU225030019AW1276AW2736GA1085+002745991GD14991+0027459GE19MSL   +99999+99999GF199999990990002741991991MA1102135099685MD1390184+9999REMMET15701/02/14 08:51:02 METAR KORD 021451Z 35011KT 1/4SM R10L/2200V5500FT +SN BLSN OVC009 M09/M12 A3016 RMK AO2 SLP224 SNINCR 1/8 P0003 60010 T10941122 53018 (EPA)EQDQ01  00258PRCP03R01 1/4SM7VIS018R02+SN BL7AWW018R03SEERMK7MVW018R04+SN BL7MWW018
0356725300948462014010215117+41995-087934FM-16+0205KORD V0300305N00625003355MN0008051NA-00785-01175999999ADDAA101000231AU120030019AU225030019AW1276AW2726GA1085+003355991GD14991+0033559GE19MSL   +99999+99999GF199999990990003351991991MA1102175099715OC100935REMMET13001/02/14 09:11:02 SPECI KORD 021511Z 03012G18KT 1/2SM R10L/2800VP6000FT SN BLSN OVC011 M08/M12 A3017 RMK AO2 P0001 T10781117 (EPA)EQDR01 1/2SM7VIS018R02SN BLS7AWW018R03SEERMK7MVW018R04SN BLS7MWW018
0286725300948462014010215517+41995-087934FM-15+0205KORD V0300305N00515003965MN0012075N5-00725-01115102325ADDAA101000595AU110030015AU225030015AW1275AW2715GA1085+003965991GD14991+0039659GE19MSL   +99999+99999GF199999990990003961991991MA1102205099745REMMET13501/02/14 09:51:02 METAR KORD 021551Z 03010KT 3/4SM R10L/3000VP6000FT -SN BLSN OVC013 M07/M11 A3018 RMK AO2 SLP232 P0002 T10721111 (EPA)
0368725300948462014010216417+41995-087934FM-16+0205KORD V0303405N00461004575MN0028165N5-00835-01225999999ADDAA101000021AU110030019AU225030019AW1276AW2716GA1075+004575991GA2085+007625991GD13991+0045759GD24991+0076259GE19MSL   +99999+99999GF199999990990004571991991MA1102245099785REMMET11901/02/14 10:41:02 SPECI KORD 021641Z 34009KT 1 3/4SM -SN BLSN BKN015 OVC025 M08/M12 A3019 RMK AO2 P0000 T10831122 (EPA)EQDR01    097WNS020R02-SN BL7AWW020R03SEERMK7MVW020R04-SN BL7MWW020
0304725300948462014010216517+41995-087934FM-15+0205KORD V0303405N00515004575MN0028165N5-00835-01285102345ADDAA101000595AU110030015AW1715GA1075+004575991GA2085+007625991GD13991+0045759GD24991+0076259GE19MSL   +99999+99999GF199999990990004571991991MA1102245099785REMMET13901/02/14 10:51:02 METAR KORD 021651Z 34010KT 1 3/4SM R10L/4000VP6000FT -SN BKN015 OVC025 M08/M13 A3019 RMK AO2 SLP234 P0002 T10831128 (EPA)
0356725300948462014010217067+41995-087934FM-16+0205KORD V0303405N00625006715MN0008051NA-00835-01225999999ADDAA101000021AU120030019AW1726GA1075+006715991GA2085+008235991GD13991+0067159GD24991+0082359GE19MSL   +99999+99999GF199999990990006711991991MA1102205099745REMMET12401/02/14 11:06:02 SPECI KORD 021706Z 34012KT 1/2SM R10L/P6000FT SN BKN022 OVC027 M08/M12 A3018 RMK AO2 P0000 T10831122 (EPA)EQDR01 1/2SM7VIS018R02    SN7AWW018R03SEERMK7MVW018R04    SN7MWW018
0293725300948462014010217177+41995-087934FM-16+0205KORD V0303305N00675005795MN0032195N5-00895-01285999999ADDAA101000021AU110030015AW1715GA1075+005795991GA2085+007625991GD13991+0057959GD24991+0076259GE19MSL   +99999+99999GF199999990990005791991991MA1102205099745REMMET12801/02/14 11:17:02 SPECI KORD 021717Z 33013KT 2SM R10L/0500VP6000FT -SN BKN019 OVC025 M09/M13 A3018 RMK AO2 P0000 T10891128 (EPA)
0361725300948462014010217297+41995-087934FM-16+0205KORD V0303405N00625005795MN0008051NA-00895-01285999999ADDAA101000231AU120030019AW1726GA1075+005795991GA2085+007625991GD13991+0057959GD24991+0076259GE19MSL   +99999+99999GF199999990990005791991991MA1102205099745REMMET12901/02/14 11:29:02 SPECI KORD 021729Z 34012KT 1/2SM R10L/4000VP6000FT SN BKN019 OVC025 M09/M13 A3018 RMK AO2 P0001 T10891128 (EPA)EQDR01 1/2SM7VIS018R02    SN7AWW018R03SEERMK7MVW018R04    SN7MWW018
0489725300948462014010217517+41995-087934FM-15+0205KORD V0303405N00775005795MN0008051NA-00895-01285102325ADDAA101000396AA206003891AJ100239500022894AU120030019AW1726GA1075+005795991GA2085+007625991GD13991+0057959GD24991+0076259GE19MSL   +99999+99999GF199999990990005791991991KA1060M-00721KA2060N-00941MA1102205099745MD1090074+9999REMMET17301/02/14 11:51:02 METAR KORD 021751Z 34015KT 1/2SM R10L/2200VP6000FT SN BKN019 OVC025 M09/M13 A3018 RMK AO2 SLP232 4/009 933006 P0001 60015 T10891128 11072 21094 50007 (EPA)EQDQ01  00388PRCP06R01 1/2SM7VIS018R02    SN7AWW018R03SEERMK7MVW018R04    SN7MWW018
0247725300948462014010218004+41983-087900FM-12+020599999V0203401N007719999999N000800199-00891-01281102321ADDAA106004031AJ100233100230094GE19MSL   +99999+99999GF108991990990999990991991KA1120M-00611KA2120N-00941MA1999990099801MD1900071+9999MW1731REMSYN09872530 11408 83415 11089 21128 39980 40232 50007 60041 773// 91751 333 11061 21094 4/023 555 90218=
0330725300948462014010218517+41995-087934FM-15+0205KORD V0303405N00675004575MN0008051NA-00895-01335102355ADDAA101000595AU120030019AW1726GA1085+004575991GD14991+0045759GE19MSL   +99999+99999GF199999990990004571991991MA1102245099785REMMET12901/02/14 12:51:02 METAR KORD 021851Z 34013KT 1/2SM R10L/2000VP6000FT SN OVC015 M09/M13 A3019 RMK AO2 SLP235 P0002 T10891133 (EPA)EQDR01 1/2SM7VIS018R02    SN7AWW018R03SEERMK7MVW018R04    SN7MWW018
0335725300948462014010219107+41995-087934FM-16+0205KORD V0303505N00675007325MN0040235N5-00895-01285999999ADDAA101000021AU110030015AW1715GA1075+007325991GA2075+010365991GA3085+015245991GD13991+0073259GD23991+0103659GD34991+0152459GE19MSL   +99999+99999GF199999990990007321991991MA1102245099785REMMET13901/02/14 13:10:02 SPECI KORD 021910Z 35013KT 2 1/2SM R10L/5500VP6000FT -SN BKN024 BKN034 OVC050 M09/M13 A3019 RMK AO2 P0000 T10891128 (EPA)
0345725300948462014010219487+41995-087934FM-16+0205KORD V0303405N00775007925MN0020125N5-00905-01305999999ADDAA101000231AU110030015AU200001015AW1105AW2715GA1075+007925991GA2075+009755991GA3085+014635991GD13991+0079259GD23991+0097559GD34991+0146359GE19MSL   +99999+99999GF199999990990007921991991MA1102275099815REMMET13201/02/14 13:48:02 SPECI KORD 021948Z 34015KT 1 1/4SM R10L/3000VP6000FT -SN BR BKN026 BKN032 OVC048 M09/M13 A3020 RMK AO2 P0001 (EPA)
0291725300948462014010219496+41995-087934FM-16+0205KORD V0303405N00825009755MN0020125N5-00905-01305999999ADDAU110030015AU200001015AW1105AW2715GA1045+007925999GA2075+009755999GA3085+012505999GD12991+0079259GD23991+0097559GD34991+0125059MA1102275099815REMMET13701/02/14 13:49:02 SPECI KORD 021949Z 34016KT 1 1/4SM R10L/3000VP6000FT -SN BR SCT026 BKN032 OVC041 M09/M13 A3020 RMK AO2 P0001 FIBI (EPA)
0426725300948462014010219517+41995-087934FM-15+0205KORD V0303405N00825007925MN0008051NA-00895-01335102385ADDAA101000395AU120030019AU200001019AW1106AW2726GA1075+007925991GA2075+009755991GA3085+012505991GD13991+0079259GD23991+0097559GD34991+0125059GE19MSL   +99999+99999GF199999990990007921991991MA1102275099815REMMET14601/02/14 13:51:02 METAR KORD 021951Z 34016KT 1/2SM R10L/3000VP6000FT SN BR BKN026 BKN032 OVC041 M09/M13 A3020 RMK AO2 SLP238 P0001 T10891133 (EPA)EQDR01 1/2SM7VIS018R02 SN BR7AWW018R03SEERMK7MVW018R04 SN BR7MWW018
0348725300948462014010220197+41995-087934FM-16+0205KORD V0303405N00725006715MN0012075N5-00895-01285999999ADDAA101000021AU110030015AU200001015AW1105AW2715GA1075+006715991GA2075+008845991GA3085+011585991GD13991+0067159GD23991+0088459GD34991+0115859GE19MSL   +99999+99999GF199999990990006711991991MA1102305099845REMMET13501/02/14 14:19:02 SPECI KORD 022019Z 34014KT 3/4SM R10L/P6000FT -SN BR BKN022 BKN029 OVC038 M09/M13 A3021 RMK AO2 P0000 T10891128 (KLC)
0270725300948462014010220247+41995-087934FM-16+0205KORD V0303405N00625007015MN0016095N5-00895-01335999999ADDAA101000021AU110030015AU200001015AW1105AW2715GA1085+007015991GD14991+0070159GE19MSL   +99999+99999GF199999990990007011991991MA1102305099845REMMET11901/02/14 14:24:02 SPECI KORD 022024Z 34012KT 1SM R10L/P6000FT -SN BR OVC023 M09/M13 A3021 RMK AO2 P0000 T10891133 (KLC)
0295725300948462014010220397+41995-087934FM-16+0205KORD V0303405N00775006105MN0032195N5-00895-01335999999ADDAA101000021AU110030015AU200001015AW1105AW2715GA1075+006105991GA2085+009755991GD13991+0061059GD24991+0097559GE19MSL   +99999+99999GF199999990990006101991991MA1102345099885REMMET11301/02/14 14:39:02 SPECI KORD 022039Z 34015KT 2SM -SN BR BKN020 OVC032 M09/M13 A3022 RMK AO2 P0000 T10891133 (KLC)
0320725300948462014010220517+41995-087934FM-15+0205KORD V0303405N00675006715MN0080475N5-00835-01335102465ADDAA101000025AA203000891AU110030015AU200001015AW1105AW2715GA1075+006715991GD13991+0067159GE19MSL   +99999+99999GF199999990990006711991991MA1102345099885MD1390114+9999REMMET12501/02/14 14:51:02 METAR KORD 022051Z 34013KT 5SM -SN BR BKN022 M08/M13 A3022 RMK AO2 SLP246 P0000 60003 T10831133 53011 (KLC)EQDQ01  00078PRCP03
0246725300948462014010221247+41995-087934FM-16+0205KORD V0303405N006252200059N0128755N5-00895-01445999999ADDAA101000021AU125030015AW1275GA1045+007925991GD12991+0079259GE19MSL   +99999+99999GF199999990990007921991991MA1102405099945REMMET11201/02/14 15:24:02 SPECI KORD 022124Z 34012KT 8SM BLSN SCT026 M09/M14 A3024 RMK AO2 SNE2055 P0000 T10891144 (KLC)
0253725300948462014010221517+41995-087934FM-15+0205KORD V0303305N007752200059N0128755N5-00945-01565102565ADDAA101000095AU125030015AW1275GA1045+007925991GD12991+0079259GE19MSL   +99999+99999GF199999990990007921991991MA1102445099985REMMET11901/02/14 15:51:02 METAR KORD 022151Z 33015KT 8SM BLSN SCT026 M09/M16 A3025 RMK AO2 SNE2055 SLP256 P0000 T10941156 (KLC)
0240725300948462014010222517+41995-087934FM-15+0205KORD V0303305N005752200059N0160935N5-01065-01675102685ADDAA101000095AU125030015AW1275GA1025+007925991GD11991+0079259GE19MSL   +99999+99999GF199999990990007921991991MA1102575100115REMMET10601/02/14 16:51:02 METAR KORD 022251Z 33011KT 10SM BLSN FEW026 M11/M17 A3029 RMK AO2 SLP268 T11061167 (KLC)
0357725300948462014010223517+41995-087934FM-15+0205KORD V0303305N006752200059N0160935N5-01225-01835102795ADDAA101000095AA206000891AJ100239500022894AU125030015AW1275GA1025+009145991GD11991+0091459GE19MSL   +99999+99999GF199999990990009141991991KA1060M-00831KA2060N-01221MA1102645100185MD1190304+9999REMMET13601/02/14 17:51:02 METAR KORD 022351Z 33013KT 10SM BLSN FEW030 M12/M18 A3031 RMK AO2 SLP279 4/009 60003 T11221183 11083 21122 51030 (KLC)EQDQ01  00078PRCP06
0247725300948462014010300004+41983-087900FM-12+020599999V0203301N006719999999N016000199-01221-01831102791ADDAA106000831AJ100233100230094GE19MSL   +99999+99999GF102991990990999990991991KA1120M-00721KA2120N-01221MA1999990100231MD1110301+9999MW1381REMSYN09872530 11566 23313 11122 21183 30023 40279 51030 69981 738// 92351 333 11072 21122 4/023 555 90300=
0234725300948462014010300517+41995-087934FM-15+0205KORD V0303405N006752200059N0160935N5-01395-01945102875ADDAA101000095AU125030015AW1275GA1025+016765991GD11991+0167659GE19MSL   +99999+99999GF199999990990016761991991MA1102745100285REMMET10001/02/14 18:51:01 METAR KORD 030051Z 34013KT 10SM BLSN FEW055 M14/M19 A3034 RMK AO2 SLP287 T11391194
0209725300948462014010301517+41995-087934FM-15+0205KORD V0303405N007252200059N0160935N5-01445-02005102935ADDAA101000095AU125030015AW1275GA1005+999999999GD10991+9999999GF100991999999999999999999MA1102785100315REMMET09701/02/14 19:51:01 METAR KORD 030151Z 34014KT 10SM BLSN CLR M14/M20 A3035 RMK AO2 SLP293 T11441200
0229725300948462014010302517+41995-087934FM-15+0205KORD V0303305N005752200059N0160935N5-01565-02115102975ADDAA101000095AU125030015AW1275GA1005+999999999GD10991+9999999GF100991999999999999999999MA1102815100345MD1190174+9999REMMET10301/02/14 20:51:01 METAR KORD 030251Z 33011KT 10SM BLSN CLR M16/M21 A3036 RMK AO2 SLP297 T11561211 51017
0276725300948462014010303517+41995-087934FM-15+0205KORD V0303305N004612200059N0160935N5-01615-02225102965ADDAA101000095AU125030019AW1276GA1005+999999999GD10991+9999999GF100991999999999999999999MA1102815100345REMMET09701/02/14 21:51:02 METAR KORD 030351Z 33009KT 10SM BLSN CLR M16/M22 A3036 RMK AO2 SLP296 T11611222EQDR01    097WNS020R02  BLSN7AWW020R03SEERMK7MVW020R04  BLSN7MWW020
0187725300948462014010304517+41995-087934FM-15+0205KORD V0303205N005152200059N0160935N5-01615-02225103035ADDAA101000095GA1005+999999999GD10991+9999999GF100991999999999999999999MA1102885100415REMMET09201/02/14 22:51:02 METAR KORD 030451Z 32010KT 10SM CLR M16/M22 A3038 RMK AO2 SLP303 T11611222
0304725300948462014010305517+41995-087934FM-15+0205KORD V0303205N004152200059N0160935N5-01835-02395103035ADDAA101000095AJ100239500022894GA1005+999999999GD10991+9999999GF100991999999999999999999KA1060M-01221KA2060N-01831KA3240M-00611KA4240N-01831MA1102885100415MD1290054+9999REMMET12601/02/14 23:51:02 METAR KORD 030551Z 32008KT 10SM CLR M18/M24 A3038 RMK AO2 SLP303 4/009 T11831239 11122 21183 410611183 52005
0986725300948462014010305596+41995-087934SOD  +0205KORD V030999999999999999999999999999+99999+99999999999ADDAA124005695AJ100159599999999AN1024014795KA1024M-00605KA2024N-01825KG1024W-0111D4KG2024D-0150D4MF1099934102514MG1099934102004OE11240116234099995OE22240098334099995OE33240057299999995RH1024X081D4RH2024N060D4RH3024M070D4REMSOD75724 HR PRECIPITATION (IN): 0.22 SNOW DEPTH (IN):6     24 HR SNOWFALL (IN):5.8  WEATHER(CODE):19  24 HR MAX TEMP (F): 2124 HR MIN TEMP (F): -1AVERAGE STATION PRESSURE:29.510 MINIMUM SEA LEVEL PRESSURE:30.12 TIME OF OCCURRENCE:0509 PEAK WIND SPEED (MPH): 26 PEAK WIND DIR (DEG):340 PEAK WIND TIME (LST):      FASTEST 2MIN SPEED (MPH): 22FASTEST 2MIN DIR (DEG):340 FASTEST 2MIN TIME (LST):     AVERAGE WIND SPEED (MPH):12.8 24 HR AVG TEMP (F): 10DEPART FROM NORMAL:-14  HEATING DEGREE DAYS: 55 COOLING DEGREE DAYS:  0 LATEST DAY MAX TEMP (0700-1900 LST):19  LATEST NIGHT MIN TEMP(1900-0800 LST):16 HOURLY INCREMENTAL PRECIPITATION VALUES (IN):    T    T    0.01 0.02 0.01 0.03 0.05 0.02 0.02 0.02 0.01 0.02 0.01 T    0.00 0.00 0.00 0.00 0.00 0.00 0.00 0.00 0.00
0170725300948462014010306004+41983-087900FM-12+020599999V0203201N004119999999N016000199-01831-02391103031ADDAJ100233100230094KA1240M-00611KA2240N-01831MA1999990100461MD1210051+9999REMSYN08672530 32966 03208 11183 21239 30046 40303 52005 90551 333 11061 21183 4/023 555 90306=
0193725300948462014010306517+41995-087934FM-15+0205KORD V0303205N004652200059N0160935N5-01895-02445102955ADDAA101000095GA1005+999999999GD10991+9999999GF100991999999999999999999MA1102815100345REMMET09801/03/14 00:51:02 METAR KORD 030651Z 32009KT 10SM CLR M19/M24 A3036 RMK AO2 SLP295 T11891244 (SMN)
0193725300948462014010307517+41995-087934FM-15+0205KORD V0303105N003652200059N0160935N5-01835-02395103035ADDAA101000095GA1005+999999999GD10991+9999999GF100991999999999999999999MA1102885100415REMMET09801/03/14 01:51:02 METAR KORD 030751Z 31007KT 10SM CLR M18/M24 A3038 RMK AO2 SLP303 T11831239 (SMN)
0213725300948462014010308517+41995-087934FM-15+0205KORD V0302905N002652200059N0160935N5-01835-02395103085ADDAA101000095GA1005+999999999GD10991+9999999GF100991999999999999999999MA1102915100445MD1390054+9999REMMET10401/03/14 02:51:02 METAR KORD 030851Z 29005KT 10SM CLR M18/M24 A3039 RMK AO2 SLP308 T11831239 53005 (SMN)
0193725300948462014010309517+41995-087934FM-15+0205KORD V0302505N002152200059N0160935N5-01895-02335103045ADDAA101000095GA1005+999999999GD10991+9999999GF100991999999999999999999MA1102885100415REMMET09801/03/14 03:51:02 METAR KORD 030951Z 25004KT 10SM CLR M19/M23 A3038 RMK AO2 SLP304 T11891233 (SMN)
0195725300948462014010310517+41995-087934FM-15+0205KORD V0302705N002152200059N0160935N5-02005-02395103075ADDAA101000095GA1005+999999999GD10991+9999999GF100991999999999999999999MA1102915100445REMMET10001/03/14 04:51:02 METAR KORD 031051Z 27004KT 10SM CLR M20/M24 A3039 RMK AO2 SLP307 T12001239 $ (SMN)
0304725300948462014010311517+41995-087934FM-15+0205KORD V0302305N001552200059N0160935N5-01945-02335103095ADDAA101000095AA224004691AJ100209500020394GA1005+999999999GD10991+9999999GF100991999999999999999999KA1060M-01721KA2060N-02221MA1102955100475REMMET13601/03/14 05:51:02 METAR KORD 031151Z 23003KT 10SM CLR M19/M23 A3040 RMK AO2 SLP309 4/008 70018 I1000 I6/// T11941233 11172 21222 $ (SMN)EQDQ01  00458PRCP24
0167725300948462014010312004+41983-087900FM-12+020599999V0202301N001519999999N016000199-01941-02331103091ADDAA124004631AJ100203100200094KA1240M-00611KA2240N-02221MA1999990100531REMSYN08672530 32966 02303 11194 21233 30053 40309 91151 333 11061 21222 4/020 70046 555 90312=
0225725300948462014010312517+41995-087934FM-15+0205KORD V0302505N001552200059N0160935N5-02225-02615103115ADDAA101000095GA1025+009145991GD11991+0091459GE19MSL   +99999+99999GF199999990990009141991991MA1102915100445REMMET10801/03/14 06:51:02 METAR KORD 031251Z 25003KT 10SM FEW030 M22/M26 A3039 RMK AO2 SLP311 I1000 T12221261 $ (JD)
0261725300948462014010313517+41995-087934FM-15+0205KORD V0301805N002152200059N0160935N5-02225-02505103095ADDAA101000095GA1025+030485991GA2025+076205991GD11991+0304859GD21991+0762059GE19MSL   +99999+99999GF199999990990030481991991MA1102915100445REMMET11301/03/14 07:51:02 METAR KORD 031351Z 18004KT 10SM FEW100 FEW250 M22/M25 A3039 RMK AO2 SLP309 I1000 T12221250 (JD)
0281725300948462014010314517+41995-087934FM-15+0205KORD V0302105N003152200059N0160935N5-01835-02225103085ADDAA101000095GA1025+030485991GA2025+076205991GD11991+0304859GD21991+0762059GE19MSL   +99999+99999GF199999990990030481991991MA1102915100445MD1590024+9999REMMET11901/03/14 08:51:02 METAR KORD 031451Z 21006KT 10SM FEW100 FEW250 M18/M22 A3039 RMK AO2 SLP308 I3000 T11831222 55002 (JD)
0255725300948462014010315517+41995-087934FM-15+0205KORD V0302105N003652200059N0160935N5-01445-02115103025ADDAA101000095GA1025+045725991GA2045+076205991GD11991+0457259GD22991+0762059GE19MSL   +99999+99999GF199999990990045721991991MA1102845100375REMMET10701/03/14 09:51:02 METAR KORD 031551Z 21007KT 10SM FEW150 SCT250 M14/M21 A3037 RMK AO2 SLP302 T11441211 (JD)
0255725300948462014010316517+41995-087934FM-15+0205KORD V0302005N00625042675MN0160935N5-01225-02005102965ADDAA101000095GA1075+042675991GA2075+076205991GD13991+0426759GD23991+0762059GE19MSL   +99999+99999GF199999990990042671991991MA1102815100345REMMET10701/03/14 10:51:02 METAR KORD 031651Z 20012KT 10SM BKN140 BKN250 M12/M20 A3036 RMK AO2 SLP296 T11221200 (JD)
0349725300948462014010317517+41995-087934FM-15+0205KORD V0301905N00625042675MN0160935N5-01175-01895102785ADDAA101000095AJ100209500020394GA1045+033535991GA2085+042675991GD12991+0335359GD24991+0426759GE19MSL   +99999+99999GF199999990990033531991991KA1060M-01171KA2060N-02441MA1102615100145MD1890294+9999REMMET14401/03/14 11:51:02 METAR KORD 031751Z 19012KT 10SM SCT110 OVC140 M12/M19 A3030 RMK AO2 SLP278 4/008 933006 I6000 T11171189 11117 21244 58029 (JD)
0218725300948462014010318004+41983-087900FM-12+020599999V0201901N006219999999N016000199-01171-01891102781ADDAJ100203100200094GE19MSL   +99999+99999GF108991990990999990991991KA1120M-01171KA2120N-02441MA1999990100201MD1810291+9999REMSYN08672530 32966 81912 11117 21189 30020 40278 58029 91751 333 11117 21244 4/020 555 90318=
0262725300948462014010318517+41995-087934FM-15+0205KORD V0301905N00775039625MN0160935N5-01065-01785102595ADDAA101000095GA1025+030485991GA2085+039625991GD11991+0304859GD24991+0396259GE19MSL   +99999+99999GF199999990990030481991991MA1102445099985REMMET11401/03/14 12:51:02 METAR KORD 031851Z 19015KT 10SM FEW100 OVC130 M11/M18 A3025 RMK AO2 PRESFR SLP259 T11061178 (JD)
0224725300948462014010319517+41995-087934FM-15+0205KORD V0301905N00825036585MN0160935N5-01005-01615102405ADDAA101000095GA1085+036585991GD14991+0365859GE19MSL   +99999+99999GF199999990990036581991991MA1102275099815REMMET10701/03/14 13:51:02 METAR KORD 031951Z 19016KT 10SM OVC120 M10/M16 A3020 RMK AO2 PRESFR SLP240 T11001161 (JD)
0238725300948462014010320517+41995-087934FM-15+0205KORD V0301905N00725036585MN0160935N5-00895-01565102355ADDAA101000095GA1085+036585991GD14991+0365859GE19MSL   +99999+99999GF199999990990036581991991MA1102205099745MD1690414+9999REMMET10701/03/14 14:51:02 METAR KORD 032051Z 19014KT 10SM OVC120 M09/M16 A3018 RMK AO2 SLP235 T10891156 56041 (KLC)
0282725300948462014010321517+41995-087934FM-15+0205KORD V0301905N00885036585MN0112655N5-00895-01505102185ADDAA101000095AU125030015AW1275GA1075+036585991GD13991+0365859GE19MSL   +99999+99999GF199999990990036581991991MA1102035099585OC101445OD149999990190REMMET12601/03/14 15:51:02 METAR KORD 032151Z 19017G28KT 7SM BLSN BKN120 M09/M15 A3013 RMK AO2 PK WND 19028/2146 SLP218 T10891150 (KLC)
0252725300948462014010322517+41995-087934FM-15+0205KORD V0301905N00985039625MN0128755N5-00895-01505102105ADDAA101000095AU125030015AW1275GA1075+039625991GD13991+0396259GE19MSL   +99999+99999GF199999990990039621991991MA1101965099515OC101295REMMET11001/03/14 16:51:02 METAR KORD 032251Z 19019G25KT 8SM BLSN BKN130 M09/M15 A3011 RMK AO2 SLP210 T10891150 $ (KLC)
0383725300948462014010323517+41995-087934FM-15+0205KORD V0301905N00885076205MN0128755N5-00895-01505101995ADDAA101000095AJ100209500020394AU125030015AW1275GA1025+039625991GA2075+076205991GD11991+0396259GD23991+0762059GE19MSL   +99999+99999GF199999990990039621991991KA1060M-00891KA2060N-01171MA1101835099385OC101345OD149999990180REMMET15301/03/14 17:51:02 METAR KORD 032351Z 19017G26KT 8SM BLSN FEW130 BKN250 M09/M15 A3007 RMK AO2 PK WND 18029/2336 SLP199 4/008 T10891150 11089 21117 $ (KLC)
0230725300948462014010400004+41983-087900FM-12+020599999V0201901N008819999999N012000199-00891-01501101991ADDAJ100203100200094GE19MSL   +99999+99999GF106991990990999990991991KA1120M-00891KA2120N-02221MA1999990099431MW1381OD149901341999REMSYN09272530 31962 61917 11089 21150 39943 40199 738// 92351 333 11089 21222 4/020 91026 555 90400=
0316725300948462014010400517+41995-087934FM-15+0205KORD V0301805N01135076205MN0096565N5-00895-01445101925ADDAA101000095AU125030015AW1275GA1025+039625991GA2075+076205991GD11991+0396259GD23991+0762059GE19MSL   +99999+99999GF199999990990039621991991MA1101765099315OC101445OD149999990180REMMET12901/03/14 18:51:01 METAR KORD 040051Z 18022G28KT 6SM BLSN FEW130 BKN250 M09/M14 A3005 RMK AO2 PK WND 18030/0005 SLP192 T10891144 $
0278725300948462014010401517+41995-087934FM-15+0205KORD V0301905N012952200059N0096565N5-00835-01335101805ADDAA101000095AU125030015AW1275GA1045+076205991GD12991+0762059GE19MSL   +99999+99999GF199999990990076201991991MA1101635099185OC101755OD149999990190REMMET12201/03/14 19:51:01 METAR KORD 040151Z 19025G34KT 6SM BLSN SCT250 M08/M13 A3001 RMK AO2 PK WND 19034/0143 SLP180 T10831133 $
0298725300948462014010402517+41995-087934FM-15+0205KORD V0301905N012452200059N0080475N5-00785-01285101595ADDAA101000095AU125030015AW1275GA1045+076205991GD12991+0762059GE19MSL   +99999+99999GF199999990990076201991991MA1101425098985MD1890404+9999OC101655OD149999990180REMMET12801/03/14 20:51:01 METAR KORD 040251Z 19024G32KT 5SM BLSN SCT250 M08/M13 A2995 RMK AO2 PK WND 18034/0206 SLP159 T10781128 58040 $
0278725300948462014010403517+41995-087934FM-15+0205KORD V0301905N011852200059N0080475N5-00725-01225101445ADDAA101000095AU125030015AW1275GA1045+076205991GD12991+0762059GE19MSL   +99999+99999GF199999990990076201991991MA1101325098885OC101655OD149999990180REMMET12201/03/14 21:51:02 METAR KORD 040351Z 19023G32KT 5SM BLSN SCT250 M07/M12 A2992 RMK AO2 PK WND 18038/0305 SLP144 T10721122 $
0278725300948462014010404517+41995-087934FM-15+0205KORD V0301905N012952200059N0096565N5-00725-01225101375ADDAA101000095AU125030015AW1275GA1025+076205991GD11991+0762059GE19MSL   +99999+99999GF199999990990076201991991MA1101255098815OC101705OD149999990180REMMET12201/03/14 22:51:02 METAR KORD 040451Z 19025G33KT 6SM BLSN FEW250 M07/M12 A2990 RMK AO2 PK WND 18033/0432 SLP137 T10721122 $
0356725300948462014010405517+41995-087934FM-15+0205KORD V0302005N010352200059N0096565N5-00675-01225101365ADDAA101000095AJ100189500017794AU125030015AW1275GA1005+999999999GD10991+9999999GF100991999999999999999999KA1060M-00671KA2060N-00891KA3240M-00671KA4240N-02441MA1101255098815MD1690194+9999OC101445REMMET15301/03/14 23:51:02 METAR KORD 040551Z 20020G28KT 6SM BLSN CLR M07/M12 A2990 RMK AO2 PK WND 20033/0519 SLP136 4/007 T10671122 11067 21089 410671244 56019 $
1005725300948462014010405596+41995-087934SOD  +0205KORD V030999999999999999999999999999+99999+99999999999ADDAA124000095AJ100209599999999AN1024000095KA1024M-00665KA2024N-02435KG1024W-0139D4KG2024D-0178D4MF1099704102444MG1099684101354OE11240196718099995OE22240156519099995OE33240067199999995RH1024X078D4RH2024N053D4RH3024M065D4REMSOD75724 HR PRECIPITATION (IN): 0.00 SNOW DEPTH (IN):8     24 HR SNOWFALL (IN):0.0  WEATHER(CODE):89  24 HR MAX TEMP (F): 2024 HR MIN TEMP (F):-12AVERAGE STATION PRESSURE:29.435 MINIMUM SEA LEVEL PRESSURE:29.93 TIME OF OCCURRENCE:2359 PEAK WIND SPEED (MPH): 44 PEAK WIND DIR (DEG):180 PEAK WIND TIME (LST):      FASTEST 2MIN SPEED (MPH): 35FASTEST 2MIN DIR (DEG):190 FASTEST 2MIN TIME (LST):     AVERAGE WIND SPEED (MPH):15.0 24 HR AVG TEMP (F):  4DEPART FROM NORMAL:-20  HEATING DEGREE DAYS: 61 COOLING DEGREE DAYS:  0 LATEST DAY MAX TEMP (0700-1900 LST):16  LATEST NIGHT MIN TEMP(1900-0800 LST):-12HOURLY INCREMENTAL PRECIPITATION VALUES (IN):.00 0.00 0.00 0.00 0.00 0.00 0.00 0.00 0.00 0.00 0.00 0.00 0.00 0.00 0.00 0.00 0.00 0.00 0.00 0.00 0.00 0.00 0.00 0.00EQDR01    897AXW093
0202725300948462014010406004+41983-087900FM-12+020599999V0202001N010319999999N009000199-00671-01221101361ADDAJ100183100180094KA1240M-00671KA2240N-02221MA1999990098871MD1610191+9999MW1381OD149901441999REMSYN09872530 31959 02020 11067 21122 39887 40136 56019 738// 90551 333 11067 21222 4/018 91028 555 90406=
0237725300948462014010406517+41995-087934FM-15+0205KORD V0301905N009352200059N0128755N5-00675-01225101265ADDAA101000095GA1005+999999999GD10991+9999999GF100991999999999999999999MA1101155098715OC101345OD149999990200REMMET12001/04/14 00:51:02 METAR KORD 040651Z 19018G26KT 8SM CLR M07/M12 A2987 RMK AO2 PK WND 20026/0650 SLP126 T10671122 $ (SMN)
0237725300948462014010407517+41995-087934FM-15+0205KORD V0302005N010852200059N0144845N5-00615-01225101255ADDAA101000095GA1005+999999999GD10991+9999999GF100991999999999999999999MA1101155098715OC101495OD149999990210REMMET12001/04/14 01:51:02 METAR KORD 040751Z 20021G29KT 9SM CLR M06/M12 A2987 RMK AO2 PK WND 21029/0743 SLP125 T10611122 $ (SMN)
0253725300948462014010408517+41995-087934FM-15+0205KORD V0302005N011852200059N0144845N5-00565-01175101175ADDAA101000095GA1005+999999999GD10991+9999999GF100991999999999999999999MA1101085098655OC101545OD149999990200REMMET13601/04/14 02:51:02 METAR KORD 040851Z 20023G30KT 9SM CLR M06/M12 A2985 RMK AO2 PK WND 20035/0834 SLP117 PRESENT WX DRSN T10561117 $ (SMN)
0237725300948462014010409517+41995-087934FM-15+0205KORD V0302005N009852200059N0144845N5-00565-01175101115ADDAA101000095GA1005+999999999GD10991+9999999GF100991999999999999999999MA1101025098585OC101345OD149999990200REMMET12001/04/14 03:51:02 METAR KORD 040951Z 20019G26KT 9SM CLR M06/M12 A2983 RMK AO2 PK WND 20029/0908 SLP111 T10561117 $ (SMN)
0237725300948462014010410517+41995-087934FM-15+0205KORD V0302105N009352200059N0144845N5-00505-01175101055ADDAA101000095GA1005+999999999GD10991+9999999GF100991999999999999999999MA1100955098525OC101395OD149999990210REMMET12001/04/14 04:51:02 METAR KORD 041051Z 21018G27KT 9SM CLR M05/M12 A2981 RMK AO2 PK WND 21034/1003 SLP105 T10501117 $ (SMN)
0330725300948462014010411517+41995-087934FM-15+0205KORD V0302105N009352200059N0160935N5-00505-01175101025ADDAA101000095AJ100189500017794GA1025+054865991GD11991+0548659GE19MSL   +99999+99999GF199999990990054861991991KA1060M-00501KA2060N-00721MA1100915098485MD1690144+9999OC101245REMMET14801/04/14 05:51:02 METAR KORD 041151Z 21018G24KT 10SM FEW180 M05/M12 A2980 RMK AO2 PK WND 21027/1130 SLP102 4/007 T10501117 11050 21072 56014 $ (SMN)
0244725300948462014010412004+41983-087900FM-12+020599999V0202101N009319999999N016000199-00501-01171101021ADDAJ100183100180094GE19MSL   +99999+99999GF102991990990999990991991KA1240N-00801MA1999990098541MD1610141+9999OD149901241999REMSYN09272530 32966 22118 11050 21117 39854 40102 56014 91151 333 11067 21089 4/018 91024 555 90412=EQDQ01-62EATMX     
0249725300948462014010412517+41995-087934FM-15+0205KORD V0302105N008252200059N0160935N5-00445-01115100995ADDAA101000095GA1045+039625991GD12991+0396259GE19MSL   +99999+99999GF199999990990039621991991MA1100915098485OC101245REMMET12401/04/14 06:51:02 METAR KORD 041251Z 21016G24KT 10SM SCT130 M04/M11 A2980 RMK AO2 PK WND 21026/1229 SLP099 T10441111 $ (EPA)
0269725300948462014010413517+41995-087934FM-15+0205KORD V0302105N00985033535MN0160935N5-00395-01115101055ADDAA101000095GA1075+033535991GA2075+051825991GD13991+0335359GD23991+0518259GE19MSL   +99999+99999GF199999990990033531991991MA1100955098525OC101295REMMET11301/04/14 07:51:02 METAR KORD 041351Z 21019G25KT 10SM BKN110 BKN170 M04/M11 A2981 RMK AO2 SLP105 T10391111 $ (EPA)
0321725300948462014010414517+41995-087934FM-15+0205KORD V0302205N01035027435MN0160935N5-00285-01005101155ADDAA101000095GA1075+027435991GA2075+051825991GD13991+0274359GD23991+0518259GE19MSL   +99999+99999GF199999990990027431991991MA1101055098625MD1390144+9999OC101395OD149999990230REMMET13701/04/14 08:51:02 METAR KORD 041451Z 22020G27KT 10SM BKN090 BKN170 M03/M10 A2984 RMK AO2 PK WND 23027/1448 SLP115 T10281100 53014 $ (EPA)
0249725300948462014010415517+41995-087934FM-15+0205KORD V0302205N00885021345MN0160935N5-00225-00945101145ADDAA101000095GA1085+021345991GD14991+0213459GE19MSL   +99999+99999GF199999990990021341991991MA1101055098625OC101345REMMET12401/04/14 09:51:02 METAR KORD 041551Z 22017G26KT 10SM OVC070 M02/M09 A2984 RMK AO2 PK WND 22029/1529 SLP114 T10221094 $ (EPA)
0301725300948462014010416517+41995-087934FM-15+0205KORD V0302205N00825025915MN0160935N5-00225-00895101135ADDAA101000025GA1045+008845991GA2085+025915991GD12991+0088459GD24991+0259159GE19MSL   +99999+99999GF199999990990008841991991MA1101055098625OC101135OD149999990220REMMET13101/04/14 10:51:02 METAR KORD 041651Z 22016G22KT 10SM SCT029 OVC085 M02/M09 A2984 RMK AO2 PK WND 22028/1604 SLP113 T10221089 $ (EPA)
0251725300948462014010417267+41995-087934FM-16+0205KORD V0302305N00675008235MN0160935N5-00175-00835999999ADDGA1075+008235991GA2085+025915991GD13991+0082359GD24991+0259159GE19MSL   +99999+99999GF199999990990008231991991MA1101055098625OC101185REMMET10601/04/14 11:26:02 SPECI KORD 041726Z 23013G23KT 10SM BKN027 OVC085 M02/M08 A2984 RMK AO2 T10171083 $ (EPA)
0374725300948462014010417517+41995-087934FM-15+0205KORD V0302205N00775008235MN0160935N5-00175-00835101115ADDAA101000025AA206000021AJ100159500015294GA1075+008235991GA2085+025915991GD13991+0082359GD24991+0259159GE19MSL   +99999+99999GF199999990990008231991991KA1060M-00171KA2060N-00501MA1101025098585MD1890044+9999OC101085REMMET15001/04/14 11:51:02 METAR KORD 041751Z 22015G21KT 10SM BKN027 OVC085 M02/M08 A2983 RMK AO2 SLP111 60000 4/006 933006 T10171083 11017 21050 58004 $ (EPA)
0238725300948462014010418004+41983-087900FM-12+020599999V0202201N007719999999N016000199-00171-00831101111ADDAJ100153100150094GE19MSL   +99999+99999GF108991990990999990991991KA1120M-00171KA2120N-01171MA1999990098641MD1810041+9999OD149901081999REMSYN09272530 32566 82215 11017 21083 39864 40111 58004 91751 333 11017 21117 4/015 91021 555 90418=
0291725300948462014010418517+41995-087934FM-15+0205KORD V0302205N00625008845MN0160935N5-00115-00785101095ADDAA101000025AU110030015AW1715GA1075+008845991GA2085+010675991GD13991+0088459GD24991+0106759GE19MSL   +99999+99999GF199999990990008841991991MA1101025098585REMMET12601/04/14 12:51:02 METAR KORD 041851Z 22012KT 10SM -SN BKN029 OVC035 M01/M08 A2983 RMK AO2 SNB22 SLP109 P0000 T10111078 $ (EPA)
0242725300948462014010419517+41995-087934FM-15+0205KORD V0302205N00675008845MN0128755N5-00065-00675101105ADDAA101000025GA1085+008845991GD14991+0088459GE19MSL   +99999+99999GF199999990990008841991991MA1101025098585OC100935REMMET11701/04/14 13:51:02 METAR KORD 041951Z 22013G18KT 8SM OVC029 M01/M07 A2983 RMK AO2 SNE43 SLP110 P0000 T10061067 $ (EPA)
0180725300948462014010420496+41995-087934FM-16+0205KORD V0302105N00575010065MN0080475N5-00105-00605999999ADDAU110030015AW1715GA1085+010065999GD14991+0100659MA1101055098625REMMET10501/04/14 14:49:02 SPECI KORD 042049Z 21011KT 5SM -SN OVC033 M01/M06 A2984 RMK AO2 SNB23 P0000 $ FIBI (WS)
0307725300948462014010420517+41995-087934FM-15+0205KORD V0302105N00575010065MN0080475N5-00065-00615101155ADDAA101000025AA203000021AU110030015AW1715GA1085+010065991GD14991+0100659GE19MSL   +99999+99999GF199999990990010061991991MA1101085098655MD1390044+9999REMMET12901/04/14 14:51:02 METAR KORD 042051Z 21011KT 5SM -SN OVC033 M01/M06 A2985 RMK AO2 SNB23 SLP115 P0000 60000 T10061061 53004 $ (WS)EQDQ01  00008PRCP03
0249725300948462014010421057+41995-087934FM-16+0205KORD V0302205N00625010065MN0048285N5-00065-00565999999ADDAA101000021AU110030015AW1715GA1085+010065991GD14991+0100659GE19MSL   +99999+99999GF199999990990010061991991MA1101125098685OC100825REMMET10701/04/14 15:05:02 SPECI KORD 042105Z 22012G16KT 3SM -SN OVC033 M01/M06 A2986 RMK AO2 P0000 T10061056 $ (WS)
0260725300948462014010421137+41995-087934FM-16+0205KORD V0302305N00515010065MN0040235N5-00065-00565999999ADDAA101000021AU110030015AW1715GA1085+010065991GD14991+0100659GE19MSL   +99999+99999GF199999990990010061991991MA1101195098755OC100825REMMET11801/04/14 15:13:02 SPECI KORD 042113Z 23010G16KT 2 1/2SM -SN OVC033 M01/M06 A2988 RMK AO2 PRESRR P0000 T10061056 $ (WS)
0242725300948462014010421217+41995-087934FM-16+0205KORD V0302405N00365009145MN0024145N5-00065-00505999999ADDAA101000021AU110030015AW1715GA1085+009145991GD14991+0091459GE19MSL   +99999+99999GF199999990990009141991991MA1101225098785REMMET10801/04/14 15:21:02 SPECI KORD 042121Z 24007KT 1 1/2SM -SN OVC030 M01/M05 A2989 RMK AO2 P0000 T10061050 $ (WS)
0234725300948462014010421496+41995-087934FM-16+0205KORD V0302305N00415006105MN0024145N5-00105-00405999999ADDAU110030015AW1715GA1075+006105999GA2085+008845999GD13991+0061059GD24991+0088459MA1101255098815REMMET12801/04/14 15:49:02 SPECI KORD 042149Z 23008KT 1 1/2SM R10L/4500VP6000FT -SN BKN020 OVC029 M01/M04 A2990 RMK AO2 P0003 $ FIBI (WS)
0305725300948462014010421517+41995-087934FM-15+0205KORD V0302405N00365006105MN0024145N5-00115-00395101345ADDAA101000895AU110030015AW1715GA1075+006105991GA2085+008845991GD13991+0061059GD24991+0088459GE19MSL   +99999+99999GF199999990990006101991991MA1101255098815REMMET14001/04/14 15:51:02 METAR KORD 042151Z 24007KT 1 1/2SM R10L/4500VP6000FT -SN BKN020 OVC029 M01/M04 A2990 RMK AO2 SLP134 P0003 T10111039 $ (WS)
0232725300948462014010422477+41995-087934FM-16+0205KORD V0302005N00265007015MN0020125N5-00105-00405999999ADDAA101000231AU110030015AW1715GA1085+007015991GD14991+0070159GE19MSL   +99999+99999GF199999990990007011991991MA1101295098855REMMET09801/04/14 16:47:02 SPECI KORD 042247Z 20005KT 1 1/4SM -SN OVC023 M01/M04 A2991 RMK AO2 P0001 $ (WS)
0249725300948462014010422517+41995-087934FM-15+0205KORD V0302005N00265006405MN0020125N5-00115-00395101355ADDAA101000395AU110030015AW1715GA1085+006405991GD14991+0064059GE19MSL   +99999+99999GF199999990990006401991991MA1101295098855REMMET11501/04/14 16:51:02 METAR KORD 042251Z 20005KT 1 1/4SM -SN OVC021 M01/M04 A2991 RMK AO2 SLP135 P0001 T10111039 $ (WS)
0277725300948462014010423207+41995-087934FM-16+0205KORD V0302205N00265003965WN0012075N5-00115-00335999999ADDAA101000531AU110030015AU200001015AW1105AW2715GA1095+003965991GD15991+0039659GE19MSL   +99999+99999GF109991990990003961991991MA1101325098885REMMET12601/04/14 17:20:02 SPECI KORD 042320Z 22005KT 3/4SM R10L/6000VP6000FT -SN BR VV013 M01/M03 A2992 RMK AO2 P0002 T10111033 $ (WS)
0260725300948462014010423467+41995-087934FM-16+0205KORD V0302105N00265004885WN0016095N5-00105-00305999999ADDAA101000731AU110030015AU200001015AW1105AW2715GA1095+004885991GD15991+0048859GE19MSL   +99999+99999GF109991990990004881991991MA1101325098885REMMET10901/04/14 17:46:02 SPECI KORD 042346Z 21005KT 1SM R10L/P6000FT -SN BR VV016 M01/M03 A2992 RMK AO2 P0003 $ (WS)
0386725300948462014010423517+41995-087934FM-15+0205KORD V0302105N00215005185MN0020125N5-00115-00335101405ADDAA101000896AA206001891AJ100189500017794AU110030015AU200001015AW1105AW2715GA1085+005185991GD14991+0051859GE19MSL   +99999+99999GF199999990990005181991991KA1060M-00061KA2060N-00171MA1101325098885MD1290054+9999REMMET14801/04/14 17:51:02 METAR KORD 042351Z 21004KT 1 1/4SM -SN BR OVC017 M01/M03 A2992 RMK AO2 SLP140 4/007 P0003 60007 T10111033 11006 21017 52005 $ (WS)EQDQ01  00178PRCP06
0253725300948462014010500004+41983-087900FM-12+020599999V0202101N002119999999N002000199-00111-00331101401ADDAA106002031AJ100183100180094GE19MSL   +99999+99999GF108991990990999990991991KA1120M-00061KA2120N-00721MA1999990098941MD1210051+9999MW1711REMSYN10472530 11420 82104 11011 21033 39894 40140 52005 60021 771// 92351 333 11006 21072 4/018 96010 555 90500=
0265725300948462014010500337+41995-087934FM-16+0205KORD V0309999C00005004275WN0016095N5-00115-00335999999ADDAA101000531AU110030015AU200001015AW1105AW2715GA1095+004275991GD15991+0042759GE19MSL   +99999+99999GF109991990990004271991991MA1101355098915REMMET11401/04/14 18:33:01 SPECI KORD 050033Z 00000KT 1SM R10L/P6000FT -SN BR VV014 M01/M03 A2993 RMK AO2 P0002 T10111033 $
0198725300948462014010500496+41995-087934FM-16+0205KORD V0309999C00005004575MN0020125N5-00105-00305999999ADDAU110030015AU200001015AW1105AW2715GA1085+004575999GD14991+0045759MA1101395098955REMMET10601/04/14 18:49:03 SPECI KORD 050049Z 00000KT 1 1/4SM -SN BR OVC015 M01/M03 A2994 RMK AO2 P0003 $ FIBI (WS)
0264725300948462014010500517+41995-087934FM-15+0205KORD V0302405N00155004575MN0020125N5-00115-00335101475ADDAA101001095AU110030015AU200001015AW1105AW2715GA1085+004575991GD14991+0045759GE19MSL   +99999+99999GF199999990990004571991991MA1101395098955REMMET11301/04/14 18:51:01 METAR KORD 050051Z 24003KT 1 1/4SM -SN BR OVC015 M01/M03 A2994 RMK AO2 SLP147 P0003 T10111033 $
0272725300948462014010501137+41995-087934FM-16+0205KORD V0309999C00005003965WN0012075N5-00115-00335999999ADDAA101000531AU110030015AU200001015AW1105AW2715GA1095+003965991GD15991+0039659GE19MSL   +99999+99999GF109991990990003961991991MA1101395098955REMMET12101/04/14 19:13:01 SPECI KORD 050113Z 00000KT 3/4SM R10L/5500VP6000FT -SN BR VV013 M01/M03 A2994 RMK AO2 P0002 T10111033 $
0265725300948462014010501417+41995-087934FM-16+0205KORD V0309999C00005004275WN0016095N5-00115-00335999999ADDAA101001031AU110030015AU200001015AW1105AW2715GA1095+004275991GD15991+0042759GE19MSL   +99999+99999GF109991990990004271991991MA1101425098985REMMET11401/04/14 19:41:01 SPECI KORD 050141Z 00000KT 1SM R10L/P6000FT -SN BR VV014 M01/M03 A2995 RMK AO2 P0004 T10111033 $
0311725300948462014010501517+41995-087934FM-15+0205KORD V0309999C00005004575MN0016095N5-00115-00285101485ADDAA101001095AU110030015AU200001015AW1105AW2715GA1025+001525991GA2085+004575991GD11991+0015259GD24991+0045759GE19MSL   +99999+99999GF199999990990001521991991MA1101395098955REMMET12901/04/14 19:51:01 METAR KORD 050151Z 00000KT 1SM R10L/P6000FT -SN BR FEW005 OVC015 M01/M03 A2994 RMK AO2 SLP148 P0004 T10111028 $
0295725300948462014010502197+41995-087934FM-16+0205KORD V0309999C00005003965MN0024145N5-00115-00335999999ADDAA101000231AU110030015AU200001015AW1105AW2715GA1025+001525991GA2085+003965991GD11991+0015259GD24991+0039659GE19MSL   +99999+99999GF199999990990001521991991MA1101425098985REMMET11301/04/14 20:19:01 SPECI KORD 050219Z 00000KT 1 1/2SM -SN BR FEW005 OVC013 M01/M03 A2995 RMK AO2 P0001 T10111033 $
0285725300948462014010502467+41995-087934FM-16+0205KORD V0309999C00005003355MN0020125N5-00105-00305999999ADDAA101000531AU110030015AU200001015AW1105AW2715GA1075+003355991GA2085+005495991GD13991+0033559GD24991+0054959GE19MSL   +99999+99999GF199999990990003351991991MA1101425098985REMMET10301/04/14 20:46:01 SPECI KORD 050246Z 00000KT 1 1/4SM -SN BR BKN011 OVC018 M01/M03 A2995 RMK AO2 P0002 $
0358725300948462014010502517+41995-087934FM-15+0205KORD V0309999C00005002745MN0020125N5-00115-00335101525ADDAA101000395AA203002391AU110030015AU200001015AW1105AW2715GA1075+002745991GA2085+004575991GD13991+0027459GD24991+0045759GE19MSL   +99999+99999GF199999990990002741991991MA1101465099015MD1290054+9999REMMET13201/04/14 20:51:01 METAR KORD 050251Z 00000KT 1 1/4SM -SN BR BKN009 OVC015 M01/M03 A2996 RMK AO2 SLP152 P0002 60009 T10111033 52005 $EQDQ01  00228PRCP03
0306725300948462014010503067+41995-087934FM-16+0205KORD V0309999C00005002745MN0012075N5-00115-00335999999ADDAA101000231AU110030015AU200001015AW1105AW2715GA1075+002745991GA2085+004275991GD13991+0027459GD24991+0042759GE19MSL   +99999+99999GF199999990990002741991991MA1101465099015REMMET12401/04/14 21:06:02 SPECI KORD 050306Z 00000KT 3/4SM R10L/P6000FT -SN BR BKN009 OVC014 M01/M03 A2996 RMK AO2 P0001 T10111033 $
0311725300948462014010503197+41995-087934FM-16+0205KORD V0309999C00005004275MN0012075N5-00115-00335999999ADDAA101000231AU110030015AU200001015AW1105AW2715GA1045+002135991GA2085+004275991GD12991+0021359GD24991+0042759GE19MSL   +99999+99999GF199999990990002131991991MA1101465099015REMMET12901/04/14 21:19:02 SPECI KORD 050319Z 00000KT 3/4SM R10L/6000VP6000FT -SN BR SCT007 OVC014 M01/M03 A2996 RMK AO2 P0001 T10111033 $
0252725300948462014010503496+41995-087934FM-16+0205KORD V0309999C00005002745MN0008055N5-00105-00305999999ADDAU120030015AU208002015AW1355AW2725GA1025+001525999GA2085+002745999GD11991+0015259GD24991+0027459MA1101465099015REMMET12901/04/14 21:49:03 SPECI KORD 050349Z 00000KT 1/2SM R10L/5000V5500FT SN FZFG FEW005 OVC009 M01/M03 A2996 RMK AO2 P0003 $ FIBI (WS)
0324725300948462014010503517+41995-087934FM-15+0205KORD V0309999C00005002745MN0008055N5-00115-00335101555ADDAA101001095AU120030015AU208002015AW1355AW2725GA1025+001525991GA2085+002745991GD11991+0015259GD24991+0027459GE19MSL   +99999+99999GF199999990990001521991991MA1101465099015REMMET14201/04/14 21:51:02 METAR KORD 050351Z 00000KT 1/2SM R10L/5500FT SN FZFG FEW005 OVC009 M01/M03 A2996 RMK AO2 SLP155 SNINCR 1/9 P0004 T10111033 $
0311725300948462014010504037+41995-087934FM-16+0205KORD V0309999C00005003055MN0012075N5-00115-00335999999ADDAA101000021AU110030015AU200001015AW1105AW2715GA1025+001835991GA2085+003055991GD11991+0018359GD24991+0030559GE19MSL   +99999+99999GF199999990990001831991991MA1101495099055REMMET12901/04/14 22:03:02 SPECI KORD 050403Z 00000KT 3/4SM R10L/6000VP6000FT -SN BR FEW006 OVC010 M01/M03 A2997 RMK AO2 P0000 T10111033 $
0255725300948462014010504167+41995-087934FM-16+0205KORD V0309999C000050030519N0012075N5-00111-00331999999ADDAA101000231AW1101AW2711GA1991+001831991GA2991+003051991GD11991+0018319GD24991+0030519GE19MSL   +99999+99999GF199999990990001831991991MA1101491999990REMMET06001/04/14 22:16:02 SPECI KORD 050416Z 00000KT 3/4SM RVRNO RMKEQDR01      7SKY009R02      7GAS009
0255725300948462014010504247+41995-087934FM-16+0205KORD V0309999C000050030519N0012075N5-00111-00331999999ADDAA101000231AW1101AW2711GA1991+001831991GA2991+003051991GD11991+0018319GD24991+0030519GE19MSL   +99999+99999GF199999990990001831991991MA1101461999990REMMET06001/04/14 22:24:02 SPECI KORD 050424Z 00000KT 3/4SM RVRNO RMKEQDR01      7SKY009R02      7GAS009
0298725300948462014010504517+41995-087934FM-15+0205KORD V0309999C00005003965MN0012075N5-00115-00395101575ADDAA101000895AU110030015AW1715GA1025+002445991GA2085+003965991GD11991+0024459GD24991+0039659GE19MSL   +99999+99999GF199999990990002441991991MA1101495099055REMMET13301/04/14 22:51:02 METAR KORD 050451Z 00000KT 3/4SM R10L/6000VP6000FT -SN FEW008 OVC013 M01/M04 A2997 RMK AO2 SLP157 P0003 T10111039 $
0253725300948462014010505216+41995-087934FM-16+0205KORD V0300105N00215004275MN0012075N5-00115-00335999999ADDAU110030015AU200001015AW1105AW2715GA1025+002445999GA2085+004275999GD11991+0024459GD24991+0042759MA1101495099055REMMET13001/04/14 23:21:03 SPECI KORD 050521Z 01004KT 3/4SM R10L/P6000FT -SN BR FEW008 OVC014 M01/M03 A2997 RMK AO2 P0001 T10111033 $ (MJF)
0274725300948462014010505477+41995-087934FM-16+0205KORD V0303605N00215004275MN0016095N5-00205-00405999999ADDAA101000531AU110030015AW1715GA1025+002135991GA2085+004275991GD11991+0021359GD24991+0042759GE19MSL   +99999+99999GF199999990990002131991991MA1101525099085REMMET10901/04/14 23:47:02 SPECI KORD 050547Z 36004KT 1SM R10L/P6000FT -SN FEW007 OVC014 M02/M04 A2998 RMK AO2 P0002 $
0424725300948462014010505517+41995-087934FM-15+0205KORD V0300105N00265004275MN0016095N5-00175-00395101605ADDAA101000896AA206004891AJ100239500022894AU110030015AW1715GA1025+002135991GA2085+004275991GD11991+0021359GD24991+0042759GE19MSL   +99999+99999GF199999990990002131991991KA1060M-00111KA2060N-00171KA3240M-00061KA4240N-00721MA1101525099085REMMET16001/04/14 23:51:02 METAR KORD 050551Z 01005KT 1SM R10L/P6000FT -SN FEW007 OVC014 M02/M04 A2998 RMK AO2 SLP160 4/009 P0003 60019 T10171039 11011 21017 410061072 $EQDQ01  00488PRCP06
1005725300948462014010505596+41995-087934SOD  +0205KORD V030999999999999999999999999999+99999+99999999999ADDAA124006695AJ100189599999999AN1024007695KA1024M-00055KA2024N-00715KG1024W-0044D4KG2024D-0083D4MF1098754101324MG1098754100984OE11240178820099995OE22240120720099995OE33240063599999995RH1024X088D4RH2024N058D4RH3024M070D4REMSOD75724 HR PRECIPITATION (IN): 0.26 SNOW DEPTH (IN):7     24 HR SNOWFALL (IN):3.0  WEATHER(CODE):19  24 HR MAX TEMP (F): 3124 HR MIN TEMP (F): 19AVERAGE STATION PRESSURE:29.160 MINIMUM SEA LEVEL PRESSURE:29.82 TIME OF OCCURRENCE:0651 PEAK WIND SPEED (MPH): 40 PEAK WIND DIR (DEG):200 PEAK WIND TIME (LST):      FASTEST 2MIN SPEED (MPH): 27FASTEST 2MIN DIR (DEG):200 FASTEST 2MIN TIME (LST):     AVERAGE WIND SPEED (MPH):14.2 24 HR AVG TEMP (F): 25DEPART FROM NORMAL:  1  HEATING DEGREE DAYS: 40 COOLING DEGREE DAYS:  0 LATEST DAY MAX TEMP (0700-1900 LST):31  LATEST NIGHT MIN TEMP(1900-0800 LST):16 HOURLY INCREMENTAL PRECIPITATION VALUES (IN):.00 0.00 0.00 0.00 0.00 0.00 0.00 0.00 0.00 0.00 T    T    T    T    T    0.03 0.01 0.03 0.04 0.04 0.01 0.04 0.03 0.03EQDR01    197AXW093
0227725300948462014010506004+41983-087900FM-12+020599999V0200101N002619999999N001600199-00171-00391101601ADDAA106005031AJ100233100230094GE19MSL   +99999+99999GF108991990990999990991991KA1240M-00111KA2240N-00721MA1999990099141MW1711REMSYN09272530 11316 80105 11017 21039 39914 40160 60051 771// 90551 333 11011 21072 4/023 555 90506=
0312725300948462014010506107+41995-087934FM-16+0205KORD V0300105N00415004275MN0012075N5-00175-00395999999ADDAA101000231AU110030015AU200001015AW1105AW2715GA1025+002445991GA2085+004275991GD11991+0024459GD24991+0042759GE19MSL   +99999+99999GF199999990990002441991991MA1101525099085REMMET13001/05/14 00:10:02 SPECI KORD 050610Z 01008KT 3/4SM R10L/P6000FT -SN BR FEW008 OVC014 M02/M04 A2998 RMK AO2 P0001 T10171039 $ (MJF)
0255725300948462014010506257+41995-087934FM-16+0205KORD V0300105N006250042719N0012075N5-00171-00391999999ADDAA101000731AW1101AW2711GA1991+002441991GA2991+004271991GD11991+0024419GD24991+0042719GE19MSL   +99999+99999GF199999990990002441991991MA1101521999990REMMET06001/05/14 00:25:02 SPECI KORD 050625Z 01012KT 3/4SM RVRNO RMKEQDR01      7SKY009R02      7GAS009
0317725300948462014010506397+41995-087934FM-16+0205KORD V0303605N00465002135MN0012075N5-00285-00505999999ADDAA101001031AU110030015AU200001015AW1105AW2715GA1075+002135991GA2085+003665991GD13991+0021359GD24991+0036659GE19MSL   +99999+99999GF199999990990002131991991MA1101525099085REMMET13501/05/14 00:39:02 SPECI KORD 050639Z 36009KT 3/4SM R10L/5500VP6000FT -SN BR BKN007 OVC012 M03/M05 A2998 RMK AO2 P0004 T10281050 $ (MJF)
0324725300948462014010506517+41995-087934FM-15+0205KORD V0303605N00675002135MN0012075N5-00335-00565101625ADDAA101001895AU110030015AU200001015AW1105AW2715GA1075+002135991GA2085+003665991GD13991+0021359GD24991+0036659GE19MSL   +99999+99999GF199999990990002131991991MA1101565099115REMMET14201/05/14 00:51:02 METAR KORD 050651Z 36013KT 3/4SM R10L/5000VP6000FT -SN BR BKN007 OVC012 M03/M06 A2999 RMK AO2 SLP162 P0006 T10331056 $ (MJF)
0296725300948462014010507297+41995-087934FM-16+0205KORD V0303505N00625003355MN0012075N5-00445-00725999999ADDAA101001031AU110030015AW1715GA1025+002135991GA2085+003355991GD11991+0021359GD24991+0033559GE19MSL   +99999+99999GF199999990990002131991991MA1101595099155REMMET13101/05/14 01:29:02 SPECI KORD 050729Z 35012KT 3/4SM R10L/5000V5500FT -SN FEW007 OVC011 M04/M07 A3000 RMK AO2 P0004 T10441072 $ (MJF)
0297725300948462014010507517+41995-087934FM-15+0205KORD V0303505N00515003665WN0012075N5-00505-00725101675ADDAA101001395AU110030015AU200001015AW1105AW2715GA1095+003665991GD15991+0036659GE19MSL   +99999+99999GF109991990990003661991991MA1101595099155REMMET14601/05/14 01:51:02 METAR KORD 050751Z 35010KT 3/4SM R10L/6000VP6000FT -SN BR VV012 M05/M07 A3000 RMK AO2 SLP167 SNINCR 1/10 P0005 T10501072 $ (MJF)
0281725300948462014010508237+41995-087934FM-16+0205KORD V0303505N00625005795MN0020125N5-00565-00835999999ADDAA101000531AU110030015AW1715GA1025+003355991GA2085+005795991GD11991+0033559GD24991+0057959GE19MSL   +99999+99999GF199999990990003351991991MA1101665099215REMMET11601/05/14 02:23:02 SPECI KORD 050823Z 35012KT 1 1/4SM -SN FEW011 OVC019 M06/M08 A3002 RMK AO2 P0002 T10561083 $ (MJF)
0243725300948462014010508327+41995-087934FM-16+0205KORD V0303505N00515008235MN0024145N5-00565-00895999999ADDAA101000531AU110030015AW1715GA1085+008235991GD14991+0082359GE19MSL   +99999+99999GF199999990990008231991991MA1101635099185REMMET10901/05/14 02:32:02 SPECI KORD 050832Z 35010KT 1 1/2SM -SN OVC027 M06/M09 A3001 RMK AO2 P0002 T10561089 $ (MJF)
0286725300948462014010508517+41995-087934FM-15+0205KORD V0303505N00515007925MN0024145N5-00615-00895101735ADDAA101000595AA203003391AU110030015AW1715GA1085+007925991GD14991+0079259GE19MSL   +99999+99999GF199999990990007921991991MA1101635099185REMMET12201/05/14 02:51:02 METAR KORD 050851Z 35010KT 1 1/2SM -SN OVC026 M06/M09 A3001 RMK AO2 SLP173 P0002 60013 T10611089 $ (MJF)EQDQ01  00338PRCP03
0259725300948462014010508597+41995-087934FM-16+0205KORD V0303505N00515006715MN0012075N5-00615-00895999999ADDAA101000231AU110030015AW1715GA1085+006715991GD14991+0067159GE19MSL   +99999+99999GF199999990990006711991991MA1101635099185REMMET12501/05/14 02:59:02 SPECI KORD 050859Z 35010KT 3/4SM R10L/6000VP6000FT -SN OVC022 M06/M09 A3001 RMK AO2 P0001 T10611089 $ (MJF)
0253725300948462014010509297+41995-087934FM-16+0205KORD V0303605N00625004275WN0012075N5-00615-00895999999ADDAA101000731AU110030015AW1715GA1095+004275991GD15991+0042759GE19MSL   +99999+99999GF109991990990004271991991MA1101635099185REMMET11901/05/14 03:29:02 SPECI KORD 050929Z 36012KT 3/4SM R10L/P6000FT -SN VV014 M06/M09 A3001 RMK AO2 P0003 T10611089 $ (MJF)
0265725300948462014010509517+41995-087934FM-15+0205KORD V0303605N00575003965WN0012075N5-00675-00945101725ADDAA101001095AU110030015AW1715GA1095+003965991GD15991+0039659GE19MSL   +99999+99999GF109991990990003961991991MA1101635099185REMMET13101/05/14 03:51:02 METAR KORD 050951Z 36011KT 3/4SM R10L/6000VP6000FT -SN VV013 M07/M09 A3001 RMK AO2 SLP172 P0005 T10671094 $ (MJF)
0264725300948462014010510237+41995-087934FM-16+0205KORD V0303605N00825005495WN0012075N5-00675-01005999999ADDAA101000531AU110030015AW1715GA1095+005495991GD15991+0054959GE19MSL   +99999+99999GF109991990990005491991991MA1101635099185OC101035REMMET12201/05/14 04:23:02 SPECI KORD 051023Z 36016G20KT 3/4SM R10L/P6000FT -SN VV018 M07/M10 A3001 RMK AO2 P0002 T10671100 $ (MJF)
0244725300948462014010510467+41995-087934FM-16+0205KORD V0303605N00725008845MN0012075N5-00705-01105999999ADDAA101000731AU110030015AW1715GA1085+008845991GD14991+0088459GE19MSL   +99999+99999GF199999990990008841991991MA1101635099185REMMET11001/05/14 04:46:02 SPECI KORD 051046Z 36014KT 3/4SM R10L/P6000FT -SN OVC029 M07/M11 A3001 RMK AO2 P0003 $ (MJF)
0197725300948462014010510496+41995-087934FM-16+0205KORD V0300105N00675008845MN0024145N5-00705-01105999999ADDAU110030015AW1715GA1085+008845999GD14991+0088459MA1101635099185REMMET12201/05/14 04:49:02 SPECI KORD 051049Z 01013KT 1 1/2SM -SN OVC029 M07/M11 A3001 RMK AO2 /PRESENT WX DRSN/ P0003 $ FIBI (MJF)
0268725300948462014010510517+41995-087934FM-15+0205KORD V0300105N00725009455MN0024145N5-00725-01065101715ADDAA101000895AU110030015AW1715GA1085+009455991GD14991+0094559GE19MSL   +99999+99999GF199999990990009451991991MA1101635099185REMMET13401/05/14 04:51:02 METAR KORD 051051Z 01014KT 1 1/2SM -SN OVC031 M07/M11 A3001 RMK AO2 SLP171 /PRESENT WX DRSN/ P0003 T10721106 $ (MJF)
0239725300948462014010511077+41995-087934FM-16+0205KORD V0303605N00725010975MN0032195N5-00725-01065999999ADDAA101000021AU110030015AW1715GA1085+010975991GD14991+0109759GE19MSL   +99999+99999GF199999990990010971991991MA1101635099185REMMET10501/05/14 05:07:02 SPECI KORD 051107Z 36014KT 2SM -SN OVC036 M07/M11 A3001 RMK AO2 P0000 T10721106 $ (MJF)
0494725300948462014010511517+41995-087934FM-15+0205KORD V0303605N00675009755MN0040235N5-00785-01115101725ADDAA101000396AA206005691AA324012291AJ100239500022894AU110030015AW1715GA1075+009755991GA2075+012505991GA3085+015245991GD13991+0097559GD23991+0125059GD34991+0152459GE19MSL   +99999+99999GF199999990990009751991991KA1060M-00171KA2060N-00781MA1101635099185MD1390004+9999REMMET18401/05/14 05:51:02 METAR KORD 051151Z 36013KT 2 1/2SM -SN BKN032 BKN041 OVC050 M08/M11 A3001 RMK AO2 SLP172 4/009 /PRESENT WX DRSN/ P0001 60022 70048 T10781111 11017 21078 53000 $ (MJF)EQDQ01  00558PRCP06Q02  01218PRCP24
0269725300948462014010512004+41983-087900FM-12+020599999V0203601N006719999999N004000199-00781-01111101721ADDAA106006031AA224012231AJ100233100230094GE19MSL   +99999+99999GF108991990990999990991991KA1240M-00061KA2240N-00781MA1999990099241MW1711REMSYN10472530 11540 83613 11078 21111 39924 40172 53000 60061 771// 91151 333 11006 21078 4/023 70122 555 90512=EQDQ0133APCTEN     
0229725300948462014010512457+41995-087934FM-16+0205KORD V0303605N00725011285MN0048285N5-00805-01205999999ADDAA101000231AU110030015AW1715GA1085+011285991GD14991+0112859GE19MSL   +99999+99999GF199999990990011281991991MA1101635099185REMMET09501/05/14 06:45:02 SPECI KORD 051245Z 36014KT 3SM -SN OVC037 M08/M12 A3001 RMK AO2 P0001 $ (BLH)
0246725300948462014010512517+41995-087934FM-15+0205KORD V0303605N00775010675MN0048285N5-00835-01175101705ADDAA101000395AU110030015AW1715GA1085+010675991GD14991+0106759GE19MSL   +99999+99999GF199999990990010671991991MA1101635099185REMMET11201/05/14 06:51:02 METAR KORD 051251Z 36015KT 3SM -SN OVC035 M08/M12 A3001 RMK AO2 SLP170 P0001 T10831117 $ (BLH)
0263725300948462014010513117+41995-087934FM-16+0205KORD V0303605N00775010365MN0016095N5-00835-01175999999ADDAA101000231AU110030015AW1715GA1085+010365991GD14991+0103659GE19MSL   +99999+99999GF199999990990010361991991MA1101635099185OC101135REMMET12101/05/14 07:11:02 SPECI KORD 051311Z 36015G22KT 1SM R10L/P6000FT -SN OVC034 M08/M12 A3001 RMK AO2 P0001 T10831117 $ (BLH)
0288725300948462014010513437+41995-087934FM-16+0205KORD V0303605N00885008235MN0032195N5-00835-01225999999ADDAA101000531AU110030015AW1715GA1075+008235991GA2085+010065991GD13991+0082359GD24991+0100659GE19MSL   +99999+99999GF199999990990008231991991MA1101635099185OC101085REMMET11501/05/14 07:43:02 SPECI KORD 051343Z 36017G21KT 2SM -SN BKN027 OVC033 M08/M12 A3001 RMK AO2 P0002 T10831122 $ (BLH)
0246725300948462014010513517+41995-087934FM-15+0205KORD V0303505N00675007625MN0032195N5-00835-01225101715ADDAA101000595AU110030015AW1715GA1085+007625991GD14991+0076259GE19MSL   +99999+99999GF199999990990007621991991MA1101635099185REMMET11201/05/14 07:51:02 METAR KORD 051351Z 35013KT 2SM -SN OVC025 M08/M12 A3001 RMK AO2 SLP171 P0002 T10831122 $ (BLH)
0306725300948462014010514067+41995-087934FM-16+0205KORD V0303505N00825004275MN0032195N5-00835-01225999999ADDAA101000021AU110030015AW1715GA1075+004275991GA2085+007015991GD13991+0042759GD24991+0070159GE19MSL   +99999+99999GF199999990990004271991991MA1101695099255OC101085REMMET13301/05/14 08:06:02 SPECI KORD 051406Z 35016G21KT 2SM R10L/6000VP6000FT -SN BKN014 OVC023 M08/M12 A3003 RMK AO2 P0000 T10831122 $ (BLH)
0277725300948462014010514427+41995-087934FM-16+0205KORD V0303605N00725004275MN0032195N5-00835-01225999999ADDAA101000231AU110030015AW1715GA1075+004275991GA2085+007015991GD13991+0042759GD24991+0070159GE19MSL   +99999+99999GF199999990990004271991991MA1101665099215REMMET11201/05/14 08:42:02 SPECI KORD 051442Z 36014KT 2SM -SN BKN014 OVC023 M08/M12 A3002 RMK AO2 P0001 T10831122 $ (BLH)
0234725300948462014010514496+41995-087934FM-16+0205KORD V0303605N00775007015MN0040235N5-00805-01205999999ADDAU110030015AW1715GA1045+004275999GA2085+007015999GD12991+0042759GD24991+0070159MA1101665099215REMMET12801/05/14 08:49:02 SPECI KORD 051449Z 36015KT 2 1/2SM R10L/4500V6000FT -SN SCT014 OVC023 M08/M12 A3002 RMK AO2 P0001 $ FIBI (BLH)
0341725300948462014010514517+41995-087934FM-15+0205KORD V0303505N00775007015MN0040235N5-00835-01225101735ADDAA101000395AA203001091AU110030015AW1715GA1045+004275991GA2085+007015991GD12991+0042759GD24991+0070159GE19MSL   +99999+99999GF199999990990004271991991MA1101665099215REMMET14601/05/14 08:51:02 METAR KORD 051451Z 35015KT 2 1/2SM R10L/4500V6000FT -SN SCT014 OVC023 M08/M12 A3002 RMK AO2 SLP173 P0001 60004 T10831122 $ (BLH)EQDQ01  00108PRCP03
0279725300948462014010515097+41995-087934FM-16+0205KORD V0303505N00825007625MN0016095N5-00895-01285999999ADDAA101000231AU110030015AU225030015AW1275AW2715GA1085+007625991GD14991+0076259GE19MSL   +99999+99999GF199999990990007621991991MA1101635099185REMMET12801/05/14 09:09:02 SPECI KORD 051509Z 35016KT 1SM R10L/3500VP6000FT -SN BLSN OVC025 M09/M13 A3001 RMK AO2 P0001 T10891128 $ (BLH)
0327725300948462014010515387+41995-087934FM-16+0205KORD V0303605N00825004575MN0016095N5-00895-01225999999ADDAA101000731AU110030015AU225030015AW1275AW2715GA1075+004575991GA2085+006105991GD13991+0045759GD24991+0061059GE19MSL   +99999+99999GF199999990990004571991991MA1101635099185OC101185REMMET13701/05/14 09:38:02 SPECI KORD 051538Z 36016G23KT 1SM R10L/3000V5000FT -SN BLSN BKN015 OVC020 M09/M12 A3001 RMK AO2 P0003 T10891122 $ (BLH)
0314725300948462014010515517+41995-087934FM-15+0205KORD V0303605N009850048819N0016095N5-00895-01225101691ADDAA101000895AW1711GA1991+004881991GA2991+006711991GD13991+0048819GD24991+0067119GE19MSL   +99999+99999GF199999990990004881991991MA1101595099155OC101245REMMET11701/05/14 09:51:02 METAR KORD 051551Z 36019G24KT 1SM RVRNO $ (BLH) M09/M12 A3000 RMK AO2 P0000 T10891122 RVRNO $ (BLH)EQDR01$ (BLH7SKY009R02$ (BLH7GAS009
