0203726430149202015010100537+43879-091253FM-15+0200KLSE V0302605N004652200059N0160935N5-00835-01565102275ADDAA101000095GA1005+999999999GD10991+9999999GF100991999999999999999999MA1102035099645OC101085REMMET10012/31/14 18:53:03 METAR KLSE 010053Z 26009G21KT 10SM CLR M08/M16 A3013 RMK AO2 SLP227 T10831156 (DG)
0192726430149202015010101537+43879-091253FM-15+0200KLSE V0302505N006252200059N0160935N5-00895-01565102235ADDAA101000095GA1005+999999999GD10991+9999999GF100991999999999999999999MA1101965099575REMMET09712/31/14 19:53:03 METAR KLSE 010153Z 25012KT 10SM CLR M09/M16 A3011 RMK AO2 SLP223 T10891156 (DG)
0207726430149202015010102537+43879-091253FM-15+0200KLSE V0302705N005152200059N0160935N5-00945-01565102215ADDAA101000095GA1005+999999999GD10991+9999999GF100991999999999999999999MA1101965099575MD1890029+9999REMMET09812/31/14 20:53:03 METAR KLSE 010253Z 27010KT 10SM CLR M09/M16 A3011 RMK AO2 SLP221 T10941156 58002
0187726430149202015010103537+43879-091253FM-15+0200KLSE V0302405N005752200059N0160935N5-01005-01615102155ADDAA101000095GA1005+999999999GD10991+9999999GF100991999999999999999999MA1101905099505REMMET09212/31/14 21:53:03 METAR KLSE 010353Z 24011KT 10SM CLR M10/M16 A3009 RMK AO2 SLP215 T11001161
0187726430149202015010104537+43879-091253FM-15+0200KLSE V0302405N004652200059N0160935N5-01005-01615102025ADDAA101000095GA1005+999999999GD10991+9999999GF100991999999999999999999MA1101795099405REMMET09212/31/14 22:53:03 METAR KLSE 010453Z 24009KT 10SM CLR M10/M16 A3006 RMK AO2 SLP202 T11001161
0281726430149202015010105537+43879-091253FM-15+0200KLSE V0302305N004152200059N0160935N5-01065-01615101955ADDAA101000095GA1005+999999999GD10991+9999999GF100991999999999999999999KA1060M-00831KA2060N-01061KA3240M-00671KA4240N-01941MA1101735099345MD1890239+9999REMMET12012/31/14 23:53:03 METAR KLSE 010553Z 23008KT 10SM CLR M11/M16 A3004 RMK AO2 SLP195 T11061161 11083 21106 410671194 58023
0968726430149202015010105596+43879-091253SOD  +0200KLSE V030999999999999999999999999999+99999+99999999999ADDAA124000095AJ100039599999999AN1024000095KA1240M-00665KA2240N-01935KG1024W-0139D4KG2024D-0183D4MF1099934102844MG1099934101934OE11240174321099995OE22240134123099995OE33240056899999995RH1024X072D4RH2024N049D4RH3024M061D4REMSOD73924 HR PRECIPITATION (IN): 0.00 SNOW DEPTH (IN):1     24 HR SNOWFALL (IN):0.0  24 HR MAX TEMP (F): 2024 HR MIN TEMP (F): -3AVERAGE STATION PRESSURE:29.510 MINIMUM SEA LEVEL PRESSURE:30.10 TIME OF OCCURRENCE:2359 PEAK WIND SPEED (MPH): 39 PEAK WIND DIR (DEG):210 PEAK WIND TIME (LST):      FASTEST 2MIN SPEED (MPH): 30FASTEST 2MIN DIR (DEG):230 FASTEST 2MIN TIME (LST):     AVERAGE WIND SPEED (MPH):12.7 24 HR AVG TEMP (F):  9DEPART FROM NORMAL: -9  HEATING DEGREE DAYS: 56 COOLING DEGREE DAYS:  0 LATEST DAY MAX TEMP (0700-1900 LST):20  LATEST NIGHT MIN TEMP(1900-0800 LST):-3 HOURLY INCREMENTAL PRECIPITATION VALUES (IN):.00 0.00 0.00 0.00 0.00 0.00 0.00 0.00 0.00 0.00 0.00 0.00 0.00 0.00 0.00 0.00 0.00 0.00 0.00 0.00 0.00 0.00 0.00 0.00
1324726430149202015010105596+43879-091253SOM  +0200KLSE V030999999999999999999999999999+99999+99999999999ADDAB1002799UAD1001149222399999999UAE108U04U00U00UAH1005000890721045AH2010001390720385AH3015001590720445AH4020001890720485AH5030002090721045AH6045003090721145AI1060003090721145AI2080003690721455AI3100003690721455AI4120003692308585AI5150004192309155AI6180004892308425AK100033319999IAM100309232399999999IAN102400519IKB1744N-05335KB2744M+00835KB3744A-02225KC1N9-01943199995KC2M9+00941599995KD1744H11396KD2744C00005KE113U00U24U02UMH109973U10227UMK1104503010375100072305195REMSOM796PCP MTOT:1.09 PCP GT 24HRS:0.45 DATE(S):22-23 DAYS W/PCP >=.01:8  DAYS W/PCP >=.10:3  DAYS W/ PCP >=.50:0 DAYS W/PCP >=1.00:0 MSDP AMTS W/DATE-TIME TAGS:MIN:5 0.03  07/2104 MIN:10 0.05  07/2038 MIN:15 0.06  07/2044 MIN:20 0.07  07/2048 MIN:30 0.08  07/2104 MIN:45 0.12  07/2114 MIN:60 0.12  07/2114 MIN:80 0.14  07/2145 MIN:100 0.14  07/2145 MIN:120 0.14  23/0858 MIN:150 0.16  23/0915 MIN:180 0.19  23/0842 AVG DLY MIN:22.4  AVG DLY MAX:33.5  AVG MLY TMP:28.0  MIN TMP:-3 DATE(S):31 MAX TMP:49  DATE(S):15 DAYS MAX <=32:1 DAYS MAX >=90:0  DAYS MIN <=32:24 DAYS MIN  <=0:2  AVG STP:29.450 LWST SLP:29.55 DATE/TIME:230519 HGST SLP:30.86 DATE/TIME:301037 HDD MTH TOT:1139 DEP NORM:-2553 SEASON(JUL 1-JUN 30):2736 DEP NORM:-25536 CDD MTH TOT:0 DEP NORM:-2553 SEASON(JAN 1-DEC 31):393 DEP NORM:-25536EQDR01  0.457ADP081R02     07AE2103R03  11397KDH044
0187726430149202015010106537+43879-091253FM-15+0200KLSE V0302205N005752200059N0160935N5-01065-01615101835ADDAA101000095GA1005+999999999GD10991+9999999GF100991999999999999999999MA1101635099245REMMET09201/01/15 00:53:02 METAR KLSE 010653Z 22011KT 10SM CLR M11/M16 A3001 RMK AO2 SLP183 T11061161
0187726430149202015010107537+43879-091253FM-15+0200KLSE V0302105N004652200059N0160935N5-01115-01565101765ADDAA101000095GA1005+999999999GD10991+9999999GF100991999999999999999999MA1101565099175REMMET09201/01/15 01:53:02 METAR KLSE 010753Z 21009KT 10SM CLR M11/M16 A2999 RMK AO2 SLP176 T11111156
0207726430149202015010108537+43879-091253FM-15+0200KLSE V0309999V002152200059N0160935N5-01065-01565101765ADDAA101000095GA1005+999999999GD10991+9999999GF100991999999999999999999MA1101565099175MD1690179+9999REMMET09801/01/15 02:53:02 METAR KLSE 010853Z VRB04KT 10SM CLR M11/M16 A2999 RMK AO2 SLP176 T11061156 56017
0187726430149202015010109537+43879-091253FM-15+0200KLSE V0302305N004652200059N0160935N5-01005-01505101595ADDAA101000095GA1005+999999999GD10991+9999999GF100991999999999999999999MA1101395099015REMMET09201/01/15 03:53:02 METAR KLSE 010953Z 23009KT 10SM CLR M10/M15 A2994 RMK AO2 SLP159 T11001150
0187726430149202015010110537+43879-091253FM-15+0200KLSE V0302205N006752200059N0160935N5-01065-01505101625ADDAA101000095GA1005+999999999GD10991+9999999GF100991999999999999999999MA1101425099045REMMET09201/01/15 04:53:02 METAR KLSE 011053Z 22013KT 10SM CLR M11/M15 A2995 RMK AO2 SLP162 T11061150
0199726430149202015010111467+43879-091253FM-16+0200KLSE V0302105N00465008845MN0160935N5-01005-01445999999ADDGA1075+008845999GD13991+0088459GE19MSL   +99999+99999GF199999999999008841999999MA1101355098975REMMET09301/01/15 05:46:02 SPECI KLSE 011146Z 21009KT 10SM BKN029 M10/M14 A2993 RMK AO2 T11001144 (JK)
0146726430149202015010111516+43879-091253FM-16+0200KLSE V0302205N00465009145MN0160935N5-01005-01405999999ADDGA1075+009145999GD13991+0091459MA1101395099015REMMET08801/01/15 05:51:02 SPECI KLSE 011151Z 22009KT 10SM BKN030 M10/M14 A2994 RMK AO2 FIBI (JK)
0275726430149202015010111537+43879-091253FM-15+0200KLSE V0302205N00415009145MN0160935N5-01005-01445101595ADDAA101000095GA1075+009145999GD13991+0091459GE19MSL   +99999+99999GF199999999999009141999999KA1060M-01001KA2060N-01111MA1101395099015MD1690179+9999REMMET11801/01/15 05:53:02 METAR KLSE 011153Z 22008KT 10SM BKN030 M10/M14 A2994 RMK AO2 SLP159 T11001144 11100 21111 56017 (JK)
0217726430149202015010112537+43879-091253FM-15+0200KLSE V0302105N00365009755MN0160935N5-00945-01395101535ADDAA101000095GA1085+009755999GD14991+0097559GE19MSL   +99999+99999GF199999999999009751999999MA1101325098945REMMET10001/01/15 06:53:02 METAR KLSE 011253Z 21007KT 10SM OVC032 M09/M14 A2992 RMK AO2 SLP153 T10941139 (JK)
0217726430149202015010113537+43879-091253FM-15+0200KLSE V0302005N00465030485MN0160935N5-00945-01395101555ADDAA101000095GA1075+030485999GD13991+0304859GE19MSL   +99999+99999GF199999999999030481999999MA1101355098975REMMET10001/01/15 07:53:02 METAR KLSE 011353Z 20009KT 10SM BKN100 M09/M14 A2993 RMK AO2 SLP155 T10941139 (JK)
0275726430149202015010114537+43879-091253FM-15+0200KLSE V0302105N00465022865MN0160935N5-00835-01285101565ADDAA101000095GA1075+022865999GA2085+027435999GD13991+0228659GD24991+0274359GE19MSL   +99999+99999GF199999999999022861999999MA1101355098975MD1590029+9999REMMET11301/01/15 08:53:02 METAR KLSE 011453Z 21009KT 10SM BKN075 OVC090 M08/M13 A2993 RMK AO2 SLP156 T10831128 55002 (JK)
0293726430149202015010115537+43879-091253FM-15+0200KLSE V0302205N00365030485MN0160935N5-00675-01175101525ADDAA101000095GA1025+021345999GA2045+024385999GA3085+030485999GD11991+0213459GD22991+0243859GD34991+0304859GE19MSL   +99999+99999GF199999999999021341999999MA1101325098945REMMET11401/01/15 09:53:02 METAR KLSE 011553Z 22007KT 10SM FEW070 SCT080 OVC100 M07/M12 A2992 RMK AO2 SLP152 T10671117 (JK)
0217726430149202015010116537+43879-091253FM-15+0200KLSE V0302205N00315021345MN0160935N5-00615-01115101525ADDAA101000095GA1085+021345999GD14991+0213459GE19MSL   +99999+99999GF199999999999021341999999MA1101325098945REMMET10001/01/15 10:53:02 METAR KLSE 011653Z 22006KT 10SM OVC070 M06/M11 A2992 RMK AO2 SLP152 T10611111 (JK)
0275726430149202015010117537+43879-091253FM-15+0200KLSE V0302205N00265024385MN0160935N5-00395-01005101455ADDAA101000095GA1085+024385999GD14991+0243859GE19MSL   +99999+99999GF199999999999024381999999KA1060M-00391KA2060N-01001MA1101255098875MD1890099+9999REMMET11801/01/15 11:53:02 METAR KLSE 011753Z 22005KT 10SM OVC080 M04/M10 A2990 RMK AO2 SLP145 T10391100 11039 21100 58009 (JK)
0255726430149202015010118537+43879-091253FM-15+0200KLSE V0302605N00315022865MN0160935N5-00225-00895101465ADDAA101000095GA1045+009145999GA2085+022865999GD12991+0091459GD24991+0228659GE19MSL   +99999+99999GF199999999999009141999999MA1101295098915REMMET10701/01/15 12:53:02 METAR KLSE 011853Z 26006KT 10SM SCT030 OVC075 M02/M09 A2991 RMK AO2 SLP146 T10221089 (JK)
0255726430149202015010119537+43879-091253FM-15+0200KLSE V0302905N00515021345MN0160935N5-00175-00785101485ADDAA101000095GA1045+008535999GA2085+021345999GD12991+0085359GD24991+0213459GE19MSL   +99999+99999GF199999999999008531999999MA1101295098915REMMET10701/01/15 13:53:02 METAR KLSE 011953Z 29010KT 10SM SCT028 OVC070 M02/M08 A2991 RMK AO2 SLP148 T10171078 (DG)
0275726430149202015010120537+43879-091253FM-15+0200KLSE V0302805N00465016765MN0160935N5-00065-00725101505ADDAA101000095GA1025+008235999GA2085+016765999GD11991+0082359GD24991+0167659GE19MSL   +99999+99999GF199999999999008231999999MA1101325098945MD1390069+9999REMMET11301/01/15 14:53:02 METAR KLSE 012053Z 28009KT 10SM FEW027 OVC055 M01/M07 A2992 RMK AO2 SLP150 T10061072 53006 (DG)
0237726430149202015010121147+43879-091253FM-16+0200KLSE V0302905N00465008235MN0160935N5-00115-00725999999ADDGA1075+008235999GA2085+015245999GD13991+0082359GD24991+0152459GE19MSL   +99999+99999GF199999999999008231999999MA1101395099015REMMET10001/01/15 15:14:02 SPECI KLSE 012114Z 29009KT 10SM BKN027 OVC050 M01/M07 A2994 RMK AO2 T10111072 (DG)
0217726430149202015010121537+43879-091253FM-15+0200KLSE V0302705N00365008535MN0160935N5-00115-00725101625ADDAA101000095GA1085+008535999GD14991+0085359GE19MSL   +99999+99999GF199999999999008531999999MA1101465099075REMMET10001/01/15 15:53:02 METAR KLSE 012153Z 27007KT 10SM OVC028 M01/M07 A2996 RMK AO2 SLP162 T10111072 (DG)
0237726430149202015010122187+43879-091253FM-16+0200KLSE V0302705N00315011895MN0160935N5-00225-00725999999ADDGA1045+008845999GA2075+011895999GD12991+0088459GD23991+0118959GE19MSL   +99999+99999GF199999999999008841999999MA1101495099115REMMET10001/01/15 16:18:02 SPECI KLSE 012218Z 27006KT 10SM SCT029 BKN039 M02/M07 A2997 RMK AO2 T10221072 (DG)
0199726430149202015010122387+43879-091253FM-16+0200KLSE V0302705N00265008535MN0160935N5-00175-00675999999ADDGA1075+008535999GD13991+0085359GE19MSL   +99999+99999GF199999999999008531999999MA1101525099145REMMET09301/01/15 16:38:02 SPECI KLSE 012238Z 27005KT 10SM BKN028 M02/M07 A2998 RMK AO2 T10171067 (DG)
0217726430149202015010122537+43879-091253FM-15+0200KLSE V0302705N00315008535MN0160935N5-00175-00675101745ADDAA101000095GA1085+008535999GD14991+0085359GE19MSL   +99999+99999GF199999999999008531999999MA1101565099175REMMET10001/01/15 16:53:02 METAR KLSE 012253Z 27006KT 10SM OVC028 M02/M07 A2999 RMK AO2 SLP174 T10171067 (DG)
0275726430149202015010123537+43879-091253FM-15+0200KLSE V0303205N00155008235MN0160935N5-00175-00615101805ADDAA101000095GA1085+008235999GD14991+0082359GE19MSL   +99999+99999GF199999999999008231999999KA1060M+00001KA2060N-00391MA1101635099245MD1190309+9999REMMET11801/01/15 17:53:02 METAR KLSE 012353Z 32003KT 10SM OVC027 M02/M06 A3001 RMK AO2 SLP180 T10171061 10000 21039 51030 (DG)
0251726430149202015010200147+43879-091253FM-16+0200KLSE V0302305N002152200059N0160935N5-00335-00785999999ADDGA1045+008845999GA2045+012805999GD12991+0088459GD22991+0128059GE19AGL   +99999+99999GF104995999999008841999999MA1101665099275REMMET09501/01/15 18:14:01 SPECI KLSE 020014Z 23004KT 10SM SCT029 SCT042 M03/M08 A3002 RMK AO2 T10331078EQDD01      0ADE726
0212726430149202015010200537+43879-091253FM-15+0200KLSE V0302105N00215011285MN0160935N5-00285-00675101905ADDAA101000095GA1085+011285999GD14991+0112859GE19MSL   +99999+99999GF199999999999011281999999MA1101735099345REMMET09501/01/15 18:53:01 METAR KLSE 020053Z 21004KT 10SM OVC037 M03/M07 A3004 RMK AO2 SLP190 T10281067
0212726430149202015010201537+43879-091253FM-15+0200KLSE V0302505N00215012505MN0160935N5-00225-00675101995ADDAA101000095GA1085+012505999GD14991+0125059GE19MSL   +99999+99999GF199999999999012501999999MA1101835099445REMMET09501/01/15 19:53:02 METAR KLSE 020153Z 25004KT 10SM OVC041 M02/M07 A3007 RMK AO2 SLP199 T10221067
0232726430149202015010202537+43879-091253FM-15+0200KLSE V0302505N00155012505MN0160935N5-00175-00615102045ADDAA101000095GA1085+012505999GD14991+0125059GE19MSL   +99999+99999GF199999999999012501999999MA1101865099475MD1190239+9999REMMET10101/01/15 20:53:02 METAR KLSE 020253Z 25003KT 10SM OVC041 M02/M06 A3008 RMK AO2 SLP204 T10171061 51023
0212726430149202015010203537+43879-091253FM-15+0200KLSE V0302605N00315011895MN0160935N5-00115-00565102095ADDAA101000095GA1085+011895999GD14991+0118959GE19MSL   +99999+99999GF199999999999011891999999MA1101935099545REMMET09501/01/15 21:53:02 METAR KLSE 020353Z 26006KT 10SM OVC039 M01/M06 A3010 RMK AO2 SLP209 T10111056
0179726430149202015010204516+43879-091253FM-16+0200KLSE V0303605N00415007925MN0160935N5-00205-00705999999ADDGA1075+007925999GA2085+011585999GD13991+0079259GD24991+0115859MA1102005099605REMMET09001/01/15 22:51:03 SPECI KLSE 020451Z 36008KT 10SM BKN026 OVC038 M02/M07 A3012 RMK AO2 FIBI
0250726430149202015010204537+43879-091253FM-15+0200KLSE V0303605N00415007925MN0160935N5-00175-00675102155ADDAA101000095GA1075+007925999GA2085+010675999GD13991+0079259GD24991+0106759GE19MSL   +99999+99999GF199999999999007921999999MA1102005099605REMMET10201/01/15 22:53:02 METAR KLSE 020453Z 36008KT 10SM BKN026 OVC035 M02/M07 A3012 RMK AO2 SLP215 T10171067
0344726430149202015010205537+43879-091253FM-15+0200KLSE V0303405N00365007325MN0160935N5-00225-00835102185ADDAA101000095GA1075+007325999GA2085+010065999GD13991+0073259GD24991+0100659GE19MSL   +99999+99999GF199999999999007321999999KA1060M-00061KA2060N-00391KA3240M+00001KA4240N-01111MA1102035099645MD1190169+9999REMMET13001/01/15 23:53:02 METAR KLSE 020553Z 34007KT 10SM BKN024 OVC033 M02/M08 A3013 RMK AO2 SLP218 T10221083 11006 21039 400001111 51016
0968726430149202015010205596+43879-091253SOD  +0200KLSE V030999999999999999999999999999+99999+99999999999ADDAA124000095AJ100039599999999AN1024000095KA1240M+00005KA2240N-01105KG1024W-0067D4KG2024D-0100D4MF1099194101734MG1099194101424OE11240102823099995OE22240080522099995OE33240036299999995RH1024X075D4RH2024N060D4RH3024M068D4REMSOD73924 HR PRECIPITATION (IN): 0.00 SNOW DEPTH (IN):1     24 HR SNOWFALL (IN):0.0  24 HR MAX TEMP (F): 3224 HR MIN TEMP (F): 12AVERAGE STATION PRESSURE:29.290 MINIMUM SEA LEVEL PRESSURE:29.95 TIME OF OCCURRENCE:1230 PEAK WIND SPEED (MPH): 23 PEAK WIND DIR (DEG):230 PEAK WIND TIME (LST):      FASTEST 2MIN SPEED (MPH): 18FASTEST 2MIN DIR (DEG):220 FASTEST 2MIN TIME (LST):     AVERAGE WIND SPEED (MPH): 8.1 24 HR AVG TEMP (F): 22DEPART FROM NORMAL:  4  HEATING DEGREE DAYS: 43 COOLING DEGREE DAYS:  0 LATEST DAY MAX TEMP (0700-1900 LST):32  LATEST NIGHT MIN TEMP(1900-0800 LST):12 HOURLY INCREMENTAL PRECIPITATION VALUES (IN):.00 0.00 0.00 0.00 0.00 0.00 0.00 0.00 0.00 0.00 0.00 0.00 0.00 0.00 0.00 0.00 0.00 0.00 0.00 0.00 0.00 0.00 0.00 0.00
0270726430149202015010206087+43879-091253FM-16+0200KLSE V0303405N00315011285MN0160935N5-00285-00835999999ADDGA1045+007625999GA2045+009145999GA3085+011285999GD12991+0076259GD22991+0091459GD34991+0112859GE19MSL   +99999+99999GF199999999999007621999999MA1102075099675REMMET10201/02/15 00:08:02 SPECI KLSE 020608Z 34006KT 10SM SCT025 SCT030 OVC037 M03/M08 A3014 RMK AO2 T10281083
0232726430149202015010206267+43879-091253FM-16+0200KLSE V0300205N00265008535MN0160935N5-00285-00785999999ADDGA1075+008535999GA2085+011285999GD13991+0085359GD24991+0112859GE19MSL   +99999+99999GF199999999999008531999999MA1102075099675REMMET09501/02/15 00:26:02 SPECI KLSE 020626Z 02005KT 10SM BKN028 OVC037 M03/M08 A3014 RMK AO2 T10281078
0250726430149202015010206537+43879-091253FM-15+0200KLSE V0300205N00315008235MN0160935N5-00395-00945102255ADDAA101000095GA1075+008235999GA2085+011285999GD13991+0082359GD24991+0112859GE19MSL   +99999+99999GF199999999999008231999999MA1102105099705REMMET10201/02/15 00:53:02 METAR KLSE 020653Z 02006KT 10SM BKN027 OVC037 M04/M09 A3015 RMK AO2 SLP225 T10391094
0213726430149202015010207267+43879-091253FM-16+0200KLSE V0300105N002652200059N0160935N5-00565-01115999999ADDGA1045+008235999GD12991+0082359GE19AGL   +99999+99999GF104995999999008231999999MA1102135099745REMMET08801/02/15 01:26:02 SPECI KLSE 020726Z 01005KT 10SM SCT027 M06/M11 A3016 RMK AO2 T10561111EQDD01      0ADE726
0187726430149202015010207537+43879-091253FM-15+0200KLSE V0303605N003652200059N0160935N5-00615-01395102325ADDAA101000095GA1005+999999999GD10991+9999999GF100991999999999999999999MA1102175099775REMMET09201/02/15 01:53:02 METAR KLSE 020753Z 36007KT 10SM CLR M06/M14 A3017 RMK AO2 SLP232 T10611139
0207726430149202015010208537+43879-091253FM-15+0200KLSE V0303405N003152200059N0160935N5-01005-01565102395ADDAA101000095GA1005+999999999GD10991+9999999GF100991999999999999999999MA1102245099845MD1190199+9999REMMET09801/02/15 02:53:02 METAR KLSE 020853Z 34006KT 10SM CLR M10/M16 A3019 RMK AO2 SLP239 T11001156 51019
0187726430149202015010209537+43879-091253FM-15+0200KLSE V0300305N002152200059N0160935N5-00945-01505102415ADDAA101000095GA1005+999999999GD10991+9999999GF100991999999999999999999MA1102245099845REMMET09201/02/15 03:53:02 METAR KLSE 020953Z 03004KT 10SM CLR M09/M15 A3019 RMK AO2 SLP241 T10941150
0187726430149202015010210537+43879-091253FM-15+0200KLSE V0300205N002152200059N0160935N5-01115-01725102445ADDAA101000095GA1005+999999999GD10991+9999999GF100991999999999999999999MA1102275099875REMMET09201/02/15 04:53:02 METAR KLSE 021053Z 02004KT 10SM CLR M11/M17 A3020 RMK AO2 SLP244 T11111172
0250726430149202015010211537+43879-091253FM-15+0200KLSE V0303205N002152200059N0160935N5-01005-01675102505ADDAA101000095GA1005+999999999GD10991+9999999GF100991999999999999999999KA1060M-00221KA2060N-01171MA1102345099945MD1390109+9999REMMET11501/02/15 05:53:02 METAR KLSE 021153Z 32004KT 10SM CLR M10/M17 A3022 RMK AO2 SLP250 T11001167 11022 21117 53010 (JK)
0192726430149202015010212537+43879-091253FM-15+0200KLSE V0300105N002152200059N0160935N5-01115-01675102585ADDAA101000095GA1005+999999999GD10991+9999999GF100991999999999999999999MA1102405100005REMMET09701/02/15 06:53:02 METAR KLSE 021253Z 01004KT 10SM CLR M11/M17 A3024 RMK AO2 SLP258 T11111167 (JK)
0192726430149202015010213537+43879-091253FM-15+0200KLSE V0309999C000052200059N0160935N5-01175-01675102645ADDAA101000095GA1005+999999999GD10991+9999999GF100991999999999999999999MA1102445100045REMMET09701/02/15 07:53:02 METAR KLSE 021353Z 00000KT 10SM CLR M12/M17 A3025 RMK AO2 SLP264 T11171167 (JK)
0212726430149202015010214537+43879-091253FM-15+0200KLSE V0309999C000052200059N0160935N5-00835-01505102765ADDAA101000095GA1005+999999999GD10991+9999999GF100991999999999999999999MA1102575100175MD1390259+9999REMMET10301/02/15 08:53:02 METAR KLSE 021453Z 00000KT 10SM CLR M08/M15 A3029 RMK AO2 SLP276 T10831150 53025 (JK)
0192726430149202015010215537+43879-091253FM-15+0200KLSE V0309999C000052200059N0160935N5-00675-01615102775ADDAA101000095GA1005+999999999GD10991+9999999GF100991999999999999999999MA1102615100205REMMET09701/02/15 09:53:02 METAR KLSE 021553Z 00000KT 10SM CLR M07/M16 A3030 RMK AO2 SLP277 T10671161 (JK)
0192726430149202015010216537+43879-091253FM-15+0200KLSE V0301705N002152200059N0160935N5-00505-01565102695ADDAA101000095GA1005+999999999GD10991+9999999GF100991999999999999999999MA1102545100145REMMET09701/02/15 10:53:02 METAR KLSE 021653Z 17004KT 10SM CLR M05/M16 A3028 RMK AO2 SLP269 T10501156 (JK)
0250726430149202015010217537+43879-091253FM-15+0200KLSE V0301605N003152200059N0160935N5-00335-01285102575ADDAA101000095GA1005+999999999GD10991+9999999GF100991999999999999999999KA1060M-00331KA2060N-01221MA1102445100045MD1890169+9999REMMET11501/02/15 11:53:02 METAR KLSE 021753Z 16006KT 10SM CLR M03/M13 A3025 RMK AO2 SLP257 T10331128 11033 21122 58016 (JK)
0192726430149202015010218537+43879-091253FM-15+0200KLSE V0301705N002152200059N0160935N5-00225-01225102535ADDAA101000095GA1005+999999999GD10991+9999999GF100991999999999999999999MA1102375099975REMMET09701/02/15 12:53:02 METAR KLSE 021853Z 17004KT 10SM CLR M02/M12 A3023 RMK AO2 SLP253 T10221122 (JK)
0192726430149202015010219537+43879-091253FM-15+0200KLSE V0309999C000052200059N0160935N5-00115-01225102515ADDAA101000095GA1005+999999999GD10991+9999999GF100991999999999999999999MA1102375099975REMMET09701/02/15 13:53:02 METAR KLSE 021953Z 00000KT 10SM CLR M01/M12 A3023 RMK AO2 SLP251 T10111122 (FD)
0212726430149202015010220537+43879-091253FM-15+0200KLSE V0309999C000052200059N0160935N5-00115-01175102435ADDAA101000095GA1005+999999999GD10991+9999999GF100991999999999999999999MA1102275099875MD1890169+9999REMMET10301/02/15 14:53:02 METAR KLSE 022053Z 00000KT 10SM CLR M01/M12 A3020 RMK AO2 SLP243 T10111117 58016 (FD)
0236726430149202015010221537+43879-091253FM-15+0200KLSE V0309999C000052200059N0160935N5-00225-01065102415ADDAA101000095GA1025+010975999GD11991+0109759GE19AGL   +99999+99999GF102995999999010971999999MA1102245099845REMMET10001/02/15 15:53:02 METAR KLSE 022153Z 00000KT 10SM FEW036 M02/M11 A3019 RMK AO2 SLP241 T10221106 (FD)EQDD01      0ADE726
0192726430149202015010222537+43879-091253FM-15+0200KLSE V0301405N002152200059N0160935N5-00335-01005102395ADDAA101000095GA1005+999999999GD10991+9999999GF100991999999999999999999MA1102205099805REMMET09701/02/15 16:53:02 METAR KLSE 022253Z 14004KT 10SM CLR M03/M10 A3018 RMK AO2 SLP239 T10331100 (FD)
0250726430149202015010223537+43879-091253FM-15+0200KLSE V0301305N001552200059N0160935N5-00335-00945102365ADDAA101000095GA1005+999999999GD10991+9999999GF100991999999999999999999KA1060M+00001KA2060N-00331MA1102175099775MD1690089+9999REMMET11501/02/15 17:53:02 METAR KLSE 022353Z 13003KT 10SM CLR M03/M09 A3017 RMK AO2 SLP236 T10331094 10000 21033 56008 (FD)
0187726430149202015010300537+43879-091253FM-15+0200KLSE V0301605N002152200059N0160935N5-00335-00895102365ADDAA101000095GA1005+999999999GD10991+9999999GF100991999999999999999999MA1102175099775REMMET09201/02/15 18:53:01 METAR KLSE 030053Z 16004KT 10SM CLR M03/M09 A3017 RMK AO2 SLP236 T10331089
0187726430149202015010301537+43879-091253FM-15+0200KLSE V0309999C000052200059N0160935N5-00445-01005102375ADDAA101000095GA1005+999999999GD10991+9999999GF100991999999999999999999MA1102175099775REMMET09201/02/15 19:53:01 METAR KLSE 030153Z 00000KT 10SM CLR M04/M10 A3017 RMK AO2 SLP237 T10441100
0207726430149202015010302537+43879-091253FM-15+0200KLSE V0301205N002152200059N0160935N5-00445-01005102305ADDAA101000095GA1005+999999999GD10991+9999999GF100991999999999999999999MA1102105099705MD1890079+9999REMMET09801/02/15 20:53:02 METAR KLSE 030253Z 12004KT 10SM CLR M04/M10 A3015 RMK AO2 SLP230 T10441100 58007
0187726430149202015010303537+43879-091253FM-15+0200KLSE V0301205N001552200059N0160935N5-00445-00945102255ADDAA101000095GA1005+999999999GD10991+9999999GF100991999999999999999999MA1102105099705REMMET09201/02/15 21:53:02 METAR KLSE 030353Z 12003KT 10SM CLR M04/M09 A3015 RMK AO2 SLP225 T10441094
0231726430149202015010304537+43879-091253FM-15+0200KLSE V0301205N002652200059N0160935N5-00395-00945102125ADDAA101000095GA1025+036585999GD11991+0365859GE19AGL   +99999+99999GF102995999999036581999999MA1101965099575REMMET09501/02/15 22:53:02 METAR KLSE 030453Z 12005KT 10SM FEW120 M04/M09 A3011 RMK AO2 SLP212 T10391094EQDD01      0ADE726
0306726430149202015010305537+43879-091253FM-15+0200KLSE V0301105N00215014335MN0160935N5-00335-00895101995ADDAA101000095GA1085+014335999GD14991+0143359GE19MSL   +99999+99999GF199999999999014331999999KA1060M-00281KA2060N-00501KA3240M+00001KA4240N-01221MA1101835099445MD1890279+9999REMMET12301/02/15 23:53:02 METAR KLSE 030553Z 11004KT 10SM OVC047 M03/M09 A3007 RMK AO2 SLP199 T10331089 11028 21050 400001122 58027
0968726430149202015010305596+43879-091253SOD  +0200KLSE V030999999999999999999999999999+99999+99999999999ADDAA124000095AJ100039599999999AN1024000095KA1240M+00005KA2240N-01215KG1024W-0078D4KG2024D-0128D4MF1099804102404MG1099784101964OE11240049218099995OE22240040218099995OE33240016199999995RH1024X068D4RH2024N043D4RH3024M058D4REMSOD73924 HR PRECIPITATION (IN): 0.00 SNOW DEPTH (IN):1     24 HR SNOWFALL (IN):0.0  24 HR MAX TEMP (F): 3224 HR MIN TEMP (F): 10AVERAGE STATION PRESSURE:29.465 MINIMUM SEA LEVEL PRESSURE:30.11 TIME OF OCCURRENCE:2359 PEAK WIND SPEED (MPH): 11 PEAK WIND DIR (DEG):180 PEAK WIND TIME (LST):      FASTEST 2MIN SPEED (MPH):  9FASTEST 2MIN DIR (DEG):180 FASTEST 2MIN TIME (LST):     AVERAGE WIND SPEED (MPH): 3.6 24 HR AVG TEMP (F): 21DEPART FROM NORMAL:  3  HEATING DEGREE DAYS: 44 COOLING DEGREE DAYS:  0 LATEST DAY MAX TEMP (0700-1900 LST):32  LATEST NIGHT MIN TEMP(1900-0800 LST):10 HOURLY INCREMENTAL PRECIPITATION VALUES (IN):.00 0.00 0.00 0.00 0.00 0.00 0.00 0.00 0.00 0.00 0.00 0.00 0.00 0.00 0.00 0.00 0.00 0.00 0.00 0.00 0.00 0.00 0.00 0.00
0212726430149202015010306537+43879-091253FM-15+0200KLSE V0301505N00215013725MN0160935N5-00335-00785101935ADDAA101000095GA1085+013725999GD14991+0137259GE19MSL   +99999+99999GF199999999999013721999999MA1101765099375REMMET09501/03/15 00:53:02 METAR KLSE 030653Z 15004KT 10SM OVC045 M03/M08 A3005 RMK AO2 SLP193 T10331078
0241726430149202015010307087+43879-091253FM-16+0200KLSE V0301605N00155008845MN0040235N5-00335-00725999999ADDAA101000021AU110030015AW1715GA1085+008845999GD14991+0088459GE19MSL   +99999+99999GF199999999999008841999999MA1101765099375REMMET10701/03/15 01:08:02 SPECI KLSE 030708Z 16003KT 2 1/2SM -SN OVC029 M03/M07 A3005 RMK AO2 SNB02 P0000 T10331072
0237726430149202015010307167+43879-091253FM-16+0200KLSE V0309999C00005006405MN0016095N5-00395-00675999999ADDAA101000231AU110030015AW1715GA1085+006405999GD14991+0064059GE19MSL   +99999+99999GF199999999999006401999999MA1101735099345REMMET10301/03/15 01:16:02 SPECI KLSE 030716Z 00000KT 1SM -SN OVC021 M04/M07 A3004 RMK AO2 SNB02 P0001 T10391067
0295726430149202015010307287+43879-091253FM-16+0200KLSE V0301305N00155006405MN0032195N5-00395-00565999999ADDAA101000231AU110030015AU200001015AW1105AW2715GA1025+002445999GA2085+006405999GD11991+0024459GD24991+0064059GE19MSL   +99999+99999GF199999999999002441999999MA1101735099345REMMET11301/03/15 01:28:02 SPECI KLSE 030728Z 13003KT 2SM -SN BR FEW008 OVC021 M04/M06 A3004 RMK AO2 SNB02 P0001 T10391056
0340726430149202015010307537+43879-091253FM-15+0200KLSE V0309999C00005003965MN0032195N5-00285-00505101845ADDAA101000895AU110030015AU200001015AW1105AW2715GA1025+002135999GA2075+003965999GA3085+008235999GD11991+0021359GD23991+0039659GD34991+0082359GE19MSL   +99999+99999GF199999999999002131999999MA1101695099315REMMET12701/03/15 01:53:02 METAR KLSE 030753Z 00000KT 2SM -SN BR FEW007 BKN013 OVC027 M03/M05 A3003 RMK AO2 SNB02 SLP184 P0002 T10281050
0331726430149202015010307577+43879-091253FM-16+0200KLSE V0309999C00005006405MN0028165N5-00285-00505999999ADDAA101000231AU110030015AU200001015AW1105AW2715GA1025+002135999GA2045+003965999GA3085+006405999GD11991+0021359GD22991+0039659GD34991+0064059GE19MSL   +99999+99999GF199999999999002131999999MA1101695099315REMMET11801/03/15 01:57:02 SPECI KLSE 030757Z 00000KT 1 3/4SM -SN BR FEW007 SCT013 OVC021 M03/M05 A3003 RMK AO2 P0001 T10281050
0291726430149202015010308077+43879-091253FM-16+0200KLSE V0309999C00005003055MN0012075N5-00285-00445999999ADDAA101000231AU110030015AU200001015AW1105AW2715GA1075+003055999GA2085+004275999GD13991+0030559GD24991+0042759GE19MSL   +99999+99999GF199999999999003051999999MA1101765099375REMMET10901/03/15 02:07:02 SPECI KLSE 030807Z 00000KT 3/4SM -SN BR BKN010 OVC014 M03/M04 A3005 RMK AO2 P0001 T10281044
0250726430149202015010308187+43879-091253FM-16+0200KLSE V0301005N00155002745WN0016095N5-00285-00445999999ADDAA101000731AU110030015AU200001015AW1105AW2715GA1095+002745999GD15991+0027459GE19MSL   +99999+99999GF109991999999002741999999MA1101735099345REMMET09901/03/15 02:18:02 SPECI KLSE 030818Z 10003KT 1SM -SN BR VV009 M03/M04 A3004 RMK AO2 P0003 T10281044
0252726430149202015010308277+43879-091253FM-16+0200KLSE V0301205N00265002445WN0012075N5-00285-00445999999ADDAA101001031AU110030015AU200001015AW1105AW2715GA1095+002445999GD15991+0024459GE19MSL   +99999+99999GF109991999999002441999999MA1101695099315REMMET10101/03/15 02:27:02 SPECI KLSE 030827Z 12005KT 3/4SM -SN BR VV008 M03/M04 A3003 RMK AO2 P0004 T10281044
0327726430149202015010308407+43879-091253FM-16+0200KLSE V0301205N00155002745MN0032195N5-00285-00445999999ADDAA101001031AU110030015AU200001015AW1105AW2715GA1075+002745999GA2075+005795999GA3085+013725999GD13991+0027459GD23991+0057959GD34991+0137259GE19MSL   +99999+99999GF199999999999002741999999MA1101735099345REMMET11401/03/15 02:40:02 SPECI KLSE 030840Z 12003KT 2SM -SN BR BKN009 BKN019 OVC045 M03/M04 A3004 RMK AO2 P0004 T10281044
0327726430149202015010308457+43879-091253FM-16+0200KLSE V0309999C00005005795MN0048285N5-00285-00395999999ADDAA101001031AU110030015AU200001015AW1105AW2715GA1045+002745999GA2075+005795999GA3085+013725999GD12991+0027459GD23991+0057959GD34991+0137259GE19MSL   +99999+99999GF199999999999002741999999MA1101735099345REMMET11401/03/15 02:45:02 SPECI KLSE 030845Z 00000KT 3SM -SN BR SCT009 BKN019 OVC045 M03/M04 A3004 RMK AO2 P0004 T10281039
0263726430149202015010308516+43879-091253FM-16+0200KLSE V0301205N00265013115MN0080475N5-00305-00405999999ADDAU110030015AU200001015AW1105AW2715GA1045+002745999GA2045+005795999GA3085+013115999GD12991+0027459GD22991+0057959GD34991+0131159MA1101695099315REMMET10901/03/15 02:51:02 SPECI KLSE 030851Z 12005KT 5SM -SN BR SCT009 SCT019 OVC043 M03/M04 A3003 RMK AO2 P0004 FIBI
0390726430149202015010308537+43879-091253FM-15+0200KLSE V0301305N00315013115MN0080475N5-00285-00445101835ADDAA101001095AA203001591AU110030015AU200001015AW1105AW2715GA1025+002745999GA2045+005495999GA3085+013115999GD11991+0027459GD22991+0054959GD34991+0131159GE19MSL   +99999+99999GF199999999999002741999999MA1101695099315MD1690159+9999REMMET13301/03/15 02:53:02 METAR KLSE 030853Z 13006KT 5SM -SN BR FEW009 SCT018 OVC043 M03/M04 A3003 RMK AO2 SLP183 P0004 60006 T10281044 56015EQDQ01  00158PRCP03
0264726430149202015010309537+43879-091253FM-15+0200KLSE V0301505N00725014025MN0160935N5-00175-00395101565ADDAA101000095GA1045+011285999GA2085+014025999GD12991+0112859GD24991+0140259GE19MSL   +99999+99999GF199999999999011281999999MA1101425099045REMMET11601/03/15 03:53:02 METAR KLSE 030953Z 15014KT 10SM SCT037 OVC046 M02/M04 A2995 RMK AO2 SNE0855 SLP156 P0001 T10171039
0288726430149202015010310537+43879-091253FM-15+0200KLSE V0302405N00215011285MN0160935N5-00175-00445101665ADDAA101000095GA1025+006405999GA2045+008235999GA3085+011285999GD11991+0064059GD22991+0082359GD34991+0112859GE19MSL   +99999+99999GF199999999999006401999999MA1101525099145REMMET10901/03/15 04:53:02 METAR KLSE 031053Z 24004KT 10SM FEW021 SCT027 OVC037 M02/M04 A2998 RMK AO2 SLP166 T10171044
0269726430149202015010311077+43879-091253FM-16+0200KLSE V0309999C00005007925MN0128755N5-00175-00395999999ADDGA1045+006405999GA2075+007925999GA3085+010675999GD12991+0064059GD23991+0079259GD34991+0106759GE19MSL   +99999+99999GF199999999999006401999999MA1101525099145REMMET10101/03/15 05:07:02 SPECI KLSE 031107Z 00000KT 8SM SCT021 BKN026 OVC035 M02/M04 A2998 RMK AO2 T10171039
0231726430149202015010311307+43879-091253FM-16+0200KLSE V0301105N00265009455MN0128755N5-00225-00445999999ADDGA1025+005495999GA2085+009455999GD11991+0054959GD24991+0094559GE19MSL   +99999+99999GF199999999999005491999999MA1101425099045REMMET09401/03/15 05:30:02 SPECI KLSE 031130Z 11005KT 8SM FEW018 OVC031 M02/M04 A2995 RMK AO2 T10221044
0327726430149202015010311537+43879-091253FM-15+0200KLSE V0301405N00315009755MN0128755N5-00175-00395101525ADDAA101000095AA206001891AA324001891GA1085+009755999GD14991+0097559GE19MSL   +99999+99999GF199999999999009751999999KA1060M-00111KA2060N-00391MA1101395099015MD1690309+9999REMMET12901/03/15 05:53:02 METAR KLSE 031153Z 14006KT 8SM OVC032 M02/M04 A2994 RMK AO2 SLP152 60007 70007 T10171039 11011 21039 56030 (JK)EQDQ01  00178PRCP24
0216726430149202015010312537+43879-091253FM-15+0200KLSE V0301405N00315009755MN0128755N5-00175-00395101525ADDAA101000095GA1085+009755999GD14991+0097559GE19MSL   +99999+99999GF199999999999009751999999MA1101395099015REMMET09901/03/15 06:53:02 METAR KLSE 031253Z 14006KT 8SM OVC032 M02/M04 A2994 RMK AO2 SLP152 T10171039 (JK)
0236726430149202015010313437+43879-091253FM-16+0200KLSE V0301305N00215003665MN0128755N5-00175-00395999999ADDGA1075+003665999GA2085+009455999GD13991+0036659GD24991+0094559GE19MSL   +99999+99999GF199999999999003661999999MA1101325098945REMMET09901/03/15 07:43:02 SPECI KLSE 031343Z 13004KT 8SM BKN012 OVC031 M02/M04 A2992 RMK AO2 T10171039 (JK)
0216726430149202015010313537+43879-091253FM-15+0200KLSE V0301305N00215003665MN0128755N5-00175-00395101465ADDAA101000095GA1085+003665999GD14991+0036659GE19MSL   +99999+99999GF199999999999003661999999MA1101325098945REMMET09901/03/15 07:53:02 METAR KLSE 031353Z 13004KT 8SM OVC012 M02/M04 A2992 RMK AO2 SLP146 T10171039 (JK)
0274726430149202015010314537+43879-091253FM-15+0200KLSE V0301405N00215003665MN0112655N5-00115-00395101525ADDAA101000095GA1075+003665999GA2085+009755999GD13991+0036659GD24991+0097559GE19MSL   +99999+99999GF199999999999003661999999MA1101395099015MD1590019+9999REMMET11201/03/15 08:53:02 METAR KLSE 031453Z 14004KT 7SM BKN012 OVC032 M01/M04 A2994 RMK AO2 SLP152 T10111039 55001 (JK)
0236726430149202015010315397+43879-091253FM-16+0200KLSE V0301305N00215010365MN0112655N5-00115-00395999999ADDGA1045+003965999GA2085+010365999GD12991+0039659GD24991+0103659GE19MSL   +99999+99999GF199999999999003961999999MA1101355098975REMMET09901/03/15 09:39:02 SPECI KLSE 031539Z 13004KT 7SM SCT013 OVC034 M01/M04 A2993 RMK AO2 T10111039 (JK)
0216726430149202015010315537+43879-091253FM-15+0200KLSE V0301205N00265010365MN0112655N5-00115-00395101465ADDAA101000095GA1085+010365999GD14991+0103659GE19MSL   +99999+99999GF199999999999010361999999MA1101325098945REMMET09901/03/15 09:53:02 METAR KLSE 031553Z 12005KT 7SM OVC034 M01/M04 A2992 RMK AO2 SLP146 T10111039 (JK)
0236726430149202015010316207+43879-091253FM-16+0200KLSE V0301405N00215003965MN0112655N5-00065-00335999999ADDGA1075+003965999GA2085+010365999GD13991+0039659GD24991+0103659GE19MSL   +99999+99999GF199999999999003961999999MA1101325098945REMMET09901/03/15 10:20:02 SPECI KLSE 031620Z 14004KT 7SM BKN013 OVC034 M01/M03 A2992 RMK AO2 T10061033 (JK)
0241726430149202015010316537+43879-091253FM-15+0200KLSE V0301705N00365003355MN0096565N5+00005-00285101365ADDAA101000095AU100007015AW1051GA1085+003355999GD14991+0033559GE19MSL   +99999+99999GF199999999999003351999999MA1101225098845MW1055REMMET10101/03/15 10:53:02 METAR KLSE 031653Z 17007KT 6SM HZ OVC011 00/M03 A2989 RMK AO2 SLP136 T00001028 (DG)
0299726430149202015010317537+43879-091253FM-15+0200KLSE V0302105N00265003355MN0080475N5+00005-00285101305ADDAA101000095AU100007015AW1051GA1085+003355999GD14991+0033559GE19MSL   +99999+99999GF199999999999003351999999KA1060M+00001KA2060N-00221MA1101155098775MD1890219+9999MW1055REMMET11901/03/15 11:53:02 METAR KLSE 031753Z 21005KT 5SM HZ OVC011 00/M03 A2987 RMK AO2 SLP130 T00001028 10000 21022 58021 (DG)
0202726430149202015010318516+43879-091253FM-16+0200KLSE V0309999C00005010065MN0080475N5+00005-00305999999ADDAU100007015GA1045+003055999GA2085+010065999GD12991+0030559GD24991+0100659MA1101085098715MW1055REMMET09601/03/15 12:51:02 SPECI KLSE 031851Z 00000KT 5SM HZ SCT010 OVC033 00/M03 A2985 RMK AO2 FIBI (DG)
0279726430149202015010318537+43879-091253FM-15+0200KLSE V0301805N00155010065MN0080475N5+00005-00285101215ADDAA101000095AU100007015AW1051GA1045+003055999GA2085+010065999GD12991+0030559GD24991+0100659GE19MSL   +99999+99999GF199999999999003051999999MA1101085098715MW1055REMMET10801/03/15 12:53:02 METAR KLSE 031853Z 18003KT 5SM HZ SCT010 OVC033 00/M03 A2985 RMK AO2 SLP121 T00001028 (DG)
0279726430149202015010319537+43879-091253FM-15+0200KLSE V0309999C00005004275MN0096565N5+00065-00225101155ADDAA101000095AU100007015AW1051GA1075+004275999GA2085+010365999GD13991+0042759GD24991+0103659GE19MSL   +99999+99999GF199999999999004271999999MA1101025098645MW1055REMMET10801/03/15 13:53:02 METAR KLSE 031953Z 00000KT 6SM HZ BKN014 OVC034 01/M02 A2983 RMK AO2 SLP115 T00061022 (DG)
0280726430149202015010320087+43879-091253FM-16+0200KLSE V0309999C000052200059N0096565N5+00065-00285999999ADDAU100007015AW1051GA1045+003965999GA2045+010365999GD12991+0039659GD22991+0103659GE19AGL   +99999+99999GF104995999999003961999999MA1100985098615MW1055REMMET10101/03/15 14:08:02 SPECI KLSE 032008Z 00000KT 6SM HZ SCT013 SCT034 01/M03 A2982 RMK AO2 T00061028 (DG)EQDD01      0ADE726
0223726430149202015010320447+43879-091253FM-16+0200KLSE V0303305N00155003965MN0080475N5+00065-00285999999ADDAU100007015AW1051GA1075+003965999GD13991+0039659GE19MSL   +99999+99999GF199999999999003961999999MA1101025098645MW1055REMMET09401/03/15 14:44:02 SPECI KLSE 032044Z 33003KT 5SM HZ BKN013 01/M03 A2983 RMK AO2 T00061028 (DG)
0261726430149202015010320537+43879-091253FM-15+0200KLSE V0303305N00155003965MN0096565N5+00115-00285101125ADDAA101000095AU100007015AW1051GA1075+003965999GD13991+0039659GE19MSL   +99999+99999GF199999999999003961999999MA1101025098645MD1690169+9999MW1055REMMET10701/03/15 14:53:02 METAR KLSE 032053Z 33003KT 6SM HZ BKN013 01/M03 A2983 RMK AO2 SLP112 T00111028 56016 (DG)
0241726430149202015010321537+43879-091253FM-15+0200KLSE V0302705N00215004275MN0080475N5+00005-00285101235ADDAA101000095AU100007015AW1051GA1085+004275999GD14991+0042759GE19MSL   +99999+99999GF199999999999004271999999MA1101125098745MW1055REMMET10101/03/15 15:53:02 METAR KLSE 032153Z 27004KT 5SM HZ OVC014 00/M03 A2986 RMK AO2 SLP123 T00001028 (DG)
0255726430149202015010322537+43879-091253FM-15+0200KLSE V0300505N001552200059N0080475N5-00115-00335101235ADDAA101000095AU100001015AW1105GA1045+003965999GD12991+0039659GE19AGL   +99999+99999GF104995999999003961999999MA1101125098745REMMET10201/03/15 16:53:02 METAR KLSE 032253Z 05003KT 5SM BR SCT013 M01/M03 A2986 RMK AO2 SLP123 T10111033 (FD)EQDD01      0ADE726
0269726430149202015010323537+43879-091253FM-15+0200KLSE V0303105N002152200059N0064375N5-00285-00445101235ADDAA101000095AU100001015AW1105GA1005+999999999GD10991+9999999GF100991999999999999999999KA1060M+00111KA2060N-00281MA1101085098715MD1090089+9999REMMET11701/03/15 17:53:02 METAR KLSE 032353Z 31004KT 4SM BR CLR M03/M04 A2985 RMK AO2 SLP123 T10281044 10011 21028 50008 (FD)
0213726430149202015010400207+43879-091253FM-16+0200KLSE V0303005N00155004885MN0064375N5-00285-00445999999ADDAU100001015AW1105GA1075+004885999GD13991+0048859GE19MSL   +99999+99999GF199999999999004881999999MA1101125098745REMMET09001/03/15 18:20:01 SPECI KLSE 040020Z 30003KT 4SM BR BKN016 M03/M04 A2986 RMK AO2 T10281044
0231726430149202015010400537+43879-091253FM-15+0200KLSE V0309999C00005004885MN0064375N5-00335-00445101255ADDAA101000095AU100001015AW1105GA1075+004885999GD13991+0048859GE19MSL   +99999+99999GF199999999999004881999999MA1101125098745REMMET09701/03/15 18:53:01 METAR KLSE 040053Z 00000KT 4SM BR BKN016 M03/M04 A2986 RMK AO2 SLP125 T10331044
0213726430149202015010401157+43879-091253FM-16+0200KLSE V0309999C00005004575MN0032195N5-00395-00615999999ADDAU100001015AW1105GA1075+004575999GD13991+0045759GE19MSL   +99999+99999GF199999999999004571999999MA1101155098775REMMET09001/03/15 19:15:01 SPECI KLSE 040115Z 00000KT 2SM BR BKN015 M04/M06 A2987 RMK AO2 T10391061
0232726430149202015010401297+43879-091253FM-16+0200KLSE V0303605N00215004575MN0028165N5-00445-00615999999ADDAU100001015AW1105GA1085+004575999GD14991+0045759GE19MSL   +99999+99999GF199999999999004571999999MA1101125098745WA1900099REMMET10001/03/15 19:29:01 SPECI KLSE 040129Z 36004KT 1 3/4SM BR OVC015 M04/M06 A2986 RMK AO2 I1000 T10441061
0228726430149202015010401357+43879-091253FM-16+0200KLSE V0303505N00215004575MN0048285N5-00445-00565999999ADDAU100001015AW1105GA1085+004575999GD14991+0045759GE19MSL   +99999+99999GF199999999999004571999999MA1101155098775WA1900099REMMET09601/03/15 19:35:01 SPECI KLSE 040135Z 35004KT 3SM BR OVC015 M04/M06 A2987 RMK AO2 I1000 T10441056
0246726430149202015010401537+43879-091253FM-15+0200KLSE V0300105N00215004885MN0048285N5-00445-00615101285ADDAA101000095AU100001015AW1105GA1075+004885999GD13991+0048859GE19MSL   +99999+99999GF199999999999004881999999MA1101155098775WA1900099REMMET10301/03/15 19:53:02 METAR KLSE 040153Z 01004KT 3SM BR BKN016 M04/M06 A2987 RMK AO2 SLP128 I1000 T10441061
0304726430149202015010402537+43879-091253FM-15+0200KLSE V0309999C00005004575MN0080475N5-00225-00395101265ADDAA101000095AU100001015AW1105GA1075+004575999GA2085+007625999GD13991+0045759GD24991+0076259GE19MSL   +99999+99999GF199999999999004571999999MA1101125098745MD1090039+9999WA1900099REMMET11601/03/15 20:53:02 METAR KLSE 040253Z 00000KT 5SM BR BKN015 OVC025 M02/M04 A2986 RMK AO2 SLP126 I3000 T10221039 50003
0231726430149202015010403537+43879-091253FM-15+0200KLSE V0302505N00155006405MN0064375N5-00175-00335101395ADDAA101000095AU100001015AW1105GA1085+006405999GD14991+0064059GE19MSL   +99999+99999GF199999999999006401999999MA1101255098875REMMET09701/03/15 21:53:02 METAR KLSE 040353Z 25003KT 4SM BR OVC021 M02/M03 A2990 RMK AO2 SLP139 T10171033
0231726430149202015010404537+43879-091253FM-15+0200KLSE V0300205N00265006105MN0080475N5-00175-00335101365ADDAA101000095AU100001015AW1105GA1085+006105999GD14991+0061059GE19MSL   +99999+99999GF199999999999006101999999MA1101255098875REMMET09701/03/15 22:53:02 METAR KLSE 040453Z 02005KT 5SM BR OVC020 M02/M03 A2990 RMK AO2 SLP136 T10171033
0340726430149202015010405537+43879-091253FM-15+0200KLSE V0303405N00465006105MN0080475N5-00115-00335101295ADDAA101000095AU100001015AW1105GA1085+006105999GD14991+0061059GE19MSL   +99999+99999GF199999999999006101999999KA1060M-00111KA2060N-00501KA3240M+00111KA4240N-00501MA1101195098815MD1090059+9999WA1900099REMMET13101/03/15 23:53:02 METAR KLSE 040553Z 34009KT 5SM BR OVC020 M01/M03 A2988 RMK AO2 SLP129 I6000 T10111033 11011 21050 400111050 50005
1040726430149202015010405596+43879-091253SOD  +0200KLSE V030999999999999999999999999999+99999+99999999999ADDAA124001895AJ100059599999999AN1024003895AT1AU18SN  5AT2AU13BR  5AT3AU08HZ  5AX1015245AX2085245KA1240M+00115KA2240N-00495KG1024W-0022D4KG2024D-0039D4MF1098814101424MG1098814101084OE11240084914099995OE22240071515099995OE33240021999999995RH1024X092D4RH2024N066D4RH3024M085D4REMSOD75724 HR PRECIPITATION (IN): 0.07 SNOW DEPTH (IN):2     24 HR SNOWFALL (IN):1.5  WEATHER(CODE):18  24 HR MAX TEMP (F): 3424 HR MIN TEMP (F): 23AVERAGE STATION PRESSURE:29.180 MINIMUM SEA LEVEL PRESSURE:29.85 TIME OF OCCURRENCE:1456 PEAK WIND SPEED (MPH): 19 PEAK WIND DIR (DEG):140 PEAK WIND TIME (LST):      FASTEST 2MIN SPEED (MPH): 16FASTEST 2MIN DIR (DEG):150 FASTEST 2MIN TIME (LST):     AVERAGE WIND SPEED (MPH): 4.9 24 HR AVG TEMP (F): 29DEPART FROM NORMAL: 11  HEATING DEGREE DAYS: 36 COOLING DEGREE DAYS:  0 LATEST DAY MAX TEMP (0700-1900 LST):34  LATEST NIGHT MIN TEMP(1900-0800 LST):23 HOURLY INCREMENTAL PRECIPITATION VALUES (IN):.00 0.03 0.04 0.00 0.00 0.00 0.00 0.00 0.00 0.00 0.00 0.00 0.00 0.00 0.00 0.00 0.00 0.00 0.00 0.00 0.00 0.00 0.00 0.00
0325726430149202015010406537+43879-091253FM-15+0200KLSE V0303405N01035004885MN0144845N5-00395-00675101345ADDAA101000025AU110030015AW1715GA1045+003055999GA2085+004885999GD12991+0030559GD24991+0048859GE19MSL   +99999+99999GF199999999999003051999999MA1101195098815OC101345OD149901391350REMMET13801/04/15 00:53:02 METAR KLSE 040653Z 34020G26KT 9SM -SN SCT010 OVC016 M04/M07 A2988 RMK AO2 PK WND 35027/0643 SNB48 SLP134 P0000 T10391067
0316726430149202015010407307+43879-091253FM-16+0200KLSE V0303405N00675007925MN0028165N5-00565-00835999999ADDAA101000021AU110030015AW1715GA1025+004275999GA2085+007925999GD11991+0042759GD24991+0079259GE19MSL   +99999+99999GF199999999999004271999999MA1101295098915OC101495OD149901491340REMMET12901/04/15 01:30:02 SPECI KLSE 040730Z 34013G29KT 1 3/4SM -SN FEW014 OVC026 M06/M08 A2991 RMK AO2 PK WND 34029/0722 P0000 T10561083
0325726430149202015010407447+43879-091253FM-16+0200KLSE V0303405N00775003665MN0020125N5-00615-00835999999ADDAA101000021AU110030015AU200001015AW1105AW2715GA1075+003665999GA2085+008535999GD13991+0036659GD24991+0085359GE19MSL   +99999+99999GF199999999999003661999999MA1101325098945OD149901491340REMMET12901/04/15 01:44:02 SPECI KLSE 040744Z 34015KT 1 1/4SM -SN BR BKN012 OVC028 M06/M08 A2992 RMK AO2 PK WND 34029/0722 P0000 T10611083
0289726430149202015010407537+43879-091253FM-15+0200KLSE V0303305N00625003665WN0016095N5-00615-00835101475ADDAA101000025AU110030015AU200001015AW1105AW2715GA1095+003665999GD15991+0036659GE19MSL   +99999+99999GF109991999999003661999999MA1101325098945OD149901491340REMMET12401/04/15 01:53:02 METAR KLSE 040753Z 33012KT 1SM -SN BR VV012 M06/M08 A2992 RMK AO2 PK WND 34029/0722 SLP147 P0000 T10611083
0255726430149202015010408347+43879-091253FM-16+0200KLSE V0303205N00775004885MN0028165N5-00675-00895999999ADDAA101000531AU110030015AU200001015AW1105AW2715GA1085+004885999GD14991+0048859GE19MSL   +99999+99999GF199999999999004881999999MA1101465099075REMMET10401/04/15 02:34:02 SPECI KLSE 040834Z 32015KT 1 3/4SM -SN BR OVC016 M07/M09 A2996 RMK AO2 P0002 T10671089
0235726430149202015010408437+43879-091253FM-16+0200KLSE V0303305N00625004275MN0024145N5-00675-00945999999ADDAA101000531AU110030015AW1715GA1085+004275999GD14991+0042759GE19MSL   +99999+99999GF199999999999004271999999MA1101465099075REMMET10101/04/15 02:43:02 SPECI KLSE 040843Z 33012KT 1 1/2SM -SN OVC014 M07/M09 A2996 RMK AO2 P0002 T10671094
0318726430149202015010408537+43879-091253FM-15+0200KLSE V0303205N00825004275MN0020125N5-00725-00945101625ADDAA101000895AA203000891AU110030015AU200001015AW1105AW2715GA1085+004275999GD14991+0042759GE19MSL   +99999+99999GF199999999999004271999999MA1101495099115MD1390299+9999REMMET12301/04/15 02:53:02 METAR KLSE 040853Z 32016KT 1 1/4SM -SN BR OVC014 M07/M09 A2997 RMK AO2 SLP162 P0003 60003 T10721094 53029EQDQ01  00078PRCP03
0262726430149202015010409537+43879-091253FM-15+0200KLSE V0303305N00885003965MN0024145N5-00835-01065101745ADDAA101000595AU110030015AU200001015AW1105AW2715GA1085+003965999GD14991+0039659GE19MSL   +99999+99999GF199999999999003961999999MA1101595099215REMMET11101/04/15 03:53:02 METAR KLSE 040953Z 33017KT 1 1/2SM -SN BR OVC013 M08/M11 A3000 RMK AO2 SLP174 P0002 T10831106
0235726430149202015010410117+43879-091253FM-16+0200KLSE V0303305N00775004575MN0024145N5-00835-01115999999ADDAA101000021AU110030015AW1715GA1085+004575999GD14991+0045759GE19MSL   +99999+99999GF199999999999004571999999MA1101635099245REMMET10101/04/15 04:11:02 SPECI KLSE 041011Z 33015KT 1 1/2SM -SN OVC015 M08/M11 A3001 RMK AO2 P0000 T10831111
0246726430149202015010410227+43879-091253FM-16+0200KLSE V0303305N00885004275MN0024145N5-00895-01175999999ADDAA101000021AU110030015AW1715GA1085+004275999GD14991+0042759GE19MSL   +99999+99999GF199999999999004271999999MA1101635099245OC101135REMMET10401/04/15 04:22:02 SPECI KLSE 041022Z 33017G22KT 1 1/2SM -SN OVC014 M09/M12 A3001 RMK AO2 P0000 T10891117
0242726430149202015010410537+43879-091253FM-15+0200KLSE V0303305N00775003965MN0024145N5-00945-01225101875ADDAA101000395AU110030015AW1715GA1085+003965999GD14991+0039659GE19MSL   +99999+99999GF199999999999003961999999MA1101695099315REMMET10801/04/15 04:53:02 METAR KLSE 041053Z 33015KT 1 1/2SM -SN OVC013 M09/M12 A3003 RMK AO2 SLP187 P0001 T10941122
0274726430149202015010411317+43879-091253FM-16+0200KLSE V0303305N00985004885MN0032195N5-01005-01335999999ADDAA101000231AU110030015AW1715GA1085+004885999GD14991+0048859GE19MSL   +99999+99999GF199999999999004881999999MA1101765099375OC101395OD149901391330REMMET11801/04/15 05:31:02 SPECI KLSE 041131Z 33019G27KT 2SM -SN OVC016 M10/M13 A3005 RMK AO2 PK WND 33027/1124 P0001 T11001133
0411726430149202015010411537+43879-091253FM-15+0200KLSE V0303305N00885006105MN0048285N5-01065-01395101955ADDAA101000395AA206001891AA324001891AU110030015AU225030015AW1275AW2715GA1085+006105999GD14991+0061059GE19MSL   +99999+99999GF199999999999006101999999KA1060M-00111MA1101765099375MD1190299+9999OD149901391330REMMET16201/04/15 05:53:02 METAR KLSE 041153Z 33017KT 3SM -SN BLSN OVC020 M11/M14 A3005 RMK AO2 PK WND 33027/1124 SLP195 P0001 60007 70007 T11061139 11011 21106 51029 (DG)EQDQ01  00178PRCP06Q02  00178PRCP24
0262726430149202015010412137+43879-091253FM-16+0200KLSE V0303405N00985006105MN0040235N5-01065-01395999999ADDAA101000021AU110030015AU225030015AW1275AW2715GA1085+006105999GD14991+0061059GE19MSL   +99999+99999GF199999999999006101999999MA1101795099405REMMET11101/04/15 06:13:02 SPECI KLSE 041213Z 34019KT 2 1/2SM -SN BLSN OVC020 M11/M14 A3006 RMK AO2 P0000 T11061139 (DG)
0269726430149202015010412447+43879-091253FM-16+0200KLSE V0303405N00675007625MN0048285N5-01115-01505999999ADDAA101000021AU110030015AU225030015AW1275AW2715GA1085+007625999GD14991+0076259GE19MSL   +99999+99999GF199999999999007621999999MA1101865099475OC101245REMMET11001/04/15 06:44:02 SPECI KLSE 041244Z 34013G24KT 3SM -SN BLSN OVC025 M11/M15 A3008 RMK AO2 P0000 T11111150 (DG)
0265726430149202015010412537+43879-091253FM-15+0200KLSE V0303405N00885008235MN0048285N5-01175-01505102075ADDAA101000025AU110030015AU225030015AW1275AW2715GA1085+008235999GD14991+0082359GE19MSL   +99999+99999GF199999999999008231999999MA1101905099505REMMET11401/04/15 06:53:02 METAR KLSE 041253Z 34017KT 3SM -SN BLSN OVC027 M12/M15 A3009 RMK AO2 SLP207 P0000 T11171150 (DG)
0258726430149202015010413037+43879-091253FM-16+0200KLSE V0303405N01035009455MN0048285N5-01175-01565999999ADDAA101000021AU110030015AU225030015AW1275AW2715GA1085+009455999GD14991+0094559GE19MSL   +99999+99999GF199999999999009451999999MA1101905099505REMMET10701/04/15 07:03:02 SPECI KLSE 041303Z 34020KT 3SM -SN BLSN OVC031 M12/M16 A3009 RMK AO2 P0000 T11171156 (DG)
0348726430149202015010413537+43879-091253FM-15+0200KLSE V0303305N00775014025MN0160935N5-01225-01675102295ADDAA101000395GA1075+014025999GA2075+021345999GA3085+025915999GD13991+0140259GD23991+0213459GD34991+0259159GE19MSL   +99999+99999GF199999999999014021999999MA1102105099705OC101085OD149901331330REMMET14701/04/15 07:53:02 METAR KLSE 041353Z 33015G21KT 10SM BKN046 BKN070 OVC085 M12/M17 A3015 RMK AO2 PK WND 33026/1316 SNE37 SLP229 P0001 T11221167 (DG)
0375726430149202015010414537+43879-091253FM-15+0200KLSE V0303405N00985028965MN0160935N5-01335-01895102465ADDAA101000025AA203000391GA1025+007625999GA2025+016765999GA3085+028965999GD11991+0076259GD21991+0167659GD34991+0289659GE19MSL   +99999+99999GF199999999999007621999999MA1102275099875MD1390489+9999OC101245REMMET14401/04/15 08:53:02 METAR KLSE 041453Z 34019G24KT 10SM FEW025 FEW055 OVC095 M13/M19 A3020 RMK AO2 SNB11E30 SLP246 P0000 60001 T11331189 53048 (DG)EQDQ01  00028PRCP03
0236726430149202015010415537+43879-091253FM-15+0200KLSE V0303405N008852200059N0160935N5-01395-02065102555ADDAA101000095GA1045+036585999GD12991+0365859GE19AGL   +99999+99999GF104995999999036581999999MA1102345099945REMMET10001/04/15 09:53:02 METAR KLSE 041553Z 34017KT 10SM SCT120 M14/M21 A3022 RMK AO2 SLP255 T11391206 (DG)EQDD01      0ADE726
0224726430149202015010416537+43879-091253FM-15+0200KLSE V0303305N009852200059N0160935N5-01445-02175102655ADDAA101000095GA1005+999999999GD10991+9999999GF100991999999999999999999MA1102445100045OD149901331330REMMET11501/04/15 10:53:02 METAR KLSE 041653Z 33019KT 10SM CLR M14/M22 A3025 RMK AO2 PK WND 33026/1619 SLP265 T11441217 (DG)
0311726430149202015010417537+43879-091253FM-15+0200KLSE V0303305N008252200059N0160935N5-01395-02175102715ADDAA101000095AA206000391GA1025+036585999GD11991+0365859GE19AGL   +99999+99999GF102995999999036581999999KA1060M-01061KA2060N-01501MA1102515100105MD1190259+9999REMMET12401/04/15 11:53:02 METAR KLSE 041753Z 33016KT 10SM FEW120 M14/M22 A3027 RMK AO2 SLP271 60001 T11391217 11106 21150 51025 (DG)EQDD01      0ADE726
0255726430149202015010418537+43879-091253FM-15+0200KLSE V0303105N00675036585MN0160935N5-01505-02175102745ADDAA101000095GA1045+030485999GA2085+036585999GD12991+0304859GD24991+0365859GE19MSL   +99999+99999GF199999999999030481999999MA1102545100145REMMET10701/04/15 12:53:02 METAR KLSE 041853Z 31013KT 10SM SCT100 OVC120 M15/M22 A3028 RMK AO2 SLP274 T11501217 (DG)
0192726430149202015010419537+43879-091253FM-15+0200KLSE V0303105N007252200059N0160935N5-01445-02225102865ADDAA101000095GA1005+999999999GD10991+9999999GF100991999999999999999999MA1102645100245REMMET09701/04/15 13:53:02 METAR KLSE 041953Z 31014KT 10SM CLR M14/M22 A3031 RMK AO2 SLP286 T11441222 (FD)
0212726430149202015010420537+43879-091253FM-15+0200KLSE V0303105N007752200059N0160935N5-01445-02285102985ADDAA101000095GA1005+999999999GD10991+9999999GF100991999999999999999999MA1102745100335MD1390249+9999REMMET10301/04/15 14:53:02 METAR KLSE 042053Z 31015KT 10SM CLR M14/M23 A3034 RMK AO2 SLP298 T11441228 53024 (FD)
0192726430149202015010421537+43879-091253FM-15+0200KLSE V0303205N007752200059N0160935N5-01505-02335103155ADDAA101000095GA1005+999999999GD10991+9999999GF100991999999999999999999MA1102915100505REMMET09701/04/15 15:53:02 METAR KLSE 042153Z 32015KT 10SM CLR M15/M23 A3039 RMK AO2 SLP315 T11501233 (FD)
0192726430149202015010422537+43879-091253FM-15+0200KLSE V0302805N007252200059N0160935N5-01615-02395103295ADDAA101000095GA1005+999999999GD10991+9999999GF100991999999999999999999MA1103015100605REMMET09701/04/15 16:53:02 METAR KLSE 042253Z 28014KT 10SM CLR M16/M24 A3042 RMK AO2 SLP329 T11611239 (FD)
0250726430149202015010423537+43879-091253FM-15+0200KLSE V0303005N006252200059N0160935N5-01725-02445103405ADDAA101000095GA1005+999999999GD10991+9999999GF100991999999999999999999KA1060M-01391KA2060N-01721MA1103125100705MD1190379+9999REMMET11501/04/15 17:53:02 METAR KLSE 042353Z 30012KT 10SM CLR M17/M24 A3045 RMK AO2 SLP340 T11721244 11139 21172 51037 (FD)
0187726430149202015010500537+43879-091253FM-15+0200KLSE V0302905N006252200059N0160935N5-01725-02445103505ADDAA101000095GA1005+999999999GD10991+9999999GF100991999999999999999999MA1103255100835REMMET09201/04/15 18:53:01 METAR KLSE 050053Z 29012KT 10SM CLR M17/M24 A3049 RMK AO2 SLP350 T11721244
0187726430149202015010501537+43879-091253FM-15+0200KLSE V0303005N005752200059N0160935N5-01785-02445103585ADDAA101000095GA1005+999999999GD10991+9999999GF100991999999999999999999MA1103285100875REMMET09201/04/15 19:53:01 METAR KLSE 050153Z 30011KT 10SM CLR M18/M24 A3050 RMK AO2 SLP358 T11781244
0194726430149202015010502407+43879-091253FM-16+0200KLSE V0303005N00625007925MN0160935N5-01785-02445999999ADDGA1075+007925999GD13991+0079259GE19MSL   +99999+99999GF199999999999007921999999MA1103325100905REMMET08801/04/15 20:40:02 SPECI KLSE 050240Z 30012KT 10SM BKN026 M18/M24 A3051 RMK AO2 T11781244
0146726430149202015010502516+43879-091253FM-16+0200KLSE V0302905N005152200059N0160935N5-01805-02405999999ADDGA1045+007925999GD12991+0079259MA1103325100905REMMET08801/04/15 20:51:03 SPECI KLSE 050251Z 29010KT 10SM SCT026 M18/M24 A3051 RMK AO2 FIBI (FD)
0251726430149202015010502537+43879-091253FM-15+0200KLSE V0302905N005152200059N0160935N5-01835-02445103625ADDAA101000095GA1045+007925999GD12991+0079259GE19AGL   +99999+99999GF104995999999007921999999MA1103325100905MD1190209+9999REMMET10101/04/15 20:53:02 METAR KLSE 050253Z 29010KT 10SM SCT026 M18/M24 A3051 RMK AO2 SLP362 T11831244 51020EQDD01      0ADE726
0187726430149202015010503537+43879-091253FM-15+0200KLSE V0303105N005152200059N0160935N5-01895-02505103635ADDAA101000095GA1005+999999999GD10991+9999999GF100991999999999999999999MA1103355100935REMMET09201/04/15 21:53:02 METAR KLSE 050353Z 31010KT 10SM CLR M19/M25 A3052 RMK AO2 SLP363 T11891250
0187726430149202015010504537+43879-091253FM-15+0200KLSE V0302905N004152200059N0160935N5-01895-02505103675ADDAA101000095GA1005+999999999GD10991+9999999GF100991999999999999999999MA1103395100975REMMET09201/04/15 22:53:02 METAR KLSE 050453Z 29008KT 10SM CLR M19/M25 A3053 RMK AO2 SLP367 T11891250
0281726430149202015010505537+43879-091253FM-15+0200KLSE V0302805N003152200059N0160935N5-01945-02445103725ADDAA101000095GA1005+999999999GD10991+9999999GF100991999999999999999999KA1060M-01721KA2060N-01941KA3240M-00111KA4240N-01941MA1103425101005MD1390089+9999REMMET12001/04/15 23:53:02 METAR KLSE 050553Z 28006KT 10SM CLR M19/M24 A3054 RMK AO2 SLP372 T11941244 11172 21194 410111194 53008
1101726430149202015010505596+43879-091253SOD  +0200KLSE V030999999999999999999999999999+99999+99999999999ADDAA124003395AJ100109599999999AN1024004695AT1AU18SN  5AT2AU13BR  5AT3AU09BLSN5AX1016246AX2086246AX3096246KA1240M-00105KA2240N-01995KG1024W-0144D4KG2024D-0189D4MF1100304102714MG1100294101254OE11240147534099995OE22240111832099995OE33240072999999995RH1024X085D4RH2024N049D4RH3024M063D4REMSOD75824 HR PRECIPITATION (IN): 0.13 SNOW DEPTH (IN):4     24 HR SNOWFALL (IN):1.8  WEATHER(CODE):189  24 HR MAX TEMP (F): 3024 HR MIN TEMP (F): -4AVERAGE STATION PRESSURE:29.615 MINIMUM SEA LEVEL PRESSURE:29.90 TIME OF OCCURRENCE:0020 PEAK WIND SPEED (MPH): 33 PEAK WIND DIR (DEG):340 PEAK WIND TIME (LST):      FASTEST 2MIN SPEED (MPH): 25FASTEST 2MIN DIR (DEG):320 FASTEST 2MIN TIME (LST):     AVERAGE WIND SPEED (MPH):16.3 24 HR AVG TEMP (F): 13DEPART FROM NORMAL: -5  HEATING DEGREE DAYS: 52 COOLING DEGREE DAYS:  0 LATEST DAY MAX TEMP (0700-1900 LST):11  LATEST NIGHT MIN TEMP(1900-0800 LST):10 HOURLY INCREMENTAL PRECIPITATION VALUES (IN):    T    0.03 0.02 0.01 0.01 T    0.01 T    0.00 0.00 0.00 0.00 0.00 0.00 0.00 0.00 0.00 0.00 0.00 0.00 0.00 0.00 0.00EQDR01   1897AXW093R02   1897AXW093R03   1897AXW093
0187726430149202015010506537+43879-091253FM-15+0200KLSE V0302805N004152200059N0160935N5-01945-02505103755ADDAA101000095GA1005+999999999GD10991+9999999GF100991999999999999999999MA1103455101035REMMET09201/05/15 00:53:02 METAR KLSE 050653Z 28008KT 10SM CLR M19/M25 A3055 RMK AO2 SLP375 T11941250
0187726430149202015010507537+43879-091253FM-15+0200KLSE V0302805N004652200059N0160935N5-02005-02565103815ADDAA101000095GA1005+999999999GD10991+9999999GF100991999999999999999999MA1103525101105REMMET09201/05/15 01:53:02 METAR KLSE 050753Z 28009KT 10SM CLR M20/M26 A3057 RMK AO2 SLP381 T12001256